:100000000C94D0000C94EF010C941C020C94490247
:100010000C94ED000C94ED000C94ED000C94ED00AC
:100020000C94ED000C94ED000C94EE040C94ED0097
:100030000C94ED000C947B060C94ED000C94ED00F8
:100040000C94ED000C94ED000C94ED000C94ED007C
:100050000C94ED00444F4E452100454552504F4D04
:100060002054455354000A446F6E65210A000A5219
:10007000656164696E67207772697474656E206D5E
:10008000656D6F7279202D20737465702062792000
:10009000737465703A0A000A446F6E65210A000A9B
:1000A00057726974696E672031323820746F20622C
:1000B000797465207769746820616464726573730C
:1000C00020343A0A000A446F6E65210A000A446F20
:1000D0006E65210A52656164696E67207772697482
:1000E00074656E206D656D6F72793A0A000A0A5761
:1000F000726974696E6720454550524F4D206D6599
:100100006D6F72793A0A000A446F6E65210A000A1F
:1001100052656164696E67206D656D6F72792062EA
:1001200065666F7265207772697465206F7065729D
:100130006174696F6E3A0A004578616D706C652074
:1001400050726F6772616D0053504920454550529F
:100150004F4D00232323232323232323232323233C
:100160002323230023232323232323232323232382
:1001700023232323000A0A525036436F6E74726F92
:100180006C2053504920454550524F4D20457861D1
:100190006D706C652050726F6772616D210A00008E
:1001A00011241FBECFE5D8E0DEBFCDBF10E0A0E632
:1001B000B0E0E4E6FFE002C005900D92A636B1077C
:1001C000D9F711E0A6E6B0E001C01D92AA37B10749
:1001D000E1F70E94EF000C94B0070C9400000F931D
:1001E0001F93CF93DF930E94D60585E791E00E948D
:1001F00062068FE00E944D0382E390E00E94C105F9
:100200000E948E0384E691E063E571E00E944D0454
:1002100084E668E270E00E94970588E690E00E941C
:10022000C1058AEA68E270E00E94970588E290E0E2
:100230000E94C10580E991E00E94C10580E00E9412
:100240004D0388E491E068E371E00E944D0488EE7C
:1002500093E00E94C1058FE091E00E94620680E079
:1002600090E060E770E04FE70E94CB0200E710E00B
:10027000E801899190E06AE00E940A078CE20E94FE
:10028000540680E0CF3ED807A1F787E091E00E94B6
:1002900062068DEE90E00E946206C0E0D0E0FE01B2
:1002A000E051FF4FC083CE016AE00E940A078CE252
:1002B0000E9454062196C034D10589F780E090E071
:1002C00060EF70E040E40E94FC020E94F00280FDBA
:1002D000FCCF8DEC90E00E94620680E090E060E749
:1002E00070E04FE70E94CB02F80181918F0190E00E
:1002F0006AE00E940A078CE20E945406F0E00F3E7A
:100300001F0791F785EC90E00E9462068FE990E06C
:100310000E94620684E090E060E80E9428030E9448
:10032000F00280FDFCCF87E990E00E9462068EE635
:1003300090E00E946206C0E0D0E0CE010E94BB02C5
:1003400090E06AE00E940A078CE20E94540621961F
:10035000CF37D10591F786E690E00E94620686E9E4
:1003600064E170E00E94970584E590E00E94C10579
:1003700086E968E270E00E94970588E290E00E94BA
:10038000C1058AE590E064E570E00E944D0480912B
:10039000420181608093420111E000E080914301BD
:1003A0009091440185369105C8F3812F0E944D0339
:1003B000002311F4110F01C01695183010F001E060
:1003C00003C0123008F400E010924401109243017F
:1003D000E5CF0895909365008093640008951F927F
:1003E0000F920FB60F9211242F933F934F935F9369
:1003F0006F937F938F939F93AF93BF93EF93FF93ED
:10040000E0916400F09165000995FF91EF91BF9133
:10041000AF919F918F917F916F915F914F913F919C
:100420002F910F900FBE0F901F90189508959093E5
:1004300063008093620008951F920F920FB60F928F
:1004400011242F933F934F935F936F937F938F93D9
:100450009F93AF93BF93EF93FF93E0916200F0916E
:1004600063000995FF91EF91BF91AF919F918F919B
:100470007F916F915F914F913F912F910F900FBEA0
:100480000F901F90189508959093610080936000DD
:1004900008951F920F920FB60F9211242F933F933E
:1004A0004F935F936F937F938F939F93AF93BF937C
:1004B000EF93FF93E0916000F09161000995FF9147
:1004C000EF91BF91AF919F918F917F916F915F91CC
:1004D0004F913F912F910F900FBE0F901F90189545
:1004E000369B03C020E030E009C0806487B986ED08
:1004F00086B93699FECF349A24B135B1C901089531
:100500008FB9779BFECF08958FEF8FB9779BFECF82
:100510008FB108958FEF8FB9779BFECF3FB18FEFEB
:100520008FB9779BFECF2FB1932F80E030E0282B3F
:10053000392BC90108959FB9779BFECF8FB9779B5F
:10054000FECF0895FC0190E006C080818FB9779BB3
:10055000FECF9F5F31969617C0F30895FC0190E09F
:100560002FEF06C02FB9779BFECF8FB181939F5F8E
:100570009617C0F308959C01C09883E08FB9779BCC
:10058000FECFC9010E949B028FEF8FB9779BFECFF0
:100590008FB1C09A08951F93CF93DF939C01EB0115
:1005A000142FC09883E08FB9779BFECFC9010E94BA
:1005B0009B02CE01612F0E94AE02C09ADF91CF91C3
:1005C0001F910895C09886E08FB9779BFECFC09A9F
:1005D0000895C09884E08FB9779BFECFC09A0895A4
:1005E000C09885E08FB9779BFECF8FEF8FB9779B4F
:1005F000FECF8FB1C09A0895FF920F931F93CF93B0
:10060000DF93EC01162F072FF42E0E94F00280FDDD
:10061000FCCF0E94E202C09882E08FB9779BFECFA8
:10062000CE010E949B02812F902F9C01F90190E046
:1006300006C080818FB9779BFECF9F5F31969F1553
:10064000C0F3C09ADF91CF911F910F91FF90089551
:100650001F93CF93DF93EC01162F0E94F00280FDD1
:10066000FCCF0E94E202C09882E08FB9779BFECF58
:10067000CE010E949B021FB9779BFECFC09ADF91EB
:10068000CF911F910895809153018FB9779BFECF31
:10069000949A00000000949808958F7090915301EF
:1006A000907F982B909353010E9443030895829565
:1006B000807F909153019F70982B909353010E94DB
:1006C0004303C49A82E390E001C0000001972FEF3A
:1006D0008F3F9207D1F7C49808951F93182F8295E2
:1006E0008F700E945703812F0E94570386E990E084
:1006F00001C0000001972FEF8F3F9207D1F71F91A4
:100700000895C3980E946D0386E990E001C000003F
:1007100001972FEF8F3F9207D1F7089583E00E9452
:10072000570380E596E401C0000001972FEF8F3F4B
:100730009207D1F783E00E9457038CE795E101C04F
:10074000000001972FEF8F3F9207D1F783E00E94BF
:1007500057038CE795E101C0000001972FEF8F3F11
:100760009207D1F782E00E9457038CE795E101C020
:10077000000001972FEF8F3F9207D1F788E20E9488
:1007800081038CE795E101C0000001972FEF8F3FB7
:100790009207D1F788E00E9481038CE795E101C0C0
:1007A000000001972FEF8F3F9207D1F781E00E9461
:1007B00081038CE795E101C0000001972FEF8F3F87
:1007C0009207D1F782E00E9481038CE795E101C096
:1007D000000001972FEF8F3F9207D1F78CE00E9426
:1007E00081038CE795E101C0000001972FEF8F3F57
:1007F0009207D1F7089581E00E9481038CE795E18B
:1008000001C0000001972FEF8F3F9207D1F70895A5
:10081000C39A0E946D0382E390E001C0000001973B
:100820002FEF8F3F9207D1F70895CF93DF93EC011D
:1008300002C00E940804FE01219684918823C9F712
:10084000DF91CF910895CF93DF93EC0103C0219600
:100850000E94080488818823D1F7DF91CF91089501
:100860001F93CF93DF93162FEC01C40FD11D04C04B
:1008700021960E94080411508881882311F01123C9
:10088000B9F7DF91CF911F9108956068813009F425
:10089000605C862F0E9481030895EF92FF920F9370
:1008A0001F938C017B010E94FB03C8010E94150469
:1008B00081E060E00E944504C7010E9415041F9179
:1008C0000F91FF90EF9008951F93142F0E944504FD
:1008D00004C080E20E94080411501123D1F71F9137
:1008E0000895CF93DF9381E00E947002EC0183E0D2
:1008F000CC3FD80778F400000000000081E00E949F
:100900007002C80FD91FD695C795C233D10510F410
:1009100081E018C082E0C434D80710F482E012C02D
:1009200082E0CC3BD80710F483E00CC083E0C631F2
:10093000D80710F484E006C0CE53D34010F080E016
:1009400001C085E0DF91CF910895809167008823F1
:1009500041F00E947104882311F41092670080E036
:1009600008950E9471048093670008951F93109169
:100970006600112349F00E947104882311F010E0F1
:1009800007C01092660004C00E9471048093660044
:10099000812F1F910895D09AD89821E030E007C0A8
:1009A000109254018091540190E00C97DCF3215097
:1009B00030408FEF2F3F380799F7D0980895CF93A5
:1009C000DF9380E00E947002EC018530910510F009
:1009D0000E94CB04CE01DF91CF9108951F920F9218
:1009E0000FB60F9211248F939F9380916E00909178
:1009F0006F00019690936F0080936E008091540178
:100A00008F5F80935401809155018F5F80935501D2
:100A10008150893008F484C08091420180FF09C070
:100A200080914301909144010196909344018093F9
:100A300043018091420181FF09C08091450190915D
:100A400046010196909346018093450180914201B1
:100A500082FF09C0809147019091480101969093CF
:100A60004801809347018091420183FF09C0809132
:100A7000490190914A01019690934A01809349015E
:100A80008091420184FF09C080914B0190914C01FB
:100A9000019690934C0180934B018091420185FF18
:100AA00009C080914D0190914E01019690934E01A5
:100AB00080934D018091420186FF09C080914F01D2
:100AC0009091500101969093500180934F01809135
:100AD000420187FF09C08091510190915201019616
:100AE00090935201809351018091300180FF16C094
:100AF0008091560190915701892B39F415BC809152
:100B000030018E7F8093300109C080915601909111
:100B10005701019790935701809356011092550108
:100B20009F918F910F900FBE0F901F9018959091ED
:100B3000300191609093300170935701609356019A
:100B4000809583BD8EE185BD0895909130019E7F93
:100B500090933001982F909593BD882319F08EE1E2
:100B600085BD089515BC089510925401282F30E0DA
:100B70002F5F3F4F8091540190E028173907D4F739
:100B800008959C0109C0109254018091540190E095
:100B90000C97DCF32150304021153105A1F7089561
:100BA00002C0000001970097E1F708951BBA87E0A3
:100BB00088BB8CEF85BB81E682BB1ABA8BEB87BB07
:100BC00014BA82E981BBF89410BC89E189B91BB8D9
:100BD00086E880BD88E98AB917B886E186B910BE73
:100BE0008FE085BF1BBE14BE8AE083BF87EC8CBF3D
:100BF00015BC8FEF83BD82E089BF80E58DB981E0B0
:100C00008EB9789408950F931F93462F01E311E056
:100C1000B80150E00E946B07C8010E9423041F9195
:100C20000F910895EF92FF920F931F93DF93CF934D
:100C3000CDB7DEB761970FB6F894DEBF0FBECDBF5C
:100C4000262F042F7E010894E11CF11CB701422FCE
:100C500050E00E946B07F70101900020E9F73197FF
:100C6000EE19FF09102F1E1B11165CF4115080E3C2
:100C70000E9408041123D1F7CE0101960E9423049B
:100C800006C01195C701602F412F0E943004619664
:100C90000FB6F894DEBF0FBECDBFCF91DF911F918D
:100CA0000F91FF90EF9008955D9BFECF8CB9089552
:100CB000FC0104C05D9BFECF31968CB980818823F6
:100CC000C9F7089503C05D9BFECF2CB9FC010196C6
:100CD00024912223C1F70895FC01E40FF11D05C002
:100CE0005D9BFECF31968CB961508081882311F0D5
:100CF0006623B1F708951F920F920FB60F92112439
:100D00002F938F939F93EF93FF9320916B0080918C
:100D10006A00922F981B9032A8F480916900E82F06
:100D2000F0E09CB1E75AFE4F90838F5F809369009B
:100D30002F5F20936B00813210F0109269001092A7
:100D4000580106C08CB180936D0081E080935801FA
:100D5000FF91EF919F918F912F910F900FBE0F9068
:100D60001F9018951092580190916A0080916B0025
:100D7000891711F4E0E013C09F5F90936A0080919F
:100D80006800813210F01092680080916800E82FAE
:100D9000F0E0E75AFE4FE0818F5F809368008E2F6E
:100DA000089510925801DC0120E014C09F5F9093D9
:100DB0006A0080916800E82FF0E0E75AFE4F9081CA
:100DC0009C938F5F80936800813210F010926800CE
:100DD0002F5F119690916A0080916B00891711F036
:100DE000261720F3822F089580916B0090916A005E
:100DF000891B089557988CB180936C0010926800FD
:100E00001092690010926A0010926B0010925801C3
:100E1000579A08950F931F93DF93CF93CDB7DEB703
:100E200061970FB6F894DEBF0FBECDBF462F8E017F
:100E30000F5F1F4FB80150E00E946B07C8010E946E
:100E4000580661960FB6F894DEBF0FBECDBFCF91A6
:100E5000DF911F910F910895FF920F931F93DF93DE
:100E6000CF93CDB7DEB761970FB6F894DEBF0FBE54
:100E7000CDBF262FF42E8E010F5F1F4FB801422FDA
:100E800050E00E946B07F80101900020E9F73197CC
:100E9000E01BF10B4F2D4E1B141664F480E3415000
:100EA0005D9BFECF8CB94423D1F7CE0101960E9401
:100EB000580605C04195C8016F2D0E946C066196C9
:100EC0000FB6F894DEBF0FBECDBFCF91DF911F915B
:100ED0000F91FF900895FB019F01E8944230C4F008
:100EE0004532B4F44A3029F497FB1EF4909581956D
:100EF0009F4F642F77270E949C07805D8A330CF0F8
:100F0000895D8193CB010097A1F716F45DE25193BF
:100F10001082C9010C948C07DC01FC01672F7191D0
:100F20007723E1F7329704C07C916D9370836291CF
:100F3000AE17BF07C8F30895AA1BBB1B51E107C03A
:100F4000AA1FBB1FA617B70710F0A61BB70B881F59
:100F5000991F5A95A9F780959095BC01CD010895E8
:040F6000F894FFCF33
:060F640043021602E90140
:00000001FF
