:100000000C94C5010C94BD040C94EA040C941705DF
:100010000C94E2010C94E2010C94E2010C94E201D4
:100020000C94E2010C94E2010C94BC070C94E201E4
:100030000C94E2010C9449090C94E2010C94E20145
:100040000C94E2010C94E2010C94E2010C94FB0C80
:100050000C94E2010A0A00504C45415345204348A4
:1000600045434B205250362D4D333220415353459A
:100070004D424C592121210A0A000A415454454E4F
:1000800054494F4E3A2054455354532046494E4903
:10009000534845442057495448204552524F5253E3
:1000A0002121210A000A4552524F52204552524FF7
:1000B00052204552524F52204552524F52204552E3
:1000C000524F52204552524F52204552524F520ADF
:1000D000000A0A414C4C20544553545320444F4E7F
:1000E00045210A0A000A0A0A0A00444F4E45210027
:1000F000414C4C205445535453000A4D4943524FF0
:1001000050484F4E45205445535420444F4E4521AE
:100110000A00004D494320544553543A004869743D
:1001200020746865204D6963726F70686F6E65201A
:1001300074687265652074696D6573207769746889
:1001400020796F75722066696E676572210A000AF0
:100150004D6963726F70686F6E6520546573740AC1
:10016000000A545749205445535420444F4E4521CA
:100170000A000A5457492054455354204552524FBF
:1001800052210A00544553540049324320545749E0
:10019000000A4932432054574920544553543A0ADF
:1001A000000A454550524F4D205445535420444F6A
:1001B0004E45210A000A45726173696E6720323527
:1001C000302042797465732E2E2E0A002C2073681D
:1001D0006F756C642062653A20004461746120721E
:1001E0006561643A20000A454550524F4D205645FE
:1001F00052494659204552524F5221212121204532
:100200004550524F4D2044414D4147454421212105
:100210000A000A52656164696E6720616E64207627
:100220006572696679696E673A0A002E2E2E446FF0
:100230006E65210A57726974696E67203235302005
:10024000427974657320746F20454550524F4D3A82
:100250000A000A45726173696E67203235302042A8
:10026000797465732E2E2E0A000A454550524F4D63
:1002700020544553540A00454552504F4D00546593
:100280007374696E67004245455045522026204CE4
:100290004544530054657374696E6700210A002356
:1002A000232320505245535320425554544F4E203F
:1002B0004E554D42455220004E554D42455220006C
:1002C000505245535320425554544F4E0053454CC1
:1002D000465445535400525036436F6E74726F6CDF
:1002E000204D3332002323232323232323232323BB
:1002F00023232323230023232323232323232323F1
:1003000023232323232300232323232323232323E0
:1003100023232323232323002323232323232323D0
:100320002323232323232323000A0A525036436F17
:100330006E74726F6C2053656C6674657374210AF9
:100340000A000A23232323232323232323232320D5
:10035000493243204552524F522121212121202D43
:10036000205457492053544154453A2030780020B6
:10037000232323230A0023232323205445535420DB
:100380002300446F6E65210A000011241FBECFE5D3
:10039000D8E0DEBFCDBF10E0A0E6B0E0E6EAFBE1CA
:1003A00002C005900D92AC36B107D9F711E0ACE66A
:1003B000B0E001C01D92AB32B107E1F70E94280204
:1003C0000C94D10D0C94000082E893E00E94300957
:1003D00008951F93182F82E493E00E943009812F23
:1003E00090E060E10E94D8098AE00E942209809191
:1003F0006C008F5F80936C001F9108950F931F9383
:10040000082F8AE00E9422090AC015E483E20E94B4
:1004100022091150D9F78AE00E94220901500023D5
:10042000A1F71F910F9108951F93182F82E00E944A
:10043000FE0186E793E00E943009812F90E06AE098
:100440000E94D8098FE693E00E9430091F91089519
:100450000F931F93CF93DF930E94A40882E00E9422
:10046000FE0189E293E00E94300982E00E94FE01D1
:100470008FE00E941B0682E390E00E948F080E949A
:100480005C0688E193E067E073E00E941B0780E967
:1004900091E00E948F0886EF92E065EE72E00E9484
:1004A0001B0786ED92E06DEC72E00E941B0788EE60
:1004B00093E00E948F0810E00E9484078117E1F703
:1004C0001F5F80EC92E068EB72E00E941B07812FB7
:1004D00090E06AE00E94D10880E00E941B068FE94C
:1004E00092E00E943009812F90E06AE00E94D809D2
:1004F0008CE992E00E9430091630F0F284E992E033
:1005000066E872E00E941B078AEF90E00E948F0865
:1005100082E362E370E00E94650886E990E00E9451
:100520008F0880E00E941B0680E562E370E00E9475
:10053000650886E990E00E948F0881E00E941B0612
:1005400084E662E370E00E94650886E990E00E941C
:100550008F0882E00E941B0688E762E370E00E9439
:10056000650886E990E00E948F0884E00E941B06DF
:100570008CE862E370E00E94650886E990E00E94E2
:100580008F0888E00E941B0680EA62E370E00E9408
:10059000650886E990E00E948F0889E00E941B06AA
:1005A00084EB62E370E00E94650886E990E00E94B7
:1005B0008F088BE00E941B0688EC62E370E00E94CB
:1005C000650886E990E00E948F088FE00E941B0674
:1005D00080E991E00E948F0880E00E941B068EE770
:1005E00092E067E772E00E941B0781E00E9414021C
:1005F00089E692E00E94300982E592E00E9430098B
:10060000C0E0D0E0CE016FEF0E94F6050E94BE056B
:1006100080FDFCCF2196CA3FD105A1F78BE292E085
:100620000E943009C0E0D0E01C2FCE016AE043E018
:100630000E94FA09CE016C2F0E94F6050E94BE05A9
:1006400080FDFCCF8CE20E942209812F6AE00E948B
:100650006D0D992319F48AE00E9422092196CA3F60
:10066000D10511F780E991E00E948F088FE00E9488
:100670001B0682E192E00E943009C0E0D0E00C2F1E
:10068000CE010E948905182F8C17F1F086EE91E0BB
:100690000E9430098AED91E00E943009812F90E09C
:1006A0006AE00E94D8098CEC91E00E943009CE01EA
:1006B0006AE00E94D8098AE00E94220980916C00B9
:1006C0008F5F80936C0006C08C2F90E06AE043E05F
:1006D0000E94FA098CE20E942209802F6AE00E949F
:1006E0006D0D992319F48AE00E9422092196CA3FD0
:1006F000D10529F685EB91E00E943009C0E0D0E0F9
:10070000CE016FEF0E94F6050E94BE0580FDFCCF72
:100710002196CA3FD105A1F780E991E00E948F0898
:1007200080E00E941B0681EA91E00E94300981E985
:1007300091E00E94300989E891E064E871E00E944C
:100740001B0788E40E94390A89EE91E00E944E0A54
:1007500011E0C0E0D0E0CE016AE043E00E94FA0977
:100760008AE30E942209812F90E06AE043E00E9420
:10077000FA098CE20E94220980E20E9422098AE0A2
:1007800060E043E0212F0E94500C8AE06DE10E945E
:10079000F50B8AE00E94BB0B811749F082E791E0DC
:1007A0000E94300980916C008F5F80936C00110F64
:1007B000113208F011E02196CE0166E070E00E944F
:1007C000790D892B19F48AE00E94220984E690E0D1
:1007D0000E948F08C831D10509F0BDCF8AE060E0E2
:1007E00043E020E00E94500C81E691E00E94300935
:1007F0008FE491E00E9430098DE191E00E94300980
:1008000083E191E062E171E00E941B078091F300B7
:1008100082608093F30091E09130C1F48091F60002
:100820009091F7008B3F9105C8F381E066E00E944C
:1008300013078091600090E06AE041E00E94E008C8
:100840000E9499071092F7001092F6000E94840708
:100850008823E1F58091F6009091F700C397B0F3FB
:100860000E94AD07EC018530910538F120E030E0C1
:1008700090E02832310508F0990F9F5F9F70285D46
:100880003F4F2C173D07A8F39F7080910401807F94
:10089000892B809304010E941106C937D10510F4F9
:1008A00092E006C08091600081508093600091E0EA
:1008B00080916000882329F409C080E00E941B0613
:1008C00092E01092F7001092F600A6CF8AEF90E027
:1008D0000E94300980EF90E06AEE70E00E941B07F2
:1008E00085EE90E00E94300982E00E94FE0181EDD9
:1008F00090E00E94300980916C008823B1F084E080
:100900000E94FE0185EA90E00E9430098AE790E0AB
:100910000E94300987E590E00E94300984E00E943F
:10092000FE0184E590E00E9430098091F30081602F
:100930008093F30000E011E08091F4009091F500C5
:1009400085369105C8F3812F0E941B06002311F400
:10095000110F01C01695183010F001E003C01230DD
:1009600008F400E01092F5001092F400E5CF08952D
:10097000909366008093650008951F920F920FB6C2
:100980000F9211242F933F934F935F936F937F9315
:100990008F939F93AF93BF93EF93FF93E091650085
:1009A000F09166000995FF91EF91BF91AF919F91F2
:1009B0008F917F916F915F914F913F912F910F9008
:1009C0000FBE0F901F901895089590936400809328
:1009D000630008951F920F920FB60F9211242F9368
:1009E0003F934F935F936F937F938F939F93AF93B7
:1009F000BF93EF93FF93E0916300F091640009953A
:100A0000FF91EF91BF91AF919F918F917F916F91E6
:100A10005F914F913F912F910F900FBE0F901F90BC
:100A200018950895909362008093610008951F9235
:100A30000F920FB60F9211242F933F934F935F9312
:100A40006F937F938F939F93AF93BF93EF93FF9396
:100A5000E0916100F09162000995FF91EF91BF91E3
:100A6000AF919F918F917F916F915F914F913F9146
:100A70002F910F900FBE0F901F901895369B03C0BB
:100A800020E030E009C0806487B986ED86B93699E8
:100A9000FECF349A24B135B1C90108958FB9779B3F
:100AA000FECF08958FEF8FB9779BFECF8FB108955A
:100AB0008FEF8FB9779BFECF3FB18FEF8FB9779BC9
:100AC000FECF2FB1932F80E030E0282B392BC901C6
:100AD00008959FB9779BFECF8FB9779BFECF08957E
:100AE000FC0190E006C080818FB9779BFECF9F5FAD
:100AF00031969617C0F30895FC0190E02FEF06C0E1
:100B00002FB9779BFECF8FB181939F5F9617C0F36C
:100B100008959C01C09883E08FB9779BFECFC901EF
:100B20000E9469058FEF8FB9779BFECF8FB1C09A76
:100B300008951F93CF93DF939C01EB01142FC0986E
:100B400083E08FB9779BFECFC9010E946905CE0172
:100B5000612F0E947C05C09ADF91CF911F9108956B
:100B6000C09886E08FB9779BFECFC09A0895C09851
:100B700084E08FB9779BFECFC09A0895C09885E036
:100B80008FB9779BFECF8FEF8FB9779BFECF8FB159
:100B9000C09A0895FF920F931F93CF93DF93EC01B8
:100BA000162F072FF42E0E94BE0580FDFCCF0E9459
:100BB000B005C09882E08FB9779BFECFCE010E942E
:100BC0006905812F902F9C01F90190E006C080817A
:100BD0008FB9779BFECF9F5F31969F15C0F3C09A68
:100BE000DF91CF911F910F91FF9008951F93CF93A5
:100BF000DF93EC01162F0E94BE0580FDFCCF0E9402
:100C0000B005C09882E08FB9779BFECFCE010E94DD
:100C100069051FB9779BFECFC09ADF91CF911F91D5
:100C20000895809104018FB9779BFECF949A0000BC
:100C30000000949808958F7090910401907F982BF4
:100C4000909304010E94110608958295807F9091EF
:100C500004019F70982B909304010E941106C49A7E
:100C600082E390E001C0000001972FEF8F3F9207D1
:100C7000D1F7C49808951F93182F82958F700E9402
:100C80002506812F0E94250686E990E001C000001C
:100C900001972FEF8F3F9207D1F71F910895C398C7
:100CA0000E943B0686E990E001C0000001972FEF0B
:100CB0008F3F9207D1F7089583E00E94250680E5D3
:100CC00096E401C0000001972FEF8F3F9207D1F704
:100CD00083E00E9425068CE795E101C000000197A2
:100CE0002FEF8F3F9207D1F783E00E9425068CE714
:100CF00095E101C0000001972FEF8F3F9207D1F7D8
:100D000082E00E9425068CE795E101C00000019772
:100D10002FEF8F3F9207D1F788E20E944F068CE7B2
:100D200095E101C0000001972FEF8F3F9207D1F7A7
:100D300088E00E944F068CE795E101C00000019712
:100D40002FEF8F3F9207D1F781E00E944F068CE78B
:100D500095E101C0000001972FEF8F3F9207D1F777
:100D600082E00E944F068CE795E101C000000197E8
:100D70002FEF8F3F9207D1F78CE00E944F068CE750
:100D800095E101C0000001972FEF8F3F9207D1F747
:100D9000089581E00E944F068CE795E101C00000B4
:100DA00001972FEF8F3F9207D1F70895C39A0E94C2
:100DB0003B0682E390E001C0000001972FEF8F3FD8
:100DC0009207D1F70895CF93DF93EC0102C00E9400
:100DD000D606FE01219684918823C9F7DF91CF9131
:100DE0000895CF93DF93EC0103C021960E94D606AD
:100DF00088818823D1F7DF91CF9108951F93CF93F6
:100E0000DF93162FEC01C40FD11D04C021960E9460
:100E1000D60611508881882311F01123B9F7DF918C
:100E2000CF911F9108956068813009F4605C862F2E
:100E30000E944F060895EF92FF920F931F938C012B
:100E40007B010E94C906C8010E94E30681E060E0C0
:100E50000E941307C7010E94E3061F910F91FF90A4
:100E6000EF9008951F93142F0E94130704C080E28F
:100E70000E94D60611501123D1F71F910895CF93E8
:100E8000DF9381E00E943E05EC0183E0CC3FD80770
:100E900078F400000000000081E00E943E05C80FC9
:100EA000D91FD695C795C233D10510F481E018C07B
:100EB00082E0C434D80710F482E012C082E0CC3B58
:100EC000D80710F483E00CC083E0C631D80710F4D3
:100ED00084E006C0CE53D34010F080E001C085E02E
:100EE000DF91CF91089580916E00882341F00E9498
:100EF0003F07882311F410926E0080E008950E944D
:100F00003F0780936E0008951F9310916D00112389
:100F100049F00E943F07882311F010E007C01092AB
:100F20006D0004C00E943F0780936D00812F1F91C8
:100F30000895D09AD89821E030E007C010920501BA
:100F40008091050190E00C97DCF3215030408FEF49
:100F50002F3F380799F7D0980895CF93DF9380E01B
:100F60000E943E05EC018530910510F00E94990722
:100F7000CE01DF91CF9108951F920F920FB60F927D
:100F800011248F939F938091BF009091C000019690
:100F90009093C0008093BF00809105018F5F809384
:100FA0000501809106018F5F809306018150893091
:100FB00008F484C08091F30080FF09C08091F400A0
:100FC0009091F50001969093F5008093F400809144
:100FD000F30081FF09C08091F6009091F70001961F
:100FE0009093F7008093F6008091F30082FF09C090
:100FF0008091F8009091F90001969093F900809308
:10100000F8008091F30083FF09C08091FA0090916D
:10101000FB0001969093FB008093FA008091F3000F
:1010200084FF09C08091FC009091FD00019690938F
:10103000FD008093FC008091F30085FF09C0809142
:10104000FE009091FF0001969093FF008093FE00B8
:101050008091F30086FF09C0809100019091010109
:10106000019690930101809300018091F30087FF26
:1010700009C08091020190910301019690930301B0
:10108000809302018091E10080FF16C080910701EA
:1010900090910801892B39F415BC8091E1008E7F75
:1010A0008093E10009C080910701909108010197A8
:1010B0009093080180930701109206019F918F91F0
:1010C0000F900FBE0F901F9018959091E1009160C6
:1010D0009093E1007093080160930701809583BDB0
:1010E0008EE185BD08959091E1009E7F9093E1008F
:1010F000982F909593BD882319F08EE185BD0895B2
:1011000015BC089510920501282F30E02F5F3F4F46
:101110008091050190E028173907D4F708959C01C4
:1011200009C0109205018091050190E00C97DCF355
:101130002150304021153105A1F7089502C000006B
:1011400001970097E1F708951BBA87E088BB8CEF01
:1011500085BB81E682BB1ABA8BEB87BB14BA82E9E6
:1011600081BBF89410BC89E189B91BB886E880BDC1
:1011700088E98AB917B886E186B910BE8FE085BFC5
:101180001BBE14BE8AE083BF87EC8CBF15BC8FEFFB
:1011900083BD82E089BF80E58DB981E08EB9789406
:1011A00008950F931F93462F02EE10E0B80150E010
:1011B0000E94A00DC8010E94F1061F910F91089591
:1011C000EF92FF920F931F93DF93CF93CDB7DEB7CC
:1011D00061970FB6F894DEBF0FBECDBF262F042F48
:1011E0007E010894E11CF11CB701422F50E00E94DF
:1011F000A00DF70101900020E9F73197EE19FF09E2
:10120000102F1E1B11165CF4115080E30E94D606AD
:101210001123D1F7CE0101960E94F10606C0119567
:10122000C701602F412F0E94FE0661960FB6F89409
:10123000DEBF0FBECDBFCF91DF911F910F91FF9009
:10124000EF9008955D9BFECF8CB90895FC0104C01A
:101250005D9BFECF31968CB980818823C9F70895B4
:1012600003C05D9BFECF2CB9FC0101962491222383
:10127000C1F70895FC01E40FF11D05C05D9BFECF91
:1012800031968CB961508081882311F06623B1F7C3
:1012900008951F920F920FB60F9211242F938F93E0
:1012A0009F93EF93FF932091720080917100922F92
:1012B000981B9032A8F480917000E82FF0E09CB168
:1012C000E65FFE4F90838F5F809370002F5F2093C7
:1012D0007200813210F0109270001092090106C065
:1012E0008CB18093740081E080930901FF91EF91AC
:1012F0009F918F912F910F900FBE0F901F90189577
:10130000109209019091710080917200891711F477
:10131000E0E013C09F5F9093710080916F00813275
:1013200010F010926F0080916F00E82FF0E0E65F00
:10133000FE4FE0818F5F80936F008E2F0895109293
:101340000901DC0120E014C09F5F9093710080913F
:101350006F00E82FF0E0E65FFE4F90819C938F5F77
:1013600080936F00813210F010926F002F5F119602
:101370009091710080917200891711F0261720F367
:10138000822F08958091720090917100891B0895B9
:1013900057988CB18093730010926F001092700078
:1013A000109271001092720010920901579A0895DC
:1013B0000F931F93DF93CF93CDB7DEB761970FB62F
:1013C000F894DEBF0FBECDBF462F8E010F5F1F4FBB
:1013D000B80150E00E94A00DC8010E942609619644
:1013E0000FB6F894DEBF0FBECDBFCF91DF911F9136
:1013F0000F910895FF920F931F93DF93CF93CDB773
:10140000DEB761970FB6F894DEBF0FBECDBF262FB3
:10141000F42E8E010F5F1F4FB801422F50E00E9443
:10142000A00DF80101900020E9F73197E01BF10BC6
:101430004F2D4E1B141664F480E341505D9BFECF8C
:101440008CB94423D1F7CE0101960E94260905C02C
:101450004195C8016F2D0E943A0961960FB6F89424
:10146000DEBF0FBECDBFCF91DF911F910F91FF90D7
:101470000895F89480B911B88FEF83B984E086BFDE
:101480008091750081608093750078940895089527
:1014900090936800809367000895089590936A0080
:1014A000809369000895DF93CF930F92CDB7DEB795
:1014B00086E989838981815089838F5FD9F70F906D
:1014C000CF91DF910895DF93CF930F92CDB7DEB721
:1014D00006B600FC6EC08091750080FF4EC0809102
:1014E0007C00882309F465C08130C9F486E98983CA
:1014F0008981815089838F5FD9F792E09093BE00F4
:101500008091770080937E008091780080937F00A7
:101510001092750085EA86BF90937C004AC08230A5
:10152000D9F486E989838981815089838F5FD9F7CE
:10153000809179008F5F8093BE00809177008160F9
:101540008093770080937E001092750085EA86BFB5
:1015500083E080937C002DC0833059F510927C008D
:1015600080917A0090917B002FEF8F3F920709F1D5
:10157000E0916700F09168001BC006B600FCFDCF4B
:10158000909176009923A9F010927C0080917500CB
:101590008160809375001092770010927B0010920A
:1015A0007A0010927900E0916900F0916A00892F29
:1015B00009950F90CF91DF910895FF920F931F939C
:1015C000182F062FF42E02C00E94630A06B600FCF4
:1015D000FBCF80917C008823B9F782E080937C0068
:1015E0001093770000937A0010927B00F0927900BC
:1015F0001F910F91FF900895EF92FF920F931F9309
:10160000E82E162F042FF22E02C00E94630A06B69F
:1016100000FCFBCF80917C008823B9F781E08093A8
:101620007C0010937A0010927B00E0927700009388
:101630007800F09279001F910F91FF90EF9008953C
:101640009C0106B600FCFDCF8091750080FF0CC0A8
:10165000EFE8F0E0D90170E06E0F7F1F02C08191CA
:101660008D93E617F707D9F7089506B600FCFDCF6E
:10167000809176000895FF920F931F93CF93DF938D
:10168000082FF62EEA01122F02C00E94630A06B646
:1016900000FCFBCF80917C008823B9F781E0809328
:1016A0007C00009377008FEF9FEF90937B008093F7
:1016B0007A00F09278001093790002C00E94630AC9
:1016C00006B600FCFBCF80917C008823B9F780919F
:1016D000750080FF05C01F5FCE01612F0E94200BA7
:1016E000DF91CF911F910F91FF900895EF92FF929C
:1016F0000F931F93DF93CF930F92CDB7DEB7082FD1
:101700007B01142F02C00E94630A06B600FCFBCFC7
:1017100080917C008823B9F786E98983898181508B
:1017200089838F5FD9F782E080937C0000937700F4
:101730008FEF9FEF90937B0080937A001093790056
:1017400002C00E94630A06B600FCFBCF80917C00B9
:101750008823B9F78091750080FF05C01F5FC7011E
:10176000612F0E94200B0F90CF91DF911F910F915D
:10177000FF90EF9008951F93DF93CF930F92CDB713
:10178000DEB7182F02C00E94630A06B600FCFBCF2A
:1017900080917C008823B9F786E98983898181500B
:1017A00089838F5FD9F782E080937C001093770064
:1017B0008FEF9FEF90937B0080937A0081E080937E
:1017C000790002C00E94630A80917C008823D1F7CF
:1017D0008091750080FD02C080E002C080918F0082
:1017E0000F90CF91DF911F9108950F931F93DF9377
:1017F000CF930F92CDB7DEB7182F062F02C00E94ED
:10180000630A06B600FCFBCF80917C008823B9F701
:1018100086E989838981815089838F5FD9F782E046
:101820008093BE0010937E0000937F00109275009D
:1018300085EA86BF0F90CF91DF911F910F91089598
:10184000FF920F931F93DF93CF930F92CDB7DEB725
:10185000182F062FF42E02C00E94630A06B600FC61
:10186000FBCF80917C008823B9F786E98983898141
:10187000815089838F5FD9F783E08093BE001093F6
:101880007E0000937F00F09280001092750085EA40
:1018900086BF0F90CF91DF911F910F91FF90089518
:1018A000EF92FF920F931F93DF93CF930F92CDB7D9
:1018B000DEB7182F062FF42EE22E02C00E94630A14
:1018C00006B600FCFBCF80917C008823B9F786E93F
:1018D00089838981815089838F5FD9F784E08093E0
:1018E000BE0010937E0000937F00F0928000E09293
:1018F00081001092750085EA86BF0F90CF91DF912D
:101900001F910F91FF90EF900895DF92EF92FF9259
:101910000F931F93DF93CF930F92CDB7DEB7182F9E
:10192000F62EE42ED22E02C00E94630A06B600FCF8
:10193000FBCF80917C008823B9F786E98983898170
:10194000815089838F5FD9F785E08093BE00109323
:101950007E00F0927F00E0928000D09281000093A0
:1019600082001092750085EA86BF0F90CF91DF91BB
:101970001F910F91FF90EF90DF900895EF92FF92EB
:101980000F931F93DF93CF930F92CDB7DEB7082F3E
:10199000F62EE72E142F02C00E94630A06B600FC42
:1019A000FBCF80917C008823B9F786E98983898100
:1019B000815089838F5FD9F7412F4F5F4093BE00DD
:1019C00000937E00AFE7B0E08F2D9E2D9C01F901C2
:1019D00002C081918D938E2F8F198417D0F31092AE
:1019E000750085EA86BF0F90CF91DF911F910F910F
:1019F000FF90EF9008951F920F920FB60F9211244F
:101A00002F933F938F939F93EF93FF9381B18832EE
:101A1000C9F0893240F4803199F0883199F08830EA
:101A200009F04BC00DC0803441F1813420F488337B
:101A300009F043C03DC08035A9F08835F1F52BC0D1
:101A400010927D0090917D008091BE00981750F516
:101A5000E92FF0E0E258FF4F808183B99F5F9093B8
:101A60007D0017C080917D0093B1E82FF0E0E25730
:101A7000FF4F90838F5F80937D0020917D0030E049
:101A80008091BE0090E001972817390714F485EC87
:101A900018C085E816C083B1E0917D00F0E0E25700
:101AA000FF4F80838091750081608093750008C02E
:101AB00081B18093760085EA04C081B1809376007D
:101AC00084E986BFFF91EF919F918F913F912F9174
:101AD0000F900FBE0F901F901895991B79E004C0CE
:101AE000991F961708F0961B881F7A95C9F780955D
:101AF000089597FB092E07260AD077FD04D00CD055
:101B000006D000201AF4709561957F4F0895F6F77E
:101B1000909581959F4F0895AA1BBB1B51E107C06B
:101B2000AA1FBB1FA617B70710F0A61BB70B881F6D
:101B3000991F5A95A9F780959095BC01CD010895FC
:101B4000FB019F01E8944230C4F04532B4F44A30BE
:101B500029F497FB1EF4909581959F4F642F77276A
:101B60000E948C0D805D8A330CF0895D8193CB01DE
:101B70000097A1F716F45DE251931082C9010C940D
:101B8000C10DDC01FC01672F71917723E1F73297DA
:101B900004C07C916D9370836291AE17BF07C8F348
:061BA0000895F894FFCF48
:0C1BA600031105E404B704470A4D0A00CF
:00000001FF
