:100000000C9477010C9441030C9461030C947F04CD
:100010000C941F040C9494010C9494010C9494017E
:100020000C9494010C9494010C9440060C9494014B
:100030000C9494010C949B0C0C9494010C949401DA
:100040000C9494010C9494010C9494010C949401DC
:100050000C9494010A03100316031C0322032803C3
:100060002E035F5F5F5F5F5F5F5F5F5F5F5F5F5F2D
:100070005F5F5F5F5F5F5F5F5F5F5F5F5F0A0A0099
:100080000A5250364C6F61646572202D204C4452E8
:10009000205465737470726F6772616D0A00574106
:1000A000524E494E473A20424154204953204C4F2A
:1000B00057210A00207C7C20554241543A200020E0
:1000C00020204C203D2052202020002023204C20A6
:1000D0003E2052202020002020204C203C20522076
:1000E000232000204974206973207665727920648A
:1000F00061726B21002020204C203D2052202020C6
:10010000002023204C203E205220202000202020B0
:100110004C203C205220232000207C7C00203B20CF
:100120004C44525F523A20004C44525F4C3A2000FB
:1001300054686520526F626F74206E656564732029
:10014000746F206265207265736574746564206ED7
:100150006F772E0A0A00596F75206E6565642074EA
:100160006F20636865636B204D6F746F72206173DD
:1001700073656D626C7920286F7220796F757220BB
:10018000736F667477617265292E0A0A000A0A285D
:10019000732E207461736B5F6D6F746F72436F6E3B
:1001A00074726F6C28292066756E6374696F6E2097
:1001B000696E205250364C696221290A000A0A23CE
:1001C0002323204D4F544F52204F564552435552F2
:1001D00052454E54202323230A00596F75206E6523
:1001E000656420746F20636865636B20456E636F80
:1001F0006465722F4D6F746F7220617373656D62E9
:100200006C7920286F7220796F757220736F667415
:1002100077617265292E0A0A00210A0A28732E20A6
:100220007461736B5F6D6F746F72436F6E74726F16
:100230006C28292066756E6374696F6E20696E2064
:100240005250364C696221290A00524947485400ED
:100250004C45465400416666656374656420636876
:10026000616E6E656C3A000A23232320454E434F8E
:1002700044455220284F52204D4F544F5229204D73
:10028000414C46554E4354494F4E21202323230AC7
:1002900000232323232320414C4C204F504552411F
:1002A00054494F4E532053544F5050454420544FBF
:1002B0002050524556454E5420414E592044414D00
:1002C000414745212023232323230A000A0A23230D
:1002D00023232320454D455247454E43592053483B
:1002E0005554444F574E2023232323230A0011241F
:1002F0001FBECFE5D8E0DEBFCDBF10E0A0E6B0E086
:10030000EAEAFBE102C005900D92AA36B107D9F7DF
:1003100021E0AAE6B0E001C01D92AF30B207E1F7DC
:100320000E942A0D0C94D30D0C9400008091B4000F
:100330009091B500893C910508F4B9C088E291E03C
:100340000E94110C44E06AE08091A5009091A60003
:100350000E945B0C8DE191E00E94110C44E06AE088
:100360008091CB009091CC000E945B0C89E191E0E0
:100370000E94110C8091A5009091A6008F309105EC
:1003800008F44FC02091CB003091CC002F303105C4
:1003900008F447C0821B930B813A91053CF48036E8
:1003A0002FEF920704F18D38910514F088E31CC0FB
:1003B0008C34910514F088E117C08432910514F053
:1003C00088E012C08E3D2FEF920714F089E00CC038
:1003D000863B2FEF920714F081E006C085379F4FD0
:1003E00014F083E001C087E00E94A6028091A5007E
:1003F0009091A6002091CB003091CC00A9014F50E4
:1004000051098417950718F48DE091E02DC00F97DE
:100410002817390718F481E091E026C085EF90E0B5
:1004200023C083EE90E00E94110C8091A500909172
:10043000A6002091CB003091CC008217930730F4B6
:1004400086E10E94A60287ED90E00EC028173907CA
:1004500030F482E30E94A6028BEC90E005C08BE1B1
:100460000E94A6028FEB90E00E94110C84EB90E0BA
:100470000E94110C43E06AE08091E6009091E70051
:100480000E945B0C8AE00E94010C8091E600909132
:10049000E7008835924038F48EE990E00E94110C14
:1004A0008AE00E94010C1092B5001092B4000895E9
:1004B000089508950895089580919A00843010F069
:1004C00010929A00089584E080939A00089587B36B
:1004D0008C7787BB88B38C7788BB8091850083FF3E
:1004E00002C0BF9AC79A8091850084FF02C0B99A62
:1004F000C19A8091850085FF02C0B89AC09A84B3E2
:100500008F7884BB85B38F7885BB24B390918500A9
:1005100030E1939FC00111248077822B84BB25B3E7
:100520009091850030E1939FC00111248077822B48
:1005300085BB80919A00811106C081E09091850071
:10054000911101C080E080939A0008958093850006
:100550000C946702C098B898000086B3817090919F
:10056000850095FF02C0B89AC09A0895AE98A698E3
:10057000000083B380749091850092FF02C0A69A18
:10058000AE9A089590936800809367000895CF9382
:100590008091D2008333C0F00E94AA02C82F0E942B
:1005A000B602909186009C1304C09091E3009817C6
:1005B00049F0C09386008093E300E0916700F091DA
:1005C000680009951092D200CF91089536990AC01B
:1005D000806487B986ED86B93699FECF349A84B1A6
:1005E00095B1089580E090E00895806487B986ED24
:1005F00086B90895369944C0E0917B008E2F90E033
:100600008730910598F5FC01E65DFF4F84B195B107
:100610000C947E0D9093E7008093E60086E423C05F
:100620009093EC008093EB0085E41DC09093DD0077
:100630008093DC0083E417C09093A6008093A5000C
:1006400082E411C09093CC008093CB0080E40BC077
:100650009093DA008093D90081E405C09093A400C0
:100660008093A30087E487B986ED86B980917B00EB
:10067000863019F410927B0008958F5F80937B0081
:1006800008951F920F920FB60F9211248F939F938C
:100690008091E1009091E20001969093E2008093B6
:1006A000E1008091D7009091D80001969093D800F6
:1006B0008093D7009F918F910F900FBE0F901F9046
:1006C00018951F920F920FB60F9211248F939F933C
:1006D0008091D3009091D40001969093D4008093A0
:1006E000D3008091AD009091AE0001969093AE0042
:1006F0008093AD009F918F910F900FBE0F901F9030
:10070000189590936600809365000895893C08F0E1
:1007100088EC90E090938C0080938B00693C08F00B
:1007200068EC70E070938A0060938900089580936C
:100730006A002FEF280F91E0223008F090E09093AC
:100740006E008D7F91E0813009F090E090936D0014
:100750000895292F221F2227221F20936E00771F22
:100760007727771F70936D001816190614F081957E
:1007700061950C94860390918400937081E009F058
:1007800080E0089510928C0010928B0010928A00E5
:100790001092890010929600109295001092D1004C
:1007A0001092D000809184008E7F8D7F8093840092
:1007B0008093E500E0916500F09166000994633D47
:1007C00008F062ED70E07093AC006093AB00833D85
:1007D00008F082ED90E090939C0080939B00089538
:1007E00080936C0060936B0080936E0060936D004B
:1007F000882311F0AA9A01C0AA98662311F0AB9A37
:100800000895AB98089590919000992321F099B79D
:10081000906899BFF8CF6F7370E070638F7320E4B6
:10082000829FC0011124862B972B9093B000809358
:10083000AF0080918F00806480938F0008951F9295
:100840000F920FB60F9211248F939F9380916400A3
:100850008230B0F580917A008823D1F08C3338F45F
:100860008091C9009091CA0096FF07C008C080918E
:10087000C9009091CA0096FF02C0979803C082B346
:10088000805882BB80917A00815080937A0030C07A
:10089000809190009798882359F18091C900909198
:1008A000CA00880F991F9093CA008093C90088E7F7
:1008B00080937A008091900081508093900018C0BE
:1008C00080919400882391F080918F0080FD05C075
:1008D00098B380E4892788BB03C085B3805885BB63
:1008E0008091940081508093940002C0C69AAF9A80
:1008F0009F918F910F900FBE0F901F9018951F9290
:100900000F920FB60F9211248F9380916400833061
:1009100011F0863079F480918F0084FD0BC08091B6
:100920008F0085FF07C0B29905C08091E4008F5FFA
:100930008093E40086B380918F008D7F80938F0039
:100940008F910F900FBE0F901F901895909363009A
:1009500080936200089590936100809360000895F1
:100960008091A7009091A800029708F43CC1809163
:100970008F0084FD19C180916400823009F467C042
:1009800028F4882369F0813091F014C1853009F48E
:10099000AFC0863009F4C5C0833009F00BC16FC009
:1009A00089B78F7789BF9798C69AAF9A03C180910C
:1009B000900081112AC080918F0086FF14C0809121
:1009C000AF009091B0009093CA008093C9008EE070
:1009D0008093900080918F008F7B80938F0089B7E8
:1009E000806889BF06C089B78F7789BF9798C69AF4
:1009F000AF9A8091790091E0980F909379008431BB
:100A000038F082E08093640003C089B7806889BFB2
:100A100080918F0083FFCEC0E0916200F09163006F
:100A20008091E8009091E90009958091E80090910B
:100A3000E90090939800809397001092E90010923B
:100A4000E80080918F00877F80938F00B3C089B7C3
:100A50008F7789BF9798C69AAF9A10929400109298
:100A6000E400109278001092770080918F008E7FC2
:100A7000806280938F0083E08093790077C08091BB
:100A80009400811110C08091790091E0980F9093AB
:100A90007900833040F089B7806889BF88E280930D
:100AA0009400109279008091C500882321F08091F4
:100AB000E400823020F48091E400863038F0109217
:100AC000E40081E08093C50085E050C0809177000C
:100AD000909178009C012F5F3F4F309378002093D6
:100AE00077000E9708F466C01092C50085E051C0EB
:100AF00089B78F7789BF9798C69AAF9A109294005A
:100B00001092E400109278001092770080918F008C
:100B10008160806280938F0083E08093790086E01B
:100B200025C080919400811110C08091790091E0DE
:100B3000980F90937900833040F089B7806889BF1F
:100B400088E280939400109279008091CE008823EF
:100B500021F08091E400823020F48091E40086301E
:100B600040F01092E40081E08093CE008093640016
:100B700021C080917700909178009C012F5F3F4FBA
:100B800030937800209377000E97A0F01092CE005B
:100B900081E08093640089B78F7789BF9798C69A60
:100BA000AF9A1092940006C01092780010927700CD
:100BB000109279009091C500209176008091CE002E
:100BC000291304C020917500281749F090937600EE
:100BD00080937500E0916000F0916100099510929A
:100BE000A8001092A70008951092640089B78F772B
:100BF00089BF9798C69AAF9A1092CE001092C500FE
:100C0000089589B78F7789BF9798C69AAF9A10923F
:100C1000CE001092C50081E08093640008958E9804
:100C20009698BB98C398C698AF9808958E9A969A4E
:100C3000BB98C39808958E989698BB9AC39A0895C6
:100C40008E9A969ABB9AC39A0895C49A80919A00F4
:100C5000843018F483E080939A000895C4988091BA
:100C60009A00843060F4811107C081E09091850082
:100C7000911103C080E001C081E080939A00089543
:100C80001F920F920FB60F9211242F933F934F9301
:100C90005F936F937F938F939F93AF93BF93EF93E4
:100CA000FF9380918200909183000196909383003E
:100CB000809382008091DB008F5F8093DB008091C6
:100CC000DE0091E0980F9093DE00893008F446C171
:100CD0008091B30080FF09C08091B4009091B5006D
:100CE00001969093B5008093B4008091B30081FF8A
:100CF00009C08091B6009091B70001969093B7001B
:100D00008093B6008091B30082FF09C08091B80043
:100D10009091B90001969093B9008093B8008091AA
:100D2000B30083FF09C08091BA009091BB00019687
:100D30009093BB008093BA008091B30084FF09C0F8
:100D40008091BC009091BD0001969093BD0080936E
:100D5000BC008091B30085FF09C08091BE009091D6
:100D6000BF0001969093BF008093BE008091B300B6
:100D700086FF09C08091C0009091C10001969093B8
:100D8000C1008093C0008091B30087FF09C08091AB
:100D9000C2009091C30001969093C3008093C2005B
:100DA0008091CF0091E0980F9093CF00893CE8F0BC
:100DB0008091AD009091AE009093E0008093DF00B1
:100DC0008091D7009091D80090939E0080939D00D1
:100DD0001092AE001092AD001092D8001092D70081
:100DE00081E0809399001092CF0020919A002330E7
:100DF00008F051C0223079F58091850081111FC023
:100E00008091730090917400FC013196F09374000E
:100E1000E093730068EC70E00E94480D892BD9F5CF
:100E2000E13AFF4028F0B998C19810929A0029C081
:100E300087B3822787BB88B3282728BB2CC084FDB3
:100E400002C0B998C198109274001092730081E0AA
:100E500080939A0020C08091730090917400813E2D
:100E60003EE2930798F0213049F410929A00809165
:100E7000850084FD06C0B998C19803C082E08093C4
:100E80009A00109274001092730005C0019690931E
:100E90007400809373008091A7009091A80003973D
:100EA00048F48091A7009091A80001969093A80023
:100EB0008093A7008091C700873318F48F5F8093D9
:100EC000C7008091D200843328F48091D2008F5FD4
:100ED0008093D2008091CD0091E0980F9093CD0047
:100EE0008330D0F18091C800482F50E02091AB00B2
:100EF0003091AC004217530759F04217530714F4CE
:100F00008F5F01C081508093C8008091C8008ABD66
:100F10008091EA00482F50E020919B0030919C0086
:100F20004217530759F04217530714F48F5F01C05B
:100F300081508093EA008091EA0088BD8091EA00A8
:100F4000811104C08091C800882319F082EA8FBD06
:100F500001C01FBC1092CD001092DE0030918F00B6
:100F600033FD46C080917100909172002091700015
:100F70002F5F20937000263198F096FD0AC095FFF0
:100F800008C09093E9008093E800832F88608093E5
:100F90008F0080918F008F7E80938F0080E090E0A3
:100FA00030916F0046B3432742FF1EC03095309307
:100FB0006F00273040F480918F008F7E80938F00E8
:100FC00080E090E004C0009711F02F3068F020918D
:100FD0008F00206120938F0096FD02C0880F991F1B
:100FE00032FF8160109270009093720080937100C4
:100FF000FF91EF91BF91AF919F918F917F916F91F1
:101000005F914F913F912F910F900FBE0F901F90C6
:1010100018951092DB009091DB009817E0F308958B
:10102000CF93DF93EC01209729F08AE00E94090812
:101030002197F9CFDF91CF910895019710F000002B
:10104000FCCF0895C82FF89497980E940F0610922D
:101050009C0010929B001092AC001092AB0010927A
:101060009600109295001092D1001092D00010922C
:10107000EA001092C8001ABC18BC1FBC0E942E06C1
:101080008CEC92E00E94110C81E992E00E94110C1C
:101090008FEF8C0F8230C0F487E692E00E94110C33
:1010A00085E592E00E94110CC13019F480E592E0D0
:1010B00002C08AE492E00E94110C89E192E00E9451
:1010C000110C8AED91E00CC0C33061F48DEB91E01E
:1010D0000E94110C8DE891E00E94110C86E591E0D0
:1010E0000E94110C80E391E00E94110CD6E3D09392
:1010F00085000E946702CAE080E090E80E941D0817
:10110000C150D1F7109285000E946702CAE08FEFAC
:101110009FEF0E941D08C150D1F7E9CF8091C70011
:10112000823308F474C01092C7008091C4002091EB
:10113000EB003091EC0081113BC0809184002330A2
:1011400043E0340738F44091DC005091DD00433037
:101150005340E0F09091C6009F5F9093C6009AE0E4
:101160009093C40010929C0010929B001092AC00CF
:101170001092AB0010929600109295001092D10040
:101180001092D00084608093840008958B7F8093B8
:10119000840080919100853628F01092C60010924C
:1011A000910006C08091C600833010F083E014C027
:1011B0002639310598F480919D0090919E00892BED
:1011C00069F480918B0090918C00892B39F080918B
:1011D000EA00873918F081E00E9422088091DC0043
:1011E0009091DD008639910590F48091DF00909117
:1011F000E000892B61F48091890090918A00892B0D
:1012000031F08091C800873910F082E0E5CF8091FD
:101210009900882309F484C18091C40081117BC1A5
:101220008091C600882331F0809191008F5F809378
:10123000910002C0109291008091840081FF35C01E
:101240004091E1005091E2002091870030918800A8
:101250004217530780F010928C0010928B0010926E
:1012600096001092950010929C0010929B008D7F2A
:10127000809384001AC02091E1003091E2008091B7
:101280009F009091A0002817390778F080918B007B
:1012900090918C00969587958631910510F486E1A2
:1012A00090E090938C0080938B008091840080FF6D
:1012B00035C04091D3005091D4002091A9003091C5
:1012C000AA004217530780F010928A0010928900FA
:1012D0001092D1001092D0001092AC001092AB008E
:1012E0008E7F809384001AC02091D3003091D40067
:1012F0008091D5009091D6002817390778F0809119
:10130000890090918A00969587958631910510F411
:1013100086E190E090938A008093890080916E002E
:1013200090916C00891307C020916D0090916B0023
:10133000291709F451C040918B0050918C002091E5
:10134000890030918A004115510519F421153105A4
:1013500001F150938E0040938D003093A2002093B2
:10136000A10010928C0010928B0010928A001092B3
:1013700089001092AC001092AB0010929C00109269
:101380009B0010929600109295001092D10010923E
:10139000D0009FB5911120C060916D000E94F003B4
:1013A00020918D0030918E0030938C0020938B0023
:1013B0008091A1009091A20090938A00809389006F
:1013C00036952795309396002093950096958795AE
:1013D0009093D1008093D00020918B0030918C00AD
:1013E00080919D0090919E00A901481B590B80910E
:1013F000950090919600840F951F853A41E09407DF
:1014000014F084EA91E09093960080939500809187
:101410009500909196008C359E4F34F48CE59EEFAC
:10142000909396008093950080919D0090919E00EE
:10143000892B31F4232B21F4109296001092950001
:10144000809195009091960097FD019695958795CE
:10145000833D910514F082ED90E090939C00809381
:101460009B0080919B0090919C0097FF04C010927C
:101470009C0010929B002091890030918A008091FD
:10148000DF009091E000A901481B590B8091D0002A
:101490009091D100840F951F853A41E0940714F094
:1014A00084EA91E09093D1008093D0008091D000A5
:1014B0009091D1008C359E4F34F48CE59EEF909343
:1014C000D1008093D0008091DF009091E000892BC3
:1014D00031F4232B21F41092D1001092D00080918E
:1014E000D0009091D10097FD019695958795833D09
:1014F000910514F082ED90E09093AC008093AB00E6
:101500008091AB009091AC0097FF08C01092AC00A6
:101510001092AB0003C081508093C40010929900D8
:10152000809184009091E500981739F08093E50050
:10153000E0916500F091660009940895D49ADC9AD0
:101540000895DC98D49808950E94FA020E94B0048D
:101550000E94C7020C948E08EF92FF921F93CF93C4
:10156000DF931F92CDB7DEB7162F7A0190918400DA
:1015700091609260909384001092D6001092D500F2
:101580001092A00010929F00873180F046EF5FEF2D
:10159000481B5109440F551F4E0D5F1D5093D60037
:1015A0004093D5005093A00040939F00A701425064
:1015B00051095093AA004093A9005093880040938A
:1015C000870098E2E916F104C0F444E150E050933A
:1015D000AA004093A90050938800409387004AE0F6
:1015E00050E05093D6004093D5005093A000409314
:1015F0009F0048E2E42EF12C05C090E9E91691E045
:10160000F90698F4893288F0C701969587959695E2
:101610008795A701481B590B5093D6004093D500DE
:101620005093A00040939F0088E21092E200109235
:10163000E1001092D4001092D300682F29830E94F9
:101640008603812F0E949703F092B200E092B100CE
:10165000F0929300E0929200809184008093E500E4
:10166000E0916500F091660009952981222339F007
:101670000E94BB03811103C00E94A40AF9CF0F90FE
:10168000DF91CF911F91FF90EF900895FF920F93FC
:101690001F93CF93DF93182FF62E022F9091840083
:1016A00091609260909384009A01A0EBB2E00E9456
:1016B000840D24E630E040E050E00E945C0DE9013A
:1016C000F901E456F109F093D600E093D500F093C8
:1016D000A000E0939F003093AA002093A9003093CC
:1016E00088002093870028323105B0F444E150E0AF
:1016F0005093AA004093A90050938800409387001C
:101700004AE050E05093D6004093D5005093A0009B
:1017100040939F00C8E2D0E0612F812F0E94860392
:101720008F2D0E9497031092E2001092E100109218
:10173000D4001092D300D093B200C093B100D093E4
:101740009300C0939200809184008093E500E09123
:101750006500F09166000995002339F00E94BB03F3
:10176000811103C00E94A40AF9CFDF91CF911F918C
:101770000F91FF900895CF931BBA18BA15BAC1E024
:10178000C2BB1ABA88E587BB8CE884BB82EF81BBF9
:10179000F894C598BD9A97980E940F0610BC8CE0EB
:1017A00089B91BB886E880BD88E98AB917B886E18F
:1017B00086B910BE85E085BF80EE8BBF14BE8AE07F
:1017C00083BF83E68CBF82EA8FBD81E18EBD82ED4F
:1017D00090E097BD86BD1ABC18BC60E080E00E9416
:1017E000F00389E085BD8EE683BD82E089BF8091EC
:1017F0008F00816080938F00C09364007894CF91B4
:1018000008955D9BFECF8CB90895CF93DF93EC01D3
:101810008991882319F00E94010CFACFDF91CF91B2
:101820000895CF93DF93FC018491EF0121968823E3
:1018300021F00E94010CFE01F7CFDF91CF910895B6
:101840000F931F93CF93DF931F92CDB7DEB78C0119
:10185000040F111DF80181918F01882341F0662347
:1018600031F069830E94010C69816150F3CF0F90C0
:10187000DF91CF911F910F910895CF93DF93CDB753
:10188000DEB761970FB6F894DEBF0FBECDBF462F0F
:1018900050E0BE016F5F7F4F0E94930DCE01019615
:1018A0000E94050C61960FB6F894DEBF0FBECDBF47
:1018B000DF91CF910895EF92FF920F931F93CF93F3
:1018C000DF93CDB7DEB761970FB6F894DEBF0FBEDA
:1018D000CDBF042F462F50E09E012F5F3F4F79016F
:1018E000B9010E94930DF70101900020E9F73197AB
:1018F000EE19FF09102F1E1B111654F4115080E32E
:101900000E94010C1111FACFC7010E94050C06C0FC
:10191000412F4195602FC7010E94200C61960FB6A0
:10192000F894DEBF0FBECDBFDF91CF911F910F9115
:10193000FF90EF9008951F920F920FB60F9211240F
:101940002F938F939F93EF93FF9380917C009091BF
:101950007D00282F291B2032A8F4E0917E0091E021
:101960009E0F90937E00F0E02CB1E251FF4F208358
:101970008F5F80937C00913210F010927E00109265
:10198000ED0006C08CB18093810081E08093ED0072
:10199000FF91EF919F918F912F910F900FBE0F901C
:1019A0001F9018951092ED0080917D0090917C0021
:1019B0009817A1F08F5F80937D0080917F00813226
:1019C00010F010927F00E0917F0081E08E0F8093F5
:1019D0007F00F0E0E251FF4F8081089580E008959C
:1019E0001092ED00282FDC018A2F821B90917D0040
:1019F00030917C003917B9F08617A8F49F5F909357
:101A00007D00E0917F0081E08E0F80937F00F0E009
:101A1000E251FF4F80818D9380917F00813220F3CE
:101A200010927F00E1CF089580917C0090917D001D
:101A3000891B089557988CB18093800010927F0085
:101A400010927E0010927D0010927C001092ED00AA
:101A5000579A08950E94BB0B80E890E00E94110CF9
:101A600082E690E00E94110C8FE30E94A60288EEAD
:101A700093E00E94100880E00E94A6028091B300CB
:101A800081608093B3000E9496010E94A40AFBCF5C
:101A9000AA1BBB1B51E107C0AA1FBB1FA617B70794
:101AA00010F0A61BB70B881F991F5A95A9F78095B0
:101AB0009095BC01CD010895A1E21A2EAA1BBB1B73
:101AC000FD010DC0AA1FBB1FEE1FFF1FA217B3070A
:101AD000E407F50720F0A21BB30BE40BF50B661F20
:101AE000771F881F991F1A9469F7609570958095E4
:101AF00090959B01AC01BD01CF010895EE0FFF1F32
:101B00000590F491E02D0994A29FB001B39FC0010C
:101B1000A39F700D811D1124911DB29F700D811D19
:101B20001124911D08954532510520F4423010F0E2
:101B30000C949E0DFB011082CB010895BB274A3007
:101B400031F4992322F4BDE2909581959F4F0C9436
:101B5000AA0DBB27FB015527AA27880F991FAA1F8B
:101B6000A41710F0A41B83955051B9F7A05DAA33B8
:101B700008F0A95DA193009779F7B111B193119283
:101B8000CB010C94C30DDC01FC01672F719177230D
:101B9000E1F7329704C07C916D9370836291AE1728
:0A1BA000BF07C8F30895F894FFCFC3
:0A1BAA005B025A02015902580200C2
:00000001FF
