:100000000C94D2010C94F3010C94F3010C94F301C1
:100010000C94F3010C94F3010C94F3010C94F30190
:100020000C94F3010C94F3010C94F3010C94F30180
:100030000C94F3010C94F3010C94F3010C94F30170
:100040000C94F3010C94F3010C94F3010C94F30160
:100050000C94F3010C9445090C94F3010C94F301F6
:100060000C94F3010C94360B0C94F3010C94F301F3
:100070000C94F3010C94F3010C94F3010C94F30130
:100080000C94F3010C94F3010C94F3010C94F30120
:100090000C94F3010C94F3010C94F3010C943F06BF
:1000A0000C94F3010C94F3010C94F3010C94F30100
:1000B0000C94F3010C94F3010C94F3010C94F301F0
:1000C0000C94F3010C94F3010C94F3010C94F301E0
:1000D0000C94F3010C94F3010C94E70C0C94F301D1
:1000E0000C94F30100414353205374617475733AC7
:1000F000004578616D706C652050726F6772616D3C
:100100002032004932432D4D617374657200232300
:1001100023232323232323232323232323230023D2
:1001200023232323232323232323232323232300C2
:100130000A496E746572727570747320616E642002
:10014000493243204578616D706C652E2E2E0A0071
:100150000A0A52503620434F4E54524F4C204D32D3
:10016000353620493243204D6173746572204578DD
:10017000616D706C652050726F6772616D210A004D
:100180000A493243204552524F52202D205457499C
:100190002053544154453A203078002A000A002068
:1001A0007C20444154413A004144523A0052656334
:1001B000656976656420524335205472616E736DB3
:1001C000697373696F6E3A200046524545210A00F3
:1001D0005249474854210A004C454654210A004DD3
:1001E0004944444C45210A00202D2042756D70651C
:1001F0007273206368616E6765643A20004D4944FC
:10020000002020204D4944444C4521005249474894
:100210005400207C20523A20004C454654002D20AA
:10022000414353207374617465206368616E676530
:1002300064204C3A20000A232323205749464920B2
:100240004C6561766520434D44206D6F64650A00FE
:10025000454E54455220434D44204E4F524D414C43
:10026000210A000A23232320434D44206D6F646537
:10027000202A2A2A4641494C2A2A2A205452592007
:10028000414741494E2E2E2E0A00454E54455220DC
:10029000434D44204750494F3134210A000A23235B
:1002A00023205749464920456E74657220434D44CA
:1002B000206D6F64650A000A2323232320524554CE
:1002C00052592120232323230A000A2323232320F6
:1002D00054494D454F55542120232323236E000AB2
:1002E000232323230A005D0A00205B524553505FFD
:1002F0004F4B3A000A2323232320575249544520C9
:10030000434F4D4D414E44204641494C55524521A5
:1003100020232323230A007D0A00203B20002057AE
:100320005F434D447B000A54494D454F55540A00E4
:100330005D0A000A5B4F4B3A007D0A000A577B00BA
:100340000A54494D454F55540A005D0A000A5B4F57
:100350004B3A007D0A000A577B000A5772697465A0
:1003600020436F6D6D616420646F6E65210A0045E6
:1003700052524F52210A000A232323232054494D6D
:10038000454F5554212054525920414741494E214F
:1003900020232323230A007D0A005241575F434D47
:1003A000447B000011241FBECFEFD1E2DEBFCDBFE2
:1003B00000E00CBF12E0A0E0B2E0E6E5F5E800E006
:1003C0000BBF02C007900D92A637B107D9F71CE00A
:1003D000A6E7B2E001C01D92A43FB107E1F70E9479
:1003E00013030C94A9420C9400001F93182F80E86B
:1003F00091E00E94C40C812F90E060E10E94A21065
:100400008AE00E949F0C109276021F9108958091BD
:10041000000690910106855F9140D8F080917702A7
:10042000882341F080E06FE041E00E94E0081092F4
:1004300077020BC080E06FE00E94C1088BE991E079
:100440000E94910881E08093770210920106109239
:10045000000608950F931F93DF93CF930F920F928F
:10046000CDB7DEB7882309F0C5C085EE95E063E01F
:100470000E9453049091E5058091E20589279093AD
:10048000E205082F10E0C80180769070892B09F4EE
:1004900067C08EE192E00E94C40C8091E20585FF66
:1004A0000CC08FE60E949F0C81E06CE00E94C108A6
:1004B00089E192E00E94910808C080E20E949F0CAE
:1004C00081E06CE044E00E94E00882E192E00E945A
:1004D000C40C8091E20586FF0CC08FE60E949F0C41
:1004E00081E060E00E94C1088CE092E00E949108E7
:1004F00008C080E20E949F0C81E060E045E00E941D
:10050000E0088091E2058076803681F486E00E94E2
:10051000260781E092E00E94C40C81E067E00E941F
:10052000C1088DEF91E00E94910808C080E00E9410
:10053000260781E067E043E00E94E0088AE00E942D
:100540009F0C8091E20582958695869581700E9428
:1005500030078091E2058295869581700E9445075B
:1005600006701070012BD9F088EE91E00E94C40C47
:100570009091E205892F8670863019F48FED91E015
:100580000CC091FF03C088ED91E007C092FF03C04B
:1005900080ED91E002C089EC91E00E94C40C809152
:1005A000E20583FF25C08DEA91E00E94C40C8AE039
:1005B0006BE10E942F058AE0BE016F5F7F4F42E032
:1005C0000E94AD0488EA91E00E94C40C898190E009
:1005D0006AE00E94A2108FE991E00E94C40C8A8117
:1005E00090E06AE00E94A2108DE991E00E94C40CA4
:1005F000109276020F900F90CF91DF911F910F9183
:10060000089580917602882369F48091030183FF25
:1006100009C081E0809376028AE060E040E023E058
:100620000E942E0408950E94540A0E947F0780E5CC
:1006300091E00E94C40C80E391E00E94C40C88E425
:100640000E94620385EF91E00E947B038AE292E0C0
:100650000E9475038FE00E9426078FE191E06EE013
:1006600071E00E94C90884EF91E00E94E10983E0F3
:1006700091E061EF70E00E94C90888EE93E00E946B
:10068000E10980E00E94260785EE90E064EE70E0CC
:100690000E94C9088AE060E049E022E00E948E05DD
:1006A0008AE060E04BE021E00E948E058091FF052A
:1006B00081608093FF050E9401030E9490030E94C5
:1006C0000702F9CFF8948093B8001092B9008FEF29
:1006D0008093BB0084E08093BC00809178028160AD
:1006E00080937802789408950895909301028093FE
:1006F00000020895089590930302809302020895E2
:10070000DF93CF930F92CDB7DEB786E989838981D6
:10071000815089838F5FD9F70F90CF91DF91089532
:10072000DF93CF930F92CDB7DEB78091BC0080FDF1
:1007300071C08091780280FF50C080917F02882331
:1007400009F468C08130D1F486E9898389818150B8
:1007500089838F5FD9F792E09093C10280917A02EA
:100760008093810280917B028093820210927802B2
:1007700085EA8093BC0090937F024CC08230E1F404
:1007800086E989838981815089838F5FD9F7809138
:100790007C028F5F8093C10280917A028160809396
:1007A0007A02809381021092780285EA8093BC00DD
:1007B00083E080937F022EC0833061F510927F0228
:1007C00080917D0290917E022FEF8F3F920711F171
:1007D000E0910002F09101021CC08091BC0080FDFC
:1007E000FCCF909179029923A9F010927F02809119
:1007F000780281608093780210927A0210927E02D1
:1008000010927D0210927C02E0910202F0910302AC
:10081000892F19950F90CF91DF910895FF920F9333
:100820001F93182F062FF42E02C00E949003809170
:10083000BC0080FDFACF80917F028823B1F782E06F
:1008400080937F0210937A0200937D0210927E02C1
:10085000F0927C021F910F91FF900895EF92FF920A
:100860000F931F93E82E162F042FF22E02C00E9422
:1008700090038091BC0080FDFACF80917F02882395
:10088000B1F781E080937F0210937D0210927E0287
:10089000E0927A0200937B02F0927C021F910F910A
:1008A000FF90EF9008959C018091BC0080FDFCCFEB
:1008B0008091780280FF0CC0E2E9F2E0D90170E09B
:1008C0006E0F7F1F02C081918D93E617F707D9F74E
:1008D00008958091BC0080FDFCCF8091790208953D
:1008E000FF920F931F93CF93DF93082FF62EEA0109
:1008F000122F02C00E9490038091BC0080FDFACFAD
:1009000080917F028823B1F781E080937F0200937A
:100910007A028FEF9FEF90937E0280937D02F09298
:100920007B0210937C0202C00E9490038091BC0065
:1009300080FDFACF80917F028823B1F78091780201
:1009400080FF05C01F5FCE01612F0E945304DF911D
:10095000CF911F910F91FF900895EF92FF920F9307
:100960001F93DF93CF930F92CDB7DEB7082F7B0194
:10097000142F02C00E9490038091BC0080FDFACF2A
:1009800080917F028823B1F786E98983898181502C
:1009900089838F5FD9F782E080937F0200937A0288
:1009A0008FEF9FEF90937E0280937D0210937C02E5
:1009B00002C00E9490038091BC0080FDFACF80911C
:1009C0007F028823B1F78091780280FF05C01F5F06
:1009D000C701612F0E9453040F90CF91DF911F91A7
:1009E0000F91FF90EF9008951F93DF93CF930F9295
:1009F000CDB7DEB7182F02C00E9490038091BC00D3
:100A000080FDFACF80917F028823B1F786E9898340
:100A10008981815089838F5FD9F782E080937F023B
:100A200010937A028FEF9FEF90937E0280937D0266
:100A300081E080937C0202C00E94900380917F023B
:100A40008823D1F78091780280FD02C080E002C047
:100A5000809192020F90CF91DF911F9108950F9393
:100A60001F93DF93CF930F92CDB7DEB7182F062FCA
:100A700002C00E9490038091BC0080FDFACF80915B
:100A80007F028823B1F786E9898389818150898330
:100A90008F5FD9F782E08093C102109381020093A7
:100AA00082021092780285EA8093BC000F90CF9169
:100AB000DF911F910F910895FF920F931F93DF9382
:100AC000CF930F92CDB7DEB7182F062FF42E02C0AA
:100AD0000E9490038091BC0080FDFACF80917F023C
:100AE0008823B1F786E989838981815089838F5F63
:100AF000D9F783E08093C1021093810200938202B0
:100B0000F09283021092780285EA8093BC000F90E5
:100B1000CF91DF911F910F91FF900895EF92FF9277
:100B20000F931F93DF93CF930F92CDB7DEB7182F9C
:100B3000062FF42EE22E02C00E9490038091BC008A
:100B400080FDFACF80917F028823B1F786E98983FF
:100B50008981815089838F5FD9F784E08093C102B6
:100B60001093810200938202F0928302E092840249
:100B70001092780285EA8093BC000F90CF91DF91AC
:100B80001F910F91FF90EF900895DF92EF92FF92E7
:100B90000F931F93DF93CF930F92CDB7DEB7182F2C
:100BA000F62EE42ED22E02C00E9490038091BC004B
:100BB00080FDFACF80917F028823B1F786E989838F
:100BC0008981815089838F5FD9F785E08093C10245
:100BD00010938102F0928202E0928302D09284020A
:100BE000009385021092780285EA8093BC000F90F2
:100BF000CF91DF911F910F91FF90EF90DF900895BB
:100C0000EF92FF920F931F93DF93CF930F92CDB785
:100C1000DEB7082FF62EE72E142F02C00E94900395
:100C20008091BC0080FDFACF80917F028823B1F7CC
:100C300086E989838981815089838F5FD9F7412F24
:100C40004F5F4093C10200938102A2E8B2E08F2D72
:100C50009E2D9C01F90102C081918D938E2F8F19D9
:100C60008417D0F31092780285EA8093BC000F902D
:100C7000CF91DF911F910F91FF90EF9008951F92F8
:100C80000F920FB60F920BB60F9211242F933F9332
:100C90008F939F93EF93FF938091B9008832D1F0A7
:100CA000893240F48031A1F08831A1F0883009F018
:100CB00050C00EC0803459F1813420F4883309F0DB
:100CC00048C041C08035B9F0883509F042C02DC018
:100CD00010928002909180028091C102981768F56D
:100CE000E92FF0E0EF57FD4F80818093BB009F5FBD
:100CF0009093800218C0809180029091BB00E82FF1
:100D0000F0E0EF56FD4F90838F5F8093800220913B
:100D1000800230E08091C10290E0019728173907E6
:100D200014F485EC1BC085E819C08091BB00E091EC
:100D30008002F0E0EF56FD4F808380917802816061
:100D4000809378020AC08091B9008093790285EA85
:100D500005C08091B9008093790284E98093BC003A
:100D6000FF91EF919F918F913F912F910F900BBE2B
:100D70000F900FBE0F901F901895982F80917A00BA
:100D800086FF03C020E030E01CC0983020F088E0EF
:100D900080937B0002C010927B00977090649093C8
:100DA0007C0086ED80937A0080917A0086FDFCCFEE
:100DB00080917A00806180937A0020917800309150
:100DC0007900C90108958EBD0DB407FEFDCF0895C9
:100DD0008FEF8EBD0DB407FEFDCF8EB508958FEF5A
:100DE0008EBD0DB407FEFDCF3EB58FEF8EBD0DB4A9
:100DF00007FEFDCF2EB5932F80E030E0282B392B56
:100E0000C90108959EBD0DB407FEFDCF8EBD0DB482
:100E100007FEFDCF0895FC0190E007C080818EBDE4
:100E20000DB407FEFDCF9F5F31969617B8F3089576
:100E3000FC0190E02FEF07C02EBD0DB407FEFDCFE3
:100E40008EB581939F5F9617B8F3089598B1937C00
:100E500098B998B1880F880F8C73982B98B908951A
:100E6000429898B1811184E0892B88B908954398FC
:100E700098B1811188E0892B88B90895449898B178
:100E8000811180E1892B88B90895459898B1811125
:100E900080E2892B88B9089582B91092100680915A
:100EA000100690E00797DCF3A19A26E930E0C9012B
:100EB00021503040892BD9F70000A19824E130E07F
:100EC000C90121503040892BD9F700000895A2981C
:100ED0000E944C0724EF31E0C90121503040892B9A
:100EE000D9F70000089581E00E9467072CE735E1FB
:100EF000C90121503040892BD9F70000089520ED19
:100F000034E8C90121503040892BD9F70000A0985E
:100F1000A298A19825E030E007C0109210068091B9
:100F2000100690E00C97DCF3215030408FEF2F3FFC
:100F3000380799F780E30E9467072CEC38EDC90168
:100F400021503040892BD9F7000022E330E007C060
:100F5000109210068091100690E00C97DCF321505F
:100F600030408FEF2F3F380799F780E30E946707E3
:100F70002CEC38EDC90121503040892BD9F7000005
:100F800025E030E007C0109210068091100690E036
:100F90000C97DCF3215030408FEF2F3F380799F743
:100FA00080E30E9467072CEC38EDC90121503040E6
:100FB000892BD9F7000025E030E007C01092100619
:100FC0008091100690E00C97DCF3215030408FEFB9
:100FD0002F3F380799F788E30E9467072CEC38ED1C
:100FE000C90121503040892BD9F7000021E030E0C1
:100FF00007C0109210068091100690E00C97DCF369
:10100000215030408FEF2F3F380799F788E00E943A
:1010100067072CEC38EDC90121503040892BD9F7F6
:10102000000021E030E007C0109210068091100609
:1010300090E00C97DCF3215030408FEF2F3F3807C2
:1010400099F781E00E9467072CEC38EDC901215027
:101050003040892BD9F7000021E030E007C0109222
:1010600010068091100690E00C97DCF32150304080
:101070008FEF2F3F380799F782E00E9467072CEC2B
:1010800038EDC90121503040892BD9F7000021E00B
:1010900030E007C0109210068091100690E00C9787
:1010A000DCF3215030408FEF2F3F380799F78CE069
:1010B0000E9467072CEC38EDC90121503040892B84
:1010C000D9F7000021E030E007C0109210068091AF
:1010D000100690E00C97DCF3215030408FEF2F3F4B
:1010E000380799F725E030E007C01092100680918C
:1010F000100690E00C97DCF3215030408FEF2F3F2B
:10110000380799F70E9473070895A29A0E944C0726
:1011100022E330E0C90121503040892BD9F700008B
:101120000895CF93DF93EC0102C00E948508FE0171
:10113000219684918823C9F7DF91CF910895CF93A9
:10114000DF93EC0103C021960E94850888818823E3
:10115000D1F7DF91CF9108951F93CF93DF93162F8F
:10116000EC01C40FD11D04C021960E9485081150C6
:101170008881882311F01123B9F7DF91CF911F9156
:1011800008956068813009F4605C862F0E946707CB
:101190000895EF92FF920F931F938C017B010E94A1
:1011A0007307C8010E94910881E060E00E94C108B5
:1011B000C7010E9491081F910F91FF90EF90089531
:1011C0001F93142F0E94C10804C080E20E9485086A
:1011D00011501123D1F71F910895949916C028EE4C
:1011E00033E0C90121503040892BD9F70000949990
:1011F00024C028EE33E0C90121503040892BD9F7B3
:101200000000949902C081E00895939916C028EED9
:1012100033E0C90121503040892BD9F70000939960
:101220000CC028EE33E0C90121503040892BD9F79A
:101230000000939902C082E0089580E008958091B3
:10124000C402882341F00E94ED08882311F4109213
:10125000C40280E008950E94ED088093C4020895BE
:101260001F931091C302112349F00E94ED088823B7
:1012700011F010E007C01092C30204C00E94ED08F4
:101280008093C302812F1F9108951F920F920FB672
:101290000F9211248F939F938091E3059091E40521
:1012A00001969093E4058093E305809110068F5F8B
:1012B00080931006809111068F5F809311068150F4
:1012C000893008F46AC08091FF0580FF09C08091D1
:1012D0000006909101060196909301068093000606
:1012E0008091FF0581FF09C080910206909103065D
:1012F000019690930306809302068091FF0582FF7A
:1013000009C0809104069091050601969093050608
:10131000809304068091FF0583FF09C08091060633
:101320009091070601969093070680930606809198
:10133000FF0584FF09C08091080690910906019677
:1013400090930906809308068091FF0585FF09C0E8
:1013500080910A0690910B06019690930B0680935C
:101360000A068091FF0586FF09C080910C069091C6
:101370000D06019690930D0680930C068091FF0553
:1013800087FF09C080910E0690910F0601969093F9
:101390000F0680930E06109211069F918F910F9069
:1013A0000FBE0F901F90189510921006282F30E056
:1013B0002F5F3F4F8091100690E028173907D4F730
:1013C00008959C0109C0109210068091100690E0CB
:1013D0000C97DCF32150304021153105A1F7089519
:1013E000DF93CF930F920F92CDB7DEB79A838983A5
:1013F00089819A8101979A8389830196C9F70000B0
:101400000F900F90CF91DF910895F999FECF90E062
:1014100092BD81BD60BDFA9AF99A0895F999FECFFF
:1014200090E092BD81BDF89A80B50895F999FECFFC
:1014300012BC11BCF89A80B58A32E1F4F999FECF5A
:1014400088E090E092BD81BDF89A80B58093350127
:10145000F999FECF87E090E092BD81BDF89A80B502
:10146000809334011092300186E08093320188E944
:10147000809331010895F999FECF12BC11BCF89AFE
:1014800080B58A3271F4F999FECF86E190E092BD81
:1014900081BDF89A00B400FE04C081E08093C202CE
:1014A00008951092C20208950F931F93F894989A8A
:1014B000A098999AA19812B887EF85B983E888B95E
:1014C0000FEF0BB98DEF8EB901BB88E384BB00939E
:1014D00002018DE780930501009308018FE380935B
:1014E0000B0101B914B88CE787B91AB812E01DB91D
:1014F00010BA87E083BB1092010196E0909304013B
:101500001092070180EC80930A011092C50089E1D6
:101510008093C4001092C0009093C20028E92093E9
:10152000C1001092350183E08093340110923001A4
:1015300090933201209331010E94FA0B0E94B20D68
:1015400014BD15BD87EC87BD08BD10936E000E94C9
:10155000160A0E943B0A78941F910F9108950F93E9
:101560001F93462F0EEE15E0B80150E00E94444252
:10157000C8010E949F081F910F910895EF92FF925A
:101580000F931F93DF93CF93CDB7DEB761970FB65D
:10159000F894DEBF0FBECDBF262F042F7E01089426
:1015A000E11CF11CB701422F50E00E944442F701B8
:1015B00001900020E9F73197EE19FF09102F1E1B4B
:1015C00011165CF4115080E30E9485081123D1F7B5
:1015D000CE0101960E949F0806C01195C701602F99
:1015E000412F0E94AC0861960FB6F894DEBF0FBE83
:1015F000CDBFCF91DF911F910F91FF90EF90089594
:10160000982F8091C00085FFFCCF9093C60008956D
:10161000FC0107C08091C00085FFFCCF31969093FC
:10162000C60090819923B1F708959C0106C080916E
:10163000C00085FFFCCF9093C600F9012F5F3F4F9C
:1016400094919923A1F70895FC01E40FF11D08C0BE
:101650008091C00085FFFCCF31969093C600615009
:101660009081992311F0662399F708951F920F92A4
:101670000FB60F920BB60F9211242F933F934F93F7
:101680005F938F939F93EF93FF934091CB02509181
:10169000CC028091C9029091CA029A01281B390B91
:1016A000C901845F9140F8F48091C7029091C8020B
:1016B0002091C600FC01EB5EF94F208301969093C8
:1016C000C8028093C7024F5F5F4F5093CC02409394
:1016D000CB02855F914020F01092C8021092C702A1
:1016E0001092140607C08091C6008093CE0281E05C
:1016F00080931406FF91EF919F918F915F914F918D
:101700003F912F910F900BBE0F900FBE0F901F9027
:101710001895109214062091C9023091CA02809146
:10172000CB029091CC028217930711F4E0E01EC027
:101730002F5F3F4F3093CA022093C9028091C502A8
:101740009091C602855F914020F01092C6021092DF
:10175000C5028091C5029091C602FC01EB5EF94F73
:10176000E08101969093C6028093C5028E2F089562
:10177000DC011092140640E050E020C02F5F3F4F84
:101780003093CA022093C9028091C5029091C6028B
:10179000FC01EB5EF94F2081FD01E40FF51F208372
:1017A00001969093C6028093C502855F914020F018
:1017B0001092C6021092C5024F5F5F4F2091C9027E
:1017C0003091CA028091CB029091CC02821793078C
:1017D00019F04617570790F2CA0108952091CB02DD
:1017E0003091CC028091C9029091CA02281B390B1A
:1017F000C9010895E1ECF0E080818F7780838091CA
:10180000C6008093CD021092C6021092C5021092BB
:10181000C8021092C7021092CA021092C902109216
:10182000CC021092CB0210921406808180688083D3
:1018300008950F931F93DF93CF93CDB7DEB76197D2
:101840000FB6F894DEBF0FBECDBF462F8E010F5FDF
:101850001F4FB80150E00E944442C8010E94080B8B
:1018600061960FB6F894DEBF0FBECDBFCF91DF916A
:101870001F910F910895FF920F931F93DF93CF93C2
:10188000CDB7DEB761970FB6F894DEBF0FBECDBF00
:10189000262FF42E8E010F5F1F4FB801422F50E00C
:1018A0000E944442F80101900020E9F73197E01BC3
:1018B000F10B4F2D4E1B14167CF490E34150809198
:1018C000C00085FFFCCF9093C6004423B9F7CE013A
:1018D00001960E94080B05C04195C8016F2D0E941A
:1018E000240B61960FB6F894DEBF0FBECDBFCF912B
:1018F000DF911F910F91FF9008950F931F93DF9336
:10190000CF93CDB7DEB7A1970FB6F894DEBF0FBE69
:10191000CDBF242F8E010F5F1F4FA80130E00E9422
:101920006542C8010E94080BA1960FB6F894DEBF6D
:101930000FBECDBFCF91DF911F910F910895382F2A
:1019400001C000008091300185FFFBCF209168022B
:101950009091CF028091030187FF04C0222311F0F0
:1019600091E0F8CF9093CF02309336010895CF9352
:10197000DF93EC0103C021960E949F0C888188238D
:10198000D1F7DF91CF910895CF93DF93EC0102C09F
:101990000E949F0CFE01219684918823C9F7DF9154
:1019A000CF9108951F93CF93DF93162FEC01C40FAF
:1019B000D11D04C021960E949F0C1150888188235C
:1019C00011F01123B9F7DF91CF911F9108951F9264
:1019D0000F920FB60F920BB60F9211242F933F93D5
:1019E0004F935F938F939F93EF93FF934091D60212
:1019F0005091D7028091D4029091D5029A01281B70
:101A0000390BC901885E9340F8F48091D20290911D
:101A1000D30220913601FC01E55FF64F2083019649
:101A20009093D3028093D2024F5F5F4F5093D702BF
:101A30004093D602895E934020F01092D302109218
:101A4000D20210920A090CC0809136018093E30201
:101A50008091050184608093050181E080930A09EB
:101A6000FF91EF919F918F915F914F913F912F91B6
:101A70000F900BBE0F900FBE0F901F9018952091E6
:101A8000D4023091D5028091D6029091D70282176C
:101A9000930711F4E0E025C02F5F3F4F3093D5024C
:101AA0002093D4028091D0029091D102895E93401C
:101AB00020F01092D1021092D00210920A09809167
:101AC00005018B7F809305018091D0029091D10216
:101AD000FC01E55FF64FE08101969093D10280937F
:101AE000D0028E2F0895DC0140E050E023C08091A9
:101AF000D4029091D50201969093D5028093D4029E
:101B00008091D0029091D102FC01E55FF64F2081D7
:101B1000FD01E40FF51F208301969093D10280937D
:101B2000D002895E934020F01092D1021092D00230
:101B30004F5F5F4F46175707D0F210920A09809106
:101B400005018B7F80930501CB0108952091D6027A
:101B50003091D7028091D4029091D502281B390B85
:101B6000C9010895E1E3F1E080818F77808380915E
:101B700036018093E2021092D1021092D0021092AC
:101B8000D3021092D2021092D5021092D402109277
:101B9000D7021092D60210920A0980818068808351
:101BA000E5E0F1E080818B7F808308958A3011F039
:101BB0008D3021F59091E102992379F08A3019F462
:101BC0009D3059F404C08D3041F49A3031F41092B4
:101BD000E1021092DF0280E008958093E10280919B
:101BE000DF02E82FF0E0E65FF74F10828093DD021E
:101BF0001092DE021092DF0281E008959091DF02E0
:101C00009F3F71F4109209098FEF90E09093DE02EC
:101C10008093DD021092E1021092DF0282E00895CB
:101C20001092E102E92FF0E0E65FF74F80839F5FBB
:101C30009093DF0280E0089584E092E00E94080B18
:101C40008CE292E00E94B70C8EE292E00E94B70C08
:101C500086E990E00E94E1098CE292E00E94B70CD4
:101C600082E390E00E94E1098EE292E00E94B70CCC
:101C700086E990E00E94E1098CE292E00E94B70CB4
:101C80008EE292E00E94B70C8CE292E00E94B70CC8
:101C900086E990E00E94E10984E392E00E94080B4B
:101CA00004C00E943F0D0E94000B2091D60230918B
:101CB000D7028091D4029091D5022817390789F76D
:101CC00084E592E00E94080B0895CF92DF92EF9294
:101CD000FF920F931F93082F6A017B0186E593E023
:101CE0000E94150B802F0E94000B83E593E00E9459
:101CF000150B40E050E060E070E02091D60230919A
:101D0000D7028091D4029091D50228173907E1F0CB
:101D10000E943F0D182F0E94000B101789F48DE4CC
:101D200093E00E94150B802F0E94000B8AE493E041
:101D30000E94150B8AE090E00E94E10981E018C042
:101D400040E050E060E070E04C155D056E057F05F9
:101D500050F080E493E00E94150B84E690E00E942E
:101D6000E10980E005C04F5F5F4F6F4F7F4FC5CFE8
:101D70001F910F91FF90EF90DF90CF900895CF9239
:101D8000DF92EF92FF921F93CF93DF93EC016A01F2
:101D90007B018CE393E00E94150BCE010E94080B9F
:101DA00089E393E00E94150B40E050E060E070E0B2
:101DB0002091D6023091D7028091D4029091D50221
:101DC0002817390769F10E943F0D182F0E94000B58
:101DD000812F0E94D60D8823F9F08091DD02909129
:101DE000DE020297C8F08AE098E0BE010E942A4213
:101DF000009791F083E393E00E94150B8AE098E04E
:101E00000E94080B80E393E00E94150B8AE090E0AB
:101E10000E94E10981E018C040E050E060E070E01D
:101E20004C155D056E057F0550F086E293E00E943B
:101E3000150B84E690E00E94E10980E005C04F5F49
:101E40005F4F6F4F7F4FB4CFDF91CF911F91FF90C6
:101E5000EF90DF90CF9008958DE992E00E94150BEE
:101E60000E94B20D8091C2028823A1F18AE892E01B
:101E70000E94150B469A85E090E00E94E1098CE2F1
:101E800092E00E94B70C8FE348EF54E261E070E00B
:101E90000E94650E8823E1F4469883E692E00E9452
:101EA000150B85E090E00E94E109469A85E090E0FC
:101EB0000E94E1098CE292E00E94B70C8FE340EBB4
:101EC00051E76BE070E00E94650E882331F146987F
:101ED000469816C080E592E00E94150B84E091E0E0
:101EE0000E94E10986E592E00E94B70C8AE592E043
:101EF00040EE50E762E770E00E94BF0E882369F071
:101F000085E090E00E94E1098CE292E00E94B70C2B
:101F100081E090E00E94E10908950E941C0E08955E
:101F2000CF92DF92EF92FF920F931F93CF93DF93A5
:101F3000EC018AE993E00E94150BCE010E94080B88
:101F400087E993E00E94150B0E94B20D42C08D2DCF
:101F50000E94000B8D2D0E949F0C96E9E92EF12C1A
:101F6000012D112DCC2482E00E94D4092091D602AB
:101F70003091D7028091D4029091D5022817390769
:101F800029F00E943F0D8D15E9F422C0E114F104FF
:101F90000105110531F00894E108F1080109110962
:101FA000E2CF81E08C1570F087E793E00E94150B7B
:101FB0008D2D0E949F0CC3948AEFE82EF12C012DE9
:101FC000112DD1CF8FE693E00E94150B80E00AC05F
:101FD0002196D880DD2009F0BACF8AE593E00E94EF
:101FE000150B81E0DF91CF911F910F91FF90EF9042
:101FF000DF90CF9008950F931F93CF93DF93EC0161
:102000008B018EE193E00E94150BCE010E94080B1C
:102010008AE193E00E94150BC8010E94080B87E13A
:1020200093E00E94150BCE010E94900F181634F019
:1020300084EF92E00E94150B8FEF6CC08CE292E06F
:102040000E94B70C40E050E060E070E02091D602C2
:102050003091D7028091D4029091D5022817390788
:1020600049F10E943F0D0E94D60D882309F449C012
:102070008091DD029091DE02029708F442C08AE06E
:1020800098E0B8010E942A420097D9F189EE92E0C7
:102090000E94150B8AE098E00E94080B86EE92E001
:1020A0000E94150B8AE090E00E94E1091092E00284
:1020B00081E030C0403980ED580783E0680780E058
:1020C000780718F18FED92E00E94150BCE010E9467
:1020D000080B8AEC92E00E94150B84E690E00E94C7
:1020E000E1098091E002833040F48F5F8093E00249
:1020F00087EB92E00E94150B84CF1092E00280E003
:1021000009C040E050E060E070E04F5F5F4F6F4F0C
:102110007F4F9CCFDF91CF911F910F91089586E360
:1021200092E00E94150B8CE292E00E94B70C86E9C7
:1021300090E00E94E1098EE592E063E672E00E9481
:10214000FB0F08950F931F93DF93CF93CDB7DEB7A7
:1021500061970FB6F894DEBF0FBECDBF462F8E013C
:102160000F5F1F4FB80150E00E944442C8010E9417
:10217000B70C61960FB6F894DEBF0FBECDBFCF91FE
:10218000DF911F910F910895EF92FF920F931F938C
:10219000DF93CF93CDB7DEB761970FB6F894DEBF6C
:1021A0000FBECDBF262F042F7E010894E11CF11C29
:1021B000B701422F50E00E944442F70101900020F5
:1021C000E9F73197EE19FF09102F1E1B11165CF469
:1021D000115080E30E949F0C1123D1F7CE0101968C
:1021E0000E94B70C06C01195C701602F412F0E94B5
:1021F000D20C61960FB6F894DEBF0FBECDBFCF9163
:10220000DF911F910F91FF90EF9008950F931F930F
:10221000DF93CF93CDB7DEB7A1970FB6F894DEBFAB
:102220000FBECDBF242F8E010F5F1F4FA80130E0DE
:102230000E946542C8010E94B70CA1960FB6F8949F
:10224000DEBF0FBECDBFCF91DF911F910F910895DB
:1022500081E0089580E00895282F8FEF8EBD0DB4A2
:1022600007FEFDCF8DB58F778DBD8EB5822F806433
:102270008EBD0DB407FEFDCF8DB58F778DBD872F39
:102280009927AA27BB278EBD0DB407FEFDCF8DB5BC
:102290008F778DBDCB01AA27BB278EBD0DB407FE5E
:1022A000FDCF8DB58F778DBDBB27A72F962F852F9F
:1022B0008EBD0DB407FEFDCF8DB58F778DBD4EBDA4
:1022C0000DB407FEFDCF8DB58F778DBD222319F09C
:1022D000283069F406C085E98EBD0DB407FEFDCF38
:1022E0000BC087E88EBD0DB407FEFDCF05C08FEF94
:1022F0008EBD0DB407FEFDCF8DB58F778DBD90E0FF
:102300002FEF2EBD0DB407FEFDCF8DB58F778DBDA0
:102310008EB58F3F19F49F5F9A3099F708958F9289
:102320009F92AF92BF92CF92DF92EF92FF920F9364
:102330001F93CF93DF93EC01009781F08DE1FE01B5
:1023400011928A95E9F728988AE040E050E060E031
:1023500070E00E942C11882319F0289A80E021C196
:102360009FEF9EBD0DB407FEFDCF8DB58F778DBD60
:102370008EB58E3FB1F71C2FCE01FC0160E670E0F8
:102380000FEF9E2F911B0EBD0DB407FEFDCF8DB537
:102390008F778DBD2EB5983028F4933088F499232B
:1023A00059F00CC09D3018F4993070F40BC09D307A
:1023B00019F19E3069F524C028832AC0208328C0E3
:1023C000218326C02A8724C030E040E050E0062E5A
:1023D00004C0220F331F441F551F0A94D2F78B8568
:1023E0009C85AD85BE85822B932BA42BB52B8B872B
:1023F0009C87AD87BE870CC02295207F2F8708C0A1
:10240000922F92959F708F85892B8F872F70288BA5
:102410003196685070408FEF603D780709F0B1CF7A
:1024200089E040E050E060E070E00E942C118823D9
:1024300009F093CF9FEF9EBD0DB407FEFDCF8DB584
:102440008F778DBD8EB58E3FB1F78091ED04C82E8C
:10245000DD24E2E0CE22DD249924BB24EE24FF24F7
:1024600010E088248A94AA24A3948EBC0DB407FE9D
:10247000FDCF8DB58F778DBD2EB51E3081F4822FA7
:1024800090E026FDA98E85FDAA8E84FDAB8E8C7012
:10249000907095958795959587958C8F7CC0C11484
:1024A000D10439F1173029F0173050F01A3040F4C8
:1024B00001C02F739E2D8827E22EFF24E82AF92AD7
:1024C000193009F068C00894E11CF11C970140E044
:1024D00050E060E070E080E090E003E10E94C040E6
:1024E000298B3A8B4B8B5C8B6D8B7E8B8F8B988F74
:1024F00052C01730D9F0183030F4153061F0163072
:1025000009F049C00CC0193031F11930C0F01A304F
:1025100009F041C025C07FE0972E92223CC0822F57
:1025200090E083709070F82EEE2435C0822F90E0FA
:10253000E82AF92AEE0CFF1CEE0CFF1C2CC0229599
:10254000269526952370822F90E0E82AF92A089490
:10255000E11CF11C20C043E0B42EB222BB0C1BC016
:10256000221F2227221FB22A970140E050E0E92DC6
:10257000F0E03296EB0DF11D04C0220F331F441F13
:10258000551FEA95D2F7298B3A8B4B8B5C8B1D8AB2
:102590001E8A1F8A188E1F5F123109F066CF289A93
:1025A00081E0DF91CF911F910F91FF90EF90DF902D
:1025B000CF90BF90AF909F908F9008952F923F92B1
:1025C0004F925F926F927F928F929F92AF92BF9243
:1025D000CF92DF92EF92FF920F931F93DF93CF93EF
:1025E000CDB7DEB72C970FB6F894DEBF0FBECDBFC8
:1025F00039014A015B016C011A830983FC82EB8279
:1026000090C1BFEF4B2EB1E05B2E462057209201C8
:10261000A62DA419AA87E1E06A1608F0E0E0872D4C
:10262000831B21E0781608F020E0B82FBE1BBD8385
:1026300091E08B1708F090E0292BE82DE21BEE8348
:1026400031E08E1608F030E0F92DF31BFF8361E0D6
:102650009F1608F060E02A2D261B288771E0A2163D
:1026600008F070E02B2C271A91E0B21408F090E0EB
:102670003C2C391A91E0C31408F090E03D2D391B31
:10268000398780E092E0841995099C878B87AB811C
:10269000BC81A817B90710F4BC87AB878091E4040C
:1026A000BA858B1709F58091E504ED818E17E1F469
:1026B0008091E604FE818F17B9F48091E7042F81A1
:1026C000821791F48091E8043885831769F480912A
:1026D000E904821549F48091EA04831529F4809174
:1026E000EB0499858917A9F10E94B214882309F493
:1026F0001FC14114510429F4AB85BC85A050B240E0
:1027000090F42A853D814E815F816885722D832DED
:10271000998504EE12E0E12CA2E0FA2E0E94DD146D
:10272000882309F405C1FA85F093E4042D812093F0
:10273000E5043E813093E6048F818093E704988519
:102740009093E8042092E9043092EA04A985A093CA
:10275000EB04E981FA81E45EF240A1F092012C5190
:102760003D4FC90169817A814B855C850E94DE41BC
:102770001092EC048B819C81AB85BC858A179B07EA
:1027800009F4D4C028988091ED0482FF0FC02A85F7
:102790003D814E815F816885722D832D998509E089
:1027A0000E944140BA01A9019B0105C08A859D8113
:1027B0002E813F81AC0188E1B9010E942C11882350
:1027C00011F0289AB5C0BEEFBEBD0DB407FEFDCF17
:1027D0008DB58F778DBDE4EEF2E081918EBD0DB4A5
:1027E00007FEFDCF8DB58F778DBD24E0E43EF20767
:1027F000A1F73FEF3EBD0DB407FEFDCF8DB58F773E
:102800008DBD8FEF8EBD0DB407FEFDCF8DB58F77DB
:102810008DBD9FEF9EBD0DB407FEFDCF8DB58F77AB
:102820008DBD8EB58F3FA9F78EBD0DB407FEFDCFD0
:102830008DB58F778DBD8EB5289AA981BA81EB852C
:10284000FC85AE0FBF1FBA83A9839F0140E050E013
:1028500060E070E080E090E0462C4E0EF1E046141F
:1028600008F0F0E0E72DE30FA1E0E71508F0A0E0A5
:102870005F2E5E0EF1E05E1608F0F0E0AF2BE82D63
:10288000E40FB1E0E81508F0B0E0EA2EEE0EF1E05A
:10289000EE1608F0F0E0BF2BE92DE50FA1E0E915F9
:1028A00008F0A0E0FB2EFE0EF1E0FE1608F0F0E0CE
:1028B000AF2BEA2DE60FB1E0EA1508F0B0E00A2FE1
:1028C0000E0FF1E00E1708F0F0E0BF2BEB2DE70F35
:1028D000A1E0EB1508F0A0E01B2F1E0FF1E01E1782
:1028E00008F0F0E0AF2BEC2DE80FB1E0EC1508F0AC
:1028F000B0E0AE0FF1E0AE1708F0F0E0BF2B8D2D89
:10290000890F3201470158016D01D80E2B813C819E
:102910008B859C85281B390B3C832B8391E09093FE
:10292000EC04AB81BC81AB2B09F06BCE81E001C024
:1029300080E02C960FB6F894DEBF0FBECDBFCF91CE
:10294000DF911F910F91FF90EF90DF90CF90BF909C
:10295000AF909F908F907F906F905F904F903F903F
:102960002F900895EF92FF920F931F938091EC04A4
:10297000882311F081E01CC02091E4043091E5042B
:102980004091E6045091E7046091E8047091E904F5
:102990008091EA049091EB0404EE12E0E12CE2E075
:1029A000FE2E0E94DE12882319F081E08093EC0451
:1029B0001F910F91FF90EF9008952F923F924F92A9
:1029C0005F926F927F928F929F92AF92BF92CF92BF
:1029D000DF92EF92FF920F931F93DF93CF93CDB7C8
:1029E000DEB729970FB6F894DEBF0FBECDBF390111
:1029F0004A015B016C012801FA82E9826BC1FFEF99
:102A0000EF2EF1E0FF2EE620F7209701A62DAE195C
:102A1000AF83E1E06A1608F0E0E0872D831B21E038
:102A2000781608F020E0B82FBE1BBB8391E08B170F
:102A300008F090E0292B382C321A31E0831408F08A
:102A400030E0192D131B61E0911608F060E0EA2DCB
:102A5000E61BEC8371E0AE1608F070E0FB2DF71B6F
:102A6000FD8391E0BF1608F090E02C2C291A91E02C
:102A7000C21408F090E02D2D291B2E8380E092E0F7
:102A80008E199F0999878887A981BA81A817B907E4
:102A900010F4B987A8878091E404BF818B1709F5EA
:102AA0008091E504EB818E17E1F48091E6048315B3
:102AB000C1F48091E7048117A1F48091E804FC81BE
:102AC0008F1779F48091E9042D81821751F4809158
:102AD000EA04821531F48091EB043E81831709F4F6
:102AE00083C00E94B214882309F4FAC02898809108
:102AF000ED0482FF0FC02F813B81432D512F6C814C
:102B00007D81822D9E8109E00E944140BA01A90188
:102B10009B0105C08F819B81232D312FAC0181E169
:102B2000B9010E942C11882319F0289A80E0D8C09E
:102B30008FEF8EBD0DB407FEFDCF8DB58F778DBDA8
:102B40008EB58E3FA9F7E4EEF2E09FEF9EBD0DB487
:102B500007FEFDCF8DB58F778DBD8EB58083A4E048
:102B6000E33EFA0711F03196F0CFBF81B093E40451
:102B7000EB81E093E5043092E6041093E704FC81D6
:102B8000F093E8042D812093E9042092EA043E8129
:102B90003093EB0497012C513D4FC201B901488598
:102BA00059850E94DE418FEF8EBD0DB407FEFDCF2B
:102BB0008DB58F778DBD8EB59FEF9EBD0DB407FE91
:102BC000FDCF8DB58F778DBD8EB5289AAFEFAEBD99
:102BD0000DB407FEFDCFE885F9854E0E5F1E8DB55D
:102BE0008F778DBD8EB50DC097012C513D4FC20121
:102BF000B901488559850E94DE4128853985420EF4
:102C0000531E89819A81A885B9858A1B9B0B9A835B
:102C10008983AD0160E070E080E090E0A0E0B0E08A
:102C2000262C240E31E0261408F030E0272D250F45
:102C3000E1E0271508F0E0E0332E320E31E03216E5
:102C400008F030E0E32B282D260FF1E0281508F0DE
:102C5000F0E0EE2EE20E31E0E21608F030E0F32B69
:102C6000292D270FE1E0291508F0E0E0FF2EF20EF4
:102C700031E0F21608F030E0E32B2A2D280FF1E0C6
:102C80002A1508F0F0E00E2F020F31E0021708F0CD
:102C900030E0F32B2B2D290FE1E02B1508F0E0E0BD
:102CA0001F2F120F31E0121708F030E0E32B2C2D0C
:102CB0002A0FF1E02C1508F0F0E0E20F31E0E21706
:102CC00008F030E0F32B8D2D8B0F310147015801B7
:102CD0006F01D80EE981FA81EF2B09F090CE81E0E7
:102CE00029960FB6F894DEBF0FBECDBFCF91DF910E
:102CF0001F910F91FF90EF90DF90CF90BF90AF901A
:102D00009F908F907F906F905F904F903F902F900B
:102D100008952F923F924F925F926F927F928F927F
:102D20009F92AF92BF92CF92DF92EF92FF920F935A
:102D30001F93DF93CF93CDB7DEB760970FB6F894AC
:102D4000DEBF0FBECDBF522E432E4B835C836D83FF
:102D50007E838F839887180137019A8289820115B3
:102D6000110509F488C0E114F10409F484C0CE14FB
:102D7000DF0408F480C0A114B10409F47CC08824E5
:102D800099248E189F08CE18DF08970140E050E084
:102D900060E070E080E090E0E9863A874B875C87EE
:102DA0006D877E878F87988B252D342D4B815C8195
:102DB0006D817E818F819885810173010E94DD1470
:102DC000882309F458C0C101052D142D2B813C81A5
:102DD0004D815E816F817885E980FA80F5011995D2
:102DE000882309F44AC0C80CD91CC601860D971D5A
:102DF0008615970508F441C03985350D91E03515E4
:102E000008F090E08A85840D21E0841508F020E028
:102E1000192F180F91E0181708F090E0922B4B81B2
:102E2000940F81E0941708F080E06C81680F81E0D6
:102E30005C81651708F080E05D81580F81E07D813D
:102E4000571708F080E04E81480F81E02E8142172D
:102E500008F080E07F81870F21E0871708F020E0ED
:102E6000532E412E9B836C835D834E838F83888595
:102E7000820F888799CF80E001C081E060960FB60D
:102E8000F894DEBF0FBECDBFCF91DF911F910F91A0
:102E9000FF90EF90DF90CF90BF90AF909F908F907A
:102EA0007F906F905F904F903F902F9008958F92FA
:102EB0009F92BF92CF92DF92EF92FF920F931F9358
:102EC000CF93DF93229A219A209A2398289A83E518
:102ED0008CBD8DB58E7F8DBD1092ED0490E02FEFEF
:102EE0002EBD0DB407FEFDCF8DB58F778DBD8EB590
:102EF0009F5F9A30A9F7289800E010E080E040E05A
:102F000050E060E070E00E942C11F82E81E0F8168D
:102F100041F081E00F3F180709F4C3C00F5F1F4F56
:102F2000EDCF88E04AEA51E060E070E00E942C11A9
:102F300082FD2DC08FEF8EBD0DB407FEFDCF8DB588
:102F40008F778DBD8EB58FEF8EBD0DB407FEFDCF93
:102F50008DB58F778DBD8EB58FEF8EBD0DB407FE0D
:102F6000FDCF8DB58F778DBD0EB400FECAC08FEF3B
:102F70008EBD0DB407FEFDCF8DB58F778DBD8EB59F
:102F80008A3A09F0BEC082E08093ED0412C087E364
:102F900040E050E060E070E00E942C1189E240E0E7
:102FA00050E060E070E00E942C1182FD02C0F092BF
:102FB000ED04B090ED048B2D90E003E0802E912C79
:102FC0008822992212E0C12ED12CC822D922C0E039
:102FD000D0E081149104B9F0C114D10431F0E12C96
:102FE000F12C012DB0E41B2F03C0EE24FF24870138
:102FF00087E340E050E060E070E00E942C1189E23D
:10300000B801A70105C081E040E050E060E070E059
:103010000E942C1180FF07C08FE7CF3FD80709F42B
:1030200040C02196D6CFCD2899F18AE340E050E008
:1030300060E070E00E942C11882399F58FEF8EBD1F
:103040000DB407FEFDCF8DB58F778DBD0EB406FE96
:1030500004C084E0B82AB092ED048FEF8EBD0DB4A9
:1030600007FEFDCF8DB58F778DBD8EB58FEF8EBDF1
:103070000DB407FEFDCF8DB58F778DBD8EB58FEF6B
:103080008EBD0DB407FEFDCF8DB58F778DBD8EB58E
:1030900080E140E052E060E070E00E942C11882363
:1030A00011F0289A2EC0289A8CB58C7F8CBD8DB5D6
:1030B00081608DBD8FEF8093E4048093E50480935D
:1030C000E6048093E7048093E8048093E904809306
:1030D000EA048093EB0481E08093EC0420E030E08C
:1030E00040E050E060E070E080E090E004EE12E04C
:1030F000E12CA2E0FA2E0E94DD14882319F081E071
:1031000001C080E0DF91CF911F910F91FF90EF9070
:10311000DF90CF90BF909F908F9008952F923F9215
:103120004F925F926F927F928F929F92AF92BF92D7
:10313000CF92DF92EF92FF920F931F93DF93CF9383
:10314000CDB7DEB728970FB6F894DEBF0FBECDBF60
:10315000922E832E542E452E362E272E8D839E831F
:103160003801F886EF82DA82C982BC82AB8201150F
:10317000110509F47EC0CD2809F47BC0BB24EF28DB
:1031800009F06EC0BB24B3946BC0C301092D182D88
:10319000252D342D432D522D6D817E81EB80FC80B9
:1031A000A981BA81FD0119956C01009709F463C0EA
:1031B000BB2031F4EF81F885E817F90708F459C00E
:1031C000292D382D452D542D632D722D8D819E81F5
:1031D000830176010E94DE12882309F44AC0960119
:1031E000F92DFC0DE1E0F91508F0E0E0882D830FE2
:1031F00021E0881508F020E01E2F180F91E0181725
:1032000008F090E0922B950D81E0951508F080E094
:10321000682F640D81E0641508F080E0582F530D8D
:1032200081E0531508F080E0482F420D81E04215FF
:1032300008F080E02D81820F21E03D81831708F0A6
:1032400020E09F2E812E592E462E1A018D838E81CD
:10325000820F8E83AF81B885AC19BD09B887AF8363
:10326000BB2009F092CFEF81F885EF2B09F08DCFCD
:1032700002C080E001C081E028960FB6F894DEBF5E
:103280000FBECDBFCF91DF911F910F91FF90EF90B7
:10329000DF90CF90BF90AF909F908F907F906F9076
:1032A0005F904F903F902F900895FC01009711F090
:1032B0001182108208952F923F924F925F926F92E7
:1032C0007F928F929F92AF92BF92CF92DF92EF92B6
:1032D000FF920F931F93DF93CF93CDB7DEB728975D
:1032E0000FB6F894DEBF0FBECDBFFC01009709F406
:1032F00040C1423051056105710508F43AC1808032
:103300009180D40118968C915A016B016284538488
:10331000448435842684B785BF83908998877188D3
:103320008B3009F093C09A01A60160E070E080E064
:1033300090E002E00E94C040E32FF42FA52FB62FAB
:10334000172F082FE92EF22EF60C31E0F21608F0B6
:1033500030E02E2F250D41E02E1708F040E0320F0F
:10336000E1E0321708F0E0E04E2B2F2F240D51E062
:103370002F1708F050E0420FE1E0421708F0E0E0BC
:103380005E2B2A2F230D61E02A1708F060E0520F10
:10339000E1E0521708F0E0E06E2B2B2F220D71E0D8
:1033A0002B1708F070E0620FE1E0621708F0E0E030
:1033B0007E2B2F81210F81E0211708F080E0720F12
:1033C000E1E0721708F0E0E08E2B2885200F91E0F5
:1033D000201708F090E0820FE1E0821708F0E0E0AB
:1033E0009E2B7E0CD401ED91FC912F2D970D8E011B
:1033F0000D5F1F4FB4E0EB2EF12C1995882309F4D3
:10340000B8C02B813C814D815E812115310541057C
:10341000510509F4B2C0273FBFEF3B07BFEF4B0791
:10342000BFE05B0709F4A5C0DA01C901805F9F4FC7
:10343000AF4FBF400797A105B10508F49AC0DA0164
:10344000C901885F9F4FAF4FBF408FC09A01A6014F
:1034500060E070E080E090E001E00E94C040E32F77
:10346000F42FA52FB62F172F082FE92EF22EF60CCA
:1034700031E0F21608F030E02E2F250D41E02E1736
:1034800008F040E0320FE1E0321708F0E0E04E2BA8
:103490002F2F240D51E02F1708F050E0420FE1E0EC
:1034A000421708F0E0E05E2B2A2F230D61E02A1777
:1034B00008F060E0520FE1E0521708F0E0E06E2BF8
:1034C0002B2F220D71E02B1708F070E0620FE1E066
:1034D000621708F0E0E07E2B2F81210F81E0211799
:1034E00008F080E0720FE1E0721708F0E0E08E2B48
:1034F0002885200F91E0201708F090E0820FE1E08E
:10350000821708F0E0E09E2B7E0CD401ED91FC9137
:103510002F2D970D8E010F5F1F4FA2E0EA2EF12C89
:103520001995882331F189819A819C0140E050E00E
:10353000211531054105510501F1273FBFEF3B073B
:10354000B0E04B07B0E05B07A1F0DA01C901805F92
:103550009F4FA040B0400797A105B10550F0DA0198
:10356000C901885F9F4FA040B0400897A105B105F1
:1035700020F420E030E040E050E0B901CA01289694
:103580000FB6F894DEBF0FBECDBFCF91DF911F9174
:103590000F91FF90EF90DF90CF90BF90AF909F90F2
:1035A0008F907F906F905F904F903F902F900895F5
:1035B0002F923F924F925F926F927F928F929F9243
:1035C000AF92BF92CF92DF92EF92FF920F931F9331
:1035D000DF93CF93CDB7DEB764970FB6F894DEBF15
:1035E0000FBECDBF2C013A014B01009709F4A9C1D0
:1035F000423051056105710508F4A3C1D2011A9644
:10360000BC91BC87F201F385FD87D2011C96BC9169
:10361000BE87F201F585FF87D2011E96BC91B88B5B
:10362000F201F785F98BD2015096BC91BA8BF20169
:10363000F189FB8BD201ED91FC9180858B3009F0F3
:10364000D6C0640153019301A60160E070E080E000
:1036500090E002E00E94C040E32FF42FB52F162F18
:10366000072FF82EA92F8C85820F8C8B31E08217C3
:1036700008F030E02D852E0F41E02E1708F040E0D5
:10368000320F3F8331E09F81921708F030E0432BE7
:103690002E852F0F51E02F1708F050E0420F48877A
:1036A00031E0421708F030E0532B2F852B0F61E0FB
:1036B0002B1708F060E0520F598731E0521708F0DD
:1036C00030E0632B2889210F71E0211708F070E0AA
:1036D000620F6A8731E0621708F030E0732B2989A6
:1036E000200F81E0201708F080E0720F7B8731E027
:1036F000721708F030E0832B2A892F0D31E02F1547
:1037000008F030E0282E220E91E0221608F090E01A
:10371000332E392ABB89AB0F3A0ED201ED91FC91C1
:103720000190F081E02D2C893F81488559856A857B
:103730007B85C1018E010D5F1F4FB4E0EB2EF12C94
:103740001995882309F4FDC0AB80BC80CD80DE8054
:10375000A114B104C104D10409F4F5C0D601C50116
:10376000805F9F4FAF4FBF400897A105B10508F498
:10377000E8C0D601C501885F9F4FAF4FBF40089793
:10378000A105B10518F4AA24BB246501F20186A5A0
:1037900097A5A0A9B1A90097A105B10539F4D20157
:1037A0009E966D927D928D929C92D1971B821C82E7
:1037B0001D821E82D201ED91FC910480F581E02DE5
:1037C0002C893F81488559856A857B85C1018E0199
:1037D0000D5F1F4FA4E0EA2EF12C1995350146012B
:1037E000A114B104C104D10409F02BCFACC0640111
:1037F00053019301A60160E070E080E090E001E0F9
:103800000E94C040E32FF42FB52F162F072FF82E5C
:10381000A92F2C84220E31E0221608F030E02D85ED
:103820002E0F41E02E1708F040E0332E320E31E02B
:10383000321608F030E0432B2E852F0F51E02F1762
:1038400008F050E0642E620E31E0621608F030E0BD
:10385000532B2F852B0F61E02B1708F060E0752E9E
:10386000720E31E0721608F030E0632B2889210FC8
:1038700071E0211708F070E0862E820E31E082168A
:1038800008F030E0732B2989200F81E0201708F021
:1038900080E0972E920E31E0921608F030E0832BF4
:1038A0002A892F0D31E02F1508F030E0A82EA20E46
:1038B00091E0A21608F090E0B32EB92ABB89AB0FB5
:1038C000BA0ED201ED91FC910190F081E02D9101B1
:1038D000A301B401C5018E010F5F1F4FB2E0EB2EB3
:1038E000F12C1995882369F1C980DA80C114D104BB
:1038F00051F1C6014096089720F1B8EFCB16BFEF03
:10390000DB0610F0CC24DD241A821982D201ED915D
:10391000FC910480F581E02D9101A301B401C50162
:103920008E010F5F1F4FA2E0EA2EF12C1995360190
:1039300088249924611471048104910409F057CFFB
:1039400002C080E001C081E064960FB6F894DEBF4B
:103950000FBECDBFCF91DF911F910F91FF90EF90E0
:10396000DF90CF90BF90AF909F908F907F906F909F
:103970005F904F903F902F9008952F923F924F92DB
:103980005F926F927F928F929F92AF92BF92CF92EF
:10399000DF92EF92FF920F931F93DF93CF93CDB7F8
:1039A000DEB7AD970FB6F894DEBF0FBECDBF998FCF
:1039B000888F4A8F5B8F6C8F7D8FB901009709F4D8
:1039C0001BC3DC01ED91FC911197208131813F8B6C
:1039D0002E8B448155815D8B4C8B1A965C911A9786
:1039E0005CA31B968C911B978DA31C969C911C9796
:1039F0009EA31D96AC91AFA3A88DB98D1E96BC91C8
:103A0000B8A7A88DB98D1F96BC91B9A7A88DB98DFF
:103A10005096BC91BAA7A88DB98D5196BC91BBA701
:103A2000A88DB98D9E962D903D904D905C90D1972C
:103A30001B8680858B3011F4B1E0BB87E88DF98D52
:103A400082899389A489B589FB85FF2351F09C0164
:103A5000AD0182E056954795379527958A95D1F720
:103A600006C09C01AD0156954795379527952C8743
:103A70003D874E875F87A88DB98D9E961D921D92BA
:103A80001D921C92D197C801DB01888B998BAA8B60
:103A9000BB8B2C853D854E855F852F833887498775
:103AA0005A876624772443019DC132E023163104EE
:103AB0004104510448F08C859D85AE85BF8528164C
:103AC00039064A065B0628F0A2E02A2E312C412C4A
:103AD000512C620151019B85992309F47FC091010A
:103AE000A60160E070E080E090E002E00E94C0404B
:103AF000E32FF42FB52F162F072FF82EA92F3CA157
:103B0000320F3CA731E04CA5421708F030E02DA160
:103B10002E0F41E02E1708F040E0320F3E8F31E0CB
:103B20005E8D521708F030E0432B2EA12F0F51E08D
:103B30002F1708F050E0420F4F8F31E0421708F086
:103B400030E0532B2FA12B0F61E02B1708F060E022
:103B5000520F58A331E0521708F030E0632B28A52C
:103B6000210F71E0211708F070E0A62EA20E31E0BF
:103B7000A21608F030E0732B29A5200F81E0201752
:103B800008F080E0B72EB20E31E0B21608F030E057
:103B9000832B2AA52F0D31E02F1508F030E0C82E19
:103BA000C20E91E0C21608F090E0D32ED92A8BA560
:103BB000A80FDA0E2CA53E8D4F8D58A1B501C60178
:103BC0008E010D5F1F4FF4E0EF2EF12CAE89BF89FF
:103BD000FD011995882309F085C00EC29101A60147
:103BE00060E070E080E090E001E00E94C040E32FE0
:103BF000F42FB52F162F072FF82EA92F3CA1320F27
:103C00003DA731E04DA5421708F030E02DA12E0F61
:103C100041E02E1708F040E0320F39A331E059A1FE
:103C2000521708F030E0432B2EA12F0F51E02F1731
:103C300008F050E0420F4AA331E0421708F030E0AC
:103C4000532B2FA12B0F61E02B1708F060E0520FD0
:103C50005BA331E0521708F030E0632B28A5210F59
:103C600071E0211708F070E0A62EA20E31E0A21636
:103C700008F030E0732B29A5200F81E0201708F011
:103C800080E0B72EB20E31E0B21608F030E0832BA0
:103C90002AA52F0D31E02F1508F030E0C82EC20EF6
:103CA00091E0C21608F090E0D32ED92A8BA5A80F78
:103CB000DA0E2DA539A14AA15BA1B501C6018E017D
:103CC0000F5F1F4FE2E0EE2EF12CAE89BF89FD01A0
:103CD0001995882309F490C189819A81892B09F06B
:103CE00071C031C08B819C81AD81BE810097A105DF
:103CF000B10509F067C0288939894A895B8921158E
:103D000031054105510541F16114710481049104AB
:103D100049F42FEF3FEF4FEF5FE02B833C834D8360
:103D20005E8304C06B827C828D829E822CA53E8D38
:103D30004F8D58A1B501C6018E010D5F1F4FB4E034
:103D4000EB2EF12C2AC0288939894A895B892115F3
:103D500031054105510549F4A88DB98D9E962D92E6
:103D60003D924D925C92D19750C0611471048104D0
:103D7000910429F4EFEFFFEFFA83E98302C07A821E
:103D800069822DA539A14AA15BA1B501C6018E01A9
:103D90000F5F1F4FA2E0EA2EF12CAC89BD89FD0117
:103DA0001995882309F422C1288939894A895B89B0
:103DB0002150304040405040288B398B4A8B5B8BE0
:103DC000420131018F819885A985BA850197A109A2
:103DD000B1098F839887A987BA870894211C311C61
:103DE000411C511C2F81388549855A852115310583
:103DF0004105510509F059CE88899989AA89BB895D
:103E00000097A105B10509F0F1C02A8D3B8D4C8DBD
:103E10005D8D223031054105510508F4F0C059018E
:103E20006A013B85332309F470C06B827C828D82EA
:103E30009E829501A60160E070E080E090E002E0E3
:103E40000E94C040E32FF42FA52FB62F172F082F65
:103E5000E92EFCA0F20E31E0F21608F030E02DA1C0
:103E60002E0F41E02E1708F040E0320FE1E032174C
:103E700008F0E0E04E2B2EA12F0F51E02F1708F095
:103E800050E0420FE1E0421708F0E0E05E2B2FA186
:103E90002A0F61E02A1708F060E0520FE1E05217A4
:103EA00008F0E0E06E2B28A52B0F71E02B1708F02F
:103EB00070E0620FE1E0621708F0E0E07E2B29A5D8
:103EC000210F81E0211708F080E0720FE1E0721706
:103ED00008F0E0E08E2B2AA5200F91E0201708F0D3
:103EE00090E0820FE1E0821708F0E0E09E2BABA5A6
:103EF000AE0D2F2D9A0F8E010D5F1F4FF4E0EF2EA8
:103F0000F12CEC89FD8919956FC0C30169829A83F0
:103F10009501A60160E070E080E090E001E00E9481
:103F2000C040E32FF42FA52FB62F172F082FE92E0F
:103F3000FCA0F20E31E0F21608F030E02DA12E0FB9
:103F400041E02E1708F040E0320FE1E0321708F0B0
:103F5000E0E04E2B2EA12F0F51E02F1708F050E07C
:103F6000420FE1E0421708F0E0E05E2B2FA12A0F9C
:103F700061E02A1708F060E0520FE1E0521708F004
:103F8000E0E06E2B28A52B0F71E02B1708F070E0F6
:103F9000620FE1E0621708F0E0E07E2B29A5210F17
:103FA00081E0211708F080E0720FE1E0721708F05D
:103FB000E0E08E2B2AA5200F91E0201708F090E07A
:103FC000820FE1E0821708F0E0E09E2BFBA5FE0DDA
:103FD0002F2D9F0F8E010F5F1F4FE2E0EE2EF12C71
:103FE000AC89BD89FD011995882349F4888D998D87
:103FF000B401A3010E94D81A662477244301B301B7
:10400000C401AD960FB6F894DEBF0FBECDBFCF9101
:10401000DF911F910F91FF90EF90DF90CF90BF90B5
:10402000AF909F908F907F906F905F904F903F9058
:104030002F90089580E190E00895FC01009711F021
:104040001182108208952F923F924F925F926F9249
:104050007F928F929F92AF92BF92CF92DF92EF9218
:10406000FF920F931F93DF93CF93CDB7DEB768977F
:104070000FB6F894DEBF0FBECDBF988F8F8B7E87B3
:104080006D87588B4F87009709F41EC3672B09F47F
:104090001BC34115510509F417C3DC01D396AC903D
:1040A000D397D496BC90D497D596CC90D597D696E6
:1040B000DC90D697D796EC90D797D896FC90D89767
:1040C000D9960C91D997DA961C91DA9797962D90FC
:1040D0003D904D905C909A979A0140E050E060E0EE
:1040E00070E080E090E0B22FBA0DBA8BF1E0B21729
:1040F00008F0F0E0E32FEB0D99249394E31708F018
:104100009924FE0FF98BF1E0A989AE1708F0F0E0D1
:104110009F2AE42FEC0DB1E0E41708F0B0E0692C21
:104120006E0EF1E06E1608F0F0E0BF2BE52FED0DFE
:10413000A1E0E51708F0A0E07B2E7E0EF1E07E16F0
:1041400008F0F0E0AF2BE62FEE0DB1E0E61708F037
:10415000B0E08A2E8E0EF1E08E1608F0F0E0BF2B54
:10416000E72FEF0DA1E0E71708F0A0E09B2E9E0ED1
:10417000F1E09E1608F0F0E0AF2BE82FE00FB1E081
:10418000E81708F0B0E0AE0FF1E0AE1708F0F0E08D
:10419000EB2FEF2B892F810FE80FA201910160E037
:1041A00070E080E090E09E17F0F0E91721F58A17A3
:1041B000D0F0A81701F57915B0F09716E1F468155D
:1041C00090F08616C1F4571570F07516A1F44615D7
:1041D00050F0641681F4B9893B1728F0B31759F4ED
:1041E000EA892E1640F491012A193B09388B2F8752
:1041F000232B09F46CC2AF89B88DED91FC91119716
:10420000208D318D3C872B87DB968D919D910D9074
:10421000BC91A02D8F839887A987BA870097A105A5
:10422000B10509F059C0AF89B88D93962D913D9194
:104230004D915C9196972F83388749875A8721152E
:1042400031054105510559F48A2D8B298C298D2979
:104250008E298F29802B812B09F439C235C28A2DF2
:104260008B298C298D298E298F29802B812BA1F1D7
:1042700035014601EB85FC851F0144245524222786
:104280003327A90122193309440955092B8B3C8B8B
:104290004D8B5E8B1CC0AF89B88D8D919C914F81E9
:1042A000588569857A850E945B196F83788789872D
:1042B0009A87611571058105910509F405C22B895D
:1042C0003C894D895E89620E731E841E951E6214A0
:1042D000730484049504F8F64B855C854150504086
:1042E0005C874B874A215B215C834B838B859C8554
:1042F00001969C878B87AF85B889BE83AD83EF8994
:10430000F88D0190F081E02DFA83E983309709F46C
:104310008EC02F81388549855A8522303105410567
:10432000510508F484C022503040404050405901AB
:104330006A012E5F3F4F4F4F5F4F2F83388749876A
:104340005A87208C318C9501A60160E070E080E0F6
:1043500090E05101CC24DD24EE24FF2400E010E0A5
:104360000E94463FE981FA81A28DF38CB48D058DC0
:10437000E68CD78CC0A011A1A20FF1E0A21708F023
:10438000F0E0232F2F0DE1E0231708F0E0E0FF2EEF
:10439000F20E31E0F21608F030E0E32B242F2B0F61
:1043A000F1E0241708F0F0E0BE2FB20F31E0B217B1
:1043B00008F030E0F32B252F200F41E0251708F0FF
:1043C00040E0F20F31E0F21708F030E0432B262FE7
:1043D0002E0D51E0261708F050E0E42FE20F31E0F7
:1043E000E21708F030E0532B272F2D0D41E027175F
:1043F00008F040E0520F31E0521708F030E0432B54
:10440000282F2C0D31E0281708F030E0420F81E012
:10441000421708F080E0732E782A190F2A2F9F2D5B
:104420006B2F7F2FAE2FB52F342E710E08C020E0DA
:1044300090E060E070E0A0E0B0E0332477248B846B
:104440009C844B815C81841A950AED81FE81E8157C
:10445000F90508F44F01E981FA81408051804B81D0
:104460005C815A01CC24DD24EE24FF248701622ED6
:10447000640E31E0621608F030E0892F8B0D41E0C8
:10448000891708F040E0380F91E0381708F090E005
:10449000492B862F8C0D51E0861708F050E0480F0D
:1044A00091E0481708F090E0592B872F8D0D61E0BF
:1044B000871708F060E0580F91E0581708F090E077
:1044C000692B8A2F8E0D71E08A1708F070E0680F53
:1044D00091E0681708F090E0792B9B2F9F0D81E009
:1044E0009B1708F080E0790FA1E0791708F0A0E0B1
:1044F0008A2BA32DA00F91E0A31508F090E08A0F5E
:10450000B1E08A1708F0B0E09B2B710ED201ED915B
:10451000FC91262D970D0D851E8574011995882314
:1045200009F4AFC02D813E81281939093E832D83BE
:10453000940140E050E060E070E080E090E0AF89FE
:10454000B88DD3961C91D397D496DC90D497D596FA
:10455000BC91EF89F88D06A9E7A8A0AC71ACF2ACCC
:10456000180DF1E0181508F0F0E0ED2DE30FA1E0D3
:10457000E31708F0A0E0BF2EBE0EF1E0BE1608F073
:10458000F0E0AF2BE42FEB0FB1E0E41708F0B0E060
:10459000CA2ECE0EF1E0CE1608F0F0E0BF2BE52FCC
:1045A000E00FA1E0E51708F0A0E0DB2EDE0EF1E061
:1045B000DE1608F0F0E0AF2BE62FEE0DB1E0E617C7
:1045C00008F0B0E0EA2EEE0EF1E0EE1608F0F0E0B2
:1045D000BF2BE72FEA0DA1E0E71708F0A0E00B2FB3
:1045E0000E0FF1E00E1708F0F0E0AF2BE82FE70D0B
:1045F000F1E0E81708F0F0E0AA2EAE0EA1E0AE164A
:1046000008F0A0E0FA2BF90EFF0DAF89B88DD39614
:104610001C93D397D496BC92D497D596CC92D59729
:10462000D696DC92D697D796EC92D797D8960C93DD
:10463000D897D996AC92D997DA96FC93DA978B8172
:104640009C81880D991DEB85FC858E179F0710F1C5
:104650008D919C914F81588569857A850E945B195F
:104660006F83788789879A87611571058105910520
:1046700079F4AF89B88DDB961D921D921D921C9224
:10468000DE974F855889ED81FE814E1B5F0B21C05F
:104690001C821B822F81388549855A85AF89B88D48
:1046A000DB962D933D934D935C93DE97ED81FE81D8
:1046B000EF2B39F02D853E85280D391D3E872D873E
:1046C0001ECE4F85588905C04FEF5FEF02C040E016
:1046D00050E0CA0168960FB6F894DEBF0FBECDBF9A
:1046E000CF91DF911F910F91FF90EF90DF90CF90CE
:1046F000BF90AF909F908F907F906F905F904F9002
:104700003F902F900895FC01009711F011821082C4
:104710000895FC01009711F480E0089583A194A10D
:10472000A5A1B6A183AB94ABA5ABB6AB10AE17AA4F
:1047300081E008952F923F924F925F926F927F9205
:104740008F929F92AF92BF92CF92DF92EF92FF92A1
:104750000F931F93DF93CF93CDB7DEB72C970FB690
:10476000F894DEBF0FBECDBF3C016B01009709F48A
:104770009CC06115710509F498C0DB019996BC9045
:1047800099979A96AC909A979B969C909B979C969B
:104790008C909C979D965C909D979E964C909E9732
:1047A0009F963C909F97D0962C908B2D8A29892993
:1047B0008829852984298329822909F476C0D3018F
:1047C000ED91FC910190F081E02D2B2D3A2D492D9A
:1047D000582D652D742D832D922D8E010F5F1F4F47
:1047E000ACE0EA2EF12C1995882309F45EC0B5EEF1
:1047F000B983D301ED91FC910480F581E02D2B2D3F
:104800003A2D492D582D652D742D832D922D8E0115
:104810000F5F1F4F1995882309F447C08C858F308F
:1048200079F57B2D705E81E07B1508F080E0682FC4
:104830006A0D81E06A1508F080E0582F590D81E07B
:10484000591508F080E0482F480D81E0481508F020
:1048500080E0382F350D81E0351508F080E0282FF5
:10486000240D81E0241508F080E0830D91E083158C
:1048700008F090E05B014A012901382E290E9FCFF4
:10488000F60141A152A163A174A141155105610531
:10489000710539F0C3010E94D81A20E030E0882366
:1048A00011F021E030E0822F01C080E02C960FB69D
:1048B000F894DEBF0FBECDBFCF91DF911F910F9156
:1048C000FF90EF90DF90CF90BF90AF909F908F9030
:1048D0007F906F905F904F903F902F9008952F9210
:1048E0003F924F925F926F927F928F929F92AF9280
:1048F000BF92CF92DF92EF92FF920F931F93DC0152
:10490000009749F420E030E040E050E060E070E0E3
:1049100080E090E030C0ED91FC9111978085529637
:104920002D913D914D915C9155975896ED91FC914B
:1049300059978B3041F412E0569547953795279556
:104940001A95D1F704C0569547953795279522506B
:1049500030404040504059016A01A60160E070E0DB
:1049600080E090E05F01CC24DD24EE24FF2400E011
:1049700010E00E94463F1F910F91FF90EF90DF9053
:10498000CF90BF90AF909F908F907F906F905F90EF
:104990004F903F902F9008952F923F924F925F92A9
:1049A0006F927F928F929F92AF92BF92CF92DF923F
:1049B000EF92FF920F931F93DF93CF93CDB7DEB7A4
:1049C000E0970FB6F894DEBF0FBECDBF3C01009755
:1049D00009F4F8C019821A821B821C8280E290E0DE
:1049E0009E838D83D3011A96BC91B9A7F301F385F9
:1049F000FAA7D3011C96BC91BBA7F301F585FCA7D0
:104A0000D3011E96BC91BDA7F301F785FEA7D30184
:104A10005096BC91BFA7F301F189F8ABD301529630
:104A20002D903D904D905C905597ADC0BEEF2B16EC
:104A3000BFEF3B06B0E04B06B0E05B0628F0EEEFC0
:104A4000FFEFF8A7EFA302C038A62FA2D301ED9184
:104A5000FC91A281B3818085863019F0E9E2F6E20B
:104A600002C0E3E0F6E229A53AA54BA55CA56DA539
:104A70007EA58FA598A98E01095F1F4FEE24FF2404
:104A80006894E5F8CFA0D8A45F014E010894811C7A
:104A9000911CFD011995882309F494C0CFA0D8A4D6
:104AA0005601CC24DD24EE24FF248701F9A5FA0D5C
:104AB00091E0B9A5FB1708F090E08AA58B0D21E0E5
:104AC000EAA58E1708F020E0392F380F91E038174B
:104AD00008F090E0292B8BA58C0D51E09BA5891740
:104AE00008F050E0422F480F91E0481708F090E09E
:104AF000592B8CA58D0D21E0ACA58A1708F020E07C
:104B0000580F91E0581708F090E0292B8DA58E0DD5
:104B100071E0BDA58B1708F070E0622F680F91E07F
:104B2000681708F090E0792B8EA58F0D21E0EEA597
:104B30008E1708F020E0780F91E0781708F090E0E9
:104B4000292B9FA5900FE1E08FA5981708F0E0E0D2
:104B5000822F890F21E0891708F020E0E22B98A925
:104B6000910FF9A73AA74BA75CA76DA77EA78FA7C0
:104B70009E0F98ABEFA1F8A5CF01A0E0B0E0281AF6
:104B8000390A4A0A5B0A211431044104510409F02C
:104B90004DCFD30158964D915C91599729803A8019
:104BA0004B805C809A0140E050E060E070E080E083
:104BB00090E051016201EE24FF2400E010E00E9429
:104BC000463F08C020E030E040E050E060E070E0A8
:104BD00080E090E0E0960FB6F894DEBF0FBECDBF48
:104BE000CF91DF911F910F91FF90EF90DF90CF90C9
:104BF000BF90AF909F908F907F906F905F904F90FD
:104C00003F902F900895EF92FF92CF93DF93EC01A6
:104C1000F7014481558120E030E012C088819981FC
:104C2000892B59F480819181A281B3810196A11DC4
:104C3000B11D80839183A283B3832E5F3F4F229661
:104C40002417350758F381E0DF91CF91FF90EF9063
:104C50000895EF92FF92CF93DF93EC01F701448127
:104C6000558120E030E016C088819981AA81BB81FE
:104C70000097A105B10559F480819181A281B3818A
:104C80000196A11DB11D80839183A283B3832C5F04
:104C90003F4F24962417350738F381E0DF91CF91F9
:104CA000FF90EF9008952F923F924F925F926F92F4
:104CB0007F928F929F92AF92BF92CF92DF92EF92AC
:104CC000FF920F931F93DF93CF93CDB7DEB7629719
:104CD0000FB6F894DEBF0FBECDBF9A8B898B4230E2
:104CE00051056105710510F480E0A2C089899A8997
:104CF000892B49F420E030E040E050E060E070E0D3
:104D000010E090E07BC042505040604070405A013B
:104D10006B01E989FA89208C318C9A01A60160E047
:104D200070E080E090E05101CC24DD24EE24FF24EB
:104D300000E010E00E94463FC92EE989FA89B28D51
:104D4000B38CA48D158DF68CE78CD0A001A1B20F89
:104D5000E1E0B21708F0E0E0232F2B0DF1E023177C
:104D600008F0F0E03E2F320FE1E0321708F0E0E00B
:104D7000FE2B242F2A0FA1E0241708F0A0E04F2FCC
:104D8000420FE1E0421708F0E0E0AE2B252F210FA3
:104D9000F1E0251708F0F0E05A2F520FE1E052172A
:104DA00008F0E0E0FE2B262F2F0DA1E0261708F0DB
:104DB000A0E06F2F620FE1E0621708F0E0E0AE2B99
:104DC000272F2E0DF1E0271708F0F0E07A2F720F51
:104DD000E1E0721708F0E0E0FE2B282F2D0DE1E056
:104DE000281708F0E0E08F2F820F91E0821708F07B
:104DF00090E09E2B0C0D2B2F182F900FDE0111969B
:104E000080E1FD0111928A95E9F7E989FA89C0806C
:104E1000D180E08CF18CF60186809780812F8D0106
:104E2000EAE1CE2EE0E2DE2EAA24BB24F40119959D
:104E300062960FB6F894DEBF0FBECDBFCF91DF9163
:104E40001F910F91FF90EF90DF90CF90BF90AF90A8
:104E50009F908F907F906F905F904F903F902F909A
:104E600008952F923F924F925F926F927F928F920E
:104E70009F92AF92BF92CF92DF92EF92FF920F93E9
:104E80001F93DF93CF93CDB7DEB7C254D0400FB698
:104E9000F894DEBF0FBECDBF9AAF89AFDB0100979C
:104EA00009F463C26115710509F45FC2FC01019048
:104EB000F081E02DF8AFEFAB208D318D3EAB2DAB07
:104EC000FC0143A954A965A976A949AB5AAB6BABC0
:104ED0007CAB27A930AD4DA95EA92417350708F092
:104EE000F2C1AE014F5F5F4F86E0FA0111928A95E1
:104EF000E9F781E3FD0111928A95E9F749A95AA9D9
:104F00006BA97CA9411551056105710509F0E6C140
:104F1000EFA9F8AD80819181FC0180858B3059F437
:104F2000EFA9F8AD42A553A564A575A549AB5AAB49
:104F30006BAB7CABD3C1EFA9F8AD028CF38DE02D48
:104F4000FEABEDABEFA9F8AD82A193A14DA95EA98F
:104F5000481B590B5EAB4DABC1C14FA558A99A0177
:104F600040E050E060E070E080E090E02FA338A7E0
:104F700049A75AA76BA77CA78DA79EA769A97AA95D
:104F80008BA99CA9611571058105910509F072C075
:104F9000AFA9B8AD92962C91929793968C919397D6
:104FA00094965C91949795966C91959796967C9132
:104FB000969797961C9197979896AC91EFA9F8AD14
:104FC000B1A5FFA12F0F91E02F1708F090E048A5A1
:104FD000840F41E0E8A58E1708F040E0392F380F24
:104FE00091E0381708F090E0492B89A5850F51E032
:104FF000F9A58F1708F050E0480F91E0481708F026
:1050000090E0592B8AA5860F61E09AA5891708F0D0
:1050100060E0580F91E0581708F090E0692B8BA5DD
:10502000870F71E0EBA58E1708F070E0680F91E034
:10503000681708F090E0792B8CA5810FF1E09CA512
:10504000891708F0F0E0780F91E0781708F090E009
:10505000F92BEDA5EA0FA1E08DA5E81708F0A0E077
:105060008F2F8E0F91E08E1708F090E09A2BAEA54F
:10507000BA0FE0C0EFA9F8AD309709F481C029A9B3
:105080003AA94BA95CA9223031054105510508F424
:1050900077C0208C318C2BAD3CAD4DAD5EAD60E06A
:1050A00070E080E090E05101CC24DD24EE24FF2468
:1050B00000E010E00E94463FEFA9F8ADA28DF38C0E
:1050C000B48D158DD68CC78CB0A001A1A20FF1E0D4
:1050D000A21708F0F0E0232F2F0DE1E0231708F0CE
:1050E000E0E0EF2EE20E31E0E21608F030E0E32BD4
:1050F000242F2B0FF1E0241708F0F0E0FE2EF20E23
:1051000031E0F21608F030E0F32B252F210F41E0BB
:10511000251708F040E0F20F31E0F21708F030E018
:10512000432B262F2D0D51E0261708F050E0E42FD9
:10513000E20F31E0E21708F030E0532B272F2C0D5F
:1051400041E0271708F040E0520F31E0521708F015
:1051500030E0432B282F2B0D31E0281708F030E0EA
:10516000420F81E0421708F080E0B32FB82B090FFF
:105170002A2F9E2D6F2D7F2FA52F142FB00F08C023
:1051800020E090E060E070E0E0E0A0E010E0B0E05F
:105190000FA1020F31E0021708F030E088A5890F57
:1051A00041E0891708F040E0380F91E0381708F027
:1051B00090E0492B89A5860F51E0861708F050E052
:1051C000480F91E0481708F090E0592B8AA5870F07
:1051D00061E0871708F060E0580F91E0581708F079
:1051E00090E0692B8BA58E0F71E08E1708F070E0B0
:1051F000680F91E0681708F090E0792B8CA58A0F72
:10520000F1E08A1708F0F0E0780F91E0781708F0E5
:1052100090E0F92BEDA5E10FA1E0E11708F0A0E087
:105220008F2F8E0F91E08E1708F090E09A2BFEA53D
:10523000BF0F202F9B0F1C821B82AFA9B8ADED9131
:10524000FC91CDA8DEA8AFA5B8A9CA1ADB0A0280D6
:10525000F381E02D8E01095F1F4FB0E2EB2EF12CA0
:10526000A0EDAA2EA9E2BA2E4E010894811C911C31
:105270001995882309F479C08B819C81EFA5F8A941
:10528000E80FF91FF8ABEFA72DA93EA9E217F30726
:1052900008F453C08FA998AD49A95AA96BA97CA954
:1052A0000E945B1969AB7AAB8BAB9CAB20E030E022
:1052B000611571058105910599F48E81882309F0A6
:1052C00040C0E9ADFAAD83A194A1A5A1B6A183AB7D
:1052D00094ABA5ABB6AB10AE17AA47C0BA83A983EF
:1052E00038AB2FA729A93AA94BA95CA92250304075
:1052F0004040504029AB3AAB4BAB5CABBA01A90183
:1053000080E090E0A0E0B0E04BAF5CAF6DAF7EAF6F
:105310008FAF21969FAF21972296AFAF229723960A
:10532000BFAF239789A99AA9ABA9BCA90296A11DD1
:10533000B11D89AB9AABABABBCAB8E81882309F4B2
:105340000CCE29A93AA94BA95CA9A9ADBAADD396AF
:105350002D933D934D935C93D697EFA5F8A9D896DE
:10536000FC93EE93D7978E8101C080E0CE5BDF4F38
:105370000FB6F894DEBF0FBECDBFCF91DF911F9166
:105380000F91FF90EF90DF90CF90BF90AF909F90E4
:105390008F907F906F905F904F903F902F900895E7
:1053A000AF92BF92CF92DF92EF92FF920F931F9333
:1053B000CF93DF936C01B62EA72EB701D701CD9105
:1053C000DC91119712968D919C911397809613966C
:1053D0009C938E931297F6019081953E11F099233C
:1053E00021F4DB0114961C92D9C0F60183858F301D
:1053F00009F040C0D70114969C91992319F0858536
:10540000981791F081E3FE0111928A95E9F7D60190
:105410001D968C91FB01848309A71AA72BA73CA793
:105420004DA75EA7BFA6A8AAD6018C9190E08F7366
:1054300090702DE030E0829FA001839F500D929FDD
:10544000500D11244D505040A9E6B2E0C40FD51FB5
:105450000DC08D91F601E80FF11D808189934F5F9A
:105460005F4FE2E0A637BE0709F498C04F315105FF
:1054700080F394C08881882399F0F701B481F60104
:10548000A1E0892F8695979599279795982B8181EB
:10549000980FAF5F3196AB30A1F7B91709F45AC036
:1054A00081E3DE011D928A95E9F709A71AA72BA7C8
:1054B0003CA74DA75EA7BFA6A8AAA601DE0186014C
:1054C00020E0F8019081903299F09C93F601848558
:1054D00083FF08C0F8018081813420F08B3510F4FF
:1054E000905E9C932F5F0F5F1F4F1196283049F7F6
:1054F0008881853011F485EE8883D60118968C91C9
:10550000803221F1FE01E20FF11D8EE28083322F05
:105510003F5F2C5FFA0190859032B9F0FE01E30FF6
:10552000F11D9083D6011C968C9184FF09C0DA018D
:1055300018968C91813420F08B3510F4905E908316
:105540003F5F4F5F5F4F321729F7232FFE01E20FB6
:10555000F11D1082F601838588A3228D338D40E0F2
:1055600050E084899589A0E0B0E0DC019927882784
:10557000822B932BA42BB52B89A39AA3ABA3BCA3FB
:10558000848D958DA68DB78D8DA39EA3AFA3B8A74F
:1055900081E0DB0115968C9380E001C081E0DF9112
:1055A000CF911F910F91FF90EF90DF90CF90BF9020
:1055B000AF9008952F923F924F925F926F927F9299
:1055C0008F929F92AF92BF92CF92DF92EF92FF9213
:1055D0000F931F93DF93CF93CDB7DEB7CD54D04059
:1055E0000FB6F894DEBF0FBECDBF2C01009709F4B3
:1055F000D9C3DC0114968D919C911597892B09F4E0
:10560000D1C316968D919C911797892B09F4CAC323
:10561000E6C3EEEEF4E082E3DF011D928A95E9F73E
:105620005092EF044092EE04F201A184B284C3844C
:10563000D4849501A60160E070E080E090E009E08C
:105640000E94C0402EAF3FAF21964FAF21972296C8
:105650005FAF229723966FAF239724967FAF24974F
:1056600025968FAF259726969FAF2697255F31E029
:10567000FEAD2F1708F030E0EFAC3E0D41E03E15D7
:1056800008F040E02196FFAC21974F0D51E04F15F7
:1056900008F050E022960FAD2297500F61E05017AE
:1056A00008F060E023961FAD2397610F71E061174A
:1056B00008F070E024968FAD2497780F81E024964F
:1056C0009FAD2497791708F080E02596AFAD259718
:1056D0008A0F91E08A1708F090E0D201ED91FC91D9
:1056E0002696BFAD26979B0F8E010F5F1F4FA5E239
:1056F000EA2EF12C1995882309F478C329803A8081
:10570000EC81FD81FFA7EEA7FB81F8ABEE80E9AA53
:105710000F8118851BAB0AAB89859A852C853D8541
:105720003DAB2CABAE88BF88C88CD98C4A8D5B8DC5
:105730006C8D7D8D4EAB5FAB68AF79AFEAA0FBA0FF
:105740000CA11DA1EAAEFBAE0CAF1DAFA114B104BC
:10575000C104D10431F4009709F448C35C01CC249E
:10576000DD240CA91DA90115110541F0980140E0A7
:1057700050E02EAB3FAB48AF59AF0AC06EA97FA92E
:1057800088AD99AD611571058105910509F42EC3A8
:10579000EEA5FFA5CF01A0E0B0E086017501E81AF3
:1057A000F90A0A0B1B0BF9A92F2F30E040E050E05B
:1057B0006EA97FA988AD99AD0E943F41E61AF70A0C
:1057C000080B190BC10101972AA93BA945E0220F3B
:1057D000331F4A95E1F7820F931FB1010E945E418A
:1057E00080E090E0E61AF70A080B190B68A9262F4B
:1057F00030E040E050E0C801B7010E948541390126
:105800004A0175EF67167FE0770670E0870670E063
:10581000970608F4EBC285EF68168FEF780680E0F4
:10582000880680E0980628F486E0D20118968C93CA
:1058300003C08BE0F20180878CE2E0EFF4E0DF014F
:105840001D928A95E9F7710100E010E020E030E058
:1058500040E050E02EA2FFA208A719A72AA73BA765
:105860004CA75DA79501A60160E070E080E090E0A4
:10587000AEA0BFA0CC24DD24EE24FF2400E010E085
:105880000E94463F2093F0043093F1044093F204C9
:105890005093F3046093F4047093F5048093F6043A
:1058A0009093F7040EA51FA5980140E050E060E03A
:1058B00070E080E090E000E010E00E94463FA32FFF
:1058C000B42F152F062FF72ED82ECEACC20EF1E036
:1058D000C21608F0F0E03FAD3A0FE1E03A1708F0E9
:1058E000E0E0EF2EE30E21E0E31608F020E0E22BEB
:1058F00021964FAD21974B0F31E04B1708F030E068
:10590000AE2FA40F21E0A41708F020E0322B22963E
:105910005FAD2297510F41E0511708F040E0F32F9F
:10592000F50F21E0F51708F020E0422B23966FAD2C
:105930002397600F31E0601708F030E0E42FE60FA6
:1059400021E0E61708F020E0322B24967FAD249763
:105950007F0D41E07F1508F040E0532F570F21E005
:10596000571708F020E0422B25968FAD25978D0D17
:1059700021E08D1508F020E0480F31E0481708F0CD
:1059800030E0232B26961FAD2697910F290FC0924A
:10599000F804E092F904A093FA04F093FB04E09376
:1059A000FC045093FD044093FE042093FF04D201B5
:1059B00018968C91863029F064E070E080E090E0E9
:1059C00004C062E070E080E090E022E0E22EF12C82
:1059D000012D112D6E0C7F1C801E911EA4019301C0
:1059E0000E943F416093000570930105809302057A
:1059F000909303053092050520920405F8A88F2D99
:105A000090E08C01029DC001039D900D129D900DB0
:105A100011249093070580930605D20118968C9166
:105A2000F9A8EF2CFF2400E010E020E030E040E097
:105A300050E02796EFAE27972896FFAE2897299635
:105A40000FAF29972A961FAF2A972B962FAF2B9728
:105A50002C963FAF2C972D964FAF2D972E965FAF7C
:105A60002E97863009F0FAC00CA91DA92EA13FA1DE
:105A700040E050E060E070E080E090E05801CC242D
:105A8000DD24EE24FF2400E010E00E94463F27962C
:105A9000AFAC2797BB240E94463FF090F804E091FA
:105AA000F904B091FA041091FB040091FC04A09059
:105AB000FD049090FE04A091FF04F20EF1E0F216B6
:105AC00008F0F0E0232F2E0FE1E0231708F0E0E0CC
:105AD000EF2EE20E31E0E21608F030E0E32B242F47
