:100000000C9484000C9488020C94B5020C94E202C7
:100010000C94A1000C94A1000C94A1000C94A100DC
:100020000C94A1000C94A1000C9487050C94A100E1
:100030000C94A1000C9414070C94A1000C94A10042
:100040000C94A1000C94A1000C94A1000C94A100AC
:100050000C94A1004B65792072656C6561736564D1
:10006000202D20706C6179696E6720736F756E64E6
:10007000210A00202D2D3E20507265737365642087
:100080006B65793A00204144432056616C75653AAE
:1000900000427574746F6E3A2054004144432056F8
:1000A000616C75653A004578616D706C65205072C1
:1000B0006F6772616D3200427574746F6E730023E6
:1000C0002323232323232323232323232323230023
:1000D00023232323232323232323232323232323F0
:1000E000000A0A525036436F6E74726F6C2042756C
:1000F00074746F6E204578616D706C652050726FFE
:100100006772616D210A000011241FBECFE5D8E09F
:10011000DEBFCDBF10E0A0E6B0E0E6E9F0E102C04E
:1001200005900D92A636B107D9F710E0A6E6B0E02B
:1001300001C01D92AA3BB107E1F70E94A3000C94F5
:1001400049080C940000FF920F931F930E946F06C2
:1001500081EE90E00E94FB0684EB60E570E00E9477
:10016000300689E690E00E945A068CED60E570E06A
:100170000E94300689E690E00E945A068FE00E94B5
:10018000E6030E94270480ED90E06FEB70E00E9490
:10019000E60484EF91E00E945A0687EB90E066EA5D
:1001A00070E00E94E60488EE93E00E945A0680E028
:1001B0000E94E6038BE990E061E970E00E94E604AA
:1001C0000E940A05082F8823D9F381E00E940903C1
:1001D000182FF92E80E06BE00E94DE04812F9F2D06
:1001E0006AE044E00E94AB0681E069E00E94DE0420
:1001F000802F90E06AE00E949C0685E890E00E94D3
:10020000FB06812F9F2D6AE00E94A30783E790E001
:100210000E94FB06802F90E06AE00E94A3078AE01C
:100220000E94ED060E940A058823E1F784E590E02C
:100230000E94FB06033009F4C7C0043030F40130DB
:1002400059F0023009F0BCCF75C0043009F40FC179
:10025000053009F0B5CF2EC181E00E94E60388EC9D
:100260006AE070E00E94300684E190E00E945A0645
:100270008FEA6AE070E00E94300684E190E00E941C
:100280005A0687ED6AE070E00E94300684E190E053
:100290000E945A0687E862E370E00E9430068AE511
:1002A00090E00E945A0681EE64E170E00E94300600
:1002B0008DE290E00E945A068DEC62E370E00E94AD
:1002C000300684E690E00E945A0687E868E770E00E
:1002D0000E94300680EF90E00E945A068FE562E3AC
:1002E00070E00E9430068CE390E00E945A0681E99B
:1002F00068E270E00E94300682E390E00E945A06B5
:1003000088EC6EE170E00E9430068DE290E00E9481
:100310005A068FEA6EE170E00E94300682E390E0B8
:100320000E945A0687E862E370E00E9430068BE480
:1003300090E0E5C082E00E94E6038BEE6BE070E0A7
:100340000E9430068CE090E00E945A0681EE6CE03C
:1003500070E00E9430068EE090E00E945A0687ED21
:100360006DE070E00E94300680E190E00E945A0645
:100370008DEC6EE070E00E94300682E190E00E9419
:100380005A0683EC6FE070E00E94300684E190E052
:100390000E945A0689EB60E170E00E94300686E117
:1003A00090E00E945A068FEA61E170E00E943006F8
:1003B00088E190E00E945A0685EA62E170E00E94BE
:1003C00030068AE190E09BC084E00E94E60385EF5E
:1003D0006AE070E00E9430068AE090E00E945A06CF
:1003E0008BEE64E170E00E94300684E190E00E94B0
:1003F0005A0681EE68E270E00E94300688E290E0E2
:100400000E945A0687ED6CE370E00E9430068CE390
:1004100090E00E945A068DEC60E570E00E94300684
:1004200080E590E00E945A0687ED6CE370E00E9440
:1004300030068CE390E00E945A0681EE68E270E09C
:100440000E94300688E290E00E945A068BEE64E13A
:1004500070E00E94300684E190E00E945A0685EF29
:100460006AE070E00E9430068AE090E048C001E057
:100470008FE00E94E60316EE812F0E943E0685E083
:1004800090E00E945A0612501E32B1F780E00E949E
:10049000E603812F0E943E0685E090E00E945A0606
:1004A0001E5F163EB1F780E00E943E060F5F0430EB
:1004B000F9F686CE89E00E94E6038CED60E570E0F7
:1004C0000E9430068AE590E00E945A068FEA64E1B5
:1004D00070E00E94300688E290E00E945A068CED9F
:1004E00060E570E00E9430068AE590E00E945A06BE
:1004F0008FEA64E170E00E94300688E290E00E949A
:100500005A065ECE08959093650080936400089526
:100510001F920F920FB60F9211242F933F934F9378
:100520005F936F937F938F939F93AF93BF93EF935B
:10053000FF93E0916400F09165000995FF91EF91C0
:10054000BF91AF919F918F917F916F915F914F91EB
:100550003F912F910F900FBE0F901F901895089507
:10056000909363008093620008951F920F920FB6DC
:100570000F9211242F933F934F935F936F937F9329
:100580008F939F93AF93BF93EF93FF93E09162009C
:10059000F09163000995FF91EF91BF91AF919F9109
:1005A0008F917F916F915F914F913F912F910F901C
:1005B0000FBE0F901F90189508959093610080933F
:1005C000600008951F920F920FB60F9211242F937F
:1005D0003F934F935F936F937F938F939F93AF93CB
:1005E000BF93EF93FF93E0916000F0916100099554
:1005F000FF91EF91BF91AF919F918F917F916F91FB
:100600005F914F913F912F910F900FBE0F901F90D0
:100610001895369B03C020E030E009C0806487B99C
:1006200086ED86B93699FECF349A24B135B1C90129
:1006300008958FB9779BFECF08958FEF8FB9779B81
:10064000FECF8FB108958FEF8FB9779BFECF3FB16B
:100650008FEF8FB9779BFECF2FB1932F80E030E0E3
:10066000282B392BC90108959FB9779BFECF8FB9ED
:10067000779BFECF0895FC0190E006C080818FB982
:10068000779BFECF9F5F31969617C0F30895FC01CC
:1006900090E02FEF06C02FB9779BFECF8FB18193EB
:1006A0009F5F9617C0F308959C01C09883E08FB9AF
:1006B000779BFECFC9010E9434038FEF8FB9779BE0
:1006C000FECF8FB1C09A08951F93CF93DF939C0103
:1006D000EB01142FC09883E08FB9779BFECFC9013F
:1006E0000E943403CE01612F0E944703C09ADF911C
:1006F000CF911F910895C09886E08FB9779BFECF68
:10070000C09A0895C09884E08FB9779BFECFC09AB5
:100710000895C09885E08FB9779BFECF8FEF8FB992
:10072000779BFECF8FB1C09A0895FF920F931F93CE
:10073000CF93DF93EC01162F072FF42E0E9489032D
:1007400080FDFCCF0E947B03C09882E08FB9779B2D
:10075000FECFCE010E943403812F902F9C01F9011E
:1007600090E006C080818FB9779BFECF9F5F319666
:100770009F15C0F3C09ADF91CF911F910F91FF9009
:1007800008951F93CF93DF93EC01162F0E948903E6
:1007900080FDFCCF0E947B03C09882E08FB9779BDD
:1007A000FECFCE010E9434031FB9779BFECFC09AC3
:1007B000DF91CF911F910895809193008FB9779B1E
:1007C000FECF949A00000000949808958F70909145
:1007D0009300907F982B909393000E94DC030895E0
:1007E0008295807F909193009F70982B90939300B7
:1007F0000E94DC03C49A82E390E001C000000197EC
:100800002FEF8F3F9207D1F7C49808951F93182FA9
:1008100082958F700E94F003812F0E94F00386E979
:1008200090E001C0000001972FEF8F3F9207D1F7B2
:100830001F910895C3980E94060486E990E001C0C4
:10084000000001972FEF8F3F9207D1F7089583E0C3
:100850000E94F00380E596E401C0000001972FEFAD
:100860008F3F9207D1F783E00E94F0038CE795E178
:1008700001C0000001972FEF8F3F9207D1F783E06F
:100880000E94F0038CE795E101C0000001972FEF73
:100890008F3F9207D1F782E00E94F0038CE795E149
:1008A00001C0000001972FEF8F3F9207D1F788E238
:1008B0000E941A048CE795E101C0000001972FEF18
:1008C0008F3F9207D1F788E00E941A048CE795E1E8
:1008D00001C0000001972FEF8F3F9207D1F781E011
:1008E0000E941A048CE795E101C0000001972FEFE8
:1008F0008F3F9207D1F782E00E941A048CE795E1BE
:1009000001C0000001972FEF8F3F9207D1F78CE0D5
:100910000E941A048CE795E101C0000001972FEFB7
:100920008F3F9207D1F7089581E00E941A048CE767
:1009300095E101C0000001972FEF8F3F9207D1F79B
:100940000895C39A0E94060482E390E001C000006B
:1009500001972FEF8F3F9207D1F70895CF93DF9341
:10096000EC0102C00E94A104FE012196849188231B
:10097000C9F7DF91CF910895CF93DF93EC0103C0C6
:1009800021960E94A10488818823D1F7DF91CF911D
:1009900008951F93CF93DF93162FEC01C40FD11D41
:1009A00004C021960E94A10411508881882311F06F
:1009B0001123B9F7DF91CF911F91089560688130BD
:1009C00009F4605C862F0E941A040895EF92FF924A
:1009D0000F931F938C017B010E949404C8010E9415
:1009E000AE0481E060E00E94DE04C7010E94AE0414
:1009F0001F910F91FF90EF9008951F93142F0E9465
:100A0000DE0404C080E20E94A10411501123D1F73A
:100A10001F910895CF93DF9381E00E940903EC01B9
:100A200083E0CC3FD80778F400000000000081E0AC
:100A30000E940903C80FD91FD695C795C233D105A7
:100A400010F481E018C082E0C434D80710F482E0CA
:100A500012C082E0CC3BD80710F483E00CC083E0E6
:100A6000C631D80710F484E006C0CE53D34010F04E
:100A700080E001C085E0DF91CF910895809167000B
:100A8000882341F00E940A05882311F41092670020
:100A900080E008950E940A058093670008951F93DF
:100AA00010916600112349F00E940A05882311F075
:100AB00010E007C01092660004C00E940A058093EF
:100AC0006600812F1F910895D09AD89821E030E0D8
:100AD00007C0109294008091940090E00C97DCF392
:100AE000215030408FEF2F3F380799F7D098089565
:100AF000CF93DF9380E00E940903EC0185309105DC
:100B000010F00E946405CE01DF91CF9108951F92ED
:100B10000F920FB60F9211248F939F9380916E00C6
:100B200090916F00019690936F0080936E0080917A
:100B300094008F5F80939400809195008F5F8093E5
:100B400095008150893008F484C08091820080FF34
:100B500009C0809183009091840001969093840055
:100B6000809383008091820081FF09C0809185007D
:100B700090918600019690938600809385008091E5
:100B8000820082FF09C080918700909188000196C1
:100B900090938800809387008091820083FF09C032
:100BA0008091890090918A00019690938A008093A9
:100BB00089008091820084FF09C080918B00909110
:100BC0008C00019690938C0080938B008091820022
:100BD00085FF09C080918D0090918E0001969093C1
:100BE0008E0080938D008091820086FF09C08091E5
:100BF0008F009091900001969093900080938F00C9
:100C00008091820087FF09C08091910090919200AD
:100C1000019690939200809391008091700080FFE4
:100C200016C08091960090919700892B39F415BCDD
:100C3000809170008E7F8093700009C08091960033
:100C4000909197000197909397008093960010924F
:100C500095009F918F910F900FBE0F901F90189548
:100C600090917000916090937000709397006093E2
:100C70009600809583BD8EE185BD089590917000AA
:100C80009E7F90937000982F909593BD882319F0C4
:100C90008EE185BD089515BC089510929400282F0B
:100CA00030E02F5F3F4F8091940090E02817390784
:100CB000D4F708959C0109C010929400809194008B
:100CC00090E00C97DCF32150304021153105A1F75D
:100CD000089502C0000001970097E1F708951BBA3C
:100CE00087E088BB8CEF85BB81E682BB1ABA8BEBB1
:100CF00087BB14BA82E981BBF89410BC89E189B939
:100D00001BB886E880BD88E98AB917B886E186B93C
:100D100010BE8FE085BF1BBE14BE8AE083BF87EC88
:100D20008CBF15BC8FEF83BD82E089BF80E58DB994
:100D300081E08EB9789408950F931F93462F01E7B1
:100D400010E0B80150E00E940408C8010E94BC04F1
:100D50001F910F910895EF92FF920F931F93DF93CE
:100D6000CF93CDB7DEB761970FB6F894DEBF0FBE55
:100D7000CDBF262F042F7E010894E11CF11CB70182
:100D8000422F50E00E940408F70101900020E9F78B
:100D90003197EE19FF09102F1E1B11165CF411502C
:100DA00080E30E94A1041123D1F7CE0101960E9495
:100DB000BC0406C01195C701602F412F0E94C904D1
:100DC00061960FB6F894DEBF0FBECDBFCF91DF9115
:100DD0001F910F91FF90EF9008955D9BFECF8CB90E
:100DE0000895FC0104C05D9BFECF31968CB98081D3
:100DF0008823C9F7089503C05D9BFECF2CB9FC0181
:100E0000019624912223C1F70895FC01E40FF11DFE
:100E100005C05D9BFECF31968CB9615080818823DF
:100E200011F06623B1F708951F920F920FB60F923B
:100E300011242F938F939F93EF93FF9320916B0037
:100E400080916A00922F981B9032A8F480916900DB
:100E5000E82FF0E09CB1E756FF4F90838F5F8093BF
:100E600069002F5F20936B00813210F010926900AF
:100E70001092980006C08CB180936D0081E0809341
:100E80009800FF91EF919F918F912F910F900FBE3E
:100E90000F901F9018951092980090916A00809181
:100EA0006B00891711F4E0E013C09F5F90936A0014
:100EB00080916800813210F0109268008091680083
:100EC000E82FF0E0E756FF4FE0818F5F80936800E6
:100ED0008E2F089510929800DC0120E014C09F5FCF
:100EE00090936A0080916800E82FF0E0E756FF4F8A
:100EF00090819C938F5F80936800813210F01092F4
:100F000068002F5F119690916A0080916B0089179D
:100F100011F0261720F3822F089580916B00909195
:100F20006A00891B089557988CB180936C001092C9
:100F300068001092690010926A0010926B00109283
:100F40009800579A08950F931F93DF93CF93CDB7CF
:100F5000DEB761970FB6F894DEBF0FBECDBF462F48
:100F60008E010F5F1F4FB80150E00E940408C801B6
:100F70000E94F10661960FB6F894DEBF0FBECDBF9A
:100F8000CF91DF911F910F910895FF920F931F93BF
:100F9000DF93CF93CDB7DEB761970FB6F894DEBF7E
:100FA0000FBECDBF262FF42E8E010F5F1F4FB8014D
:100FB000422F50E00E940408F80101900020E9F758
:100FC0003197E01BF10B4F2D4E1B141664F480E398
:100FD00041505D9BFECF8CB94423D1F7CE010196E1
:100FE0000E94F10605C04195C8016F2D0E940507BA
:100FF00061960FB6F894DEBF0FBECDBFCF91DF91E3
:101000001F910F91FF900895FB019F01E8944230DA
:10101000C4F04532B4F44A3029F497FB1EF490959D
:1010200081959F4F642F77270E943508805D8A3312
:101030000CF0895D8193CB010097A1F716F45DE276
:1010400051931082C9010C942508DC01FC01672F23
:1010500071917723E1F7329704C07C916D9370838F
:101060006291AE17BF07C8F30895AA1BBB1B51E1DD
:1010700007C0AA1FBB1FA617B70710F0A61BB70B08
:10108000881F991F5A95A9F780959095BC01CD01AD
:061090000895F894FFCF63
:06109600DC02AF02820241
:00000001FF
