:100000000C9490000C9425010C9452010C947F01E7
:100010000C94AD000C94AD000C94AD000C94AD00AC
:100020000C94AD000C94AD000C9424040C94AD0021
:100030000C94AD000C94B1050C94AD000C94AD0083
:100040000C94AD000C94AD000C94AD000C94AD007C
:100050000C94AD000A414443373A20000A0A504349
:1000600036206973204C4F57210A0A000A0A504370
:10007000362069732048494748210A0A000A436824
:1000800065636B205043363A000A5043372069734A
:100090002073657420746F204C4F57210A0A000AA0
:1000A0005043372069732073657420746F2048496A
:1000B0004748210A0A004578616D706C65205072CE
:1000C0006F6772616D00492F4F20616E642041445B
:1000D00043002323232323232323232323232323F3
:1000E0002323002323232323232323232323232303
:1000F000232323000A0A525036436F6E74726F6CCA
:1001000020492F4F20616E6420414443204578618F
:100110006D706C652050726F6772616D210A00000E
:1001200011241FBECFE5D8E0DEBFCDBF10E0A0E6B2
:10013000B0E0E0EDFDE002C005900D92A037B10700
:10014000D9F710E0A0E7B0E001C01D92A43CB107D0
:10015000E1F70E94AF000C94E6060C9400000E94A8
:100160000C050E94C40284EF90E00E9498058FE085
:100170000E94830283EE90E062ED70E00E948303B0
:1001800084E668E270E00E94CD0488E690E00E9478
:10019000F7048AEA68E270E00E94CD0488E290E009
:1001A0000E94F70480E991E00E94F70480E00E9439
:1001B000830286EC90E066EB70E00E94830388EE99
:1001C00093E00E94F704A79AAF9A8FE990E00E940B
:1001D000980588EE93E00E94F704AF9889E890E0D4
:1001E0000E949805A698AE9A8DE790E00E94980527
:1001F0009E9B03C08CE690E002C08CE590E00E94DC
:100200009805D798D29884E590E00E94980587E0F9
:100210000E94A6016AE00E94400680E690E00E94EB
:100220008E0582E00E94A6016AE00E9440068AE0F4
:100230000E948A0584EF91E00E94F704E4CF0895BC
:1002400090936F0080936E0008951F920F920FB6E7
:100250000F9211242F933F934F935F936F937F934C
:100260008F939F93AF93BF93EF93FF93E0916E00B3
:10027000F0916F000995FF91EF91BF91AF919F9120
:100280008F917F916F915F914F913F912F910F903F
:100290000FBE0F901F901895089590936D00809356
:1002A0006C0008951F920F920FB60F9211242F9396
:1002B0003F934F935F936F937F938F939F93AF93EE
:1002C000BF93EF93FF93E0916C00F0916D0009955F
:1002D000FF91EF91BF91AF919F918F917F916F911E
:1002E0005F914F913F912F910F900FBE0F901F90F4
:1002F0001895089590936B0080936A0008951F925B
:100300000F920FB60F9211242F933F934F935F9349
:100310006F937F938F939F93AF93BF93EF93FF93CD
:10032000E0916A00F0916B000995FF91EF91BF9108
:10033000AF919F918F917F916F915F914F913F917D
:100340002F910F900FBE0F901F901895369B03C0F2
:1003500020E030E009C0806487B986ED86B936991F
:10036000FECF349A24B135B1C90108958FB9779B76
:10037000FECF08958FEF8FB9779BFECF8FB1089591
:100380008FEF8FB9779BFECF3FB18FEF8FB9779B00
:10039000FECF2FB1932F80E030E0282B392BC901FD
:1003A00008959FB9779BFECF8FB9779BFECF0895B5
:1003B000FC0190E006C080818FB9779BFECF9F5FE4
:1003C00031969617C0F30895FC0190E02FEF06C018
:1003D0002FB9779BFECF8FB181939F5F9617C0F3A4
:1003E00008959C01C09883E08FB9779BFECFC90127
:1003F0000E94D1018FEF8FB9779BFECF8FB1C09A4A
:1004000008951F93CF93DF939C01EB01142FC098A5
:1004100083E08FB9779BFECFC9010E94D101CE0145
:10042000612F0E94E401C09ADF91CF911F9108953E
:10043000C09886E08FB9779BFECFC09A0895C09888
:1004400084E08FB9779BFECFC09A0895C09885E06D
:100450008FB9779BFECF8FEF8FB9779BFECF8FB190
:10046000C09A0895FF920F931F93CF93DF93EC01EF
:10047000162F072FF42E0E94260280FDFCCF0E942B
:100480001802C09882E08FB9779BFECFCE010E9400
:10049000D101812F902F9C01F90190E006C080814D
:1004A0008FB9779BFECF9F5F31969F15C0F3C09A9F
:1004B000DF91CF911F910F91FF9008951F93CF93DC
:1004C000DF93EC01162F0E94260280FDFCCF0E94D4
:1004D0001802C09882E08FB9779BFECFCE010E94B0
:1004E000D1011FB9779BFECFC09ADF91CF911F91A9
:1004F000089580919D008FB9779BFECF949A00005C
:100500000000949808958F7090919D00907F982B93
:1005100090939D000E94790208958295807F90912A
:100520009D009F70982B90939D000E947902C49A21
:1005300082E390E001C0000001972FEF8F3F920708
:10054000D1F7C49808951F93182F82958F700E9439
:100550008D02812F0E948D0286E990E001C000008B
:1005600001972FEF8F3F9207D1F71F910895C398FE
:100570000E94A30286E990E001C0000001972FEFDE
:100580008F3F9207D1F7089583E00E948D0280E5A6
:1005900096E401C0000001972FEF8F3F9207D1F73B
:1005A00083E00E948D028CE795E101C00000019775
:1005B0002FEF8F3F9207D1F783E00E948D028CE7E7
:1005C00095E101C0000001972FEF8F3F9207D1F70F
:1005D00082E00E948D028CE795E101C00000019746
:1005E0002FEF8F3F9207D1F788E20E94B7028CE786
:1005F00095E101C0000001972FEF8F3F9207D1F7DF
:1006000088E00E94B7028CE795E101C000000197E5
:100610002FEF8F3F9207D1F781E00E94B7028CE75E
:1006200095E101C0000001972FEF8F3F9207D1F7AE
:1006300082E00E94B7028CE795E101C000000197BB
:100640002FEF8F3F9207D1F78CE00E94B7028CE723
:1006500095E101C0000001972FEF8F3F9207D1F77E
:10066000089581E00E94B7028CE795E101C0000087
:1006700001972FEF8F3F9207D1F70895C39A0E94F9
:10068000A30282E390E001C0000001972FEF8F3FAB
:100690009207D1F70895CF93DF93EC0102C00E9437
:1006A0003E03FE01219684918823C9F7DF91CF9103
:1006B0000895CF93DF93EC0103C021960E943E037F
:1006C00088818823D1F7DF91CF9108951F93CF932D
:1006D000DF93162FEC01C40FD11D04C021960E9498
:1006E0003E0311508881882311F01123B9F7DF915F
:1006F000CF911F9108956068813009F4605C862F66
:100700000E94B7020895EF92FF920F931F938C01FE
:100710007B010E943103C8010E944B0381E060E02D
:100720000E947B03C7010E944B031F910F91FF9012
:10073000EF9008951F93142F0E947B0304C080E262
:100740000E943E0311501123D1F71F910895CF93BA
:10075000DF9381E00E94A601EC0183E0CC3FD80743
:1007600078F400000000000081E00E94A601C80F9C
:10077000D91FD695C795C233D10510F481E018C0B2
:1007800082E0C434D80710F482E012C082E0CC3B8F
:10079000D80710F483E00CC083E0C631D80710F40A
:1007A00084E006C0CE53D34010F080E001C085E065
:1007B000DF91CF91089580917100882341F00E94CC
:1007C000A703882311F41092710080E008950E941D
:1007D000A7038093710008951F9310917000112357
:1007E00049F00E94A703882311F010E007C010927F
:1007F000700004C00E94A70380937000812F1F9196
:100800000895D09AD89821E030E007C010929E0059
:1008100080919E0090E00C97DCF3215030408FEFE8
:100820002F3F380799F7D0980895CF93DF9380E052
:100830000E94A601EC018530910510F00E94010490
:10084000CE01DF91CF9108951F920F920FB60F92B4
:1008500011248F939F938091780090917900019655
:10086000909379008093780080919E008F5F8093B1
:100870009E0080919F008F5F80939F008150893000
:1008800008F484C080918C0080FF09C080918D00A5
:1008900090918E00019690938E0080938D008091B0
:1008A0008C0081FF09C080918F009091900001968B
:1008B0009093900080938F0080918C0082FF09C0FC
:1008C0008091910090919200019690939200809374
:1008D000910080918C0083FF09C0809193009091DA
:1008E00094000196909394008093930080918C00E3
:1008F00084FF09C080919500909196000196909395
:1009000096008093950080918C0085FF09C08091AE
:10091000970090919800019690939800809397008B
:1009200080918C0086FF09C08091990090919A0077
:10093000019690939A008093990080918C0087FF94
:1009400009C080919B0090919C00019690939C001F
:1009500080939B0080917A0080FF16C08091A00058
:100960009091A100892B39F415BC80917A008E7F7B
:1009700080937A0009C08091A0009091A100019716
:100980009093A1008093A00010929F009F918F915F
:100990000F900FBE0F901F90189590917A00916064
:1009A00090937A007093A1006093A000809583BD1E
:1009B0008EE185BD089590917A009E7F90937A0094
:1009C000982F909593BD882319F08EE185BD0895E9
:1009D00015BC089510929E00282F30E02F5F3F4FE6
:1009E00080919E0090E028173907D4F708959C0164
:1009F00009C010929E0080919E0090E00C97DCF35D
:100A00002150304021153105A1F7089502C00000A2
:100A100001970097E1F708951BBA87E088BB8CEF38
:100A200085BB81E682BB1ABA8BEB87BB14BA82E91D
:100A300081BBF89410BC89E189B91BB886E880BDF8
:100A400088E98AB917B886E186B910BE8FE085BFFC
:100A50001BBE14BE8AE083BF87EC8CBF15BC8FEF32
:100A600083BD82E089BF80E58DB981E08EB978943D
:100A700008950F931F93462F0BE710E0B80150E045
:100A80000E94A106C8010E9459031F910F91089569
:100A9000EF92FF920F931F93DF93CF93CDB7DEB703
:100AA00061970FB6F894DEBF0FBECDBF262F042F7F
:100AB0007E010894E11CF11CB701422F50E00E9416
:100AC000A106F70101900020E9F73197EE19FF091F
:100AD000102F1E1B11165CF4115080E30E943E0380
:100AE0001123D1F7CE0101960E94590306C011953A
:100AF000C701602F412F0E94660361960FB6F894DC
:100B0000DEBF0FBECDBFCF91DF911F910F91FF9040
:100B1000EF9008955D9BFECF8CB90895FC0104C051
:100B20005D9BFECF31968CB980818823C9F70895EB
:100B300003C05D9BFECF2CB9FC01019624912223BA
:100B4000C1F70895FC01E40FF11D05C05D9BFECFC8
:100B500031968CB961508081882311F06623B1F7FA
:100B600008951F920F920FB60F9211242F938F9317
:100B70009F93EF93FF932091750080917400922FC3
:100B8000981B9032A8F480917300E82FF0E09CB19C
:100B9000ED55FF4F90838F5F809373002F5F2093FD
:100BA0007500813210F0109273001092A20006C0FE
:100BB0008CB18093770081E08093A200FF91EF9148
:100BC0009F918F912F910F900FBE0F901F901895AE
:100BD0001092A2009091740080917500891711F411
:100BE000E0E013C09F5F90937400809172008132A7
:100BF00010F01092720080917200E82FF0E0ED5535
:100C0000FF4FE0818F5F809372008E2F08951092C6
:100C1000A200DC0120E014C09F5F909374008091DB
:100C20007200E82FF0E0ED55FF4F90819C938F5FAD
:100C300080937200813210F0109272002F5F119633
:100C40009091740080917500891711F0261720F398
:100C5000822F08958091750090917400891B0895EA
:100C600057988CB1809376001092720010927300A6
:100C700010927400109275001092A200579A089575
:100C80000F931F93DF93CF93CDB7DEB761970FB666
:100C9000F894DEBF0FBECDBF462F8E010F5F1F4FF2
:100CA000B80150E00E94A106C8010E948E0561961D
:100CB0000FB6F894DEBF0FBECDBFCF91DF911F916D
:100CC0000F910895FF920F931F93DF93CF93CDB7AA
:100CD000DEB761970FB6F894DEBF0FBECDBF262FEB
:100CE000F42E8E010F5F1F4FB801422F50E00E947B
:100CF000A106F80101900020E9F73197E01BF10B04
:100D00004F2D4E1B141664F480E341505D9BFECFC3
:100D10008CB94423D1F7CE0101960E948E0505C0FF
:100D20004195C8016F2D0E94A20561960FB6F894F7
:100D3000DEBF0FBECDBFCF91DF911F910F91FF900E
:100D40000895FB019F01E8944230C4F04532B4F4A9
:100D50004A3029F497FB1EF4909581959F4F642F9C
:100D600077270E94D206805D8A330CF0895D8193DB
:100D7000CB010097A1F716F45DE251931082C901EF
:100D80000C94C206DC01FC01672F71917723E1F717
:100D9000329704C07C916D9370836291AE17BF0748
:100DA000C8F30895AA1BBB1B51E107C0AA1FBB1FB4
:100DB000A617B70710F0A61BB70B881F991F5A95E7
:100DC000A9F780959095BC01CD010895F894FFCFC7
:100DD000207C20414443323A200079014C011F011C
:00000001FF
