:100000000C941E010C945F020C947F020C949D03CF
:100010000C943D030C943B010C943B010C943B016C
:100020000C943B010C943B010C945E050C943B0139
:100030000C943B010C94B90B0C943B010C943B01C8
:100040000C943B010C943B010C943B010C94B60EB8
:100050000C943B0128022E0234023A02400246026E
:100060004C020A493243204552524F52202D20540F
:1000700057492053544154453A203078005468651C
:1000800020526F626F74206E6565647320746F20F8
:100090006265207265736574746564206E6F772E77
:1000A0000A0A00596F75206E65656420746F2063BD
:1000B0006865636B204D6F746F7220617373656D3B
:1000C000626C7920286F7220796F757220736F6669
:1000D0007477617265292E0A0A000A0A28732E2095
:1000E0007461736B5F6D6F746F72436F6E74726F58
:1000F0006C28292066756E6374696F6E20696E20A6
:100100005250364C696221290A000A0A232323200F
:100110004D4F544F52204F56455243555252454E23
:1001200054202323230A00596F75206E65656420CF
:10013000746F20636865636B20456E636F646572DE
:100140002F4D6F746F7220617373656D626C7920CF
:10015000286F7220796F757220736F667477617281
:1001600065292E0A0A00210A0A28732E2074617359
:100170006B5F6D6F746F72436F6E74726F6C282952
:100180002066756E6374696F6E20696E20525036FA
:100190004C696221290A005249474854004C45469F
:1001A00054004166666563746564206368616E6EC1
:1001B000656C3A000A23232320454E434F444552A1
:1001C00020284F52204D4F544F5229204D414C462C
:1001D000554E4354494F4E21202323230A00232305
:1001E00023232320414C4C204F5045524154494F2A
:1001F0004E532053544F5050454420544F2050529A
:100200004556454E5420414E592044414D414745A5
:10021000212023232323230A000A0A232323232321
:1002200020454D455247454E435920534855544467
:100230004F574E2023232323230A000011241FBEDF
:10024000CFE5D8E0DEBFCDBF10E0A0E6B0E0E6EA43
:10025000FFE102C005900D92AE36B107D9F721E05B
:10026000AEE6B0E001C01D92AE35B207E1F70E94E4
:10027000250F0C94D10F0C940000CF93C82F82E669
:1002800090E00E942F0B60E18C2F90E00E945B0BAE
:100290008AE0CF910C941F0B80910301909104018F
:1002A0008734910510F160916000609580E70E94AD
:1002B000F20D80916000803829F481E080936E0017
:1002C00080EC0DC0833020F410926E0083E007C0F4
:1002D00090916E00992311F0869501C0880F80934C
:1002E000600010920401109203010895089508958A
:1002F000089508958091E900843010F01092E9008B
:10030000089584E08093E900089587B38C7787BBD4
:1003100088B38C7788BB8091D40083FF02C0BF9ADA
:10032000C79A8091D40084FF02C0B99AC19A809183
:10033000D40085FF02C0B89AC09A84B38F7884BB7A
:1003400085B38F7885BB24B39091D40030E1939F1F
:10035000C00111248077822B84BB25B39091D400F7
:1003600030E1939FC00111248077822B85BB80915F
:10037000E900811106C081E09091D400911101C083
:1003800080E08093E90008958093D4000C94850167
:10039000C098B898000086B381709091D40095FF02
:1003A00002C0B89AC09A0895AE98A698000083B388
:1003B00080749091D40092FF02C0A69AAE9A0895DC
:1003C00090936900809368000895CF9380912101F4
:1003D0008333C0F00E94C801C82F0E94D4019091BD
:1003E000D5009C1304C090913201981749F0C09336
:1003F000D50080933201E0916800F0916900099581
:1004000010922101CF91089536990AC0806487B96E
:1004100086ED86B93699FECF349A84B195B10895A8
:1004200080E090E00895806487B986ED86B90895EC
:10043000369944C0E09180008E2F90E0873091057E
:1004400098F5FC01E65DFF4F84B195B10C947C0FEB
:10045000909336018093350186E423C090933B014D
:1004600080933A0185E41DC090932C0180932B0169
:1004700083E417C09093F5008093F40082E411C0E8
:1004800090931B0180931A0180E40BC09093290183
:100490008093280181E405C09093F3008093F200DB
:1004A00087E487B986ED86B980918000863019F49B
:1004B0001092800008958F5F8093800008951F92AE
:1004C0000F920FB60F9211248F939F93809130015A
:1004D0009091310101969093310180933001809188
:1004E0002601909127010196909327018093260180
:1004F0009F918F910F900FBE0F901F9018951F9294
:100500000F920FB60F9211248F939F938091220127
:100510009091230101969093230180932201809171
:10052000FC009091FD0001969093FD008093FC00EB
:100530009F918F910F900FBE0F901F9018959093E1
:100540006700809366000895893C08F088EC90E08D
:100550009093DB008093DA00693C08F068EC70E06F
:100560007093D9006093D800089580936F002FEFA7
:10057000280F91E0223008F090E0909373008D7F77
:1005800091E0813009F090E0909372000895292F56
:10059000221F2227221F20937300771F7727771FA0
:1005A000709372001816190614F0819561950C94D9
:1005B000A4029091D300937081E009F080E0089547
:1005C0001092DB001092DA001092D9001092D8003D
:1005D0001092E5001092E4001092200110921F0189
:1005E0008091D3008E7F8D7F8093D30080933401E0
:1005F000E0916600F09167000994633D08F062EDB8
:1006000070E07093FB006093FA00833D08F082ED88
:1006100090E09093EB008093EA000895809371003E
:10062000609370008093730060937200882311F0D0
:10063000AA9A01C0AA98662311F0AB9A0895AB98C4
:1006400008959091DF00992321F099B7906899BFA0
:10065000F8CF6F7370E070638F7320E4829FC001E6
:100660001124862B972B9093FF008093FE0080919E
:10067000DE0080648093DE0008951F920F920FB613
:100680000F9211248F939F93809165008230B0F573
:1006900080917F008823D1F08C3338F48091180149
:1006A0009091190196FF07C008C0809118019091A0
:1006B000190196FF02C0979803C082B3805882BB8D
:1006C00080917F00815080937F0030C08091DF0057
:1006D0009798882359F18091180190911901880FFA
:1006E000991F909319018093180188E780937F00E8
:1006F0008091DF0081508093DF0018C08091E3007B
:10070000882391F08091DE0080FD05C098B380E4DD
:10071000892788BB03C085B3805885BB8091E300DF
:1007200081508093E30002C0C69AAF9A9F918F9147
:100730000F900FBE0F901F9018951F920F920FB63B
:100740000F9211248F9380916500833011F08630D1
:1007500079F48091DE0084FD0BC08091DE0085FF7E
:1007600007C0B29905C0809133018F5F8093330138
:1007700086B38091DE008D7F8093DE008F910F9095
:100780000FBE0F901F9018959093640080936300A4
:100790000895909362008093610008958091F6001F
:1007A0009091F700029708F43CC18091DE0084FD2F
:1007B00019C180916500823009F467C028F488234C
:1007C00069F0813091F014C1853009F4AFC08630F2
:1007D00009F4C5C0833009F00BC16FC089B78F77AA
:1007E00089BF9798C69AAF9A03C18091DF008111A3
:1007F0002AC08091DE0086FF14C08091FE00909197
:10080000FF0090931901809318018EE08093DF0020
:100810008091DE008F7B8093DE0089B7806889BF7E
:1008200006C089B78F7789BF9798C69AAF9A80918B
:100830007E0091E0980F90937E00843138F082E042
:100840008093650003C089B7806889BF8091DE000E
:1008500083FFCEC0E0916300F09164008091370186
:1008600090913801099580913701909138019093CA
:10087000E7008093E60010923801109237018091D2
:10088000DE00877F8093DE00B3C089B78F7789BF92
:100890009798C69AAF9A1092E30010923301109283
:1008A0007D0010927C008091DE008E7F80628093BC
:1008B000DE0083E080937E0077C08091E3008111A9
:1008C00010C080917E0091E0980F90937E0083305D
:1008D00040F089B7806889BF88E28093E300109276
:1008E0007E0080911401882321F0809133018230B1
:1008F00020F480913301863038F01092330181E08A
:100900008093140185E050C080917C0090917D001F
:100910009C012F5F3F4F30937D0020937C000E970A
:1009200008F466C01092140185E051C089B78F7732
:1009300089BF9798C69AAF9A1092E300109233013C
:1009400010927D0010927C008091DE0081608062B8
:100950008093DE0083E080937E0086E025C0809156
:10096000E300811110C080917E0091E0980F909378
:100970007E00833040F089B7806889BF88E2809329
:10098000E30010927E0080911D01882321F0809168
:100990003301823020F480913301863040F0109290
:1009A000330181E080931D018093650021C0809117
:1009B0007C0090917D009C012F5F3F4F30937D0024
:1009C00020937C000E97A0F010921D0181E080938F
:1009D000650089B78F7789BF9798C69AAF9A1092AA
:1009E000E30006C010927D0010927C0010927E0001
:1009F0009091140120917B0080911D01291304C066
:100A000020917A00281749F090937B0080937A0018
:100A1000E0916100F091620009951092F700109248
:100A2000F60008951092650089B78F7789BF97986F
:100A3000C69AAF9A10921D0110921401089589B7B9
:100A40008F7789BF9798C69AAF9A10921D0110921E
:100A5000140181E08093650008958E989698BB9864
:100A6000C398C698AF9808958E9A969ABB98C398E3
:100A700008958E989698BB9AC39A08958E9A969ADE
:100A8000BB9AC39A0895C49A8091E900843018F4FF
:100A900083E08093E9000895C4988091E900843050
:100AA00060F4811107C081E09091D400911103C0DE
:100AB00080E001C081E08093E90008951F920F92C9
:100AC0000FB60F9211242F933F934F935F936F9321
:100AD0007F938F939F93AF93BF93EF93FF938091F7
:100AE000D1009091D20001969093D2008093D100D2
:100AF00080912A018F5F80932A0180912D0191E0DE
:100B0000980F90932D01893008F446C1809102011D
:100B100080FF09C080910301909104010196909398
:100B20000401809303018091020181FF09C080913B
:100B300005019091060101969093060180930501AD
:100B40008091020182FF09C0809107019091080104
:100B5000019690930801809307018091020183FF21
:100B600009C08091090190910A01019690930A01B0
:100B7000809309018091020184FF09C080910B01DB
:100B800090910C01019690930C0180930B01809140
:100B9000020185FF09C080910D0190910E0101961F
:100BA00090930E0180930D018091020186FF09C090
:100BB00080910F0190911001019690931001809304
:100BC0000F018091020187FF09C08091110190916E
:100BD00012010196909312018093110180911E01E0
:100BE00091E0980F90931E01893CE8F08091FC0001
:100BF0009091FD0090932F0180932E01809126010A
:100C0000909127019093ED008093EC001092FD00ED
:100C10001092FC00109227011092260181E080932F
:100C2000E80010921E012091E900233008F051C025
:100C3000223079F58091D40081111FC08091780015
:100C400090917900FC013196F0937900E09378005F
:100C500068EC70E00E94460F892BD9F5E13AFF401D
:100C600028F0B998C1981092E90029C087B382276B
:100C700087BB88B3282728BB2CC084FD02C0B99845
:100C8000C198109279001092780081E08093E90079
:100C900020C08091780090917900813E3EE29307D8
:100CA00098F0213049F41092E9008091D40084FD3D
:100CB00006C0B998C19803C082E08093E900109201
:100CC00079001092780005C0019690937900809386
:100CD00078008091F6009091F700039748F4809196
:100CE000F6009091F70001969093F7008093F6003C
:100CF00080911601873318F48F5F809316018091DD
:100D00002101843328F4809121018F5F8093210198
:100D100080911C0191E0980F90931C018330D0F1D9
:100D200080911701482F50E02091FA003091FB008C
:100D30004217530759F04217530714F48F5F01C04D
:100D4000815080931701809117018ABD80913901EC
:100D5000482F50E02091EA003091EB0042175307F2
:100D600059F04217530714F48F5F01C081508093EC
:100D700039018091390188BD80913901811104C008
:100D800080911701882319F082EA8FBD01C01FBC32
:100D900010921C0110922D013091DE0033FD46C0EF
:100DA0008091760090917700209175002F5F2093BD
:100DB0007500263198F096FD0AC095FF08C0909303
:100DC000380180933701832F88608093DE00809103
:100DD000DE008F7E8093DE0080E090E03091740032
:100DE00046B3432742FF1EC030953093740027302E
:100DF00040F48091DE008F7E8093DE0080E090E002
:100E000004C0009711F02F3068F02091DE002061BF
:100E10002093DE0096FD02C0880F991F32FF81608B
:100E2000109275009093770080937600FF91EF9178
:100E3000BF91AF919F918F917F916F915F914F91F2
:100E40003F912F910F900FBE0F901F901895109209
:100E50002A0190912A019817E0F30895CF93DF9328
:100E6000EC01209729F08AE00E9427072197F9CF0B
:100E7000DF91CF910895019710F00000FCCF089505
:100E8000C82FF89497980E942D051092EB001092AD
:100E9000EA001092FB001092FA001092E500109206
:100EA000E4001092200110921F011092390110925B
:100EB00017011ABC18BC1FBC0E944C0589E192E0C6
:100EC0000E942F0B8EED91E00E942F0B8FEF8C0F65
:100ED0008230C0F484EB91E00E942F0B82EA91E013
:100EE0000E942F0BC13019F48DE991E002C087E90F
:100EF00091E00E942F0B86E691E00E942F0B87E283
:100F000091E00CC0C33061F48AE091E00E942F0BA5
:100F10008AED90E00E942F0B83EA90E00E942F0B55
:100F20008DE790E00E942F0BD6E3D093D4000E946F
:100F30008501CAE080E090E80E943B07C150D1F7EC
:100F40001092D4000E948501CAE08FEF9FEF0E94AB
:100F50003B07C150D1F7E9CF80911601823308F4E5
:100F600074C0109216018091130120913A013091C2
:100F70003B0181113BC08091D300233043E0340713
:100F800038F440912B0150912C0143305340E0F054
:100F9000909115019F5F909315019AE09093130132
:100FA0001092EB001092EA001092FB001092FA00EF
:100FB0001092E5001092E4001092200110921F019F
:100FC00084608093D30008958B7F8093D3008091B9
:100FD000E000853628F0109215011092E00006C05E
:100FE00080911501833010F083E014C0263931055B
:100FF00098F48091EC009091ED00892B69F4809138
:10100000DA009091DB00892B39F080913901873922
:1010100018F081E00E94400780912B0190912C01F3
:101020008639910590F480912E0190912F01892BA2
:1010300061F48091D8009091D900892B31F0809192
:101040001701873910F082E0E5CF8091E80088230E
:1010500009F484C18091130181117BC18091150134
:10106000882331F08091E0008F5F8093E00002C020
:101070001092E0008091D30081FF35C04091300193
:10108000509131012091D6003091D700421753077B
:1010900080F01092DB001092DA001092E5001092BE
:1010A000E4001092EB001092EA008D7F8093D30051
:1010B0001AC020913001309131018091EE00909161
:1010C000EF002817390778F08091DA009091DB0063
:1010D000969587958631910510F486E190E090937E
:1010E000DB008093DA008091D30080FF35C040910F
:1010F0002201509123012091F8003091F90042170C
:10110000530780F01092D9001092D800109220015D
:1011100010921F011092FB001092FA008E7F8093B4
:10112000D3001AC020912201309123018091240123
:10113000909125012817390778F08091D800909177
:10114000D900969587958631910510F486E190E057
:101150009093D9008093D800809173009091710092
:10116000891307C02091720090917000291709F42B
:1011700051C04091DA005091DB002091D8003091AD
:10118000D9004115510519F42115310501F150938C
:10119000DD004093DC003093F1002093F0001092CA
:1011A000DB001092DA001092D9001092D800109251
:1011B000FB001092FA001092EB001092EA001092DD
:1011C000E5001092E4001092200110921F019FB5DB
:1011D000911120C0609172000E940E032091DC00EA
:1011E0003091DD003093DB002093DA008091F00035
:1011F0009091F1009093D9008093D800369527956F
:101200003093E5002093E400969587959093200114
:1012100080931F012091DA003091DB008091EC0077
:101220009091ED00A901481B590B8091E400909129
:10123000E500840F951F853A41E0940714F084EA95
:1012400091E09093E5008093E4008091E400909118
:10125000E5008C359E4F34F48CE59EEF9093E500CD
:101260008093E4008091EC009091ED00892B31F4A3
:10127000232B21F41092E5001092E4008091E40009
:101280009091E50097FD019695958795833D910591
:1012900014F082ED90E09093EB008093EA0080914F
:1012A000EA009091EB0097FF04C01092EB001092BF
:1012B000EA002091D8003091D90080912E019091C0
:1012C0002F01A901481B590B80911F01909120010A
:1012D000840F951F853A41E0940714F084EA91E069
:1012E0009093200180931F0180911F019091200114
:1012F0008C359E4F34F48CE59EEF909320018093C3
:101300001F0180912E0190912F01892B31F4232B05
:1013100021F41092200110921F0180911F019091E1
:10132000200197FD019695958795833D910514F0D1
:1013300082ED90E09093FB008093FA008091FA0098
:101340009091FB0097FF08C01092FB001092FA00EA
:1013500003C08150809313011092E8008091D30064
:1013600090913401981739F080933401E091660030
:10137000F091670009940895D49ADC9A0895DC9856
:10138000D49808950E9418020E94CE030E94E5019D
:101390000C94AC07EF92FF921F93CF93DF931F92B1
:1013A000CDB7DEB7162F7A019091D300916092608D
:1013B0009093D30010922501109224011092EF0017
:1013C0001092EE00873180F046EF5FEF481B510925
:1013D000440F551F4E0D5F1D50932501409324016E
:1013E0005093EF004093EE00A701425051095093F3
:1013F000F9004093F8005093D7004093D60098E24C
:10140000E916F104C0F444E150E05093F900409330
:10141000F8005093D7004093D6004AE050E0509334
:101420002501409324015093EF004093EE0048E2E1
:10143000E42EF12C05C090E9E91691E0F90698F444
:10144000893288F0C7019695879596958795A7016B
:10145000481B590B50932501409324015093EF00F2
:101460004093EE0088E21092310110923001109208
:10147000230110922201682F29830E94A402812F48
:101480000E94B502F0920101E0920001F092E200A8
:10149000E092E1008091D30080933401E0916600F6
:1014A000F091670009952981222339F00E94D90221
:1014B000811103C00E94C209F9CF0F90DF91CF9133
:1014C0001F91FF90EF900895FF920F931F93CF937A
:1014D000DF93182FF62E022F9091D3009160926027
:1014E0009093D3009A01A0EBB2E00E94820F24E611
:1014F00030E040E050E00E945A0FE901F901E45663
:10150000F109F0932501E0932401F093EF00E093BB
:10151000EE003093F9002093F8003093D700209329
:10152000D60028323105B0F444E150E05093F90080
:101530004093F8005093D7004093D6004AE050E023
:1015400050932501409324015093EF004093EE0007
:10155000C8E2D0E0612F812F0E94A4028F2D0E944B
:10156000B5021092310110923001109223011092B5
:101570002201D0930101C0930001D093E200C093F7
:10158000E1008091D30080933401E0916600F091F6
:1015900067000995002339F00E94D902811103C028
:1015A0000E94C209F9CFDF91CF911F910F91FF9057
:1015B0000895CF931BBA18BA15BAC1E0C2BB1ABAC4
:1015C00088E587BB8CE884BB82EF81BBF894C59823
:1015D000BD9A97980E942D0510BC8CE089B91BB864
:1015E00086E880BD88E98AB917B886E186B910BE59
:1015F00085E085BF80EE8BBF14BE8AE083BF83E6A3
:101600008CBF82EA8FBD81E18EBD82ED90E097BDF7
:1016100086BD1ABC18BC60E080E00E940E0389E021
:1016200085BD8EE683BD82E089BF8091DE0081604A
:101630008093DE00C09365007894CF9108955D9B00
:10164000FECF8CB90895CF93DF93EC018991882365
:1016500019F00E941F0BFACFDF91CF910895CF931D
:10166000DF93FC018491EF012196882321F00E94F1
:101670001F0BFE01F7CFDF91CF9108950F931F93BA
:10168000CF93DF931F92CDB7DEB78C01040F111DEE
:10169000F80181918F01882341F0662331F069833D
:1016A0000E941F0B69816150F3CF0F90DF91CF91A2
:1016B0001F910F910895CF93DF93CDB7DEB7619758
:1016C0000FB6F894DEBF0FBECDBF462F50E0BE016F
:1016D0006F5F7F4F0E94910FCE0101960E94230BF6
:1016E00061960FB6F894DEBF0FBECDBFDF91CF91EC
:1016F0000895EF92FF920F931F93CF93DF93CDB78F
:10170000DEB761970FB6F894DEBF0FBECDBF042FD2
:10171000462F50E09E012F5F3F4F7901B9010E9493
:10172000910FF70101900020E9F73197EE19FF09B9
:10173000102F1E1B111654F4115080E30E941F0B32
:101740001111FACFC7010E94230B06C0412F41950A
:10175000602FC7010E943E0B61960FB6F894DEBF62
:101760000FBECDBFDF91CF911F910F91FF90EF90F2
:1017700008951F920F920FB60F9211242F938F93FB
:101780009F93EF93FF938091810090918200282F87
:10179000291B2032A8F4E091830091E09E0F9093E2
:1017A0008300F0E02CB1E35CFE4F20838F5F8093D9
:1017B0008100913210F01092830010923C0106C01B
:1017C0008CB18093860081E080933C01FF91EF9182
:1017D0009F918F912F910F900FBE0F901F90189592
:1017E00010923C0180918200909181009817A1F0A5
:1017F0008F5F8093820080918400813210F010927C
:101800008400E091840081E08E0F80938400F0E0FA
:10181000E35CFE4F8081089580E0089510923C01C2
:10182000282FDC018A2F821B909182003091810049
:101830003917B9F08617A8F49F5F90938200E09162
:10184000840081E08E0F80938400F0E0E35CFE4F23
:1018500080818D9380918400813220F310928400E6
:10186000E1CF08958091810090918200891B0895B5
:1018700057988CB180938500109284001092830059
:10188000109282001092810010923C01579A0895A4
:1018900008950895F89480B911B88FEF83B984E062
:1018A00086BF80918E00816080938E007894089529
:1018B00090936D0080936C00089590936B008093DB
:1018C0006A000895CF93DF931F92CDB7DEB786E904
:1018D000898389819FEF980F99838111FACF0F90A7
:1018E000DF91CF91089506B600FCFDCF20918E00C8
:1018F00020FF0BC0A2E9B0E0282FFC018E2F821B35
:10190000861718F48D918193F9CF089506B600FCDF
:10191000FDCF80918D00089506B600FC5EC08091D9
:101920008E0080FF42C080918700882309F455C053
:10193000813091F40E94620C82E08093900090913B
:101940008C009093C10090918B009093C2001092F4
:101950008E0095EA96BF15C08230B1F40E94620CE9
:1019600080918A008F5F8093900080918C008160CD
:1019700080938C008093C10010928E0085EA86BF10
:1019800083E0809387000895833039F510928700B3
:1019900080918800909189008F3F2FEF9207E9F0A6
:1019A000E0916C00F0916D0017C00E94860C8823B6
:1019B000A1F01092870090918E00916090938E001C
:1019C00010928C00109289001092880010928A0068
:1019D000E0916A00F0916B0009940895CF93DF9332
:1019E00000D01F92CDB7DEB706B600FE09C04B830C
:1019F0006A8389830E948C0C89816A814B81F4CF30
:101A0000909187009111F3CF92E09093870080939B
:101A10008C0070E0709389006093880040938A0086
:101A20000F900F900F90DF91CF910895CF93DF9398
:101A300000D000D0CDB7DEB706B600FE0BC02C83B9
:101A40004B836A8389830E948C0C89816A814B81D4
:101A50002C81F2CF909187009111F1CF91E090937A
:101A6000870070E0709389006093880080938C00F9
:101A700040938B0020938A000F900F900F900F904F
:101A8000DF91CF910895FF920F931F93CF93DF9330
:101A900000D0CDB7DEB78A01F22E06B600FE07C031
:101AA0006A8389830E948C0C89816A81F6CF909128
:101AB00087009111F5CF91E09093870080938C007F
:101AC0008FEF9FEF909389008093880060938B0045
:101AD000F0928A0006B600FE03C00E948C0CFACF7A
:101AE000809187008111F9CF80918E0080FF0CC01A
:101AF00061E06F0DC8010F900F90DF91CF911F91A2
:101B00000F91FF900C94730C0F900F90DF91CF9179
:101B10001F910F91FF9008950F931F93CF93DF9321
:101B2000D82F8B01C42F06B600FE03C00E948C0C78
:101B3000FACF809187008111F9CF0E94620C82E078
:101B400080938700D0938C008FEF9FEF9093890054
:101B500080938800C0938A0006B600FE03C00E94EE
:101B60008C0CFACF809187008111F9CF80918E0083
:101B700080FF09C061E06C0FC801DF91CF911F9118
:101B80000F910C94730CDF91CF911F910F910895D9
:101B9000CF93C82F06B600FE03C00E948C0CFACF6C
:101BA000809187008111F9CF0E94620C82E08093BE
:101BB0008700C0938C008FEF9FEF909389008093F4
:101BC000880081E080938A0080918700882319F043
:101BD0000E948C0CF9CF90918E0090FD8091920024
:101BE000CF910895CF93DF93D82FC62F06B600FE6E
:101BF00003C00E948C0CFACF809187008111F9CF2D
:101C00000E94620C82E080939000D093C100C09348
:101C1000C20010928E0085EA86BFDF91CF910895B1
:101C20001F93CF93DF93182FD62FC42F06B600FE35
:101C300003C00E948C0CFACF809187008111F9CFEC
:101C40000E94620C83E0809390001093C100D093B7
:101C5000C200C093C30010928E0085EA86BFDF9158
:101C6000CF911F9108950F931F93CF93DF93082F68
:101C7000162FD42FC22F06B600FE03C00E948C0C74
:101C8000FACF809187008111F9CF0E94620C84E025
:101C9000809390000093C1001093C200D093C300C2
:101CA000C093C40010928E0085EA86BFDF91CF9169
:101CB0001F910F910895FF920F931F93CF93DF937E
:101CC000F82E162FD42FC22F06B600FE03C00E9496
:101CD0008C0CFACF809187008111F9CF0E94620CA1
:101CE00085E080939000F092C1001093C200D093E1
:101CF000C300C093C4000093C50010928E0085EA13
:101D000086BFDF91CF911F910F91FF9008950F93A0
:101D10001F93CF93DF93082FD62F172FC42F06B60C
:101D200000FE03C00E948C0CFACF809187008111C5
:101D3000F9CF0E94620C41E04C0F40939000009359
:101D4000C1009D2FA2ECB0E0ED2FF12F8E2F891B4B
:101D5000841718F481918D93F9CF10928E0085EA43
:101D600086BFDF91CF911F910F9108951F920F921F
:101D70000FB60F9211242F933F938F939F93EF935E
:101D8000FF9381B1883211F140F48031E9F088315C
:101D9000E9F0883009F049C017C0803491F140F46F
:101DA000883309F042C081B180938D0085EA41C03B
:101DB0008035E1F08835C9F583B1E0918F00F0E01E
:101DC000EF56FF4F80832BC010928F00E0918F0061
:101DD00080919000E81718F581E08E0F80938F00B6
:101DE000F0E0EF53FF4F808183B917C0E0918F007F
:101DF00081E08E0F80938F0083B1F0E0EF56FF4FAC
:101E0000808320918F0030E08091900090E00197D6
:101E10002817390714F485EC0CC085E80AC08091B6
:101E20008E00816080938E0003C081B180938D000D
:101E300084E986BFFF91EF919F918F913F912F9100
:101E40000F900FBE0F901F9018950E94D90A80E244
:101E50000E944A0C8DE391E00E945D0C8FE30E948A
:101E6000C40184EF91E00E942E0780E00E94C4012B
:101E70000E944305809102018160809302010E94CB
:101E80004C010E948C0C0E94C209F9CFAA1BBB1BFB
:101E900051E107C0AA1FBB1FA617B70710F0A61B6A
:101EA000B70B881F991F5A95A9F780959095BC018B
:101EB000CD010895A1E21A2EAA1BBB1BFD010DC086
:101EC000AA1FBB1FEE1FFF1FA217B307E407F507EA
:101ED00020F0A21BB30BE40BF50B661F771F881FC6
:101EE000991F1A9469F760957095809590959B015C
:101EF000AC01BD01CF010895EE0FFF1F0590F491D5
:101F0000E02D0994A29FB001B39FC001A39F700D63
:101F1000811D1124911DB29F700D811D1124911DF1
:101F200008954532510520F4423010F00C949C0F76
:101F3000FB011082CB010895BB274A3031F499236D
:101F400022F4BDE2909581959F4F0C94A80FBB277A
:101F5000FB015527AA27880F991FAA1FA41710F065
:101F6000A41B83955051B9F7A05DAA3308F0A95D71
:101F7000A193009779F7B111B1931192CB010C9411
:101F8000C10FDC01FC01672F71917723E1F73297D4
:101F900004C07C916D9370836291AE17BF07C8F344
:061FA0000895F894FFCF44
:0E1FA60003790178010177017601490C480C9E
:00000001FF
