:100000000C9444010C9497030C94B7030C94D504FE
:100010000C9475040C9461010C9461010C946101C1
:100020000C9461010C9461010C9496060C9461018E
:100030000C9461010C94F10C0C9461010C9461011D
:100040000C9461010C9461010C9461010C94EE0F0D
:100050000C946101600366036C03720378037E03F2
:100060008403207C204C4452343A00207C204C44B1
:1000700052333A00207C204C4452323A00207C20FB
:100080004C4452313A000A493243204552524F52B1
:10009000202D2D3E2054574920535441544520498A
:1000A000533A2030780020636D0A000909446973CF
:1000B00074616E6365523A200020636D20004469CC
:1000C0007374616E63654C3A200054686520526F0A
:1000D000626F74206E6565647320746F20626520A2
:1000E0007265736574746564206E6F772E0A0A00FA
:1000F000596F75206E65656420746F206368656351
:100100006B204D6F746F7220617373656D626C79D3
:1001100020286F7220796F757220736F6674776113
:100120007265292E0A0A000A0A28732E2074617348
:100130006B5F6D6F746F72436F6E74726F6C282992
:100140002066756E6374696F6E20696E205250363A
:100150004C696221290A000A0A232323204D4F54A7
:100160004F52204F56455243555252454E5420232C
:1001700023230A00596F75206E65656420746F2013
:10018000636865636B20456E636F6465722F4D6FA6
:10019000746F7220617373656D626C7920286F7261
:1001A00020796F757220736F667477617265292E7E
:1001B0000A0A00210A0A28732E207461736B5F6D8E
:1001C0006F746F72436F6E74726F6C28292066753E
:1001D0006E6374696F6E20696E205250364C69628E
:1001E00021290A005249474854004C4546540041D1
:1001F00066666563746564206368616E6E656C3AFB
:10020000000A23232320454E434F44455220284FC4
:1002100052204D4F544F5229204D414C46554E438C
:1002200054494F4E21202323230A00232323232331
:1002300020414C4C204F5045524154494F4E532081
:1002400053544F5050454420544F2050524556452A
:100250004E5420414E592044414D414745212023D1
:10026000232323230A000A0A232323232320454D83
:10027000455247454E43592053485554444F574ED5
:100280002023232323230A0011241FBECFE5D8E017
:10029000DEBFCDBF10E0A0E6B0E0EAE3F2E202C0CC
:1002A00005900D92AE36B107D9F721E0AEE6B0E089
:1002B00001C01D92A536B207E1F70E945D100C94B3
:1002C0001B110C940000CF93DF93CDB7DEB72897B6
:1002D0000FB6F894DEBF0FBECDBF8130B9F030F15C
:1002E000823009F445C0833009F062C062E0CE017B
:1002F00001960E94AB0D89818093750063E088EEC2
:100300000E942A0F41E062E088EE2FC062E0CE0139
:1003100001960E94AB0D89818093750063E086EEA3
:100320000E942A0F41E060E086EE1FC062E0CE012D
:1003300001960E94AB0D29818091750090E0982F65
:100340008827820F911D90937100809370008EEB2F
:1003500090E00E94670C6AE08091700090917100BB
:100360000E94930C89EB90E021C00E94260E20C0D1
:1003700062E0CE0101960E94AB0D2981809175004B
:1003800090E0982F8827820F911D90936F008093A3
:100390006E008BEA90E00E94670C6AE080916E002C
:1003A00090916F000E94930C86EA90E00E94670C87
:1003B00028960FB6F894DEBF0FBECDBFDF91CF9168
:1003C0000895CF93C82F86E890E00E94670C60E103
:1003D0008C2F90E00E94930C8AE0CF910C94570CE4
:1003E00080917400811117C080918E0081113EC0F0
:1003F00080917300811104C041E560E086EE05C084
:10040000813029F441E560E088EE0E94480F81E0E8
:100410008093740027C080910A0190910B0187346A
:10042000910520F18091730081110DC062E086EE8C
:100430000E942A0F41E061E086EE0E94260E81E0D4
:10044000809373000DC0813059F462E088EE0E9401
:100450002A0F41E063E088EE0E94260E109273009E
:100460001092740010920B0110920A010895CF931C
:10047000DF9300D000D000D0CDB7DEB780910C0163
:1004800090910D01893C9105B0F164E480E90E94EE
:100490002A0F45E0BE016F5F7F4F80E90E94C40EC6
:1004A0008DE790E00E94670C8A816AE090E00E94EC
:1004B000930C84E790E00E94670C8B816AE090E0E7
:1004C0000E94930C8BE690E00E94670C8C816AE09E
:1004D00090E00E94930C82E690E00E94670C8D8170
:1004E0006AE090E00E94930C8AE00E94570C109200
:1004F0000D0110920C0126960FB6F894DEBF0FBEC8
:10050000CDBFDF91CF91089580910E0190910F01A1
:100510008734910510F160916000609580E70E943A
:100520002A0F80916000803829F481E08093720066
:1005300080EC0DC0833020F41092720083E007C07D
:1005400090917200992311F0869501C0880F8093D5
:10055000600010920F0110920E0108950895089501
:10056000089508958091F000843010F01092F0000A
:10057000089584E08093F000089587B38C7787BB5B
:1005800088B38C7788BB8091DB0083FF02C0BF9A61
:10059000C79A8091DB0084FF02C0B99AC19A80910A
:1005A000DB0085FF02C0B89AC09A84B38F7884BB01
:1005B00085B38F7885BB24B39091DB0030E1939FA6
:1005C000C00111248077822B84BB25B39091DB007E
:1005D00030E1939FC00111248077822B85BB8091ED
:1005E000F000811106C081E09091DB00911101C003
:1005F00080E08093F00008958093DB000C94BD02AE
:10060000C098B898000086B381709091DB0095FF88
:1006100002C0B89AC09A0895AE98A698000083B315
:1006200080749091DB0092FF02C0A69AAE9A089562
:1006300090936900809368000895CF93809128017A
:100640008333C0F00E940003C82F0E940C039091D6
:10065000DC009C1304C090913901981749F0C093B5
:10066000DC0080933901E0916800F0916900099500
:1006700010922801CF91089536990AC0806487B9F5
:1006800086ED86B93699FECF349A84B195B1089536
:1006900080E090E00895806487B986ED86B908957A
:1006A000369944C0E09187008E2F90E08730910505
:1006B00098F5FC01E65DFF4F84B195B10C94C6102E
:1006C00090933D0180933C0186E423C090934201C6
:1006D0008093410185E41DC09093330180933201E2
:1006E00083E417C09093FC008093FB0082E411C068
:1006F000909322018093210180E40BC090933001FC
:1007000080932F0181E405C09093FA008093F90053
:1007100087E487B986ED86B980918700863019F421
:100720001092870008958F5F8093870008951F922D
:100730000F920FB60F9211248F939F9380913701E0
:100740009091380101969093380180933701809100
:100750002D0190912E01019690932E0180932D01F1
:100760009F918F910F900FBE0F901F9018951F9221
:100770000F920FB60F9211248F939F9380912901AE
:1007800090912A01019690932A01809329018091EA
:100790000301909104010196909304018093030159
:1007A0009F918F910F900FBE0F901F90189590936F
:1007B0006700809366000895893C08F088EC90E01B
:1007C0009093E2008093E100693C08F068EC70E0EF
:1007D0007093E0006093DF000895809376002FEF20
:1007E000280F91E0223008F090E090937A008D7FFE
:1007F00091E0813009F090E0909379000895292FDD
:10080000221F2227221F20937A00771F7727771F26
:10081000709379001816190614F0819561950C945F
:10082000DC039091DA00937081E009F080E0089594
:100830001092E2001092E1001092E0001092DF00AE
:100840001092EC001092EB001092270110922601FA
:100850008091DA008E7F8D7F8093DA0080933B0158
:10086000E0916600F09167000994633D08F062ED45
:1008700070E07093020160930101833D08F082ED06
:1008800090E09093F2008093F100089580937800B7
:100890006093770080937A0060937900882311F049
:1008A000AA9A01C0AA98662311F0AB9A0895AB9852
:1008B00008959091E600992321F099B7906899BF27
:1008C000F8CF6F7370E070638F7320E4829FC00174
:1008D0001124862B972B909306018093050180911C
:1008E000E50080648093E50008951F920F920FB693
:1008F0000F9211248F939F93809165008230B0F501
:10090000809186008823D1F08C3338F480911F01C8
:100910009091200196FF07C008C080911F0190911F
:10092000200196FF02C0979803C082B3805882BB13
:100930008091860081508093860030C08091E600CF
:100940009798882359F180911F0190912001880F79
:10095000991F9093200180931F0188E78093860060
:100960008091E60081508093E60018C08091EA00F3
:10097000882391F08091E50080FD05C098B380E464
:10098000892788BB03C085B3805885BB8091EA0066
:1009900081508093EA0002C0C69AAF9A9F918F91CE
:1009A0000F900FBE0F901F9018951F920F920FB6C9
:1009B0000F9211248F9380916500833011F086305F
:1009C00079F48091E50084FD0BC08091E50085FFFE
:1009D00007C0B29905C080913A018F5F80933A01B8
:1009E00086B38091E5008D7F8093E5008F910F9015
:1009F0000FBE0F901F901895909364008093630032
:100A00000895909362008093610008958091FD00A5
:100A10009091FE00029708F43CC18091E50084FDAE
:100A200019C180916500823009F467C028F48823D9
:100A300069F0813091F014C1853009F4AFC086307F
:100A400009F4C5C0833009F00BC16FC089B78F7737
:100A500089BF9798C69AAF9A03C18091E600811129
:100A60002AC08091E50086FF14C080910501909115
:100A700006019093200180931F018EE08093E60091
:100A80008091E5008F7B8093E50089B7806889BFFE
:100A900006C089B78F7789BF9798C69AAF9A809119
:100AA000850091E0980F90938500843138F082E0C2
:100AB0008093650003C089B7806889BF8091E50095
:100AC00083FFCEC0E0916300F091640080913E010D
:100AD00090913F01099580913E0190913F01909343
:100AE000EE008093ED0010923F0110923E01809144
:100AF000E500877F8093E500B3C089B78F7789BF12
:100B00009798C69AAF9A1092EA0010923A01109202
:100B10008400109283008091E5008E7F8062809334
:100B2000E50083E08093850077C08091EA00811121
:100B300010C08091850091E0980F909385008330DC
:100B400040F089B7806889BF88E28093EA001092FC
:100B5000850080911B01882321F080913A01823029
:100B600020F480913A01863038F010923A0181E009
:100B700080931B0185E050C0809183009091840098
:100B80009C012F5F3F4F30938400209383000E978A
:100B900008F466C010921B0185E051C089B78F77B9
:100BA00089BF9798C69AAF9A1092EA0010923A01BC
:100BB00010928400109283008091E5008160806231
:100BC0008093E50083E08093850086E025C08091D6
:100BD000EA00811110C08091850091E0980F9093F8
:100BE0008500833040F089B7806889BF88E28093B0
:100BF000EA001092850080912401882321F08091E1
:100C00003A01823020F480913A01863040F010920F
:100C10003A0181E0809324018093650021C0809196
:100C20008300909184009C012F5F3F4F309384009C
:100C3000209383000E97A0F01092240181E080930E
:100C4000650089B78F7789BF9798C69AAF9A109237
:100C5000EA0006C010928400109283001092850072
:100C600090911B012091820080912401291304C0DE
:100C700020918100281749F0909382008093810091
:100C8000E0916100F091620009951092FE001092CF
:100C9000FD0008951092650089B78F7789BF9798F6
:100CA000C69AAF9A1092240110921B01089589B739
:100CB0008F7789BF9798C69AAF9A109224011092A5
:100CC0001B0181E08093650008958E989698BB98EB
:100CD000C398C698AF9808958E9A969ABB98C39871
:100CE00008958E989698BB9AC39A08958E9A969A6C
:100CF000BB9AC39A0895C49A8091F000843018F486
:100D000083E08093F0000895C4988091F0008430CF
:100D100060F4811107C081E09091DB00911103C064
:100D200080E001C081E08093F00008951F920F924F
:100D30000FB60F9211242F933F934F935F936F93AE
:100D40007F938F939F93AF93BF93EF93FF93809184
:100D5000D8009091D90001969093D9008093D80043
:100D6000809131018F5F809331018091340191E056
:100D7000980F90933401893008F446C1809109019D
:100D800080FF09C080910A0190910B010196909318
:100D90000B0180930A018091090181FF09C08091B4
:100DA0000C0190910D01019690930D0180930C011F
:100DB0008091090182FF09C080910E0190910F017D
:100DC000019690930F0180930E018091090183FF9A
:100DD00009C0809110019091110101969093110129
:100DE000809310018091090184FF09C08091120154
:100DF00090911301019690931301809312018091B9
:100E0000090185FF09C08091140190911501019697
:100E100090931501809314018091090186FF09C008
:100E2000809116019091170101969093170180937C
:100E300016018091090187FF09C0809118019091E6
:100E40001901019690931901809318018091250151
:100E500091E0980F90932501893CE8F0809103017F
:100E600090910401909336018093350180912D017A
:100E700090912E019093F4008093F300109204015E
:100E80001092030110922E0110922D0181E08093A7
:100E9000EF00109225012091F000233008F051C09E
:100EA000223079F58091DB0081111FC080917F0095
:100EB00090918000FC013196F0938000E0937F00D8
:100EC00068EC70E00E949010892BD9F5E13AFF4060
:100ED00028F0B998C1981092F00029C087B38227F2
:100EE00087BB88B3282728BB2CC084FD02C0B998D3
:100EF000C1981092800010927F0081E08093F000F2
:100F000020C080917F0090918000813E3EE2930757
:100F100098F0213049F41092F0008091DB0084FDBC
:100F200006C0B998C19803C082E08093F000109287
:100F3000800010927F0005C00196909380008093FE
:100F40007F008091FD009091FE00039748F480910E
:100F5000FD009091FE0001969093FE008093FD00AD
:100F600080911D01873318F48F5F80931D0180915C
:100F70002801843328F4809128018F5F8093280111
:100F80008091230191E0980F909323018330D0F159
:100F900080911E01482F50E0209101013091020103
:100FA0004217530759F04217530714F48F5F01C0DB
:100FB000815080931E0180911E018ABD8091400165
:100FC000482F50E02091F1003091F2004217530772
:100FD00059F04217530714F48F5F01C0815080937A
:100FE00040018091400188BD80914001811104C081
:100FF00080911E01882319F082EA8FBD01C01FBCB9
:1010000010922301109234013091E50033FD46C067
:1010100080917D0090917E0020917C002F5F209335
:101020007C00263198F096FD0AC095FF08C0909389
:101030003F0180933E01832F88608093E50080917B
:10104000E5008F7E8093E50080E090E030917B00AA
:1010500046B3432742FF1EC0309530937B002730B4
:1010600040F48091E5008F7E8093E50080E090E081
:1010700004C0009711F02F3068F02091E500206146
:101080002093E50096FD02C0880F991F32FF816012
:1010900010927C0090937E0080937D00FF91EF91F1
:1010A000BF91AF919F918F917F916F915F914F9180
:1010B0003F912F910F900FBE0F901F901895109297
:1010C0003101909131019817E0F30895CF93DF93A8
:1010D000EC01209729F08AE00E945F082197F9CF60
:1010E000DF91CF910895019710F00000FCCF089593
:1010F000C82FF89497980E9465061092F2001092FB
:10110000F10010920201109201011092EC00109275
:10111000EB001092270110922601109240011092CC
:101120001E011ABC18BC1FBC0E94840686E692E011
:101130000E94670C8BE292E00E94670C8FEF8C0F8D
:101140008230C0F481E092E00E94670C8FEE91E063
:101150000E94670CC13019F48AEE91E002C084EE5F
:1011600091E00E94670C83EB91E00E94670C84E79A
:1011700091E00CC0C33061F487E591E00E94670CF8
:1011800087E291E00E94670C80EF90E00E94670C7C
:101190008AEC90E00E94670CD6E3D093DB000E94BB
:1011A000BD02CAE080E090E80E947308C150D1F708
:1011B0001092DB000E94BD02CAE08FEF9FEF0E94F9
:1011C0007308C150D1F7E9CF80911D01823308F433
:1011D00074C010921D0180911A012091410130913B
:1011E000420181113BC08091DA00233043E0340793
:1011F00038F4409132015091330143305340E0F0D4
:1012000090911C019F5F90931C019AE090931A01AA
:101210001092F2001092F10010920201109201015E
:101220001092EC001092EB00109227011092260110
:1012300084608093DA0008958B7F8093DA00809138
:10124000E700853628F010921C011092E70006C0D6
:1012500080911C01833010F083E014C026393105E1
:1012600098F48091F3009091F400892B69F48091B7
:10127000E1009091E200892B39F08091400187399B
:1012800018F081E00E94780880913201909133013A
:101290008639910590F48091350190913601892B22
:1012A00061F48091DF009091E000892B31F0809112
:1012B0001E01873910F082E0E5CF8091EF0088238E
:1012C00009F484C180911A0181117BC180911C01B4
:1012D000882331F08091E7008F5F8093E70002C0A0
:1012E0001092E7008091DA0081FF35C0409137010C
:1012F000509138012091DD003091DE0042175307F4
:1013000080F01092E2001092E1001092EC00109236
:10131000EB001092F2001092F1008D7F8093DA00C2
:101320001AC020913701309138018091F5009091D9
:10133000F6002817390778F08091E1009091E200DB
:10134000969587958631910510F486E190E090930B
:10135000E2008093E1008091DA0080FF35C0409187
:10136000290150912A012091FF003091000142177C
:10137000530780F01092E0001092DF0010922701D6
:101380001092260110920201109201018E7F80932B
:10139000DA001AC02091290130912A0180912B0195
:1013A00090912C012817390778F08091DF009091F7
:1013B000E000969587958631910510F486E190E0DE
:1013C0009093E0008093DF0080917A009091780004
:1013D000891307C02091790090917700291709F4AB
:1013E00051C04091E1005091E2002091DF00309126
:1013F000E0004115510519F42115310501F1509313
:10140000E4004093E3003093F8002093F70010923B
:10141000E2001092E1001092E0001092DF001092C2
:101420000201109201011092F2001092F10010924C
:10143000EC001092EB0010922701109226019FB54C
:10144000911120C0609179000E9446042091E30030
:101450003091E4003093E2002093E1008091F700A6
:101460009091F8009093E0008093DF0036952795E7
:101470003093EC002093EB0096958795909327018D
:10148000809326012091E1003091E2008091F300E9
:101490009091F400A901481B590B8091EB009091A9
:1014A000EC00840F951F853A41E0940714F084EA1C
:1014B00091E09093EC008093EB008091EB00909191
:1014C000EC008C359E4F34F48CE59EEF9093EC004D
:1014D0008093EB008091F3009091F400892B31F41C
:1014E000232B21F41092EC001092EB008091EB0082
:1014F0009091EC0097FD019695958795833D910518
:1015000014F082ED90E09093F2008093F1008091CE
:10151000F1009091F20097FF04C01092F200109237
:10152000F1002091DF003091E00080913501909131
:101530003601A901481B590B809126019091270182
:10154000840F951F853A41E0940714F084EA91E0F6
:101550009093270180932601809126019091270185
:101560008C359E4F34F48CE59EEF90932701809349
:1015700026018091350190913601892B31F4232B7E
:1015800021F410922701109226018091260190915A
:10159000270197FD019695958795833D910514F058
:1015A00082ED90E09093020180930101809101010E
:1015B0009091020197FF08C0109202011092010160
:1015C00003C0815080931A011092EF008091DA00DD
:1015D00090913B01981739F080933B01E0916600B0
:1015E000F091670009940895D49ADC9A0895DC98E4
:1015F000D49808950E9450030E9406050E941D037E
:101600000C94E408EF92FF921F93CF93DF931F9205
:10161000CDB7DEB7162F7A019091DA009160926013
:101620009093DA0010922C0110922B011092F60088
:101630001092F500873180F046EF5FEF481B5109AB
:10164000440F551F4E0D5F1D50932C0140932B01ED
:101650005093F6004093F500A70142505109509372
:1016600000014093FF005093DE004093DD0098E2BC
:10167000E916F104C0F444E150E0509300014093B6
:10168000FF005093DE004093DD004AE050E05093AD
:101690002C0140932B015093F6004093F50048E253
:1016A000E42EF12C05C090E9E91691E0F90698F4D2
:1016B000893288F0C7019695879596958795A701F9
:1016C000481B590B50932C0140932B015093F6006B
:1016D0004093F50088E21092380110923701109281
:1016E0002A0110922901682F29830E94DC03812F8F
:1016F0000E94ED03F0920801E0920701F092E900E8
:10170000E092E8008091DA0080933B01E09166006E
:10171000F091670009952981222339F00E94110474
:10172000811103C00E94FA0AF9CF0F90DF91CF9187
:101730001F91FF90EF900895FF920F931F93CF9307
:10174000DF93182FF62E022F9091DA0091609260AD
:101750009093DA009A01A0EBB2E00E94CC1024E64C
:1017600030E040E050E00E94A410E901F901E456A5
:10177000F109F0932C01E0932B01F093F600E09334
:10178000F500309300012093FF003093DE0020939A
:10179000DD0028323105B0F444E150E050930001FF
:1017A0004093FF005093DE004093DD004AE050E09C
:1017B00050932C0140932B015093F6004093F50079
:1017C000C8E2D0E0612F812F0E94DC038F2D0E94A0
:1017D000ED03109238011092370110922A011092F5
:1017E0002901D0930801C0930701D093E900C09369
:1017F000E8008091DA0080933B01E0916600F0916F
:1018000067000995002339F00E941104811103C07B
:101810000E94FA0AF9CFDF91CF911F910F91FF90AB
:101820000895CF931BBA18BA15BAC1E0C2BB1ABA51
:1018300088E587BB8CE884BB82EF81BBF894C598B0
:10184000BD9A97980E94650610BC8CE089B91BB8B8
:1018500086E880BD88E98AB917B886E186B910BEE6
:1018600085E085BF80EE8BBF14BE8AE083BF83E630
:101870008CBF82EA8FBD81E18EBD82ED90E097BD85
:1018800086BD1ABC18BC60E080E00E94460489E076
:1018900085BD8EE683BD82E089BF8091E5008160D1
:1018A0008093E500C09365007894CF9108955D9B87
:1018B000FECF8CB90895CF93DF93EC0189918823F3
:1018C00019F00E94570CFACFDF91CF910895CF9372
:1018D000DF93FC018491EF012196882321F00E947F
:1018E000570CFE01F7CFDF91CF9108950F931F930F
:1018F000CF93DF931F92CDB7DEB78C01040F111D7C
:10190000F80181918F01882341F0662331F06983CA
:101910000E94570C69816150F3CF0F90DF91CF91F6
:101920001F910F910895CF93DF93CDB7DEB76197E5
:101930000FB6F894DEBF0FBECDBF462F50E0BE01FC
:101940006F5F7F4F0E94DB10CE0101960E945B0CFF
:1019500061960FB6F894DEBF0FBECDBFDF91CF9179
:101960000895EF92FF920F931F93CF93DF93CDB71C
:10197000DEB761970FB6F894DEBF0FBECDBF042F60
:10198000462F50E09E012F5F3F4F7901B9010E9421
:10199000DB10F70101900020E9F73197EE19FF09FC
:1019A000102F1E1B111654F4115080E30E94570C87
:1019B0001111FACFC7010E945B0C06C0412F41955F
:1019C000602FC7010E94760C61960FB6F894DEBFB7
:1019D0000FBECDBFDF91CF911F910F91FF90EF9080
:1019E00008951F920F920FB60F9211242F938F9389
:1019F0009F93EF93FF938091880090918900282F07
:101A0000291B2032A8F4E0918A0091E09E0F909368
:101A10008A00F0E02CB1EC5BFE4F20838F5F809357
:101A20008800913210F010928A001092430106C093
:101A30008CB180938D0081E080934301FF91EF9101
:101A40009F918F912F910F900FBE0F901F9018951F
:101A50001092430180918900909188009817A1F01D
:101A60008F5F8093890080918B00813210F01092FB
:101A70008B00E0918B0081E08E0F80938B00F0E073
:101A8000EC5BFE4F8081089580E008951092430141
:101A9000282FDC018A2F821B9091890030918800C9
:101AA0003917B9F08617A8F49F5F90938900E091E9
:101AB0008B0081E08E0F80938B00F0E0EC5BFE4F9B
:101AC00080818D9380918B00813220F310928B0066
:101AD000E1CF08958091880090918900891B089535
:101AE00057988CB180938C0010928B0010928A00D2
:101AF000109289001092880010924301579A08951D
:101B000008950895F89480B911B88FEF83B984E0EF
:101B100086BF8091950081608093950078940895A8
:101B200090936D0080936C00089590936B00809368
:101B30006A000895CF93DF931F92CDB7DEB786E991
:101B4000898389819FEF980F99838111FACF0F9034
:101B5000DF91CF91089506B600FCFDCF209195004E
:101B600020FF0BC0A9E9B0E0282FFC018E2F821BBB
:101B7000861718F48D918193F9CF089506B600FC6D
:101B8000FDCF80919400089506B600FC5EC0809160
:101B9000950080FF42C080918E00882309F455C0D3
:101BA000813091F40E949A0D82E080939700909189
:101BB00093009093C800909192009093C900109266
:101BC000950095EA96BF15C08230B1F40E949A0D37
:101BD000809191008F5F8093970080919300816046
:101BE000809393008093C8001092950085EA86BF89
:101BF00083E080938E000895833039F510928E0033
:101C000080918F00909190008F3F2FEF9207E9F025
:101C1000E0916C00F0916D0017C00E94BE0D88230A
:101C2000A1F010928E009091950091609093950094
:101C3000109293001092900010928F0010929100D9
:101C4000E0916A00F0916B0009940895CF93DF93BF
:101C500000D01F92CDB7DEB706B600FE09C04B8399
:101C60006A8389830E94C40D89816A814B81F4CF84
:101C700090918E009111F3CF92E090938E0080931B
:101C8000930070E07093900060938F0040939100F8
:101C90000F900F900F90DF91CF910895CF93DF9326
:101CA00000D000D0CDB7DEB706B600FE0BC02C8347
:101CB0004B836A8389830E94C40D89816A814B8129
:101CC0002C81F2CF90918E009111F1CF91E0909301
:101CD0008E0070E07093900060938F00809393006B
:101CE00040939200209391000F900F900F900F90CF
:101CF000DF91CF910895FF920F931F93CF93DF93BE
:101D000000D0CDB7DEB78A01F22E06B600FE07C0BE
:101D10006A8389830E94C40D89816A81F6CF90917C
:101D20008E009111F5CF91E090938E0080939300F7
:101D30008FEF9FEF9093900080938F0060939200BD
:101D4000F092910006B600FE03C00E94C40DFACFC7
:101D500080918E008111F9CF8091950080FF0CC099
:101D600061E06F0DC8010F900F90DF91CF911F912F
:101D70000F91FF900C94AB0D0F900F90DF91CF91CE
:101D80001F910F91FF9008950F931F93CF93DF93AF
:101D9000D82F8B01C42F06B600FE03C00E94C40DCD
:101DA000FACF80918E008111F9CF0E949A0D82E0C6
:101DB00080938E00D09393008FEF9FEF90939000CD
:101DC00080938F00C093910006B600FE03C00E946E
:101DD000C40DFACF80918E008111F9CF80919500CA
:101DE00080FF09C061E06C0FC801DF91CF911F91A6
:101DF0000F910C94AB0DDF91CF911F910F9108952E
:101E0000CF93C82F06B600FE03C00E94C40DFACFC0
:101E100080918E008111F9CF0E949A0D82E080930B
:101E20008E00C09393008FEF9FEF9093900080936C
:101E30008F0081E08093910080918E00882319F0BB
:101E40000E94C40DF9CF9091950090FD809199006A
:101E5000CF910895CF93DF93D82FC62F06B600FEFB
:101E600003C00E94C40DFACF80918E008111F9CF7A
:101E70000E949A0D82E080939700D093C800C0938F
:101E8000C9001092950085EA86BFDF91CF91089531
:101E90001F93CF93DF93182FD62FC42F06B600FEC3
:101EA00003C00E94C40DFACF80918E008111F9CF3A
:101EB0000E949A0D83E0809397001093C800D093FE
:101EC000C900C093CA001092950085EA86BFDF91D1
:101ED000CF911F9108950F931F93CF93DF93082FF6
:101EE000162FD42FC22F06B600FE03C00E94C40DC9
:101EF000FACF80918E008111F9CF0E949A0D84E073
:101F0000809397000093C8001093C900D093CA0033
:101F1000C093CB001092950085EA86BFDF91CF91E8
:101F20001F910F910895FF920F931F93CF93DF930B
:101F3000F82E162FD42FC22F06B600FE03C00E9423
:101F4000C40DFACF80918E008111F9CF0E949A0DB5
:101F500085E080939700F092C8001093C900D09359
:101F6000CA00C093CB000093CC001092950085EA84
:101F700086BFDF91CF911F910F91FF9008950F932E
:101F80001F93CF93DF93082FD62F172FC42F06B69A
:101F900000FE03C00E94C40DFACF80918E00811113
:101FA000F9CF0E949A0D41E04C0F409397000093A7
:101FB000C8009D2FA9ECB0E0ED2FF12F8E2F891BCB
:101FC000841718F481918D93F9CF1092950085EACA
:101FD00086BFDF91CF911F910F9108951F920F92AD
:101FE0000FB60F9211242F933F938F939F93EF93EC
:101FF000FF9381B1883211F140F48031E9F08831EA
:10200000E9F0883009F049C017C0803491F140F4FC
:10201000883309F042C081B18093940085EA41C0C1
:102020008035E1F08835C9F583B1E0919600F0E0A4
:10203000E856FF4F80832BC010929600E0919600E7
:1020400080919700E81718F581E08E0F8093960035
:10205000F0E0E853FF4F808183B917C0E09196000C
:1020600081E08E0F8093960083B1F0E0E856FF4F39
:1020700080832091960030E08091970090E0019756
:102080002817390714F485EC0CC085E80AC0809144
:10209000950081608093950003C081B18093940086
:1020A00084E986BFFF91EF919F918F913F912F918E
:1020B0000F900FBE0F901F9018950E94110C80E298
:1020C0000E94820D83E691E00E94900D81EE91E0E6
:1020D0000E94950D8FE30E94FC0284EF91E00E9424
:1020E000660880E00E94FC020E947B068091090144
:1020F00081608093090180910901826080930901C8
:10210000809109018460809309010E9484020E94E9
:1021100037020E94F0010E94C40D0E94FA0AF5CF16
:10212000AA1BBB1B51E107C0AA1FBB1FA617B707FD
:1021300010F0A61BB70B881F991F5A95A9F7809519
:102140009095BC01CD010895A1E21A2EAA1BBB1BDC
:10215000FD010DC0AA1FBB1FEE1FFF1FA217B30773
:10216000E407F50720F0A21BB30BE40BF50B661F89
:10217000771F881F991F1A9469F76095709580954D
:1021800090959B01AC01BD01CF010895EE0FFF1F9B
:102190000590F491E02D0994A29FB001B39FC00176
:1021A000A39F700D811D1124911DB29F700D811D83
:1021B0001124911D08954532510520F4423010F04C
:1021C0000C94E610FB011082CB010895BB274A3026
:1021D00031F4992322F4BDE2909581959F4F0C94A0
:1021E000F210BB27FB015527AA27880F991FAA1FAA
:1021F000A41710F0A41B83955051B9F7A05DAA3322
:1022000008F0A95DA193009779F7B111B1931192EC
:10221000CB010C940B11DC01FC01672F719177232A
:10222000E1F7329704C07C916D9370836291AE1791
:0A223000BF07C8F30895F894FFCF2C
:0E223A0003B102B00201AF02AE02810D800DB1
:00000001FF
