:100000000C9410010C948E020C94AE020C94CC0350
:100010000C946C030C942D010C942D010C942D0167
:100020000C942D010C942D010C948D050C942D0134
:100030000C942D010C94E80B0C942D010C942D01C3
:100040000C942D010C942D010C942D010C942D0178
:100050000C942D0157025D02630269026F02750262
:100060007B0254686520526F626F74206E65656410
:100070007320746F206265207265736574746564A3
:10008000206E6F772E0A0A00596F75206E656564C1
:1000900020746F20636865636B204D6F746F7220EE
:1000A000617373656D626C7920286F7220796F754A
:1000B0007220736F667477617265292E0A0A000ACE
:1000C0000A28732E207461736B5F6D6F746F7243B7
:1000D0006F6E74726F6C28292066756E6374696F19
:1000E0006E20696E205250364C696221290A000A3E
:1000F0000A232323204D4F544F52204F564552433D
:10010000555252454E54202323230A00596F75201F
:100110006E65656420746F20636865636B20456E4F
:10012000636F6465722F4D6F746F722061737365B6
:100130006D626C7920286F7220796F757220736FF1
:10014000667477617265292E0A0A00210A0A2873EB
:100150002E207461736B5F6D6F746F72436F6E747A
:10016000726F6C28292066756E6374696F6E2069E2
:100170006E205250364C696221290A005249474884
:1001800054004C45465400416666656374656420BE
:100190006368616E6E656C3A000A23232320454E26
:1001A000434F44455220284F52204D4F544F52291F
:1001B000204D414C46554E4354494F4E2120232358
:1001C000230A00232323232320414C4C204F504556
:1001D000524154494F4E532053544F5050454420A0
:1001E000544F2050524556454E5420414E592044BC
:1001F000414D414745212023232323230A000A0A96
:10020000232323232320454D455247454E43592060
:1002100053485554444F574E2023232323230A0089
:1002200011241FBECFE5D8E0DEBFCDBF10E0A0E6B1
:10023000B0E0E2E3FAE102C005900D92AA36B10700
:10024000D9F721E0AAE6B0E001C01D92A031B207C3
:10025000E1F70E94770C0C94170D0C94000080912C
:100260006A008230D9F128F4882349F0813061F0A6
:1002700008958330E1F1843009F461C0089580E18C
:100280000E94F30181E027C02091B5003091B600B3
:10029000253F314080F090918600292F22952F70C4
:1002A000822780FB94F9909386000E94B4011092FB
:1002B000B6001092B50080918700882309F444C0ED
:1002C00089E10E94F30120E041E752E061E082E32E
:1002D0000E94F90982E080936A0008950E94080351
:1002E000882391F182E00E94F30183E0F4CF8091B2
:1002F000B5009091B600853F914088F080918600CE
:1003000081FB222720F991E0922790FB81F98093CD
:1003100086000E94B4011092B6001092B500809140
:10032000E400882389F086E20E94F30120E041E79F
:1003300052E060E082E30E94F90984E0CCCF0E94A1
:100340000803811110926A00089508950895089590
:10035000089580919B00843010F010929B000895C6
:1003600084E080939B00089587B38C7787BB88B324
:100370008C7788BB8091860083FF02C0BF9AC79AA2
:100380008091860084FF02C0B99AC19A809186004C
:1003900085FF02C0B89AC09A84B38F7884BB85B3B6
:1003A0008F7885BB24B39091860030E1939FC00184
:1003B00011248077822B84BB25B39091860030E195
:1003C000939FC00111248077822B85BB80919B0075
:1003D000811106C081E090918600911101C080E0FA
:1003E00080939B000895809386000C94B401C0987C
:1003F000B898000086B381709091860095FF02C086
:10040000B89AC09A0895AE98A698000083B38074F5
:100410009091860092FF02C0A69AAE9A089590939A
:100420006800809367000895CF938091D300833351
:10043000C0F00E94F701C82F0E940302909187002C
:100440009C1304C09091E400981749F0C093870072
:100450008093E400E0916700F091680009951092A4
:10046000D300CF91089536990AC0806487B986ED8C
:1004700086B93699FECF349A84B195B1089580E05B
:1004800090E00895806487B986ED86B9089536991D
:1004900044C0E0917C008E2F90E08730910598F564
:1004A000FC01E65DFF4F84B195B10C94C20C9093B2
:1004B000E8008093E70086E423C09093ED008093EA
:1004C000EC0085E41DC09093DE008093DD0083E4A2
:1004D00017C09093A7008093A60082E411C0909368
:1004E000CD008093CC0080E40BC09093DB00809320
:1004F000DA0081E405C09093A5008093A40087E40E
:1005000087B986ED86B980917C00863019F4109207
:100510007C0008958F5F80937C0008951F920F9256
:100520000FB60F9211248F939F938091E2009091C8
:10053000E30001969093E3008093E2008091D8005D
:100540009091D90001969093D9008093D8009F9103
:100550008F910F900FBE0F901F9018951F920F92C2
:100560000FB60F9211248F939F938091D400909196
:10057000D50001969093D5008093D4008091AE0071
:100580009091AF0001969093AF008093AE009F9141
:100590008F910F900FBE0F901F901895909366004B
:1005A000809365000895893C08F088EC90E0909372
:1005B0008D0080938C00693C08F068EC70E07093CB
:1005C0008B0060938A00089580936B002FEF280FB3
:1005D00091E0223008F090E090936F008D7F91E0E1
:1005E000813009F090E090936E000895292F221F2A
:1005F0002227221F20936F00771F7727771F709382
:100600006E001816190614F0819561950C94D302AA
:1006100090918500937081E009F080E00895109238
:100620008D0010928C0010928B0010928A00109214
:100630009700109296001092D2001092D1008091F3
:1006400085008E7F8D7F809385008093E600E0910A
:100650006500F09166000994633D08F062ED70E07A
:100660007093AD006093AC00833D08F082ED90E0A4
:1006700090939D0080939C00089580936D006093FB
:100680006C0080936F0060936E00882311F0AA9A2B
:1006900001C0AA98662311F0AB9A0895AB9808950B
:1006A00090919100992321F099B7906899BFF8CF64
:1006B0006F7370E070638F7320E4829FC001112418
:1006C000862B972B9093B1008093B000809190007F
:1006D00080648093900008951F920F920FB60F923E
:1006E00011248F939F93809164008230B0F58091A4
:1006F0007B008823D1F08C3338F48091CA0090912C
:10070000CB0096FF07C008C08091CA009091CB0033
:1007100096FF02C0979803C082B3805882BB809135
:100720007B00815080937B0030C08091910097982E
:10073000882359F18091CA009091CB00880F991FAE
:100740009093CB008093CA0088E780937B008091D0
:10075000910081508093910018C08091950088236A
:1007600091F08091900080FD05C098B380E48927C6
:1007700088BB03C085B3805885BB809195008150AC
:100780008093950002C0C69AAF9A9F918F910F9067
:100790000FBE0F901F9018951F920F920FB60F92D9
:1007A00011248F9380916400833011F0863079F4A6
:1007B0008091900084FD0BC08091900085FF07C060
:1007C000B29905C08091E5008F5F8093E50086B304
:1007D000809190008D7F809390008F910F900FBE3D
:1007E0000F901F9018959093630080936200089576
:1007F000909361008093600008958091A80090918B
:10080000A900029708F43CC18091900084FD19C1B1
:1008100080916400823009F467C028F4882369F06D
:10082000813091F014C1853009F4AFC0863009F4ED
:10083000C5C0833009F00BC16FC089B78F7789BFFE
:100840009798C69AAF9A03C18091910081112AC0EE
:100850008091900086FF14C08091B0009091B1000B
:100860009093CB008093CA008EE08093910080919A
:1008700090008F7B8093900089B7806889BF06C005
:1008800089B78F7789BF9798C69AAF9A80917A0077
:1008900091E0980F90937A00843138F082E0809351
:1008A000640003C089B7806889BF8091900083FF8E
:1008B000CEC0E0916200F09163008091E9009091D8
:1008C000EA0009958091E9009091EA0090939900DF
:1008D000809398001092EA001092E90080919000B5
:1008E000877F80939000B3C089B78F7789BF97982F
:1008F000C69AAF9A109295001092E5001092790076
:1009000010927800809190008E7F8062809390009A
:1009100083E080937A0077C080919500811110C0A8
:1009200080917A0091E0980F90937A00833040F0A4
:1009300089B7806889BF88E28093950010927A0019
:100940008091C600882321F08091E500823020F458
:100950008091E500863038F01092E50081E08093C8
:10096000C60085E050C080917800909179009C018C
:100970002F5F3F4F30937900209378000E9708F453
:1009800066C01092C60085E051C089B78F7789BFD5
:100990009798C69AAF9A109295001092E50010921F
:1009A000790010927800809190008160806280933D
:1009B000900083E080937A0086E025C080919500C6
:1009C000811110C080917A0091E0980F90937A0085
:1009D000833040F089B7806889BF88E280939500B2
:1009E00010927A008091CF00882321F08091E50059
:1009F000823020F48091E500863040F01092E500CE
:100A000081E08093CF008093640021C080917800C2
:100A1000909179009C012F5F3F4F30937900209394
:100A200078000E97A0F01092CF0081E080936400D0
:100A300089B78F7789BF9798C69AAF9A1092950019
:100A400006C0109279001092780010927A0090916E
:100A5000C600209177008091CF00291304C0209117
:100A60007600281749F09093770080937600E09104
:100A70006000F091610009951092A9001092A80001
:100A800008951092640089B78F7789BF9798C69AA6
:100A9000AF9A1092CF001092C600089589B78F7751
:100AA00089BF9798C69AAF9A1092CF001092C6004D
:100AB00081E08093640008958E989698BB98C398BF
:100AC000C698AF9808958E9A969ABB98C398089541
:100AD0008E989698BB9AC39A08958E9A969ABB9AC6
:100AE000C39A0895C49A80919B00843018F483E0DF
:100AF00080939B000895C49880919B00843060F49B
:100B0000811107C081E090918600911103C080E0BF
:100B100001C081E080939B0008951F920F920FB651
:100B20000F9211242F933F934F935F936F937F9373
:100B30008F939F93AF93BF93EF93FF938091830025
:100B4000909184000196909384008093830080911B
:100B5000DC008F5F8093DC008091DF0091E0980FD4
:100B60009093DF00893008F446C18091B40080FF83
:100B700009C08091B5009091B60001969093B6009F
:100B80008093B5008091B40081FF09C08091B700C7
:100B90009091B80001969093B8008093B70080912F
:100BA000B40082FF09C08091B9009091BA0001960B
:100BB0009093BA008093B9008091B40083FF09C07C
:100BC0008091BB009091BC0001969093BC008093F3
:100BD000BB008091B40084FF09C08091BD0090915A
:100BE000BE0001969093BE008093BD008091B4003A
:100BF00085FF09C08091BF009091C000019690933D
:100C0000C0008093BF008091B40086FF09C080912E
:100C1000C1009091C20001969093C2008093C100E0
:100C20008091B40087FF09C08091C3009091C400F7
:100C300001969093C4008093C3008091D00091E00E
:100C4000980F9093D000893CE8F08091AE0090918D
:100C5000AF009093E1008093E0008091D8009091E4
:100C6000D90090939F0080939E001092AF00109245
:100C7000AE001092D9001092D80081E080939A00C3
:100C80001092D00020919B00233008F051C02230F8
:100C900079F58091860081111FC080917400909138
:100CA0007500FC013196F0937500E093740068ECD8
:100CB00070E00E948C0C892BD9F5E13AFF4028F0B6
:100CC000B998C19810929B0029C087B3822787BB2F
:100CD00088B3282728BB2CC084FD02C0B998C198CE
:100CE000109275001092740081E080939B0020C0E8
:100CF0008091740090917500813E3EE2930798F0D8
:100D0000213049F410929B008091860084FD06C03A
:100D1000B998C19803C082E080939B00109275003F
:100D20001092740005C00196909375008093740032
:100D30008091A8009091A900039748F48091A800A1
:100D40009091A90001969093A9008093A8008091AA
:100D5000C800873318F48F5F8093C8008091D30058
:100D6000843328F48091D3008F5F8093D3008091E7
:100D7000CE0091E0980F9093CE008330D0F1809117
:100D8000C900482F50E02091AC003091AD004217CF
:100D9000530759F04217530714F48F5F01C0815075
:100DA0008093C9008091C9008ABD8091EB00482FD3
:100DB00050E020919C0030919D004217530759F05C
:100DC0004217530714F48F5F01C081508093EB00EA
:100DD0008091EB0088BD8091EB00811104C080916F
:100DE000C900882319F082EA8FBD01C01FBC109290
:100DF000CE001092DF003091900033FD46C080910C
:100E0000720090917300209171002F5F2093710008
:100E1000263198F096FD0AC095FF08C09093EA002D
:100E20008093E900832F88608093900080919000E8
:100E30008F7E8093900080E090E03091700046B308
:100E4000432742FF1EC0309530937000273040F496
:100E5000809190008F7E8093900080E090E004C0AD
:100E6000009711F02F3068F02091900020612093BE
:100E7000900096FD02C0880F991F32FF816010928A
:100E800071009093730080937200FF91EF91BF9176
:100E9000AF919F918F917F916F915F914F913F9112
:100EA0002F910F900FBE0F901F9018951092DC009D
:100EB0009091DC009817E0F30895CF93DF93EC0155
:100EC000209729F08AE00E9456072197F9CFDF91F9
:100ED000CF910895019710F00000FCCF0895C82F1E
:100EE000F89497980E945C0510929D0010929C00C7
:100EF0001092AD001092AC001092970010929600E4
:100F00001092D2001092D1001092EB001092C90002
:100F10001ABC18BC1FBC0E947B058EEF91E00E949A
:100F20005E0B83EC91E00E945E0B8FEF8C0F8230A2
:100F3000C0F489E991E00E945E0B87E891E00E948D
:100F40005E0BC13019F482E891E002C08CE791E0B9
:100F50000E945E0B8BE491E00E945E0B8CE091E0BE
:100F60000CC0C33061F48FEE90E00E945E0B8FEBFB
:100F700090E00E945E0B88E890E00E945E0B82E6A3
:100F800090E00E945E0BD6E3D09386000E94B401ED
:100F9000CAE080E090E80E946A07C150D1F7109241
:100FA00086000E94B401CAE08FEF9FEF0E946A079B
:100FB000C150D1F7E9CF8091C800823308F474C0E2
:100FC0001092C8008091C5002091EC003091ED0096
:100FD00081113BC080918500233043E0340738F411
:100FE0004091DD005091DE0043305340E0F090919D
:100FF000C7009F5F9093C7009AE09093C50010923E
:101000009D0010929C001092AD001092AC001092C6
:101010009700109296001092D2001092D100846036
:101020008093850008958B7F809385008091920046
:10103000853628F01092C7001092920006C0809169
:10104000C700833010F083E014C02639310598F4CE
:1010500080919E0090919F00892B69F480918C0073
:1010600090918D00892B39F08091EB00873918F031
:1010700081E00E946F078091DD009091DE0086394B
:10108000910590F48091E0009091E100892B61F44A
:1010900080918A0090918B00892B31F08091C9005A
:1010A000873910F082E0E5CF80919A00882309F417
:1010B00084C18091C50081117BC18091C7008823C4
:1010C00031F0809192008F5F8093920002C0109265
:1010D00092008091850081FF35C04091E2005091DF
:1010E000E30020918800309189004217530780F077
:1010F00010928D0010928C00109297001092960022
:1011000010929D0010929C008D7F809385001AC0E4
:101110002091E2003091E3008091A0009091A10025
:101120002817390778F080918C0090918D00969562
:1011300087958631910510F486E190E090938D00BB
:1011400080938C008091850080FF35C04091D40051
:101150005091D5002091AA003091AB00421753075F
:1011600080F010928B0010928A001092D2001092A0
:10117000D1001092AD001092AC008E7F809385005C
:101180001AC02091D4003091D5008091D600909162
:10119000D7002817390778F080918A0090918B004A
:1011A000969587958631910510F486E190E09093AD
:1011B0008B0080938A0080916F0090916D0089135D
:1011C00007C020916E0090916C00291709F451C05E
:1011D00040918C0050918D0020918A0030918B00BD
:1011E0004115510519F42115310501F150938F0076
:1011F00040938E003093A3002093A20010928D00A4
:1012000010928C0010928B0010928A001092AD0008
:101210001092AC0010929D0010929C0010929700CA
:10122000109296001092D2001092D1009FB59111A9
:1012300020C060916E000E943D0320918E0030918D
:101240008F0030938D0020938C008091A2009091AC
:10125000A30090938B0080938A0036952795309356
:10126000970020939600969587959093D20080934F
:10127000D10020918C0030918D0080919E00909142
:101280009F00A901481B590B8091960090919700EF
:10129000840F951F853A41E0940714F084EA91E0A9
:1012A000909397008093960080919600909197007C
:1012B0008C359E4F34F48CE59EEF9093970080938D
:1012C000960080919E0090919F00892B31F4232BF2
:1012D00021F41092970010929600809196009091C0
:1012E000970097FD019695958795833D910514F09C
:1012F00082ED90E090939D0080939C0080919C00F3
:1013000090919D0097FF04C010929D0010929C0048
:1013100020918A0030918B008091E0009091E10053
:10132000A901481B590B8091D1009091D200840FE4
:10133000951F853A41E0940714F084EA91E0909378
:10134000D2008093D1008091D1009091D2008C3551
:101350009E4F34F48CE59EEF9093D2008093D100A1
:101360008091E0009091E100892B31F4232B21F44E
:101370001092D2001092D1008091D1009091D200B1
:1013800097FD019695958795833D910514F082ED23
:1013900090E09093AD008093AC008091AC00909170
:1013A000AD0097FF08C01092AD001092AC0003C0D2
:1013B00081508093C50010929A0080918500909191
:1013C000E600981739F08093E600E0916500F0910F
:1013D000660009940895D49ADC9A0895DC98D4980C
:1013E00008950E9447020E94FD030E9414020C947B
:1013F000DB07EF92FF921F93CF93DF931F92CDB73E
:10140000DEB7162F7A0190918500916092609093DB
:1014100085001092D7001092D6001092A100109271
:10142000A000873180F046EF5FEF481B5109440F61
:10143000551F4E0D5F1D5093D7004093D60050931B
:10144000A1004093A000A701425051095093AB0066
:101450004093AA00509389004093880098E2E916CF
:10146000F104C0F444E150E05093AB004093AA0073
:1014700050938900409388004AE050E05093D70091
:101480004093D6005093A1004093A00048E2E42E80
:10149000F12C05C090E9E91691E0F90698F489323B
:1014A00088F0C7019695879596958795A701481B63
:1014B000590B5093D7004093D6005093A10040930E
:1014C000A00088E21092E3001092E2001092D50092
:1014D0001092D400682F29830E94D302812F0E948A
:1014E000E402F092B300E092B200F0929400E09235
:1014F0009300809185008093E600E0916500F09173
:10150000660009952981222339F00E940803811180
:1015100003C00E94F109F9CF0F90DF91CF911F9185
:10152000FF90EF900895FF920F931F93CF93DF9357
:10153000182FF62E022F9091850091609260909363
:1015400085009A01A0EBB2E00E94C80C24E630E0CE
:1015500040E050E00E94A00CE901F901E456F109D5
:10156000F093D700E093D600F093A100E093A000A1
:101570003093AB002093AA00309389002093880019
:1015800028323105B0F444E150E05093AB00409371
:10159000AA0050938900409388004AE050E050939D
:1015A000D7004093D6005093A1004093A000C8E21A
:1015B000D0E0612F812F0E94D3028F2D0E94E40280
:1015C0001092E3001092E2001092D5001092D40025
:1015D000D093B300C093B200D0939400C093930013
:1015E000809185008093E600E0916500F0916600AF
:1015F0000995002339F00E940803811103C00E945D
:10160000F109F9CFDF91CF911F910F91FF900895CC
:10161000CF931BBA18BA15BAC1E0C2BB1ABA88E593
:1016200087BB8CE884BB82EF81BBF894C598BD9AD8
:1016300097980E945C0510BC8CE089B91BB886E8BD
:1016400080BD88E98AB917B886E186B910BE85E001
:1016500085BF80EE8BBF14BE8AE083BF83E68CBF5C
:1016600082EA8FBD81E18EBD82ED90E097BD86BD9F
:101670001ABC18BC60E080E00E943D0389E085BD93
:101680008EE683BD82E089BF809190008160809367
:101690009000C09364007894CF9108955D9BFECF35
:1016A0008CB90895CF93DF93EC018991882319F0C9
:1016B0000E944E0BFACFDF91CF910895CF93DF9325
:1016C000FC018491EF012196882321F00E944E0BAA
:1016D000FE01F7CFDF91CF9108950F931F93CF9322
:1016E000DF931F92CDB7DEB78C01040F111DF801F7
:1016F00081918F01882341F0662331F069830E9434
:101700004E0B69816150F3CF0F90DF91CF911F9104
:101710000F910895CF93DF93CDB7DEB761970FB6E2
:10172000F894DEBF0FBECDBF462F50E0BE016F5F05
:101730007F4F0E94D70CCE0101960E94520B6196FA
:101740000FB6F894DEBF0FBECDBFDF91CF910895E5
:10175000EF92FF920F931F93CF93DF93CDB7DEB736
:1017600061970FB6F894DEBF0FBECDBF042F462F92
:1017700050E09E012F5F3F4F7901B9010E94D70CC5
:10178000F70101900020E9F73197EE19FF09102FBA
:101790001E1B111654F4115080E30E944E0B1111C0
:1017A000FACFC7010E94520B06C0412F4195602F0E
:1017B000C7010E946D0B61960FB6F894DEBF0FBE95
:1017C000CDBFDF91CF911F910F91FF90EF900895C2
:1017D0001F920F920FB60F9211242F938F939F9306
:1017E000EF93FF9380917D0090917E00282F291B1D
:1017F0002032A8F4E0917F0091E09E0F90937F004B
:10180000F0E02CB1E151FF4F20838F5F80937D008A
:10181000913210F010927F001092EE0006C08CB151
:101820008093820081E08093EE00FF91EF919F9181
:101830008F912F910F900FBE0F901F9018951092BF
:10184000EE0080917E0090917D009817A1F08F5F4F
:1018500080937E0080918000813210F01092800091
:10186000E091800081E08E0F80938000F0E0E151F4
:10187000FF4F8081089580E008951092EE00282F98
:10188000DC018A2F821B90917E0030917D003917F8
:10189000B9F08617A8F49F5F90937E00E0918000D6
:1018A00081E08E0F80938000F0E0E151FF4F808156
:1018B0008D9380918000813220F310928000E1CFDF
:1018C000089580917D0090917E00891B089557981E
:1018D0008CB1809381001092800010927F00109252
:1018E0007E0010927D001092EE00579A08950E949B
:1018F000080B8FE30E94F30188EE93E00E945D07DE
:101900000E9472058091B40081608093B4000E94AF
:101910002F010E94F109FBCFAA1BBB1B51E107C09D
:10192000AA1FBB1FA617B70710F0A61BB70B881F6F
:10193000991F5A95A9F780959095BC01CD010895FE
:10194000A1E21A2EAA1BBB1BFD010DC0AA1FBB1FC3
:10195000EE1FFF1FA217B307E407F50720F0A21B35
:10196000B30BE40BF50B661F771F881F991F1A94A2
:1019700069F760957095809590959B01AC01BD01CC
:10198000CF010895EE0FFF1F0590F491E02D09940B
:10199000A29FB001B39FC001A39F700D811D1124B0
:1019A000911DB29F700D811D1124911D0895453226
:1019B000510520F4423010F00C94E20CFB0110822F
:1019C000CB010895BB274A3031F4992322F4BDE2BC
:1019D000909581959F4F0C94EE0CBB27FB015527EA
:1019E000AA27880F991FAA1FA41710F0A41B83957C
:1019F0005051B9F7A05DAA3308F0A95DA1930097F3
:101A000079F7B111B1931192CB010C94070DDC0160
:101A1000FC01672F71917723E1F7329704C07C9125
:101A20006D9370836291AE17BF07C8F30895F89461
:021A3000FFCFE6
:0A1A3200A801A70101A601A501000B
:00000001FF
