:100000000C9429010C94DF020C94FF020C941D0443
:100010000C94BD030C9446010C9446010C944601CB
:100020000C9446010C9446010C94DE050C94460198
:100030000C9446010C94390C0C9446010C94460126
:100040000C9446010C9446010C9446010C94360F16
:100050000C944601A802AE02B402BA02C002C60263
:10006000CC020A493243204552524F52202D2D3E98
:10007000205457492053544154452049533A203085
:10008000780020636D207C200044697374616E6386
:10009000653A200054686520526F626F74206E6567
:1000A00065647320746F2062652072657365747473
:1000B0006564206E6F772E0A0A00596F75206E6591
:1000C000656420746F20636865636B204D6F746F87
:1000D0007220617373656D626C7920286F7220796C
:1000E0006F757220736F667477617265292E0A0AC4
:1000F000000A0A28732E207461736B5F6D6F746F32
:1001000072436F6E74726F6C28292066756E63740B
:10011000696F6E20696E205250364C696221290A3F
:10012000000A0A232323204D4F544F52204F564597
:100130005243555252454E54202323230A00596FEF
:1001400075206E65656420746F20636865636B203D
:10015000456E636F6465722F4D6F746F72206173AB
:1001600073656D626C7920286F7220796F757220CB
:10017000736F667477617265292E0A0A00210A0A74
:1001800028732E207461736B5F6D6F746F72436F91
:100190006E74726F6C28292066756E6374696F6E59
:1001A00020696E205250364C696221290A0052495A
:1001B000474854004C454654004166666563746583
:1001C00064206368616E6E656C3A000A2323232005
:1001D000454E434F44455220284F52204D4F544FD7
:1001E0005229204D414C46554E4354494F4E2120F3
:1001F0002323230A00232323232320414C4C204F75
:100200005045524154494F4E532053544F5050453E
:100210004420544F2050524556454E5420414E598B
:100220002044414D414745212023232323230A0015
:100230000A0A232323232320454D455247454E4395
:10024000592053485554444F574E202323232323EA
:100250000A0011241FBECFE5D8E0DEBFCDBF10E0FD
:10026000A0E6B0E0EEEAF0E202C005900D92AE36F4
:10027000B107D9F721E0AEE6B0E001C01D92A1368A
:10028000B207E1F70E94A50F0C9455100C940000E2
:10029000CF93C82F82E690E00E94AF0B60E18C2FD5
:1002A00090E00E94DB0B8AE0CF910C949F0B0F93A0
:1002B0001F93CF93DF93CDB7DEB728970FB6F8948F
:1002C000DEBF0FBECDBF8823A9F0813009F042C048
:1002D00062E0CE0101960E94F30C898180936F0049
:1002E00063E086EE0E94720E41E060E086EE0E94BE
:1002F0006E0D30C062E0CE0101960E94F30C2981A0
:1003000080916F0090E0982F8827820F911D909325
:10031000D6008093D50089E890E00E94AF0B6AE098
:100320008091D5009091D6000E94DB0B82E890E08E
:100330000E94AF0B0091D5001091D6000530110539
:1003400030F083E20E949F0B02501109F7CF8AE040
:100350000E949F0B28960FB6F894DEBF0FBECDBF4C
:10036000DF91CF911F910F910895CF93DF93C82F05
:10037000D62F40EA60E00E94900E4AEA60E08C2F9F
:100380000E94900E45EA60E08C2F0E94900E4D2F47
:1003900060E08C2FDF91CF910C94900E80916E00D5
:1003A00081110DC08091880081111FC041E560E07E
:1003B00086EE0E94900E81E080936E0012C08091C4
:1003C0000601909107018734910578F062E086EE8E
:1003D0000E94720E41E061E086EE0E946E0D109266
:1003E0006E00109207011092060108950895089575
:1003F000089508958091EC00843010F01092EC0084
:10040000089584E08093EC00089587B38C7787BBD0
:1004100088B38C7788BB8091D70083FF02C0BF9AD6
:10042000C79A8091D70084FF02C0B99AC19A80917F
:10043000D70085FF02C0B89AC09A84B38F7884BB76
:1004400085B38F7885BB24B39091D70030E1939F1B
:10045000C00111248077822B84BB25B39091D700F3
:1004600030E1939FC00111248077822B85BB80915E
:10047000EC00811106C081E09091D700911101C07C
:1004800080E08093EC0008958093D7000C940502DF
:10049000C098B898000086B381709091D70095FFFE
:1004A00002C0B89AC09A0895AE98A698000083B387
:1004B00080749091D70092FF02C0A69AAE9A0895D8
:1004C00090936800809367000895CF9380912401F2
:1004D0008333C0F00E944802C82F0E9454029091BA
:1004E000D8009C1304C090913501981749F0C0932F
:1004F000D80080933501E0916700F091680009957C
:1005000010922401CF91089536990AC0806487B96A
:1005100086ED86B93699FECF349A84B195B10895A7
:1005200080E090E00895806487B986ED86B90895EB
:10053000369944C0E09181008E2F90E0873091057C
:1005400098F5FC01E65DFF4F84B195B10C94001065
:10055000909339018093380186E423C090933E0143
:1005600080933D0185E41DC090932F0180932E015F
:1005700083E417C09093F8008093F70082E411C0E1
:1005800090931E0180931D0180E40BC090932C0179
:1005900080932B0181E405C09093F6008093F500D1
:1005A00087E487B986ED86B980918100863019F499
:1005B0001092810008958F5F8093810008951F92AB
:1005C0000F920FB60F9211248F939F938091330156
:1005D000909134010196909334018093330180917E
:1005E000290190912A01019690932A018093290173
:1005F0009F918F910F900FBE0F901F9018951F9293
:100600000F920FB60F9211248F939F938091250123
:100610009091260101969093260180932501809167
:10062000FF00909100010196909300018093FF00DC
:100630009F918F910F900FBE0F901F9018959093E0
:100640006600809365000895893C08F088EC90E08E
:100650009093DE008093DD00693C08F068EC70E068
:100660007093DC006093DB000895809370002FEF9F
:10067000280F91E0223008F090E0909374008D7F75
:1006800091E0813009F090E0909373000895292F54
:10069000221F2227221F20937400771F7727771F9E
:1006A000709373001816190614F0819561950C94D7
:1006B00024039091D400937081E009F080E00895C4
:1006C0001092DE001092DD001092DC001092DB0030
:1006D0001092E8001092E70010922301109222017C
:1006E0008091D4008E7F8D7F8093D40080933701DA
:1006F000E0916500F09166000994633D08F062EDB9
:1007000070E07093FE006093FD00833D08F082ED81
:1007100090E09093EE008093ED0008958093720036
:10072000609371008093740060937300882311F0CC
:10073000AA9A01C0AA98662311F0AB9A0895AB98C3
:1007400008959091E200992321F099B7906899BF9C
:10075000F8CF6F7370E070638F7320E4829FC001E5
:100760001124862B972B9093020180930101809195
:10077000E10080648093E10008951F920F920FB60C
:100780000F9211248F939F93809164008230B0F573
:10079000809180008823D1F08C3338F480911B0144
:1007A00090911C0196FF07C008C080911B01909199
:1007B0001C0196FF02C0979803C082B3805882BB89
:1007C0008091800081508093800030C08091E20051
:1007D0009798882359F180911B0190911C01880FF3
:1007E000991F90931C0180931B0188E780938000E0
:1007F0008091E20081508093E20018C08091E60071
:10080000882391F08091E10080FD05C098B380E4D9
:10081000892788BB03C085B3805885BB8091E600DB
:1008200081508093E60002C0C69AAF9A9F918F9143
:100830000F900FBE0F901F9018951F920F920FB63A
:100840000F9211248F9380916400833011F08630D1
:1008500079F48091E10084FD0BC08091E10085FF77
:1008600007C0B29905C0809136018F5F8093360131
:1008700086B38091E1008D7F8093E1008F910F908E
:100880000FBE0F901F9018959093630080936200A5
:100890000895909361008093600008958091F9001D
:1008A0009091FA00029708F43CC18091E10084FD28
:1008B00019C180916400823009F467C028F488234C
:1008C00069F0813091F014C1853009F4AFC08630F1
:1008D00009F4C5C0833009F00BC16FC089B78F77A9
:1008E00089BF9798C69AAF9A03C18091E20081119F
:1008F0002AC08091E10086FF14C08091010190918F
:10090000020190931C0180931B018EE08093E20012
:100910008091E1008F7B8093E10089B7806889BF77
:1009200006C089B78F7789BF9798C69AAF9A80918A
:100930007F0091E0980F90937F00843138F082E03F
:100940008093640003C089B7806889BF8091E1000B
:1009500083FFCEC0E0916200F091630080913A0184
:1009600090913B01099580913A0190913B019093C0
:10097000EA008093E90010923B0110923A018091C5
:10098000E100877F8093E100B3C089B78F7789BF8B
:100990009798C69AAF9A1092E6001092360110927C
:1009A0007E0010927D008091E1008E7F80628093B6
:1009B000E10083E080937F0077C08091E6008111A1
:1009C00010C080917F0091E0980F90937F0083305A
:1009D00040F089B7806889BF88E28093E600109272
:1009E0007F0080911701882321F0809136018230A9
:1009F00020F480913601863038F01092360181E083
:100A00008093170185E050C080917D0090917E0019
:100A10009C012F5F3F4F30937E0020937D000E9707
:100A200008F466C01092170185E051C089B78F772E
:100A300089BF9798C69AAF9A1092E6001092360135
:100A400010927E0010927D008091E10081608062B2
:100A50008093E10083E080937F0086E025C0809151
:100A6000E600811110C080917F0091E0980F909373
:100A70007F00833040F089B7806889BF88E2809327
:100A8000E60010927F0080912001882321F0809160
:100A90003601823020F480913601863040F0109289
:100AA000360181E0809320018093640021C0809111
:100AB0007D0090917E009C012F5F3F4F30937E0020
:100AC00020937D000E97A0F01092200181E080938A
:100AD000640089B78F7789BF9798C69AAF9A1092AA
:100AE000E60006C010927E0010927D0010927F00FA
:100AF0009091170120917C0080912001291304C05E
:100B000020917B00281749F090937C0080937B0014
:100B1000E0916000F091610009951092FA00109246
:100B2000F90008951092640089B78F7789BF97986C
:100B3000C69AAF9A1092200110921701089589B7B2
:100B40008F7789BF9798C69AAF9A1092200110921A
:100B5000170181E08093640008958E989698BB9861
:100B6000C398C698AF9808958E9A969ABB98C398E2
:100B700008958E989698BB9AC39A08958E9A969ADD
:100B8000BB9AC39A0895C49A8091EC00843018F4FB
:100B900083E08093EC000895C4988091EC00843049
:100BA00060F4811107C081E09091D700911103C0DA
:100BB00080E001C081E08093EC0008951F920F92C5
:100BC0000FB60F9211242F933F934F935F936F9320
:100BD0007F938F939F93AF93BF93EF93FF938091F6
:100BE000D2009091D30001969093D3008093D200CD
:100BF00080912D018F5F80932D018091300191E0D4
:100C0000980F90933001893008F446C18091050116
:100C100080FF09C080910601909107010196909391
:100C20000701809306018091050181FF09C0809131
:100C300008019091090101969093090180930801A0
:100C40008091050182FF09C080910A0190910B01FA
:100C5000019690930B0180930A018091050183FF17
:100C600009C080910C0190910D01019690930D01A6
:100C700080930C018091050184FF09C080910E01D1
:100C800090910F01019690930F0180930E01809136
:100C9000050185FF09C08091100190911101019615
:100CA00090931101809310018091050186FF09C086
:100CB00080911201909113010196909313018093FA
:100CC00012018091050187FF09C080911401909164
:100CD00015010196909315018093140180912101D3
:100CE00091E0980F90932101893CE8F08091FF00FA
:100CF00090910001909332018093310180912901FC
:100D000090912A019093F0008093EF0010920001DF
:100D10001092FF0010922A011092290181E0809325
:100D2000EB00109221012091EC00233008F051C01B
:100D3000223079F58091D70081111FC08091790010
:100D400090917A00FC013196F0937A00E09379005B
:100D500068EC70E00E94CA0F892BD9F5E13AFF4098
:100D600028F0B998C1981092EC0029C087B3822767
:100D700087BB88B3282728BB2CC084FD02C0B99844
:100D8000C19810927A001092790081E08093EC0073
:100D900020C08091790090917A00813E3EE29307D5
:100DA00098F0213049F41092EC008091D70084FD36
:100DB00006C0B998C19803C082E08093EC001092FD
:100DC0007A001092790005C0019690937A00809382
:100DD00079008091F9009091FA00039748F480918E
:100DE000F9009091FA0001969093FA008093F9002F
:100DF00080911901873318F48F5F809319018091D6
:100E00002401843328F4809124018F5F809324018E
:100E100080911F0191E0980F90931F018330D0F1D2
:100E200080911A01482F50E02091FD003091FE0082
:100E30004217530759F04217530714F48F5F01C04C
:100E4000815080931A0180911A018ABD80913C01E2
:100E5000482F50E02091ED003091EE0042175307EB
:100E600059F04217530714F48F5F01C081508093EB
:100E70003C0180913C0188BD80913C01811104C0FE
:100E800080911A01882319F082EA8FBD01C01FBC2E
:100E900010921F01109230013091E10033FD46C0E5
:100EA0008091770090917800209176002F5F2093B9
:100EB0007600263198F096FD0AC095FF08C0909301
:100EC0003B0180933A01832F88608093E1008091F9
:100ED000E1008F7E8093E10080E090E0309175002A
:100EE00046B3432742FF1EC030953093750027302C
:100EF00040F48091E1008F7E8093E10080E090E0FB
:100F000004C0009711F02F3068F02091E1002061BB
:100F10002093E10096FD02C0880F991F32FF816087
:100F2000109276009093780080937700FF91EF9174
:100F3000BF91AF919F918F917F916F915F914F91F1
:100F40003F912F910F900FBE0F901F901895109208
:100F50002D0190912D019817E0F30895CF93DF9321
:100F6000EC01209729F08AE00E94A7072197F9CF8A
:100F7000DF91CF910895019710F00000FCCF089504
:100F8000C82FF89497980E94AD051092EE00109229
:100F9000ED001092FE001092FD001092E8001092F9
:100FA000E700109223011092220110923C0110924E
:100FB0001A011ABC18BC1FBC0E94CC0580E392E049
:100FC0000E94AF0B85EF91E00E94AF0B8FEF8C0F6B
:100FD0008230C0F48BEC91E00E94AF0B89EB91E082
:100FE0000E94AF0BC13019F484EB91E002C08EEA8D
:100FF00091E00E94AF0B8DE791E00E94AF0B8EE372
:1010000091E00CC0C33061F481E291E00E94AF0B2B
:1010100081EF90E00E94AF0B8AEB90E00E94AF0B53
:1010200084E990E00E94AF0BD6E3D093D7000E94F2
:101030000502CAE080E090E80E94BB07C150D1F7EA
:101040001092D7000E940502CAE08FEF9FEF0E9426
:10105000BB07C150D1F7E9CF80911901823308F461
:1010600074C0109219018091160120913D013091B8
:101070003E0181113BC08091D400233043E034070E
:1010800038F440912E0150912F0143305340E0F04D
:10109000909118019F5F909318019AE09093160128
:1010A0001092EE001092ED001092FE001092FD00E2
:1010B0001092E8001092E700109223011092220192
:1010C00084608093D40008958B7F8093D4008091B6
:1010D000E300853628F0109218011092E30006C054
:1010E00080911801833010F083E014C02639310557
:1010F00098F48091EF009091F000892B69F4809131
:10110000DD009091DE00892B39F080913C01873918
:1011100018F081E00E94C00780912E0190912F016C
:101120008639910590F48091310190913201892B9B
:1011300061F48091DB009091DC00892B31F080918B
:101140001A01873910F082E0E5CF8091EB00882307
:1011500009F484C18091160181117BC1809118012D
:10116000882331F08091E3008F5F8093E30002C019
:101170001092E3008091D40081FF35C0409133018B
:10118000509134012091D9003091DA004217530771
:1011900080F01092DE001092DD001092E8001092B4
:1011A000E7001092EE001092ED008D7F8093D40046
:1011B0001AC020913301309134018091F100909157
:1011C000F2002817390778F08091DD009091DE0059
:1011D000969587958631910510F486E190E090937D
:1011E000DE008093DD008091D40080FF35C0409107
:1011F0002501509126012091FB003091FC004217FF
:10120000530780F01092DC001092DB001092230153
:10121000109222011092FE001092FD008E7F8093AA
:10122000D4001AC020912501309126018091270118
:10123000909128012817390778F08091DB00909170
:10124000DC00969587958631910510F486E190E053
:101250009093DC008093DB00809174009091720089
:10126000891307C02091730090917100291709F428
:1012700051C04091DD005091DE002091DB003091A3
:10128000DC004115510519F42115310501F1509388
:10129000E0004093DF003093F4002093F3001092BD
:1012A000DE001092DD001092DC001092DB00109244
:1012B000FE001092FD001092EE001092ED001092D0
:1012C000E8001092E70010922301109222019FB5CE
:1012D000911120C0609173000E948E032091DF0065
:1012E0003091E0003093DE002093DD008091F30028
:1012F0009091F4009093DC008093DB003695279565
:101300003093E8002093E70096958795909323010A
:10131000809322012091DD003091DE008091EF006A
:101320009091F000A901481B590B8091E700909122
:10133000E800840F951F853A41E0940714F084EA91
:1013400091E09093E8008093E7008091E70090910E
:10135000E8008C359E4F34F48CE59EEF9093E800C6
:101360008093E7008091EF009091F000892B31F499
:10137000232B21F41092E8001092E7008091E700FF
:101380009091E80097FD019695958795833D91058D
:1013900014F082ED90E09093EE008093ED00809148
:1013A000ED009091EE0097FF04C01092EE001092B5
:1013B000ED002091DB003091DC00809131019091B3
:1013C0003201A901481B590B809122019091230100
:1013D000840F951F853A41E0940714F084EA91E068
:1013E0009093230180932201809122019091230107
:1013F0008C359E4F34F48CE59EEF909323018093BF
:1014000022018091310190913201892B31F4232BFB
:1014100021F41092230110922201809122019091D7
:10142000230197FD019695958795833D910514F0CD
:1014300082ED90E09093FE008093FD008091FD008E
:101440009091FE0097FF08C01092FE001092FD00E0
:1014500003C08150809316011092EB008091D4005C
:1014600090913701981739F080933701E09165002A
:10147000F091660009940895D49ADC9A0895DC9856
:10148000D49808950E9498020E944E040E9465021A
:101490000C942C08EF92FF921F93CF93DF931F922F
:1014A000CDB7DEB7162F7A019091D400916092608B
:1014B0009093D40010922801109227011092F2000C
:1014C0001092F100873180F046EF5FEF481B510921
:1014D000440F551F4E0D5F1D509328014093270167
:1014E0005093F2004093F100A701425051095093EC
:1014F000FC004093FB005093DA004093D90098E23F
:10150000E916F104C0F444E150E05093FC0040932C
:10151000FB005093DA004093D9004AE050E050932A
:101520002801409327015093F2004093F10048E2D4
:10153000E42EF12C05C090E9E91691E0F90698F443
:10154000893288F0C7019695879596958795A7016A
:10155000481B590B50932801409327015093F200E8
:101560004093F10088E210923401109233011092FE
:10157000260110922501682F29830E942403812FC0
:101580000E943503F0920401E0920301F092E5001D
:10159000E092E4008091D40080933701E0916500EF
:1015A000F091660009952981222339F00E945903A0
:1015B000811103C00E94420AF9CF0F90DF91CF91B1
:1015C0001F91FF90EF900895FF920F931F93CF9379
:1015D000DF93182FF62E022F9091D4009160926025
:1015E0009093D4009A01A0EBB2E00E94061024E68A
:1015F00030E040E050E00E94DE0FE901F901E456DE
:10160000F109F0932801E0932701F093F200E093B1
:10161000F1003093FC002093FB003093DA0020931C
:10162000D90028323105B0F444E150E05093FC0079
:101630004093FB005093DA004093D9004AE050E019
:1016400050932801409327015093F2004093F100FA
:10165000C8E2D0E0612F812F0E9424038F2D0E94C9
:10166000350310923401109233011092260110922A
:101670002501D0930401C0930301D093E500C093EA
:10168000E4008091D40080933701E0916500F091EF
:1016900066000995002339F00E945903811103C0A7
:1016A0000E94420AF9CFDF91CF911F910F91FF90D5
:1016B0000895CF931BBA18BA15BAC1E0C2BB1ABAC3
:1016C00088E587BB8CE884BB82EF81BBF894C59822
:1016D000BD9A97980E94AD0510BC8CE089B91BB8E3
:1016E00086E880BD88E98AB917B886E186B910BE58
:1016F00085E085BF80EE8BBF14BE8AE083BF83E6A2
:101700008CBF82EA8FBD81E18EBD82ED90E097BDF6
:1017100086BD1ABC18BC60E080E00E948E0389E0A0
:1017200085BD8EE683BD82E089BF8091E100816046
:101730008093E100C09364007894CF9108955D9BFD
:10174000FECF8CB90895CF93DF93EC018991882364
:1017500019F00E949F0BFACFDF91CF910895CF939C
:10176000DF93FC018491EF012196882321F00E94F0
:101770009F0BFE01F7CFDF91CF9108950F931F9339
:10178000CF93DF931F92CDB7DEB78C01040F111DED
:10179000F80181918F01882341F0662331F069833C
:1017A0000E949F0B69816150F3CF0F90DF91CF9121
:1017B0001F910F910895CF93DF93CDB7DEB7619757
:1017C0000FB6F894DEBF0FBECDBF462F50E0BE016E
:1017D0006F5F7F4F0E941510CE0101960E94A30BF0
:1017E00061960FB6F894DEBF0FBECDBFDF91CF91EB
:1017F0000895EF92FF920F931F93CF93DF93CDB78E
:10180000DEB761970FB6F894DEBF0FBECDBF042FD1
:10181000462F50E09E012F5F3F4F7901B9010E9492
:101820001510F70101900020E9F73197EE19FF0933
:10183000102F1E1B111654F4115080E30E949F0BB1
:101840001111FACFC7010E94A30B06C0412F419589
:10185000602FC7010E94BE0B61960FB6F894DEBFE1
:101860000FBECDBFDF91CF911F910F91FF90EF90F1
:1018700008951F920F920FB60F9211242F938F93FA
:101880009F93EF93FF938091820090918300282F84
:10189000291B2032A8F4E091840091E09E0F9093E0
:1018A0008400F0E02CB1E05CFE4F20838F5F8093DA
:1018B0008200913210F01092840010923F0106C015
:1018C0008CB18093870081E080933F01FF91EF917D
:1018D0009F918F912F910F900FBE0F901F90189591
:1018E00010923F0180918300909182009817A1F09F
:1018F0008F5F8093830080918500813210F0109279
:101900008500E091850081E08E0F80938500F0E0F6
:10191000E05CFE4F8081089580E0089510923F01C1
:10192000282FDC018A2F821B909183003091820046
:101930003917B9F08617A8F49F5F90938300E09160
:10194000850081E08E0F80938500F0E0E05CFE4F23
:1019500080818D9380918500813220F310928500E3
:10196000E1CF08958091820090918300891B0895B2
:1019700057988CB180938600109285001092840055
:10198000109283001092820010923F01579A08959E
:1019900008950895F89480B911B88FEF83B984E061
:1019A00086BF80918F00816080938F007894089526
:1019B00090936C0080936B00089590936A008093DD
:1019C00069000895CF93DF931F92CDB7DEB786E904
:1019D000898389819FEF980F99838111FACF0F90A6
:1019E000DF91CF91089506B600FCFDCF20918F00C6
:1019F00020FF0BC0A3E9B0E0282FFC018E2F821B33
:101A0000861718F48D918193F9CF089506B600FCDE
:101A1000FDCF80918E00089506B600FC5EC08091D7
:101A20008F0080FF42C080918800882309F455C050
:101A3000813091F40E94E20C82E0809391009091B9
:101A40008D009093C20090918C009093C3001092EF
:101A50008F0095EA96BF15C08230B1F40E94E20C67
:101A600080918B008F5F8093910080918D008160C9
:101A700080938D008093C20010928F0085EA86BF0C
:101A800083E0809388000895833039F510928800B0
:101A90008091890090918A008F3F2FEF9207E9F0A3
:101AA000E0916B00F0916C0017C00E94060D882336
:101AB000A1F01092880090918F00916090938F0018
:101AC00010928D0010928A001092890010928B0063
:101AD000E0916900F0916A0009940895CF93DF9333
:101AE00000D01F92CDB7DEB706B600FE09C04B830B
:101AF0006A8389830E940C0D89816A814B81F4CFAE
:101B0000909188009111F3CF92E090938800809398
:101B10008D0070E070938A006093890040938B0081
:101B20000F900F900F90DF91CF910895CF93DF9397
:101B300000D000D0CDB7DEB706B600FE0BC02C83B8
:101B40004B836A8389830E940C0D89816A814B8152
:101B50002C81F2CF909188009111F1CF91E0909378
:101B6000880070E070938A006093890080938D00F4
:101B700040938C0020938B000F900F900F900F904C
:101B8000DF91CF910895FF920F931F93CF93DF932F
:101B900000D0CDB7DEB78A01F22E06B600FE07C030
:101BA0006A8389830E940C0D89816A81F6CF9091A6
:101BB00088009111F5CF91E09093880080938D007B
:101BC0008FEF9FEF90938A008093890060938C0041
:101BD000F0928B0006B600FE03C00E940C0DFACFF7
:101BE000809188008111F9CF80918F0080FF0CC017
:101BF00061E06F0DC8010F900F90DF91CF911F91A1
:101C00000F91FF900C94F30C0F900F90DF91CF91F8
:101C10001F910F91FF9008950F931F93CF93DF9320
:101C2000D82F8B01C42F06B600FE03C00E940C0DF6
:101C3000FACF809188008111F9CF0E94E20C82E0F6
:101C400080938800D0938D008FEF9FEF90938A0050
:101C500080938900C0938B0006B600FE03C00E94EB
:101C60000C0DFACF809188008111F9CF80918F00FF
:101C700080FF09C061E06C0FC801DF91CF911F9117
:101C80000F910C94F30CDF91CF911F910F91089558
:101C9000CF93C82F06B600FE03C00E940C0DFACFEA
:101CA000809188008111F9CF0E94E20C82E080933C
:101CB0008800C0938D008FEF9FEF90938A008093F0
:101CC000890081E080938B0080918800882319F03F
:101CD0000E940C0DF9CF90918F0090FD80919300A0
:101CE000CF910895CF93DF93D82FC62F06B600FE6D
:101CF00003C00E940C0DFACF809188008111F9CFAA
:101D00000E94E20C82E080939100D093C200C093C5
:101D1000C30010928F0085EA86BFDF91CF910895AE
:101D20001F93CF93DF93182FD62FC42F06B600FE34
:101D300003C00E940C0DFACF809188008111F9CF69
:101D40000E94E20C83E0809391001093C200D09334
:101D5000C300C093C40010928F0085EA86BFDF9154
:101D6000CF911F9108950F931F93CF93DF93082F67
:101D7000162FD42FC22F06B600FE03C00E940C0DF2
:101D8000FACF809188008111F9CF0E94E20C84E0A3
:101D9000809391000093C2001093C300D093C400BD
:101DA000C093C50010928F0085EA86BFDF91CF9166
:101DB0001F910F910895FF920F931F93CF93DF937D
:101DC000F82E162FD42FC22F06B600FE03C00E9495
:101DD0000C0DFACF809188008111F9CF0E94E20C9E
:101DE00085E080939100F092C2001093C300D093DD
:101DF000C400C093C5000093C60010928F0085EA0E
:101E000086BFDF91CF911F910F91FF9008950F939F
:101E10001F93CF93DF93082FD62F172FC42F06B60B
:101E200000FE03C00E940C0DFACF80918800811142
:101E3000F9CF0E94E20C41E04C0F409391000093D7
:101E4000C2009D2FA3ECB0E0ED2FF12F8E2F891B48
:101E5000841718F481918D93F9CF10928F0085EA41
:101E600086BFDF91CF911F910F9108951F920F921E
:101E70000FB60F9211242F933F938F939F93EF935D
:101E8000FF9381B1883211F140F48031E9F088315B
:101E9000E9F0883009F049C017C0803491F140F46E
:101EA000883309F042C081B180938E0085EA41C039
:101EB0008035E1F08835C9F583B1E0919000F0E01C
:101EC000EE56FF4F80832BC010929000E09190005F
:101ED00080919100E81718F581E08E0F80939000B3
:101EE000F0E0EE53FF4F808183B917C0E09190007E
:101EF00081E08E0F8093900083B1F0E0EE56FF4FAB
:101F000080832091900030E08091910090E00197D3
:101F10002817390714F485EC0CC085E80AC08091B5
:101F20008F00816080938F0003C081B180938E0009
:101F300084E986BFFF91EF919F918F913F912F91FF
:101F40000F900FBE0F901F9018950E94590B80E2C2
:101F50000E94CA0C87E591E00E94D80C88E491E0C9
:101F60000E94DD0C8FE30E94440284EF91E00E9406
:101F7000AE0780E00E9444020E94C30580910501E3
:101F80008160809305010E94CE010E940C0D0E9489
:101F9000420AF9CFAA1BBB1B51E107C0AA1FBB1FF6
:101FA000A617B70710F0A61BB70B881F991F5A95E5
:101FB000A9F780959095BC01CD010895A1E21A2E54
:101FC000AA1BBB1BFD010DC0AA1FBB1FEE1FFF1FDD
:101FD000A217B307E407F50720F0A21BB30BE40B2D
:101FE000F50B661F771F881F991F1A9469F7609574
:101FF0007095809590959B01AC01BD01CF0108952E
:10200000EE0FFF1F0590F491E02D0994A29FB001FF
:10201000B39FC001A39F700D811D1124911DB29F1C
:10202000700D811D1124911D08954532510520F434
:10203000423010F00C942010FB011082CB01089567
:10204000BB274A3031F4992322F4BDE29095819563
:102050009F4F0C942C10BB27FB015527AA27880FF4
:10206000991FAA1FA41710F0A41B83955051B9F70C
:10207000A05DAA3308F0A95DA193009779F7B1118B
:10208000B1931192CB010C944510DC01FC01672F38
:1020900071917723E1F7329704C07C916D9370833F
:0E20A0006291AE17BF07C8F30895F894FFCF02
:0E20AE00F901F80101F701F601C90CC80C0098
:00000001FF
