:100000000C9496020C9413050C9433050C94510631
:100010000C94F1050C94B3020C94B3020C94B3024B
:100020000C94B3020C94B3020C9412080C94B30217
:100030000C94B3020C946D0E0C94B3020C94B302A6
:100040000C94B3020C94B3020C94B3020C94B3025C
:100050000C94B302DC04E204E804EE04F404FA04B1
:1000600000050A48656C6C6F21204D79206E616D2A
:100070006520697320525036210A0A00756E746932
:100080006C20736F6D656F6E652072657365747338
:10009000206D65210A004F4B20676F6F64206279E5
:1000A000652120492077696C6C2072657374206922
:1000B0006E20616E20696E66696E69746520727566
:1000C0006E6E696E67206C69676874206C6F6F7004
:1000D0000A00477265617421204865726520776562
:1000E00020676F20616761696E2E2E2E0A005765AA
:1000F0006C6C2C20696620796F7520646F6E277494
:100100002077616E7420746861742E2E2E203A2A36
:1001100028200A004F68202E2E2E20697427732075
:100120006F766572210A004E6F7720796F752067B0
:1001300065742074686520756C74696D6174697686
:10014000652072756E6E696E67206C6967687421D0
:100150000A004F4B207468656E2E2E2E206C65743D
:100160002773206D6F7665206F6E210A000A0A548E
:100170006861742773206974210A0A0048657265F2
:1001800020776520676F210A00492077696C6C2011
:100190006769766520796F7520616E6F7468657226
:1001A000206368616E636520746F20656E7465728C
:1001B0002061206E756D6265722E2E2E0A0A002255
:1001C0002E2E2E0A2E2E2E20616E642074686973E6
:1001D00020697320636C6561726C79206E6F742086
:1001E00061206E756D62657221203B2D3E0A0059BB
:1001F0006F7520656E74657265643A220022202155
:1002000020477565737320776861743F204E6F6275
:100210006F64792063617265732E2E2E203B2D2929
:100220000A00536F20796F757220616765206973CA
:100230003A2022002220210A0048656C6C6F20229F
:10024000000A00596F757220696E707574207761AD
:100250007320284279746573293A0A000A0A596F93
:100260007520656E7465726564206D6F72652063BC
:10027000686172616374657273207468616E207066
:100280006F737369626C65210A00446F20796F7522
:100290002077616E7420746F20646F20616C6C2015
:1002A0007468697320616761696E3F202822792232
:1002B000206F7220226E22290A00446F20796F7508
:1002C0002077616E7420746F2073656520626C699D
:1002D0006E6B696E67204C4544733F20282279225B
:1002E000206F7220226E22290A00446F20796F75D8
:1002F0002077616E7420746F2073656520736F6D55
:10030000652054657874206F75747075743F20286B
:10031000227922206F7220226E22290A00486F77EC
:10032000206F6C642061726520796F753F20286DA5
:1003300061782E20332064696769747320706C655E
:10034000617365290A0057686174277320796F7596
:1003500072206E616D653F20286D61782E203332EA
:100360002063686172616374657273290A0054685E
:100370006520526F626F74206E6565647320746FC0
:10038000206265207265736574746564206E6F7792
:100390002E0A0A00596F75206E65656420746F20FF
:1003A000636865636B204D6F746F72206173736552
:1003B0006D626C7920286F7220796F757220736F6F
:1003C000667477617265292E0A0A000A0A28732E5C
:1003D000207461736B5F6D6F746F72436F6E7472B4
:1003E0006F6C28292066756E6374696F6E20696E64
:1003F000205250364C696221290A000A0A2323231D
:10040000204D4F544F52204F56455243555252455E
:100410004E54202323230A00596F75206E656564AE
:1004200020746F20636865636B20456E636F64653D
:10043000722F4D6F746F7220617373656D626C798A
:1004400020286F7220796F757220736F66747761E0
:100450007265292E0A0A00210A0A28732E20746167
:10046000736B5F6D6F746F72436F6E74726F6C2815
:10047000292066756E6374696F6E20696E20525014
:10048000364C696221290A005249474854004C45BC
:100490004654004166666563746564206368616EF6
:1004A0006E656C3A000A23232320454E434F444592
:1004B0005220284F52204D4F544F5229204D414C2D
:1004C00046554E4354494F4E21202323230A0023EF
:1004D0002323232320414C4C204F50455241544963
:1004E0004F4E532053544F5050454420544F2050AA
:1004F000524556454E5420414E592044414D4147A6
:1005000045212023232323230A000A0A232323230C
:100510002320454D455247454E4359205348555495
:10052000444F574E2023232323230A0011241FBEA8
:10053000CFE5D8E0DEBFCDBF10E0A0E6B0E0E6E456
:10054000FFE102C005900D92AA3AB107D9F721E068
:10055000AAEAB0E001C01D92A035B207E1F70E94FF
:10056000FC0E0C94A10F0C940000809160000E947E
:10057000780480916000880F813208F081E08093D8
:10058000600084E690E00E94E2098091C6008472D7
:1005900039F080E00E94780488EC90E00C94E20945
:1005A0000895CF93DF93C0E04C2F6AE08AE690E095
:1005B0000E94F20D80E20E94D30D80E0D1E0D80FBE
:1005C0008C1729F083E20E94D30D8D2FF7CF88EC92
:1005D00090E00E94E2098AE00E94D30DCD2FD5332E
:1005E00019F7DF91CF9108954F925F926F927F92AA
:1005F0008F929F92AF92BF92CF92DF92EF92FF9233
:100600000F931F93CF93DF93CDB7DEB78DB69EB612
:100610008091AA008230D1F05CF4882381F081308F
:10062000E1F48DE193E00E94E30D83E0F82E17C022
:10063000833079F0843089F48AE892E00CC086E453
:1006400093E00E94E30D90E2F92E09C08AEE92E059
:1006500002C08AEB92E00E94E30DFF24F394CF2CBA
:10066000D12CC60101962DB73EB7281B390B0FB60A
:10067000F8943EBF0FBE2DBF0DB71EB70F5F1F4FC3
:100680000E94EC0E5801F801E02E11928E2F801B73
:100690008F15D8F33801412C512C0E94E60E882387
:1006A000E1F30E94A40EF30181933F018A3029F403
:1006B000F801E40DF51D10820FC04F1448F0F80149
:1006C000EC0DFD1D10828CE592E00E94E30D04C04C
:1006D000FFEF4F1A5F0AE1CF8AE00E94D30D83E457
:1006E00092E00E94E30D3801F30181913F016AE03D
:1006F00090E00E940F0E8CE20E94D30D862D8E1981
:100700008F1590F3F801EC0DFD1D80816AE090E0FB
:100710000E940F0E81E492E00E94E30D8091AA00F6
:10072000823039F14CF4882361F0813009F077C0D0
:1007300098012D5F3F4F17C0833059F18430E1F1AC
:100740006EC089E392E00E94E30DC8010E94D70DBC
:1007500084E392E050C080538A3008F04FC0A21664
:10076000B30609F43FC0F50181915F018111F3CF18
:1007700039C0F8018081893749F48CE791E00E9403
:10078000E30D0E94D1028DE691E035C082E591E053
:1007900032C0F8018081893761F487E291E00E94DC
:1007A000E30D14E20E94B5021150E1F784E191E0FB
:1007B00022C08EEE90E01FC0F8018081893731F4AD
:1007C00082ED90E00E94E30D8FEF09C086E990E092
:1007D0000E94E30D8CE790E00E94E30D8EEF809382
:1007E000AA001DC082E292E00E94E30DC8010E94AF
:1007F000D70D8DEF91E00E94E30D11C08FEE91E0D7
:100800000E94E30DC8010E94D70D8FEB91E00E947A
:10081000E30D89E891E00E94E30D1092AA00809117
:10082000AA008F5F8093AA000FB6F8949EBE0FBEF9
:100830008DBEDF91CF911F910F91FF90EF90DF90D0
:10084000CF90BF90AF909F908F907F906F905F9070
:100850004F90089508950895089508958091DB00BC
:10086000843010F01092DB00089584E08093DB0068
:10087000089587B38C7787BB88B38C7788BB8091CA
:10088000C60083FF02C0BF9AC79A8091C60084FF4A
:1008900002C0B99AC19A8091C60085FF02C0B89A79
:1008A000C09A84B38F7884BB85B38F7885BB24B31B
:1008B0009091C60030E1939FC00111248077822B74
:1008C00084BB25B39091C60030E1939FC0011124F1
:1008D0008077822B85BB8091DB00811106C081E08F
:1008E0009091C600911101C080E08093DB000895D3
:1008F0008093C6000C943904C098B898000086B361
:1009000081709091C60095FF02C0B89AC09A089570
:10091000AE98A698000083B380749091C60092FFB1
:1009200002C0A69AAE9A08959093690080936800D9
:100930000895CF93809113018333C0F00E947C040B
:10094000C82F0E9488049091C7009C1304C0909106
:100950002401981749F0C093C70080932401E091C7
:100960006800F0916900099510921301CF910895E4
:1009700036990AC0806487B986ED86B93699FECF6C
:10098000349A84B195B1089580E090E00895806430
:1009900087B986ED86B90895369944C0E091BC00C8
:1009A0008E2F90E08730910598F5FC01E65DFF4FB2
:1009B00084B195B10C944C0F90932801809327013A
:1009C00086E423C090932D0180932C0185E41DC003
:1009D00090931E0180931D0183E417C09093E7005C
:1009E0008093E60082E411C090930D0180930C0186
:1009F00080E40BC090931B0180931A0181E405C031
:100A00009093E5008093E40087E487B986ED86B98A
:100A10008091BC00863019F41092BC0008958F5F5D
:100A20008093BC0008951F920F920FB60F9211246D
:100A30008F939F938091220190912301019690932F
:100A40002301809322018091180190911901019650
:100A500090931901809318019F918F910F900FBE71
:100A60000F901F9018951F920F920FB60F9211249E
:100A70008F939F938091140190911501019690930B
:100A80001501809314018091EE009091EF00019682
:100A90009093EF008093EE009F918F910F900FBE87
:100AA0000F901F90189590936700809366000895AB
:100AB000893C08F088EC90E09093CD008093CC00C6
:100AC000693C08F068EC70E07093CB006093CA005A
:100AD00008958093AB002FEF280F91E0223008F0AB
:100AE00090E09093AF008D7F91E0813009F090E02D
:100AF0009093AE000895292F221F2227221F2093B2
:100B0000AF00771F7727771F7093AE00181619066E
:100B100014F0819561950C9458059091C5009370DF
:100B200081E009F080E008951092CD001092CC0091
:100B30001092CB001092CA001092D7001092D600EB
:100B400010921201109211018091C5008E7F8D7F4D
:100B50008093C50080932601E0916600F0916700C4
:100B60000994633D08F062ED70E07093ED006093CE
:100B7000EC00833D08F082ED90E09093DD008093DF
:100B8000DC0008958093AD006093AC008093AF00CB
:100B90006093AE00882311F0AA9A01C0AA98662338
:100BA00011F0AB9A0895AB9808959091D1009923D4
:100BB00021F099B7906899BFF8CF6F7370E07063B8
:100BC0008F7320E4829FC0011124862B972B909372
:100BD000F1008093F0008091D00080648093D00079
:100BE00008951F920F920FB60F9211248F939F9327
:100BF000809165008230B0F58091BB008823D1F0F0
:100C00008C3338F480910A0190910B0196FF07C054
:100C100008C080910A0190910B0196FF02C097983D
:100C200003C082B3805882BB8091BB008150809307
:100C3000BB0030C08091D1009798882359F18091F2
:100C40000A0190910B01880F991F90930B018093DB
:100C50000A0188E78093BB008091D1008150809386
:100C6000D10018C08091D500882391F08091D000E8
:100C700080FD05C098B380E4892788BB03C085B395
:100C8000805885BB8091D50081508093D50002C0EB
:100C9000C69AAF9A9F918F910F900FBE0F901F90A1
:100CA00018951F920F920FB60F9211248F93809177
:100CB0006500833011F0863079F48091D00084FD96
:100CC0000BC08091D00085FF07C0B29905C080910C
:100CD00025018F5F8093250186B38091D0008D7FA1
:100CE0008093D0008F910F900FBE0F901F9018959A
:100CF00090936400809363000895909362008093C2
:100D0000610008958091E8009091E900029708F44D
:100D10003CC18091D00084FD19C180916500823072
:100D200009F467C028F4882369F0813091F014C178
:100D3000853009F4AFC0863009F4C5C0833009F0AE
:100D40000BC16FC089B78F7789BF9798C69AAF9A42
:100D500003C18091D10081112AC08091D00086FF0B
:100D600014C08091F0009091F10090930B0180935A
:100D70000A018EE08093D1008091D0008F7B809318
:100D8000D00089B7806889BF06C089B78F7789BFCF
:100D90009798C69AAF9A8091BA0091E0980F909375
:100DA000BA00843138F082E08093650003C089B7CF
:100DB000806889BF8091D00083FFCEC0E09163003E
:100DC000F09164008091290190912A010995809108
:100DD000290190912A019093D9008093D800109214
:100DE0002A01109229018091D000877F8093D00042
:100DF000B3C089B78F7789BF9798C69AAF9A109278
:100E0000D500109225011092B9001092B80080917F
:100E1000D0008E7F80628093D00083E08093BA0000
:100E200077C08091D500811110C08091BA0091E007
:100E3000980F9093BA00833040F089B7806889BFDB
:100E400088E28093D5001092BA0080910601882331
:100E500021F080912501823020F480912501863097
:100E600038F01092250181E08093060185E050C0A2
:100E70008091B8009091B9009C012F5F3F4F309353
:100E8000B9002093B8000E9708F466C010920601CE
:100E900085E051C089B78F7789BF9798C69AAF9A76
:100EA0001092D500109225011092B9001092B8004E
:100EB0008091D000816080628093D00083E0809335
:100EC000BA0086E025C08091D500811110C08091C4
:100ED000BA0091E0980F9093BA00833040F089B740
:100EE000806889BF88E28093D5001092BA00809113
:100EF0000F01882321F080912501823020F4809118
:100F00002501863040F01092250181E080930F0189
:100F10008093650021C08091B8009091B9009C0138
:100F20002F5F3F4F3093B9002093B8000E97A0F089
:100F300010920F0181E08093650089B78F7789BF98
:100F40009798C69AAF9A1092D50006C01092B90031
:100F50001092B8001092BA00909106012091B7004B
:100F600080910F01291304C02091B600281749F081
:100F70009093B7008093B600E0916100F091620019
:100F800009951092E9001092E8000895109265000A
:100F900089B78F7789BF9798C69AAF9A10920F0139
:100FA00010920601089589B78F7789BF9798C69ADE
:100FB000AF9A10920F011092060181E080936500B4
:100FC00008958E989698BB98C398C698AF98089540
:100FD0008E9A969ABB98C39808958E989698BB9AC5
:100FE000C39A08958E9A969ABB9AC39A0895C49A02
:100FF0008091DB00843018F483E08093DB00089557
:10100000C4988091DB00843060F4811107C081E0D6
:101010009091C600911103C080E001C081E08093EF
:10102000DB0008951F920F920FB60F9211242F9399
:101030003F934F935F936F937F938F939F93AF9360
:10104000BF93EF93FF938091C3009091C4000196EA
:101050009093C4008093C30080911C018F5F8093A4
:101060001C0180911F0191E0980F90931F0189301E
:1010700008F446C18091F40080FF09C08091F5001A
:101080009091F60001969093F6008093F500809180
:10109000F40081FF09C08091F7009091F80001965B
:1010A0009093F8008093F7008091F40082FF09C0CC
:1010B0008091F9009091FA0001969093FA00809344
:1010C000F9008091F40083FF09C08091FB009091AA
:1010D000FC0001969093FC008093FB008091F4004B
:1010E00084FF09C08091FD009091FE0001969093CD
:1010F000FE008093FD008091F40085FF09C080917F
:10110000FF00909100010196909300018093FF00F1
:101110008091F40086FF09C0809101019091020145
:10112000019690930201809301018091F40087FF62
:1011300009C08091030190910401019690930401EC
:10114000809303018091100191E0980F909310011A
:10115000893CE8F08091EE009091EF00909321019E
:101160008093200180911801909119019093DF00E4
:101170008093DE001092EF001092EE0010921901A1
:101180001092180181E08093DA00109210012091F2
:10119000DB00233008F051C0223079F58091C60081
:1011A00081111FC08091B4009091B500FC0131966F
:1011B000F093B500E093B40068EC70E00E94160F65
:1011C000892BD9F5E13AFF4028F0B998C1981092DF
:1011D000DB0029C087B3822787BB88B3282728BBB9
:1011E0002CC084FD02C0B998C1981092B50010922D
:1011F000B40081E08093DB0020C08091B400909126
:10120000B500813E3EE2930798F0213049F41092F8
:10121000DB008091C60084FD06C0B998C19803C068
:1012200082E08093DB001092B5001092B40005C0FC
:1012300001969093B5008093B4008091E80090915E
:10124000E900039748F48091E8009091E900019645
:101250009093E9008093E80080910801873318F4A7
:101260008F5F8093080180911301843328F480916B
:1012700013018F5F8093130180910E0191E0980F0D
:1012800090930E018330D0F180910901482F50E0F6
:101290002091EC003091ED004217530759F04217AE
:1012A000530714F48F5F01C081508093090180912E
:1012B00009018ABD80912B01482F50E02091DC006C
:1012C0003091DD004217530759F04217530714F4C9
:1012D0008F5F01C0815080932B0180912B0188BDCD
:1012E00080912B01811104C080910901882319F09C
:1012F00082EA8FBD01C01FBC10920E0110921F0127
:101300003091D00033FD46C08091B2009091B3007F
:101310002091B1002F5F2093B100263198F096FD07
:101320000AC095FF08C090932A0180932901832F5A
:1013300088608093D0008091D0008F7E8093D00011
:1013400080E090E03091B00046B3432742FF1EC0DA
:1013500030953093B000273040F48091D0008F7EDC
:101360008093D00080E090E004C0009711F02F300F
:1013700068F02091D00020612093D00096FD02C03B
:10138000880F991F32FF81601092B1009093B300D3
:101390008093B200FF91EF91BF91AF919F918F9198
:1013A0007F916F915F914F913F912F910F900FBE61
:1013B0000F901F90189510921C0190911C01981786
:1013C000E0F30895CF93DF93EC01209729F08AE0B2
:1013D0000E94DB092197F9CFDF91CF910895019702
:1013E00010F00000FCCF0895C82FF89497980E9441
:1013F000E1071092DD001092DC001092ED001092D7
:10140000EC001092D7001092D600109212011092A8
:10141000110110922B01109209011ABC18BC1FBCBB
:101420000E9400088AE095E00E94E30D8FEC94E0B2
:101430000E94E30D8FEF8C0F8230C0F485EA94E0B8
:101440000E94E30D83E994E00E94E30DC13019F49A
:101450008EE894E002C088E894E00E94E30D87E5FE
:1014600094E00E94E30D88E194E00CC0C33061F485
:101470008BEF93E00E94E30D8BEC93E00E94E30D71
:1014800084E993E00E94E30D8EE693E00E94E30D71
:10149000D6E3D093C6000E943904CAE080E090E809
:1014A0000E94EF09C150D1F71092C6000E94390482
:1014B000CAE08FEF9FEF0E94EF09C150D1F7E9CF4B
:1014C00080910801823308F474C010920801809161
:1014D000050120912C0130912D0181113BC080919B
:1014E000C500233043E0340738F440911D0150918A
:1014F0001E0143305340E0F0909107019F5F9093AD
:1015000007019AE0909305011092DD001092DC0033
:101510001092ED001092EC001092D7001092D600BD
:10152000109212011092110184608093C5000895F9
:101530008B7F8093C5008091D200853628F0109271
:1015400007011092D20006C080910701833010F08D
:1015500083E014C02639310598F48091DE00909123
:10156000DF00892B69F48091CC009091CD00892B0C
:1015700039F080912B01873918F081E00E94F4093D
:1015800080911D0190911E018639910590F4809102
:10159000200190912101892B61F48091CA009091E2
:1015A000CB00892B31F080910901873910F082E05E
:1015B000E5CF8091DA00882309F484C18091050188
:1015C00081117BC180910701882331F08091D20085
:1015D0008F5F8093D20002C01092D2008091C5002C
:1015E00081FF35C040912201509123012091C80014
:1015F0003091C9004217530780F01092CD0010922D
:10160000CC001092D7001092D6001092DD001092FC
:10161000DC008D7F8093C5001AC02091220130919B
:1016200023018091E0009091E1002817390778F0BC
:101630008091CC009091CD0096958795863191054B
:1016400010F486E190E09093CD008093CC008091DF
:10165000C50080FF35C040911401509115012091C3
:10166000EA003091EB004217530780F01092CB0054
:101670001092CA0010921201109211011092ED0006
:101680001092EC008E7F8093C5001AC02091140147
:101690003091150180911601909117012817390793
:1016A00078F08091CA009091CB009695879586310D
:1016B000910510F486E190E09093CB008093CA00EE
:1016C0008091AF009091AD00891307C02091AE00CA
:1016D0009091AC00291709F451C04091CC00509171
:1016E000CD002091CA003091CB004115510519F46D
:1016F0002115310501F15093CF004093CE00309376
:10170000E3002093E2001092CD001092CC001092E2
:10171000CB001092CA001092ED001092EC001092D3
:10172000DD001092DC001092D7001092D6001092CB
:101730001201109211019FB5911120C06091AE006D
:101740000E94C2052091CE003091CF003093CD0091
:101750002093CC008091E2009091E3009093CB0025
:101760008093CA00369527953093D7002093D600F2
:101770009695879590931201809311012091CC004A
:101780003091CD008091DE009091DF00A901481BCF
:10179000590B8091D6009091D700840F951F853A00
:1017A00041E0940714F084EA91E09093D70080938D
:1017B000D6008091D6009091D7008C359E4F34F49E
:1017C0008CE59EEF9093D7008093D6008091DE0049
:1017D0009091DF00892B31F4232B21F41092D70054
:1017E0001092D6008091D6009091D70097FD019677
:1017F00095958795833D910514F082ED90E0909347
:10180000DD008093DC008091DC009091DD0097FF8B
:1018100004C01092DD001092DC002091CA003091CB
:10182000CB008091200190912101A901481B590B07
:101830008091110190911201840F951F853A41E02A
:10184000940714F084EA91E09093120180931101BF
:1018500080911101909112018C359E4F34F48CE5EA
:101860009EEF90931201809311018091200190913D
:101870002101892B31F4232B21F4109212011092B3
:101880001101809111019091120197FD019695959A
:101890008795833D910514F082ED90E09093ED00E3
:1018A0008093EC008091EC009091ED0097FF08C0D0
:1018B0001092ED001092EC0003C08150809305015E
:1018C0001092DA008091C50090912601981739F0A6
:1018D00080932601E0916600F091670009940895D5
:1018E000D49ADC9A0895DC98D49808950E94CC0488
:1018F0000E9482060E9499040C94600AEF92FF9263
:101900001F93CF93DF931F92CDB7DEB7162F7A01C7
:101910009091C500916092609093C500109217015C
:10192000109216011092E1001092E000873180F0D1
:1019300046EF5FEF481B5109440F551F4E0D5F1DC9
:1019400050931701409316015093E1004093E0003B
:10195000A701425051095093EB004093EA00509385
:10196000C9004093C80098E2E916F104C0F444E1CC
:1019700050E05093EB004093EA005093C90040932D
:10198000C8004AE050E0509317014093160150936D
:10199000E1004093E00048E2E42EF12C05C090E91C
:1019A000E91691E0F90698F4893288F0C701969516
:1019B000879596958795A701481B590B509317015A
:1019C000409316015093E1004093E00088E21092AA
:1019D0002301109222011092150110921401682F18
:1019E00029830E945805812F0E946905F092F30017
:1019F000E092F200F092D400E092D3008091C50012
:101A000080932601E0916600F09167000995298195
:101A1000222339F00E948D05811103C00E94760CAB
:101A2000F9CF0F90DF91CF911F91FF90EF90089524
:101A3000FF920F931F93CF93DF93182FF62E022F51
:101A40009091C500916092609093C5009A01A0EBBF
:101A5000B2E00E94520F24E630E040E050E00E94E5
:101A60002A0FE901F901E456F109F0931701E09317
:101A70001601F093E100E093E0003093EB00209337
:101A8000EA003093C9002093C80028323105B0F431
:101A900044E150E05093EB004093EA005093C900BA
:101AA0004093C8004AE050E050931701409316015C
:101AB0005093E1004093E000C8E2D0E0612F812F15
:101AC0000E9458058F2D0E946905109223011092E3
:101AD00022011092150110921401D093F300C093CB
:101AE000F200D093D400C093D3008091C5008093BE
:101AF0002601E0916600F09167000995002339F016
:101B00000E948D05811103C00E94760CF9CFDF91F0
:101B1000CF911F910F91FF900895CF931BBA18BAE0
:101B200015BAC1E0C2BB1ABA88E587BB8CE884BB92
:101B300082EF81BBF894C598BD9A97980E94E107FF
:101B400010BC8CE089B91BB886E880BD88E98AB9E9
:101B500017B886E186B910BE85E085BF80EE8BBFE1
:101B600014BE8AE083BF83E68CBF82EA8FBD81E129
:101B70008EBD82ED90E097BD86BD1ABC18BC60E0BA
:101B800080E00E94C20589E085BD8EE683BD82E0CB
:101B900089BF8091D00081608093D000C0936500A0
:101BA0007894CF9108955D9BFECF8CB90895CF9323
:101BB000DF93EC018991882319F00E94D30DFACFAD
:101BC000DF91CF910895CF93DF93FC018491EF01D2
:101BD0002196882321F00E94D30DFE01F7CFDF91DB
:101BE000CF9108950F931F93CF93DF931F92CDB79B
:101BF000DEB78C01040F111DF80181918F0188233C
:101C000041F0662331F069830E94D30D69816150F0
:101C1000F3CF0F90DF91CF911F910F910895CF9344
:101C2000DF93CDB7DEB761970FB6F894DEBF0FBE76
:101C3000CDBF462F50E0BE016F5F7F4F0E94610F06
:101C4000CE0101960E94D70D61960FB6F894DEBFC3
:101C50000FBECDBFDF91CF910895EF92FF920F930A
:101C60001F93CF93DF93CDB7DEB761970FB6F8948C
:101C7000DEBF0FBECDBF042F462F50E09E012F5F69
:101C80003F4F7901B9010E94610FF70101900020D7
:101C9000E9F73197EE19FF09102F1E1B111654F4A6
:101CA000115080E30E94D30D1111FACFC7010E9499
:101CB000D70D06C0412F4195602FC7010E94F20D3C
:101CC00061960FB6F894DEBF0FBECDBFDF91CF9106
:101CD0001F910F91FF90EF9008951F920F920FB6F2
:101CE0000F9211242F938F939F93EF93FF938091E3
:101CF000BD009091BE00282F291B2032A8F4E0914E
:101D0000BF0091E09E0F9093BF00F0E02CB1E15D29
:101D1000FE4F20838F5F8093BD00913210F01092B0
:101D2000BF0010922E0106C08CB18093C20081E0EA
:101D300080932E01FF91EF919F918F912F910F90A2
:101D40000FBE0F901F90189510922E018091BE002B
:101D50009091BD009817A1F08F5F8093BE00809195
:101D6000C000813210F01092C000E091C00081E00C
:101D70008E0F8093C000F0E0E15DFE4F80810895FA
:101D800080E0089510922E01282FDC018A2F821BFB
:101D90009091BE003091BD003917B9F08617A8F4B4
:101DA0009F5F9093BE00E091C00081E08E0F809312
:101DB000C000F0E0E15DFE4F80818D938091C00016
:101DC000813220F31092C000E1CF08958091BD00D0
:101DD0009091BE00891B089557988CB18093C100E3
:101DE0001092C0001092BF001092BE001092BD0071
:101DF00010922E01579A08950E948D0D8FE30E9434
:101E0000780484EF91E00E94E20980E00E94780467
:101E100082E690E00E94E30D8091AA008F3F19F0C6
:101E20000E94F402F9CF0E94B502F6CFAA1BBB1B99
:101E300051E107C0AA1FBB1FA617B70710F0A61BCA
:101E4000B70B881F991F5A95A9F780959095BC01EB
:101E5000CD010895A1E21A2EAA1BBB1BFD010DC0E6
:101E6000AA1FBB1FEE1FFF1FA217B307E407F5074A
:101E700020F0A21BB30BE40BF50B661F771F881F26
:101E8000991F1A9469F760957095809590959B01BC
:101E9000AC01BD01CF010895EE0FFF1F0590F49135
:101EA000E02D0994A29FB001B39FC001A39F700DC4
:101EB000811D1124911DB29F700D811D1124911D52
:101EC00008954532510520F4423010F00C946C0F07
:101ED000FB011082CB010895BB274A3031F49923CE
:101EE00022F4BDE2909581959F4F0C94780FBB270B
:101EF000FB015527AA27880F991FAA1FA41710F0C6
:101F0000A41B83955051B9F7A05DAA3308F0A95DD1
:101F1000A193009779F7B111B1931192CB010C9471
:101F2000910FDC01FC01672F71917723E1F7329764
:101F300004C07C916D9370836291AE17BF07C8F3A4
:061F40000895F894FFCFA4
:101F4600012D042C04012B042A0431323334353696
:101F5600373839306162636465666768696A6B6CD5
:101F66006D6E6F707172737475767778797A414297
:101F7600434445464748494A4B4C4D4E4F505152B3
:0A1F8600535455565758595A00009D
:00000001FF
