:100000000C942F010C9437040C9464040C94910408
:100010000C944C010C944C010C944C010C944C012C
:100020000C944C010C944C010C9436070C944C012C
:100030000C944C010C94C3080C944C010C944C018E
:100040000C944C010C944C010C944C010C94C10D7B
:100050000C944C0100414353205374617475733AFE
:10006000004578616D706C652050726F6772616DCC
:100070002033004932432D4D617374657200232390
:100080002323232323232323232323232323002363
:100090002323232323232323232323232323230053
:1000A0000A496E7465727275707473202D207061C8
:1000B000727420322E2E2E0A000A0A525036204325
:1000C0004F4E54524F4C204D333220493243204D35
:1000D0006173746572204578616D706C6520507233
:1000E0006F6772616D210A000A49324320455252FE
:1000F0004F52202D205457492053544154453A2003
:1001000030780023002A00207C204144313A00202E
:100110007C204144303A00207C204241543A002067
:100120007C204D43523A00207C204D434C3A002025
:100130007C204C53523A004C534C3A00207C2044D3
:100140005354523A004453544C3A00207C204452B9
:100150003A00207C20444C3A00207C2056523A0041
:10016000207C20564C3A00207C2050523A00504CC3
:100170003A000A526561642053656E736F722056AF
:10018000616C7565733A0A000A426174746572792C
:1001900020566F6C74616765206973204F4B210A8C
:1001A00000560A000A4261747465727920566F6CB9
:1001B00074616765206C6F773A2000207C204B6566
:1001C0007920436F64653A00207C2044657669633A
:1001D0006520416464726573733A0052433520525E
:1001E0006563657074696F6E202D2D3E20546F67B6
:1001F000676C65204269743A0046524545210052B9
:100200004947485421004C45465421004D49444437
:100210004C45210042756D70657273206368616E94
:100220006765643A20004D4944002020204D494430
:10023000444C452100524947485400207C20523A02
:1002400020004C454654004143532073746174654B
:10025000206368616E676564204C3A2000001124B9
:100260001FBECFE5D8E0DEBFCDBF10E0A0E6B0E016
:10027000ECE0F0E202C005900D92A637B107D9F785
:1002800011E0A6E7B0E001C01D92AE35B107E1F77D
:100290000E94CC020C9404100C9400001F93182FA1
:1002A00088EE90E00E94AA08812F90E060E10E9411
:1002B00052098AE00E949C081F9108950F931F9392
:1002C0008C018BED91E00E94AA08812F869586957E
:1002D00086958170805D0E949C0888EC91E00E9468
:1002E000AA08802F82958695869583701770110FC6
:1002F000110F812B90E06AE00E9452098BEB91E094
:100300000E94AA08802F8F7390E06AE00E94520931
:100310008AE00E949C081F910F91089584E192E069
:100320000E94AA0890914901992381F080911A01B5
:10033000882361F08CE092E00E94AA0888EC64E6D1
:1003400070E00E94DF0784E690E018C080911A01F7
:100350008823B9F086E092E00E94AA0888EC62E364
:1003600070E00E94DF078CE390E00E94090886E9B4
:1003700064E170E00E94DF0784E190E00E940908D8
:1003800009C0992319F08FEF91E0E6CF89EF91E052
:100390000E94AA088AE00E949C0808950E94D7093A
:1003A000089580917600882341F080E06EE041E07E
:1003B0000E94AC0610927600089580E06EE00E94E4
:1003C0008D0683E091E00E945D0681E080937600D7
:1003D00008950E947C0A82E791E00E94AA088EE6B6
:1003E00091E00E94AA088091350190E06AE043E024
:1003F0000E94740987E691E00E94AA0880913B015F
:1004000090E06AE043E00E94740980E691E00E9477
:10041000AA088091360190E06AE043E00E947409E6
:1004200089E591E00E94AA088091480190E06AE085
:1004300043E00E94740982E591E00E94AA0880913D
:10044000340190E06AE043E00E9474098BE491E09B
:100450000E94AA088091330190E06AE043E00E9484
:1004600074098AE00E949C0885E491E00E94AA0831
:1004700080914601909147016AE045E00E9474092D
:100480008CE391E00E94AA08809140019091410183
:100490006AE045E00E9474098AE00E949C0887E3B4
:1004A00091E00E94AA088091390190913A016AE096
:1004B00044E00E9474098FE291E00E94AA088091B2
:1004C0003D0190913E016AE044E00E94740987E298
:1004D00091E00E94AA0880914C0190914D016AE040
:1004E00044E00E9474098FE191E00E94AA08809183
:1004F0004401909145016AE044E00E94740987E15B
:1005000091E00E94AA0880914A0190914B016AE013
:1005100044E00E9474098FE091E00E94AA08809153
:100520004201909143016AE044E00E94740987E02F
:1005300091E00E94AA0880913701909138016AE009
:1005400044E00E9474098AE00E949C08089580910A
:10055000E3009091E400855F9140E8F0809177009E
:10056000882341F080E06FE041E00E94AC061092E9
:1005700077000DC080E06FE00E948D0685E091E07D
:100580000E945D0681E0809377000E94E90110924D
:10059000E4001092E30008950E941E080E94D60510
:1005A00089EB90E00E94AA0880EA90E00E94AA08E5
:1005B00086E993E00E94C6098EE891E00E94B409A2
:1005C0008EE591E00E94C0098CE493E00E94CC0982
:1005D00081ED91E00E94D20988E40E94FF0A8EEC2E
:1005E00091E00E940E0B8EE491E00E94140B84EBCC
:1005F00060E570E00E94DF0789E690E00E9409084C
:100600008CED60E570E00E94DF0789E690E00E94D3
:1006100009088FE00E9495058FE890E06EE770E092
:100620000E94950684EF91E00E94090883E790E01C
:1006300061E670E00E94950688EE93E00E9409084A
:1006400080E00E9495058AE060E049E022E00E9497
:10065000160D8AE060E04BE021E00E94160D8AE072
:1006600060E04CE021E00E94160D85E590E064E535
:1006700070E00E9495068091E20081608093E20024
:100680008091E20082608093E2000E94A7020E94B3
:100690006C0A0E94290BF9CF882309F442C084EA2E
:1006A00091E00E94AA0860914A0170914B0180E09C
:1006B00090E00E94310F2DEC3CEC4CEC52E40E9497
:1006C000980E2DEC3CEC4CEC5DE30E94340E0E9445
:1006D000000FDC01CB016AE042E00E9474098EE267
:1006E0000E949C0860914A0170914B0180E090E06B
:1006F0000E94310F2FE632E143E85FE30E94980E3B
:1007000020E030E040E251E40E94340E0E94000FED
:10071000DC01CB016AE042E00E94740981EA91E0C9
:1007200002C088E891E00E94AA08089587E492E058
:100730000E94AA0880913C01882361F08FE60E9404
:100740009C0881E06CE00E948D0682E492E00E94A9
:100750005D0608C080E20E949C0881E06CE044E0F5
:100760000E94AC068BE392E00E94AA088091CB0025
:1007700086FF0CC08FE60E949C0881E060E00E942A
:100780008D0685E392E00E945D0608C080E20E942B
:100790009C0881E060E045E00E94AC0680913C014D
:1007A0008823B9F080913F01882399F08091F3006C
:1007B000807F86608093F3008AE292E00E94AA081C
:1007C00081E067E00E948D0686E292E00E945D066D
:1007D0000AC08091F300807F8093F30081E067E09E
:1007E00043E00E94AC0680913C01882329F080916F
:1007F000F30088608093F30080913F01882329F003
:100800008091F30081608093F3000E948B058091BA
:100810003C018823A9F080913F01882341F08CE8B6
:100820006AE070E00E94DF078AE090E014C084E68E
:1008300065E070E00E94DF0785E090E00E94090813
:1008400080913F01882349F088E765E070E00E94CD
:10085000DF0785E090E00E9409088AE00E949C087A
:1008600008950895909365008093640008951F9201
:100870000F920FB60F9211242F933F934F935F93D4
:100880006F937F938F939F93AF93BF93EF93FF9358
:10089000E0916400F09165000995FF91EF91BF919F
:1008A000AF919F918F917F916F915F914F913F9108
:1008B0002F910F900FBE0F901F9018950895909351
:1008C00063008093620008951F920F920FB60F92FB
:1008D00011242F933F934F935F936F937F938F9345
:1008E0009F93AF93BF93EF93FF93E0916200F091DA
:1008F00063000995FF91EF91BF91AF919F918F9107
:100900007F916F915F914F913F912F910F900FBE0B
:100910000F901F9018950895909361008093600048
:1009200008951F920F920FB60F9211242F933F93A9
:100930004F935F936F937F938F939F93AF93BF93E7
:10094000EF93FF93E0916000F09161000995FF91B2
:10095000EF91BF91AF919F918F917F916F915F9137
:100960004F913F912F910F900FBE0F901F901895B0
:10097000369B03C020E030E009C0806487B986ED73
:1009800086B93699FECF349A24B135B1C90108959C
:100990008FB9779BFECF08958FEF8FB9779BFECFEE
:1009A0008FB108958FEF8FB9779BFECF3FB18FEF57
:1009B0008FB9779BFECF2FB1932F80E030E0282BAB
:1009C000392BC90108959FB9779BFECF8FB9779BCB
:1009D000FECF0895FC0190E006C080818FB9779B1F
:1009E000FECF9F5F31969617C0F30895FC0190E00B
:1009F0002FEF06C02FB9779BFECF8FB181939F5FFA
:100A00009617C0F308959C01C09883E08FB9779B37
:100A1000FECFC9010E94E3048FEF8FB9779BFECF11
:100A20008FB1C09A08951F93CF93DF939C01EB0180
:100A3000142FC09883E08FB9779BFECFC9010E9425
:100A4000E304CE01612F0E94F604C09ADF91CF919A
:100A50001F910895C09886E08FB9779BFECFC09A0A
:100A60000895C09884E08FB9779BFECFC09A08950F
:100A7000C09885E08FB9779BFECF8FEF8FB9779BBA
:100A8000FECF8FB1C09A0895FF920F931F93CF931B
:100A9000DF93EC01162F072FF42E0E94380580FDFE
:100AA000FCCF0E942A05C09882E08FB9779BFECFC9
:100AB000CE010E94E304812F902F9C01F90190E068
:100AC00006C080818FB9779BFECF9F5F31969F15BF
:100AD000C0F3C09ADF91CF911F910F91FF900895BD
:100AE0001F93CF93DF93EC01162F0E94380580FDF2
:100AF000FCCF0E942A05C09882E08FB9779BFECF79
:100B0000CE010E94E3041FB9779BFECFC09ADF910C
:100B1000CF911F9108958091F3008FB9779BFECFFD
:100B2000949A00000000949808958F709091F300BB
:100B3000907F982B9093F3000E948B0508958295E7
:100B4000807F9091F3009F70982B9093F3000E9408
:100B50008B05C49A82E390E001C0000001972FEF5B
:100B60008F3F9207D1F7C49808951F93182F82954D
:100B70008F700E949F05812F0E949F0586E990E05B
:100B800001C0000001972FEF8F3F9207D1F71F910F
:100B90000895C3980E94B50586E990E001C0000061
:100BA00001972FEF8F3F9207D1F7089583E00E94BE
:100BB0009F0580E596E401C0000001972FEF8F3F6D
:100BC0009207D1F783E00E949F058CE795E101C071
:100BD000000001972FEF8F3F9207D1F783E00E942B
:100BE0009F058CE795E101C0000001972FEF8F3F33
:100BF0009207D1F782E00E949F058CE795E101C042
:100C0000000001972FEF8F3F9207D1F788E20E94F3
:100C1000C9058CE795E101C0000001972FEF8F3FD8
:100C20009207D1F788E00E94C9058CE795E101C0E1
:100C3000000001972FEF8F3F9207D1F781E00E94CC
:100C4000C9058CE795E101C0000001972FEF8F3FA8
:100C50009207D1F782E00E94C9058CE795E101C0B7
:100C6000000001972FEF8F3F9207D1F78CE00E9491
:100C7000C9058CE795E101C0000001972FEF8F3F78
:100C80009207D1F7089581E00E94C9058CE795E1AC
:100C900001C0000001972FEF8F3F9207D1F7089511
:100CA000C39A0E94B50582E390E001C0000001975D
:100CB0002FEF8F3F9207D1F70895CF93DF93EC0189
:100CC00002C00E945006FE01219684918823C9F734
:100CD000DF91CF910895CF93DF93EC0103C021966C
:100CE0000E94500688818823D1F7DF91CF91089523
:100CF0001F93CF93DF93162FEC01C40FD11D04C0B7
:100D000021960E94500611508881882311F01123EA
:100D1000B9F7DF91CF911F9108956068813009F490
:100D2000605C862F0E94C9050895EF92FF920F9391
:100D30001F938C017B010E944306C8010E945D063F
:100D400081E060E00E948D06C7010E945D061F9150
:100D50000F91FF90EF9008951F93142F0E948D061E
:100D600004C080E20E94500611501123D1F71F9158
:100D70000895CF93DF9381E00E94B804EC0183E0F3
:100D8000CC3FD80778F400000000000081E00E940A
:100D9000B804C80FD91FD695C795C233D10510F432
:100DA00081E018C082E0C434D80710F482E012C099
:100DB00082E0CC3BD80710F483E00CC083E0C6315E
:100DC000D80710F484E006C0CE53D34010F080E082
:100DD00001C085E0DF91CF9108958091790088234B
:100DE00041F00E94B906882311F41092790080E046
:100DF00008950E94B9068093790008951F93109179
:100E00007800112349F00E94B906882311F010E000
:100E100007C01092780004C00E94B9068093780041
:100E2000812F1F910895D09AD89821E030E007C013
:100E30001092F4008091F40090E00C97DCF32150C4
:100E400030408FEF2F3F380799F7D0980895CF9310
:100E5000DF9380E00E94B804EC018530910510F02A
:100E60000E941307CE01DF91CF9108951F920F9238
:100E70000FB60F9211248F939F938091CC00909185
:100E8000CD0001969093CD008093CC008091F4002A
:100E90008F5F8093F4008091F5008F5F8093F50061
:100EA0008150893008F484C08091E20080FF09C03D
:100EB0008091E3009091E40001969093E400809388
:100EC000E3008091E20081FF09C08091E5009091EC
:100ED000E60001969093E6008093E5008091E200A1
:100EE00082FF09C08091E7009091E80001969093FD
:100EF000E8008093E7008091E20083FF09C08091C1
:100F0000E9009091EA0001969093EA008093E9004D
:100F10008091E20084FF09C08091EB009091EC0089
:100F200001969093EC008093EB008091E20085FFA6
:100F300009C08091ED009091EE0001969093EE0033
:100F40008093ED008091E20086FF09C08091EF0060
:100F50009091F00001969093F0008093EF008091C3
:100F6000E20087FF09C08091F1009091F2000196A4
:100F70009093F2008093F1008091D00080FF16C022
:100F80008091F6009091F700892B39F415BC80917F
:100F9000D0008E7F8093D00009C08091F6009091A0
:100FA000F70001979093F7008093F6001092F500F8
:100FB0009F918F910F900FBE0F901F901895909159
:100FC000D00091609093D0007093F7006093F6008A
:100FD000809583BD8EE185BD08959091D0009E7F60
:100FE0009093D000982F909593BD882319F08EE1AF
:100FF00085BD089515BC08951092F400282F30E0A7
:101000002F5F3F4F8091F40090E028173907D4F705
:1010100008959C0109C01092F4008091F40090E0C2
:101020000C97DCF32150304021153105A1F70895CC
:1010300002C0000001970097E1F708951BBA87E00E
:1010400088BB8CEF85BB81E682BB1ABA8BEB87BB72
:1010500014BA82E981BBF89410BC89E189B91BB844
:1010600086E880BD88E98AB917B886E186B910BEDE
:101070008FE085BF1BBE14BE8AE083BF87EC8CBFA8
:1010800015BC8FEF83BD82E089BF80E58DB981E01B
:101090008EB9789408950F931F93462F01ED10E0B9
:1010A000B80150E00E94BF0FC8010E946B061F915B
:1010B0000F910895EF92FF920F931F93DF93CF93B9
:1010C000CDB7DEB761970FB6F894DEBF0FBECDBFC8
:1010D000262F042F7E010894E11CF11CB701422F3A
:1010E00050E00E94BF0FF70101900020E9F731970F
:1010F000EE19FF09102F1E1B11165CF4115080E32E
:101100000E9450061123D1F7CE0101960E946B0672
:1011100006C01195C701602F412F0E947806619685
:101120000FB6F894DEBF0FBECDBFCF91DF911F91F8
:101130000F91FF90EF9008955D9BFECF8CB90895BD
:10114000FC0104C05D9BFECF31968CB98081882361
:10115000C9F7089503C05D9BFECF2CB9FC01019631
:1011600024912223C1F70895FC01E40FF11D05C06D
:101170005D9BFECF31968CB961508081882311F040
:101180006623B1F708951F920F920FB60F921124A4
:101190002F938F939F93EF93FF9320917D008091E6
:1011A0007C00922F981B9032A8F480917B00E82F4E
:1011B000F0E09CB1E750FF4F90838F5F80937B00FE
:1011C0002F5F20937D00813210F010927B001092EF
:1011D000F80006C08CB180937F0081E08093F80016
:1011E000FF91EF919F918F912F910F900FBE0F90D4
:1011F0001F9018951092F80090917C0080917D00CE
:10120000891711F4E0E013C09F5F90937C008091F8
:101210007A00813210F010927A0080917A00E82FE3
:10122000F0E0E750FF4FE0818F5F80937A008E2FD0
:1012300008951092F800DC0120E014C09F5F9093A5
:101240007C0080917A00E82FF0E0E750FF4F90811A
:101250009C938F5F80937A00813210F010927A0015
:101260002F5F119690917C0080917D00891711F07D
:10127000261720F3822F089580917D0090917C00A5
:10128000891B089557988CB180937E0010927A0044
:1012900010927B0010927C0010927D001092F8005A
:1012A000579A08950F931F93DF93CF93CDB7DEB76F
:1012B00061970FB6F894DEBF0FBECDBF462F8E01EB
:1012C0000F5F1F4FB80150E00E94BF0FC8010E947E
:1012D000A00861960FB6F894DEBF0FBECDBFCF91C8
:1012E000DF911F910F910895FF920F931F93DF934A
:1012F000CF93CDB7DEB761970FB6F894DEBF0FBEC0
:10130000CDBF262FF42E8E010F5F1F4FB801422F45
:1013100050E00E94BF0FF80101900020E9F73197DB
:10132000E01BF10B4F2D4E1B141664F480E341506B
:101330005D9BFECF8CB94423D1F7CE0101960E946C
:10134000A00805C04195C8016F2D0E94B4086196A0
:101350000FB6F894DEBF0FBECDBFCF91DF911F91C6
:101360000F91FF900895089590936900809368000D
:1013700008950895909371008093700008950895E2
:1013800090936B0080936A0008950895909367008E
:10139000809366000895089590936D0080936C008B
:1013A0000895089590936F0080936E0008950F93B1
:1013B0001F93DF93CF9300D0CDB7DEB7882311F012
:1013C00080E083C08EE491E063E00E94E60B209110
:1013D0004E018091CB0082272093CB00082F10E094
:1013E000C80180769070892B81F022952695277010
:1013F000822F817080933C012695217020933F01BC
:10140000E0916600F09167000995C80186709070C0
:10141000892B81F08091CB008695982F91709093C5
:101420001A018695817080934901E0916800F091DE
:101430006900099503FF1CC08AE06BE10E94BB0CA8
:101440008AE0BE016F5F7F4F42E00E943C0C298121
:1014500030E086E0220F331F8A95E1F78A8190E021
:10146000282B392BE0916A00F0916B00C901099596
:1014700000FF1DC08AE065E10E94BB0C8AE0BE014E
:101480006F5F7F4F42E00E943C0C9A8180E029818F
:1014900030E0822B932B90934B0180934A018091F3
:1014A000CB00E0916C00F0916D0081700995809106
:1014B0004F018093CF0083FF05C0E0916E00F09153
:1014C0006F0009951092800081E00F900F90CF91EE
:1014D000DF911F910F91089580918000882359F426
:1014E000829B09C081E0809380008AE060E040E058
:1014F00023E00E94C20B08958AE063E04BE151E0D3
:1015000028E10E94010C80911B018093350180919C
:101510001C0180933B0180911D01809336018091D5
:101520001E018093480180911F01809334018091B6
:101530002001809333019091220180E020912101CC
:10154000820F911D90934701809346019091240151
:1015500080E020912301820F911D9093410180939F
:1015600040019091260180E020912501820F911D7C
:1015700090933A01809339019091280180E0209165
:101580002701820F911D90933E0180933D01909120
:101590002A0180E020912901820F911D90934D0135
:1015A00080934C0190912C0180E020912B01820FBF
:1015B000911D909345018093440190912E0180E00C
:1015C00020912D01820F911D90934B0180934A0130
:1015D0009091300180E020912F01820F911D909316
:1015E0004301809342019091320180E020913101CA
:1015F000820F911D90933801809337010895F894DC
:1016000080B911B88FEF83B984E086BF80918100E3
:101610008160809381007894089508959093730079
:1016200080937200089508959093750080937400DC
:101630000895DF93CF930F92CDB7DEB786E9898304
:101640008981815089838F5FD9F70F90CF91DF9186
:101650000895DF93CF930F92CDB7DEB706B600FCA7
:101660006EC08091810080FF4EC0809188008823E9
:1016700009F465C08130C9F486E989838981815084
:1016800089838F5FD9F792E09093CA00809183009D
:1016900080938A008091840080938B001092810057
:1016A00085EA86BF909388004AC08230D9F486E9E3
:1016B00089838981815089838F5FD9F780918500E3
:1016C0008F5F8093CA008091830081608093830044
:1016D00080938A001092810085EA86BF83E0809320
:1016E00088002DC0833059F51092880080918600C3
:1016F000909187002FEF8F3F920709F1E0917200E0
:10170000F09173001BC006B600FCFDCF90918200E3
:101710009923A9F0109288008091810081608093C4
:101720008100109283001092870010928600109220
:101730008500E0917400F0917500892F09950F9054
:10174000CF91DF910895FF920F931F93182F062FCB
:10175000F42E02C00E94290B06B600FCFBCF80913C
:1017600088008823B9F782E0809388001093830073
:101770000093860010928700F09285001F910F91D0
:10178000FF900895EF92FF920F931F93E82E162F6C
:10179000042FF22E02C00E94290B06B600FCFBCFDC
:1017A000809188008823B9F781E0809388001093A6
:1017B000860010928700E092830000938400F092EC
:1017C00085001F910F91FF90EF9008959C0106B640
:1017D00000FCFDCF8091810080FF0CC0EBE9F0E0C0
:1017E000D90170E06E0F7F1F02C081918D93E617C3
:1017F000F707D9F7089506B600FCFDCF8091820067
:101800000895FF920F931F93CF93DF93082FF62E27
:10181000EA01122F02C00E94290B06B600FCFBCF82
:10182000809188008823B9F781E080938800009335
:1018300083008FEF9FEF9093870080938600F09254
:1018400084001093850002C00E94290B06B600FC9C
:10185000FBCF809188008823B9F78091810080FFB9
:1018600005C01F5FCE01612F0E94E60BDF91CF9173
:101870001F910F91FF900895EF92FF920F931F9386
:10188000DF93CF930F92CDB7DEB7082F7B01142FD4
:1018900002C00E94290B06B600FCFBCF8091880095
:1018A0008823B9F786E989838981815089838F5F8D
:1018B000D9F782E080938800009383008FEF9FEF39
:1018C00090938700809386001093850002C00E9449
:1018D000290B06B600FCFBCF809188008823B9F75E
:1018E0008091810080FF05C01F5FC701612F0E94AA
:1018F000E60B0F90CF91DF911F910F91FF90EF902A
:1019000008951F93DF93CF930F92CDB7DEB7182FB3
:1019100002C00E94290B06B600FCFBCF8091880014
:101920008823B9F786E989838981815089838F5F0C
:10193000D9F782E080938800109383008FEF9FEFA8
:10194000909387008093860081E08093850002C099
:101950000E94290B809188008823D1F78091810013
:1019600080FD02C080E002C080919B000F90CF916B
:10197000DF911F9108950F931F93DF93CF930F92E1
:10198000CDB7DEB7182F062F02C00E94290B06B66E
:1019900000FCFBCF809188008823B9F786E9898312
:1019A0008981815089838F5FD9F782E08093CA0053
:1019B00010938A0000938B001092810085EA86BF05
:1019C0000F90CF91DF911F910F910895FF920F9388
:1019D0001F93DF93CF930F92CDB7DEB7182F062F4B
:1019E000F42E02C00E94290B06B600FCFBCF8091AA
:1019F00088008823B9F786E98983898181508983A2
:101A00008F5FD9F783E08093CA0010938A00009318
:101A10008B00F0928C001092810085EA86BF0F90B7
:101A2000CF91DF911F910F91FF900895EF92FF9258
:101A30000F931F93DF93CF930F92CDB7DEB7182F7D
:101A4000062FF42EE22E02C00E94290B06B600FCDF
:101A5000FBCF809188008823B9F786E98983898143
:101A6000815089838F5FD9F784E08093CA001093F7
:101A70008A0000938B00F0928C00E0928D0010920F
:101A8000810085EA86BF0F90CF91DF911F910F9162
:101A9000FF90EF900895DF92EF92FF920F931F93C4
:101AA000DF93CF930F92CDB7DEB7182FF62EE42E2B
:101AB000D22E02C00E94290B06B600FCFBCF8091FB
:101AC00088008823B9F786E98983898181508983D1
:101AD0008F5FD9F785E08093CA0010938A00F09257
:101AE0008B00E0928C00D0928D0000938E001092BB
:101AF000810085EA86BF0F90CF91DF911F910F91F2
:101B0000FF90EF90DF900895EF92FF920F931F9355
:101B1000DF93CF930F92CDB7DEB7082FF62EE72EC7
:101B2000142F02C00E94290B06B600FCFBCF809147
:101B300088008823B9F786E9898389818150898360
:101B40008F5FD9F7412F4F5F4093CA0000938A00FF
:101B5000ABE8B0E08F2D9E2D9C01F90102C0819170
:101B60008D938E2F8F198417D0F31092810085EA00
:101B700086BF0F90CF91DF911F910F91FF90EF9053
:101B800008951F920F920FB60F9211242F933F9337
:101B90008F939F93EF93FF9381B18832C9F089327D
:101BA00040F4803199F0883199F0883009F04BC0C9
:101BB0000DC0803441F1813420F4883309F043C0F2
:101BC0003DC08035A9F08835F1F52BC01092890011
:101BD000909189008091CA00981750F5E92FF0E0A4
:101BE000E657FF4F808183B99F5F9093890017C0AC
:101BF0008091890093B1E82FF0E0E656FF4F908383
:101C00008F5F809389002091890030E08091CA0025
:101C100090E001972817390714F485EC18C085E87F
:101C200016C083B1E0918900F0E0E656FF4F808353
:101C30008091810081608093810008C081B1809390
:101C4000820085EA04C081B18093820084E986BF66
:101C5000FF91EF919F918F913F912F910F900FBE28
:101C60000F901F9018955058BB27AA270ED04DC132
:101C70003ED130F043D120F031F49F3F11F41EF4F7
:101C800033C10EF4E095E7FB29C1E92F4FD180F372
:101C9000BA17620773078407950718F071F49EF569
:101CA00067C10EF4E0950B2EBA2FA02D0B01B901E0
:101CB00090010C01CA01A0011124FF27591B99F0C2
:101CC000593F50F4503E68F11A16F040A22F232FCE
:101CD000342F4427585FF3CF469537952795A7951E
:101CE000F0405395C9F77EF41F16BA0B620B730BC5
:101CF000840BBAF09150A1F0FF0FBB1F661F771F36
:101D0000881FC2F70EC0BA0F621F731F841F48F4EA
:101D1000879577956795B795F7959E3F08F0B3CF70
:101D20009395880F08F09927EE0F9795879508955A
:101D30000CD0EBC0E3D040F0DAD030F021F45F3FBC
:101D400019F0CCC0511115C1CFC0F0D098F3992330
:101D5000C9F35523B1F3951B550BBB27AA2762176F
:101D60007307840738F09F5F5F4F220F331F441FB4
:101D7000AA1FA9F333D00E2E3AF0E0E830D09150EC
:101D80005040E695001CCAF729D0FE2F27D0660FD9
:101D9000771F881FBB1F261737074807AB07B0E818
:101DA00009F0BB0B802DBF01FF2793585F4F2AF02E
:101DB0009E3F510568F092C0DCC05F3FECF3983E57
:101DC000DCF3869577956795B795F7959F5FC9F78B
:101DD000880F911D9695879597F90895E1E0660F14
:101DE000771F881FBB1F621773078407BA0720F08D
:101DF000621B730B840BBA0BEE1F88F7E0950895F6
:101E000004D06894B111B5C0089598D088F09F5758
:101E100090F0B92F9927B751A0F0D1F0660F771F36
:101E2000881F991F1AF0BA95C9F712C0B13081F016
:101E30009FD0B1E008959CC0672F782F8827B85FA6
:101E400039F0B93FCCF3869577956795B395D9F777
:101E50003EF490958095709561957F4F8F4F9F4F81
:101E60000895E89409C097FB3EF49095809570958D
:101E700061957F4F8F4F9F4F9923A9F0F92F96E9D6
:101E8000BB279395F695879577956795B795F1114B
:101E9000F8CFFAF4BB0F11F460FF1BC06F5F7F4FE8
:101EA0008F4F9F4F16C0882311F096E911C07723FA
:101EB00021F09EE8872F762F05C0662371F096E803
:101EC000862F70E060E02AF09A95660F771F881FD2
:101ED000DAF7880F9695879597F9089597F99F6790
:101EE00080E870E060E008959FEF80EC08950024A2
:101EF0000A941616170618060906089500240A946F
:101F000012161306140605060895092E0394000CF4
:101F100011F4882352F0BB0F40F4BF2B11F460FF83
:101F200004C06F5F7F4F8F4F9F4F089557FD9058AC
:101F3000440F551F59F05F3F71F04795880F97FB8D
:101F4000991F61F09F3F79F0879508951216130647
:101F50001406551FF2CF4695F1DF08C01616170676
:101F60001806991FF1CF86957105610508940895AB
:101F7000E894BB2766277727CB0197F90895FB01E3
:101F80009F01E8944230C4F04532B4F44A3029F459
:101F900097FB1EF4909581959F4F642F77270E94A1
:101FA000F00F805D8A330CF0895D8193CB0100973F
:101FB000A1F716F45DE251931082C9010C94E00F71
:101FC000DC01FC01672F71917723E1F7329704C0A0
:101FD0007C916D9370836291AE17BF07C8F308952B
:101FE000AA1BBB1B51E107C0AA1FBB1FA617B7073F
:101FF00010F0A61BB70B881F991F5A95A9F780955B
:0C2000009095BC01CD010895F894FFCF2D
:10200C008B045E043104C509B309BF09CB09D1099E
:06201C00B9090D0B130BC6
:00000001FF
