:100000000C9417010C9454030C9474030C949204F4
:100010000C9432040C9434010C9434010C9434018B
:100020000C9434010C9434010C9453060C94340158
:100030000C9434010C94AE0C0C9434010C943401E7
:100040000C9434010C9434010C9434010C9434015C
:100050000C9434015F017B01A201C001E201FB01AC
:1000600005021D03230329032F0335033B0341032B
:1000700054686520526F626F74206E6565647320EA
:10008000746F206265207265736574746564206E98
:100090006F772E0A0A00596F75206E6565642074AB
:1000A0006F20636865636B204D6F746F722061739E
:1000B00073656D626C7920286F7220796F7572207C
:1000C000736F667477617265292E0A0A000A0A281E
:1000D000732E207461736B5F6D6F746F72436F6EFC
:1000E00074726F6C28292066756E6374696F6E2058
:1000F000696E205250364C696221290A000A0A238F
:100100002323204D4F544F52204F564552435552B2
:1001100052454E54202323230A00596F75206E65E3
:10012000656420746F20636865636B20456E636F40
:100130006465722F4D6F746F7220617373656D62A9
:100140006C7920286F7220796F757220736F6674D6
:1001500077617265292E0A0A00210A0A28732E2067
:100160007461736B5F6D6F746F72436F6E74726FD7
:100170006C28292066756E6374696F6E20696E2025
:100180005250364C696221290A00524947485400AE
:100190004C45465400416666656374656420636837
:1001A000616E6E656C3A000A23232320454E434F4F
:1001B00044455220284F52204D4F544F5229204D34
:1001C000414C46554E4354494F4E21202323230A88
:1001D00000232323232320414C4C204F50455241E0
:1001E00054494F4E532053544F5050454420544F80
:1001F0002050524556454E5420414E592044414DC1
:10020000414745212023232323230A000A0A2323CD
:1002100023232320454D455247454E4359205348FB
:100220005554444F574E2023232323230A001124DF
:100230001FBECFE5D8E0DEBFCDBF10E0A0E6B0E046
:10024000E0E2FEE102C005900D92A037B107D9F7B8
:1002500021E0A0E7B0E001C01D92A232B207E1F7B1
:100260000E943D0D0C940E0F0C940000909199008B
:100270008091F600992351F0882311F081E00DC0A0
:1002800080917B00823059F083E007C0882339F0E9
:1002900080917B00823019F085E080937B00089587
:1002A0000895E0917B008E2F90E0FC013197E730BC
:1002B000F10508F0B0C0E65DFF4F0C94B90E8CE379
:1002C00080937600809178008C7F81608460809339
:1002D000780080917C00843018F024EB30E002C07C
:1002E00028E730E030937A002093790092E09093F1
:1002F0007B008E5F42C08091780082FD8CC092E3CB
:100300009093760090917C00943060F02AE530E084
:1003100030937A0020937900836080937800109264
:100320007C000AC08C7F82608093780082E390E03A
:1003300090937A0080937900809178008860809310
:1003400078003CC08CE380937600809178008C7FAD
:10035000816084608093780080917C00843018F004
:1003600020EA30E002C024E630E030937A002093A7
:10037000790094E090937B008F5F80937C000895D8
:100380008091780082FD47C092E39093760083606D
:1003900088608093780080917C00843048F080E50C
:1003A00090E090937A008093790010927C0006C0D0
:1003B0008DE290E090937A008093790087E08093BB
:1003C0007B0008958CE380937600809178008C7F89
:1003D000816084608093780080917C00843018F084
:1003E00020EA30E002C024E630E030937A00209327
:1003F000790096E0BFCF8091780082FD0CC092E337
:10040000909376008C7F8260C3CF809178008C704F
:1004100011F410927B0008950F931F93CF938C01DA
:10042000FC0143815481C2814115510521F1C3FF73
:1004300007C06C2F637020E080810E94590B17C0A9
:10044000C2FF15C0BA0180E090E00E94F50D2FE8D0
:1004500032EC45E75EE30E94540D0E94C60DC37066
:1004600020E0AB016C2FF80180810E94BF0AF801E7
:100470001482138218C08C2F8C7061F48C2F8370BF
:100480000E94AA03F80161818081CF911F910F9191
:100490000C9499030E94CE03882329F0F8018281ED
:1004A000877F8B7F8283CF911F910F9108950E9448
:1004B000510180917B00882319F086E790E009C004
:1004C00080916500882319F080E690E002C080E703
:1004D00090E00C940C020895089508950895809179
:1004E000AD00843010F01092AD00089584E0809348
:1004F000AD00089587B38C7787BB88B38C7788BBB2
:100500008091980083FF02C0BF9AC79A809198009B
:1005100084FF02C0B99AC19A8091980085FF02C0F9
:10052000B89AC09A84B38F7884BB85B38F7885BB23
:1005300024B39091980030E1939FC00111248077FB
:10054000822B84BB25B39091980030E1939FC0012A
:1005500011248077822B85BB8091AD00811106C06C
:1005600081E090919800911101C080E08093AD00EE
:100570000895809398000C947A02C098B89800006F
:1005800086B381709091980095FF02C0B89AC09A86
:100590000895AE98A698000083B380749091980057
:1005A00092FF02C0A69AAE9A089590936E0080932F
:1005B0006D000895CF938091E5008333C0F00E94D1
:1005C000BD02C82F0E94C902909199009C1304C0DB
:1005D0009091F600981749F0C09399008093F60027
:1005E000E0916D00F0916E0009951092E500CF91B9
:1005F000089536990AC0806487B986ED86B9369920
:10060000FECF349A84B195B1089580E090E00895CA
:10061000806487B986ED86B90895369944C0E09123
:100620008E008E2F90E08730910598F5FC01EF5CED
:10063000FF4F84B195B10C94B90E9093FA0080935A
:10064000F90086E423C09093FF008093FE0085E4C8
:100650001DC09093F0008093EF0083E417C0909347
:10066000B9008093B80082E411C09093DF008093BA
:10067000DE0080E40BC09093ED008093EC0081E4F9
:1006800005C09093B7008093B60087E487B986EDE4
:1006900086B980918E00863019F410928E000895EC
:1006A0008F5F80938E0008951F920F920FB60F9266
:1006B00011248F939F938091F4009091F5000196FF
:1006C0009093F5008093F4008091EA009091EB0004
:1006D00001969093EB008093EA009F918F910F9089
:1006E0000FBE0F901F9018951F920F920FB60F928A
:1006F00011248F939F938091E6009091E7000196DB
:100700009093E7008093E6008091C0009091C10033
:1007100001969093C1008093C0009F918F910F909C
:100720000FBE0F901F90189590936C0080936B00F4
:100730000895893C08F088EC90E090939F008093A6
:100740009E00693C08F068EC70E070939D00609337
:100750009C00089580937D002FEF280F91E02230B8
:1007600008F090E0909381008D7F91E0813009F056
:1007700090E0909380000895292F221F2227221FA6
:1007800020938100771F7727771F709380001816BA
:10079000190614F0819561950C9499039091970036
:1007A000937081E009F080E0089510929F0010920C
:1007B0009E0010929D0010929C001092A900109231
:1007C000A8001092E4001092E300809197008E7FC1
:1007D0008D7F809397008093F800E0916B00F091FB
:1007E0006C000994633D08F062ED70E07093BF0007
:1007F0006093BE00833D08F082ED90E09093AF00DF
:100800008093AE00089580937F0060937E00809374
:10081000810060938000882311F0AA9A01C0AA98F1
:10082000662311F0AB9A0895AB9808959091A300B8
:10083000992321F099B7906899BFF8CF6F7370E052
:1008400070638F7320E4829FC0011124862B972B45
:100850009093C3008093C2008091A2008064809333
:10086000A20008951F920F920FB60F9211248F933A
:100870009F9380916A008230B0F580918D0088232B
:10088000D1F08C3338F48091DC009091DD0096FF3C
:1008900007C008C08091DC009091DD0096FF02C087
:1008A000979803C082B3805882BB80918D0081509D
:1008B00080938D0030C08091A3009798882359F1D0
:1008C0008091DC009091DD00880F991F9093DD00EE
:1008D0008093DC0088E780938D008091A300815095
:1008E0008093A30018C08091A700882391F0809185
:1008F000A20080FD05C098B380E4892788BB03C0AF
:1009000085B3805885BB8091A70081508093A70054
:1009100002C0C69AAF9A9F918F910F900FBE0F9011
:100920001F9018951F920F920FB60F9211248F935C
:1009300080916A00833011F0863079F48091A200B2
:1009400084FD0BC08091A20085FF07C0B29905C04D
:100950008091F7008F5F8093F70086B38091A200AB
:100960008D7F8093A2008F910F900FBE0F901F90EC
:10097000189590936900809368000895909367009C
:100980008093660008958091BA009091BB00029711
:1009900008F43CC18091A20084FD19C180916A00D5
:1009A000823009F467C028F4882369F0813091F01F
:1009B00014C1853009F4AFC0863009F4C5C0833056
:1009C00009F00BC16FC089B78F7789BF9798C69A16
:1009D000AF9A03C18091A30081112AC08091A20027
:1009E00086FF14C08091C2009091C3009093DD00F7
:1009F0008093DC008EE08093A3008091A2008F7B27
:100A00008093A20089B7806889BF06C089B78F77B5
:100A100089BF9798C69AAF9A80918C0091E0980F01
:100A200090938C00843138F082E080936A0003C098
:100A300089B7806889BF8091A20083FFCEC0E09112
:100A40006800F09169008091FB009091FC0009958D
:100A50008091FB009091FC009093AB008093AA00E2
:100A60001092FC001092FB008091A200877F80937F
:100A7000A200B3C089B78F7789BF9798C69AAF9AFB
:100A80001092A7001092F70010928B0010928A002B
:100A90008091A2008E7F80628093A20083E0809389
:100AA0008C0077C08091A700811110C080918C00CC
:100AB00091E0980F90938C00833040F089B7806864
:100AC00089BF88E28093A70010928C008091D800A3
:100AD000882321F08091F700823020F48091F70084
:100AE000863038F01092F70081E08093D80085E0DE
:100AF00050C080918A0090918B009C012F5F3F4FE6
:100B000030938B0020938A000E9708F466C01092F1
:100B1000D80085E051C089B78F7789BF9798C69A6A
:100B2000AF9A1092A7001092F70010928B001092CB
:100B30008A008091A200816080628093A20083E09D
:100B400080938C0086E025C08091A700811110C0A1
:100B500080918C0091E0980F90938C00833040F04E
:100B600089B7806889BF88E28093A70010928C00C3
:100B70008091E100882321F08091F700823020F4F9
:100B80008091F700863040F01092F70081E080936A
:100B9000E10080936A0021C080918A0090918B00CF
:100BA0009C012F5F3F4F30938B0020938A000E975C
:100BB000A0F01092E10081E080936A0089B78F77FE
:100BC00089BF9798C69AAF9A1092A70006C0109254
:100BD0008B0010928A0010928C009091D800209186
:100BE00089008091E100291304C020918800281712
:100BF00049F09093890080938800E0916600F0911D
:100C0000670009951092BB001092BA0008951092E7
:100C10006A0089B78F7789BF9798C69AAF9A109262
:100C2000E1001092D800089589B78F7789BF97980F
:100C3000C69AAF9A1092E1001092D80081E080939A
:100C40006A0008958E989698BB98C398C698AF98F6
:100C500008958E9A969ABB98C39808958E98969800
:100C6000BB9AC39A08958E9A969ABB9AC39A08958E
:100C7000C49A8091AD00843018F483E08093AD0075
:100C80000895C4988091AD00843060F4811107C04C
:100C900081E090919800911103C080E001C081E053
:100CA0008093AD0008951F920F920FB60F921124FA
:100CB0002F933F934F935F936F937F938F939F9364
:100CC000AF93BF93EF93FF9380919500909196001F
:100CD000019690939600809395008091EE008F5F2F
:100CE0008093EE008091F10091E0980F9093F100D5
:100CF000893008F446C18091C60080FF09C0809108
:100D0000C7009091C80001969093C8008093C700D7
:100D10008091C60081FF09C08091C9009091CA00EE
:100D200001969093CA008093C9008091C60082FF0B
:100D300009C08091CB009091CC0001969093CC009B
:100D40008093CB008091C60083FF09C08091CD00C5
:100D50009091CE0001969093CE008093CD0080912B
:100D6000C60084FF09C08091CF009091D000019609
:100D70009093D0008093CF008091C60085FF09C07A
:100D80008091D1009091D20001969093D2008093EF
:100D9000D1008091C60086FF09C08091D300909158
:100DA000D40001969093D4008093D3008091C60024
:100DB00087FF09C08091D5009091D600019690934D
:100DC000D6008093D5008091E20091E0980F909337
:100DD000E200893CE8F08091C0009091C1009093BE
:100DE000F3008093F2008091EA009091EB009093E1
:100DF000B1008093B0001092C1001092C000109218
:100E0000EB001092EA0081E08093AC001092E200C7
:100E10002091AD00233008F051C0223079F5809147
:100E2000980081111FC08091860090918700FC017D
:100E30003196F0938700E093860068EC70E00E94A2
:100E4000830E892BD9F5E13AFF4028F0B998C19873
:100E50001092AD0029C087B3822787BB88B32827AB
:100E600028BB2CC084FD02C0B998C198109287009D
:100E70001092860081E08093AD0020C080918600B2
:100E800090918700813E3EE2930798F0213049F42B
:100E90001092AD008091980084FD06C0B998C19869
:100EA00003C082E08093AD0010928700109286000C
:100EB00005C0019690938700809386008091BA00C8
:100EC0009091BB00039748F48091BA009091BB00C9
:100ED00001969093BB008093BA008091DA0087332B
:100EE00018F48F5F8093DA008091E500843328F452
:100EF0008091E5008F5F8093E5008091E00091E0B4
:100F0000980F9093E0008330D0F18091DB00482F60
:100F100050E02091BE003091BF004217530759F0B6
:100F20004217530714F48F5F01C081508093DB0098
:100F30008091DB008ABD8091FD00482F50E0209118
:100F4000AE003091AF004217530759F042175307D4
:100F500014F48F5F01C081508093FD008091FD00EB
:100F600088BD8091FD00811104C08091DB00882341
:100F700019F082EA8FBD01C01FBC1092E0001092F0
:100F8000F1003091A20033FD46C080918400909121
:100F90008500209183002F5F20938300263198F0F5
:100FA00096FD0AC095FF08C09093FC008093FB005B
:100FB000832F88608093A2008091A2008F7E80930F
:100FC000A20080E090E03091820046B3432742FFC8
:100FD0001EC0309530938200273040F48091A200EB
:100FE0008F7E8093A20080E090E004C0009711F013
:100FF0002F3068F02091A20020612093A20096FD7E
:1010000002C0880F991F32FF816010928300909375
:10101000850080938400FF91EF91BF91AF919F91E4
:101020008F917F916F915F914F913F912F910F9091
:101030000FBE0F901F9018951092EE009091EE0049
:101040009817E0F30895CF93DF93EC01209729F0F0
:101050008AE00E941C082197F9CFDF91CF91089573
:10106000019710F00000FCCF0895C82FF8949798CE
:101070000E9422061092AF001092AE001092BF00A4
:101080001092BE001092A9001092A8001092E400E5
:101090001092E3001092FD001092DB001ABC18BC05
:1010A0001FBC0E9441068CE092E00E94240C81ED5E
:1010B00091E00E94240C8FEF8C0F8230C0F487EAFD
:1010C00091E00E94240C85E991E00E94240CC1303B
:1010D00019F480E991E002C08AE891E00E94240CB2
:1010E00089E591E00E94240C8AE191E00CC0C330B4
:1010F00061F48DEF90E00E94240C8DEC90E00E9452
:10110000240C86E990E00E94240C80E790E00E9485
:10111000240CD6E3D09398000E947A02CAE080E0C3
:1011200090E80E943008C150D1F7109298000E94B8
:101130007A02CAE08FEF9FEF0E943008C150D1F7CA
:10114000E9CF8091DA00823308F474C01092DA009B
:101150008091D7002091FE003091FF0081113BC0AB
:1011600080919700233043E0340738F44091EF003A
:101170005091F00043305340E0F09091D9009F5FD0
:101180009093D9009AE09093D7001092AF001092FC
:10119000AE001092BF001092BE001092A9001092F3
:1011A000A8001092E4001092E300846080939700FE
:1011B00008958B7F809397008091A400853628F056
:1011C0001092D9001092A40006C08091D9008330FB
:1011D00010F083E014C02639310598F48091B000F6
:1011E0009091B100892B69F480919E0090919F00AD
:1011F000892B39F08091FD00873918F081E00E9439
:1012000035088091EF009091F0008639910590F4B7
:101210008091F2009091F300892B61F480919C0001
:1012200090919D00892B31F08091DB00873910F07F
:1012300082E0E5CF8091AC00882309F484C18091DD
:10124000D70081117BC18091D900882331F0809132
:10125000A4008F5F8093A40002C01092A40080912C
:10126000970081FF35C04091F4005091F500209126
:101270009A0030919B004217530780F010929F0014
:1012800010929E001092A9001092A8001092AF0038
:101290001092AE008D7F809397001AC02091F400C9
:1012A0003091F5008091B2009091B3002817390772
:1012B00078F080919E0090919F0096958795863159
:1012C000910510F486E190E090939F0080939E003A
:1012D0008091970080FF35C04091E6005091E70073
:1012E0002091BC003091BD004217530780F010924E
:1012F0009D0010929C001092E4001092E300109266
:10130000BF001092BE008E7F809397001AC020917C
:10131000E6003091E7008091E8009091E9002817FD
:10132000390778F080919C0090919D009695879563
:101330008631910510F486E190E090939D008093B2
:101340009C008091810090917F00891307C02091BB
:10135000800090917E00291709F451C040919E00B1
:1013600050919F0020919C0030919D0041155105A6
:1013700019F42115310501F15093A1004093A0000B
:101380003093B5002093B40010929F0010929E00FD
:1013900010929D0010929C001092BF001092BE000F
:1013A0001092AF001092AE001092A9001092A80007
:1013B0001092E4001092E3009FB5911120C060915B
:1013C00080000E9403042091A0003091A10030937E
:1013D0009F0020939E008091B4009091B50090935F
:1013E0009D0080939C00369527953093A90020930B
:1013F000A800969587959093E4008093E300209150
:101400009E0030919F008091B0009091B100A901A1
:10141000481B590B8091A8009091A900840F951F3B
:10142000853A41E0940714F084EA91E09093A90092
:101430008093A8008091A8009091A9008C359E4FC0
:1014400034F48CE59EEF9093A9008093A8008091DE
:10145000B0009091B100892B31F4232B21F410922C
:10146000A9001092A8008091A8009091A90097FD72
:10147000019695958795833D910514F082ED90E056
:101480009093AF008093AE008091AE009091AF003A
:1014900097FF04C01092AF001092AE0020919C0004
:1014A00030919D008091F2009091F300A901481BBA
:1014B000590B8091E3009091E400840F951F853AC9
:1014C00041E0940714F084EA91E09093E400809363
:1014D000E3008091E3009091E4008C359E4F34F45A
:1014E0008CE59EEF9093E4008093E3008091F200FE
:1014F0009091F300892B31F4232B21F41092E40016
:101500001092E3008091E3009091E40097FD019632
:1015100095958795833D910514F082ED90E0909329
:10152000BF008093BE008091BE009091BF0097FFE6
:1015300008C01092BF001092BE0003C0815080937B
:10154000D7001092AC00809197009091F800981706
:1015500039F08093F800E0916B00F0916C000994F1
:101560000895D49ADC9A0895DC98D49808950E943E
:101570000D030E94C3040E94DA020C94A108EF92AA
:10158000FF921F93CF93DF931F92CDB7DEB7162F35
:101590007A019091970091609260909397001092D9
:1015A000E9001092E8001092B3001092B200873167
:1015B00080F046EF5FEF481B5109440F551F4E0D59
:1015C0005F1D5093E9004093E8005093B3004093AF
:1015D000B200A701425051095093BD004093BC0096
:1015E00050939B0040939A0098E2E916F104C0F4EE
:1015F00044E150E05093BD004093BC0050939B00E9
:1016000040939A004AE050E05093E9004093E8008C
:101610005093B3004093B20048E2E42EF12C05C091
:1016200090E9E91691E0F90698F4893288F0C7014B
:101630009695879596958795A701481B590B5093CA
:10164000E9004093E8005093B3004093B20088E271
:101650001092F5001092F4001092E7001092E6004C
:10166000682F29830E949903812F0E94AA03F09278
:10167000C500E092C400F092A600E092A50080911F
:1016800097008093F800E0916B00F0916C00099551
:101690002981222339F00E94CE03811103C00E94C8
:1016A000B70AF9CF0F90DF91CF911F91FF90EF9084
:1016B0000895FF920F931F93CF93DF93182FF62E69
:1016C000022F9091970091609260909397009A01F9
:1016D000A0EBB2E00E94BF0E24E630E040E050E014
:1016E0000E94970EE901F901E456F109F093E9002F
:1016F000E093E800F093B300E093B2003093BD00B4
:101700002093BC0030939B0020939A00283231052F
:10171000B0F444E150E05093BD004093BC005093BE
:101720009B0040939A004AE050E05093E9004093B8
:10173000E8005093B3004093B200C8E2D0E0612FBC
:10174000812F0E9499038F2D0E94AA031092F50009
:101750001092F4001092E7001092E600D093C500BA
:10176000C093C400D093A600C093A50080919700B9
:101770008093F800E0916B00F0916C0009950023D4
:1017800039F00E94CE03811103C00E94B70AF9CF3D
:10179000DF91CF911F910F91FF900895CF931BBAC6
:1017A00018BA15BAC1E0C2BB1ABA88E587BB8CE883
:1017B00084BB82EF81BBF894C598BD9A97980E942C
:1017C000220610BC8CE089B91BB886E880BD88E988
:1017D0008AB917B886E186B910BE85E085BF80EE6C
:1017E0008BBF14BE8AE083BF83E68CBF82EA8FBDC5
:1017F00081E18EBD82ED90E097BD86BD1ABC18BC1C
:1018000060E080E00E94030489E085BD8EE683BD30
:1018100082E089BF8091A20081608093A200C09382
:101820006A007894CF9108955D9BFECF8CB908959E
:10183000CF93DF93EC018991882319F00E94140C57
:10184000FACFDF91CF910895CF93DF93FC0184917C
:10185000EF012196882321F00E94140CFE01F7CF9E
:10186000DF91CF9108950F931F93CF93DF931F9232
:10187000CDB7DEB78C01040F111DF80181918F01E6
:10188000882341F0662331F069830E94140C69813A
:101890006150F3CF0F90DF91CF911F910F91089579
:1018A000CF93DF93CDB7DEB761970FB6F894DEBF65
:1018B0000FBECDBF462F50E0BE016F5F7F4F0E942D
:1018C000CE0ECE0101960E94180C61960FB6F894C8
:1018D000DEBF0FBECDBFDF91CF910895EF92FF9293
:1018E0000F931F93CF93DF93CDB7DEB761970FB6FA
:1018F000F894DEBF0FBECDBF042F462F50E09E01EF
:101900002F5F3F4F7901B9010E94CE0EF701019080
:101910000020E9F73197EE19FF09102F1E1B111651
:1019200054F4115080E30E94140C1111FACFC70136
:101930000E94180C06C0412F4195602FC7010E94DC
:10194000330C61960FB6F894DEBF0FBECDBFDF91AA
:10195000CF911F910F91FF90EF9008951F920F92DA
:101960000FB60F9211242F938F939F93EF93FF93B2
:1019700080918F0090919000282F291B2032A8F48D
:10198000E091910091E09E0F90939100F0E02CB1D6
:10199000EF5FFE4F20838F5F80938F00913210F0B6
:1019A000109291001092000106C08CB180939400B7
:1019B00081E080930001FF91EF919F918F912F9192
:1019C0000F900FBE0F901F901895109200018091FC
:1019D000900090918F009817A1F08F5F80939000F6
:1019E00080919200813210F010929200E09192006A
:1019F00081E08E0F80939200F0E0EF5FFE4F8081D8
:101A0000089580E0089510920001282FDC018A2FAC
:101A1000821B9091900030918F003917B9F0861792
:101A2000A8F49F5F90939000E091920081E08E0F68
:101A300080939200F0E0EF5FFE4F80818D93809164
:101A40009200813220F310929200E1CF08958091AC
:101A50008F0090919000891B089557988CB18093C6
:101A600093001092920010929100109290001092A8
:101A70008F0010920001579A08950E94CE0B8FE3B9
:101A80000E94B90284EC99E00E94230884E20E943B
:101A9000B90286E391E00E94D5020E9438060E94B6
:101AA00057020E94B70AFBCF0E94680D0C94490EA2
:101AB0000E94420E58F00E943B0E40F029F45F3F16
:101AC00029F00C94320E51110C947D0E0C94380EAA
:101AD0000E945A0E68F39923B1F3552391F3951B95
:101AE000550BBB27AA2762177307840738F09F5F3F
:101AF0005F4F220F331F441FAA1FA9F335D00E2EAC
:101B00003AF0E0E832D091505040E695001CCAF718
:101B10002BD0FE2F29D0660F771F881FBB1F2617DB
:101B200037074807AB07B0E809F0BB0B802DBF01B2
:101B3000FF2793585F4F3AF09E3F510578F00C9481
:101B4000320E0C947D0E5F3FE4F3983ED4F38695FD
:101B500077956795B795F7959F5FC9F7880F911DA2
:101B60009695879597F90895E1E0660F771F881F8E
:101B7000BB1F621773078407BA0720F0621B730B41
:101B8000840BBA0BEE1F88F7E09508950E94620E51
:101B900088F09F5798F0B92F9927B751B0F0E1F02E
:101BA000660F771F881F991F1AF0BA95C9F714C0DE
:101BB000B13091F00E947C0EB1E008950C947C0E3F
:101BC000672F782F8827B85F39F0B93FCCF3869517
:101BD00077956795B395D9F73EF490958095709574
:101BE00061957F4F8F4F9F4F0895E89409C097FBF1
:101BF0003EF490958095709561957F4F8F4F9F4FE4
:101C00009923A9F0F92F96E9BB279395F695879527
:101C100077956795B795F111F8CFFAF4BB0F11F4EA
:101C200060FF1BC06F5F7F4F8F4F9F4F16C0882391
:101C300011F096E911C0772321F09EE8872F762FC7
:101C400005C0662371F096E8862F70E060E02AF008
:101C50009A95660F771F881FDAF7880F96958795F4
:101C600097F9089597F99F6780E870E060E008951C
:101C70009FEF80EC089500240A94161617061806A4
:101C80000906089500240A94121613061406050680
:101C90000895092E0394000C11F4882352F0BB0F11
:101CA00040F4BF2B11F460FF04C06F5F7F4F8F4F74
:101CB0009F4F089557FD9058440F551F59F05F3FAF
:101CC00071F04795880F97FB991F61F09F3F79F05E
:101CD00087950895121613061406551FF2CF4695E0
:101CE000F1DF08C0161617061806991FF1CF869562
:101CF0007105610508940895E894BB276627772746
:101D0000CB0197F90895AA1BBB1B51E107C0AA1F7D
:101D1000BB1FA617B70710F0A61BB70B881F991F8C
:101D20005A95A9F780959095BC01CD010895A1E23F
:101D30001A2EAA1BBB1BFD010DC0AA1FBB1FEE1F45
:101D4000FF1FA217B307E407F50720F0A21BB30B90
:101D5000E40BF50B661F771F881F991F1A9469F70C
:101D600060957095809590959B01AC01BD01CF0168
:101D70000895EE0FFF1F0590F491E02D0994A29FA6
:101D8000B001B39FC001A39F700D811D1124911D4F
:101D9000B29F700D811D1124911D0895453251058A
:101DA00020F4423010F00C94D90EFB011082CB01CC
:101DB0000895BB274A3031F4992322F4BDE290956F
:101DC00081959F4F0C94E50EBB27FB015527AA2751
:101DD000880F991FAA1FA41710F0A41B83955051B8
:101DE000B9F7A05DAA3308F0A95DA193009779F730
:101DF000B111B1931192CB010C94FE0EDC01FC01E8
:101E0000672F71917723E1F7329704C07C916D932E
:101E100070836291AE17BF07C8F30895F894FFCF9F
:101E20005050000000016E026D02016C026B020056
:00000001FF
