:100000000C94A0040C94C1040C94C1040C94C1047D
:100010000C94C1040C94C1040C94C1040C94C1044C
:100020000C94C1040C94C1040C94C1040C94C1043C
:100030000C94C1040C94C1040C94C1040C94C1042C
:100040000C94C1040C94C1040C94C1040C94C1041C
:100050000C94C1040C94C6110C94C1040C94C104FA
:100060000C94C1040C94B7130C94C1040C94C104F7
:100070000C94C1040C94C1040C94C1040C94C104EC
:100080000C94C1040C94C1040C94C1040C94C104DC
:100090000C94C1040C94C1040C94C1040C94A10CE4
:1000A0000C94C1040C94C1040C94C1040C94C104BC
:1000B0000C94C1040C94C1040C94C1040C94C104AC
:1000C0000C94C1040C94C1040C94C1040C94C1049C
:1000D0000C94C1040C94C1040C9468150C94C104D4
:1000E0000C94C104004163746976652042656861BF
:1000F00076696F75720052454D4F54452031005757
:100100004946492044454D4F0023232323232323DD
:1001100023232323232323232300232323232323D2
:1001200023232323232323232323000A5741495432
:10013000494E4720666F7220636F6D6D616E647308
:10014000206F7665722057494649210A00232323F0
:10015000232323232323232323232323232323236F
:10016000232323232323232323232323232323235F
:10017000232323232323232323232323232323234F
:10018000232323232323232323232323232323233F
:10019000232323232323232323232323232323232F
:1001A000232323230A00232323232323232323235B
:1001B000232323232323232323232323232323230F
:1001C00023232323232323232323232323232323FF
:1001D00023232323232323232323232323232323EF
:1001E00023232323232323232323232323232323DF
:1001F000232323232323232323232323230A0073BB
:100200007470202020202020207C2078207C204515
:100210004E54455220202D2053544F500A00666CF6
:1002200020202020202020207C2071202020202021
:1002300020202020202D206D6F766520637572763A
:1002400065206C6566740A006672202020202020DC
:1002500020207C2065202020202020202020202DF0
:10026000206D6F76652063757276652072696768A8
:10027000740A00726967687420202020207C207234
:10028000207C20642020202020202D206D6F76658A
:100290002072696768740A00627764202020202039
:1002A00020207C2062207C20732020202020202DF4
:1002B000206D6F7665206261636B77617264730A8B
:1002C000006C6566742020202020207C206C207C1F
:1002D00020612020202020202D206D6F7665206C4D
:1002E0006566740A00667764202020202020207C28
:1002F0002066207C20772020202020202D206D6F5C
:10030000766520666F7277617264730A0071756931
:10031000742020202020207C207A202020202020D3
:10032000202020202D2071756974205749464920CE
:1003300052656D6F746520436F6E74726F6C206DC3
:100340006F64650A00636F6D6D616E642020207CB0
:1003500020636D6420202020202020202D20656E29
:1003600074657220574946492052656D6F74652047
:10037000436F6E74726F6C206D6F64650A00232387
:10038000232323232323232323232323232323233D
:10039000232323232323232323232323232323232D
:1003A000232323232323232323232323232323231D
:1003B000232323232323232323232323232323230D
:1003C00023232323232323232323232323232323FD
:1003D00023232323230A00436F6D6D616E64205233
:1003E00065666572656E63653A0A002323232323DD
:1003F00023232323232323232323232323232323CD
:1004000023232323232323232323232323232323BC
:1004100023232323232323232323232323232323AC
:10042000232323232323232323232323232323239C
:10043000232323232323232323232323232323238C
:1004400023230A000A2323232323232323232323D1
:10045000232323232323232323232323232323236C
:10046000232323232323232323232323232323235C
:10047000232323232323232323232323232323234C
:10048000232323232323232323232323232323233C
:100490002323232323232323232323230A000A574D
:1004A000414954494E4720666F7220636F6D6D61FC
:1004B0006E6473206F766572205749464920436FFA
:1004C0006E6E656374696F6E210A000A0A525036B7
:1004D00020434F4E54524F4C204D32353620574911
:1004E00046492052656D6F746520436F6E74726F5C
:1004F0006C204578616D706C652050726F67726119
:100500006D210A000A53657269616C20636F6E6E1B
:10051000656374696F6E20697320666F722064650D
:1005200062756720757365206F6E6C7920696E2027
:1005300074686973206578616D706C652E0A000AB5
:1005400057414954494E4720666F7220636F6D6D65
:10055000616E6473206F7665722057494649204367
:100560006F6E6E656374696F6E210A000A0A5250DD
:100570003620434F4E54524F4C204D323536205783
:100580004946492052656D6F746520436F6E7472E1
:100590006F6C204578616D706C652050726F67726A
:1005A000616D210A000A493243204552524F5220C0
:1005B0002D205457492053544154453A2030780057
:1005C00023002A0053544F500057494649204354B2
:1005D000524C000A2D2D3E204368616E67652073E2
:1005E0007065656420746F3A000A2D2D3E20506FAF
:1005F000776572206C696D6974656420746F203151
:10060000363021000A232323204E4F542041204E10
:10061000554D42455221202323230A000A53544FAB
:1006200050210A000A435552564520465744204C53
:10063000454654210A000A43555256452046574420
:10064000204C454654210A000A5249474854210A81
:10065000000A4C454654210A000A425744210A0028
:100660000A465744210A000A5749464920434F4D3C
:100670004D414E44204D4F44452045584954210A90
:10068000000A596F75206D75737420656E746572FC
:1006900020636D64206F7220636F6D6D616E6420E6
:1006A000746F20656E61626C6520636F6D6D616E45
:1006B00064206D6F6465210A000A5749464920434A
:1006C0004F4D4D414E44204D4F44452041435449E8
:1006D00056450A000A00207C7C7C7C204E554D3A11
:1006E00000207C20445354523A00207C2044535430
:1006F0004C3A00207C204144313A00207C20414487
:10070000303A00207C204C53523A00207C204C533D
:100710004C3A00207C204D43523A00207C204D432F
:100720004C3A00207C2056523A00207C20564C3A0D
:1007300000207C2050523A00207C20504C3A00206F
:100740007C2044523A00207C20444C3A00424154E0
:100750003A00207C204144313A00207C2041443042
:100760003A00207C204241543A00207C204D4352E4
:100770003A00207C204D434C3A00207C204C5352C0
:100780003A004C534C3A00207C20445354523A00D7
:100790004453544C3A00207C2044523A00207C20A0
:1007A000444C3A00207C2056523A00207C20564C83
:1007B0003A00207C2050523A00504C3A000A5265D0
:1007C00061642053656E736F722056616C7565733A
:1007D0003A0A000A2323232057494649204C6561E1
:1007E000766520434D44206D6F64650A00454E5484
:1007F000455220434D44204E4F524D414C210A005A
:100800000A23232320434D44206D6F6465202A2A48
:100810002A4641494C2A2A2A20545259204147410C
:10082000494E2E2E2E0A00454E54455220434D442B
:10083000204750494F3134210A000A2323232057EF
:1008400049464920456E74657220434D44206D6FC2
:1008500064650A000A232323232052455452592158
:1008600020232323230A000A232323232054494D32
:10087000454F55542120232323236E000A2323238D
:10088000230A005D0A00205B524553505F4F4B3AEC
:10089000000A2323232320575249544520434F4D18
:1008A0004D414E44204641494C5552452120232379
:1008B00023230A007D0A00203B200020575F434D80
:1008C000447B000A54494D454F55540A005D0A00C7
:1008D0000A5B4F4B3A007D0A000A577B000A5449D5
:1008E0004D454F55540A005D0A000A5B4F4B3A00D4
:1008F0007D0A000A577B000A577269746520436FAE
:100900006D6D616420646F6E65210A004552524F1F
:1009100052210A000A232323232054494D454F55D1
:1009200054212054525920414741494E212023232C
:1009300023230A007D0A005241575F434D447B0048
:1009400011241FBECFEFD1E2DEBFCDBF00E00CBF50
:1009500012E0A0E0B2E0E8EEF8E900E00BBF02C070
:1009600007900D92AA3CB107D9F71DE0AAECB2E0BE
:1009700001C01D92A43AB107E1F70E9413090C943B
:10098000724C0C9400001F93182F85EA95E00E948A
:100990009613812F90E060E10E949A148AE00E94F1
:1009A00081131F9108950E947B0D08958091D602B6
:1009B000882341F081E06EE041E00E9461111092D5
:1009C000D602089581E06EE00E94421180EC95E02D
:1009D0000E94121181E08093D60208958091B006A2
:1009E0009091B106855F9140D8F08091D70288231D
:1009F00041F081E06FE041E00E9461111092D70266
:100A00000BC081E06FE00E94421182EC95E00E94F1
:100A1000121181E08093D7021092B1061092B006B5
:100A200008951F93CF93DF93EC014B815C816A8122
:100A30004115510521F163FF06C06370888120E0F4
:100A40000E94790E19C062FF17C0162F1370BA01E9
:100A500080E090E00E94544A2FE832EC45E75EE3E4
:100A60000E94C0490E94284A9B01AC018881612FE5
:100A7000A90120E00E94550E1C821B8212C0862F05
:100A80008C7049F4862F83700E94540D888169818F
:100A90000E94660D06C080914C0680FF02C0637FF5
:100AA0006A83DF91CF911F9108950E94BB0E8DE460
:100AB00097E00E9445158091890690918A066AE028
:100AC00044E00E94451986E497E00E944515809114
:100AD000690690E06AE043E00E9445198FE397E0E1
:100AE0000E9445158091680690E06AE043E00E940C
:100AF000451988E397E00E9445158091740690E0BF
:100B00006AE043E00E94451981E397E00E944515A1
:100B100080917A0690E06AE043E00E9445198AE2FB
:100B200097E00E9445158091750690E06AE043E0E9
:100B30000E94451983E297E00E944515809187063F
:100B400090E06AE043E00E9445198BE197E00E9443
:100B5000451580918B0690918C066AE043E00E94D7
:100B6000451983E197E00E94451580918306909195
:100B700084066AE043E00E9445198BE097E00E94FA
:100B8000451580917806909179066AE044E00E94CC
:100B9000451983E097E00E94451580917C0690916D
:100BA0007D066AE044E00E9445198BEF96E00E94C2
:100BB000451580918106909182066AE044E00E948A
:100BC000451983EF96E00E94451580917606909135
:100BD00077066AE044E00E9445198AEE96E00E949A
:100BE000451580918506909186066AE045E00E9451
:100BF000451981EE96E00E94451580917F069091FF
:100C000080066AE045E00E94451986ED96E00E9464
:100C100045158091DC029091DD0201969093DD02F2
:100C20008093DC0201976AE045E00E94451984ED5B
:100C300096E00E94451508951F93182F8091D902C0
:100C40008117C9F01093D90281E060E04DE00E9465
:100C5000611181E060E00E944211113029F01230F0
:100C600051F489EC95E002C084EC95E00E941211E9
:100C700080E00E94A70F8091D502813099F5809184
:100C8000B2069091B30685369105F8F08091460240
:100C90000E94A70F8091D80290914602882311F4F8
:100CA000990F01C096959093460280914602883034
:100CB00020F081E08093D80204C0823010F41092BA
:100CC000D8021092B3061092B2068091B4069091A9
:100CD000B5068536910530F00E9455051092B5068F
:100CE0001092B4061F9108950E94BB0E8DEB97E001
:100CF0000E94961389EB97E00E94961380917406E8
:100D000090E06AE043E00E94BC1482EB97E00E940E
:100D1000961380917A0690E06AE043E00E94BC144A
:100D20008BEA97E00E9496138091750690E06AE046
:100D300043E00E94BC1484EA97E00E9496138091DD
:100D4000870690E06AE043E00E94BC148DE997E0DA
:100D50000E9496138091690690E06AE043E00E9449
:100D6000BC1486E997E00E9496138091680690E093
:100D70006AE043E00E94BC148AE00E94811380E98B
:100D800097E00E94961380918506909186066AE00E
:100D900045E00E94BC1487E897E00E94961380917A
:100DA0007F06909180066AE045E00E94BC148AE0CC
:100DB0000E94811382E897E00E9496138091780642
:100DC000909179066AE044E00E94BC148AE797E0BB
:100DD0000E94961380917C0690917D066AE044E023
:100DE0000E94BC1482E797E00E94961380918B06C4
:100DF00090918C066AE044E00E94BC148AE697E079
:100E00000E94961380918306909184066AE044E0E4
:100E10000E94BC1482E697E00E9496138091890696
:100E200090918A066AE044E00E94BC148AE597E04B
:100E30000E94961380918106909182066AE044E0B8
:100E40000E94BC1482E597E00E949613809176067A
:100E5000909177066AE044E00E94BC148AE00E9408
:100E6000811308950E942716892B11F480E00895BC
:100E70000E94C0150E9457160895EF92FF920F939B
:100E80001F93CF93DF938091D502813029F1813078
:100E900020F0823009F0AAC1A5C10E943207882340
:100EA00009F4A6C18AEB98E060E072E00E94BA4BB8
:100EB000009741F08AEB98E064E072E00E94BA4B40
:100EC000009729F489EB96E00E9445158BC181E8D3
:100ED00096E00E9445158CC10E943207882309F4D0
:100EE00087C18AEB98E06CE072E00E94BA4B0097F1
:100EF00041F08AEB98E06EE072E00E94BA4B0097F6
:100F000029F487E696E00E94451570C18AEB98E0C7
:100F100063E172E00E94BA4B009781F08AEB98E09F
:100F200067E172E00E94BA4B009741F08AEB98E0CB
:100F300069E172E00E94BA4B009759F48091DB029C
:100F40008093D0028091DA028093D10280E696E00D
:100F5000DBC08AEB98E06BE172E00E94BA4B00972D
:100F600081F08AEB98E06FE172E00E94BA4B009743
:100F700041F08AEB98E061E272E00E94BA4B009780
:100F800099F48091DB028093D0028091DA02809301
:100F9000D10289E596E00E9445158091D2028C7FAE
:100FA00081608093D20224C18AEB98E063E272E010
:100FB0000E94BA4B009781F08AEB98E068E272E0F9
:100FC0000E94BA4B009741F08AEB98E06AE272E027
:100FD0000E94BA4B0097D9F48091DB028C3338F031
:100FE00086958093D0028091DA02869505C08B3079
:100FF00028F08EE18093D0028093D10281E596E0C3
:101000000E9445158091D2028C7F8260CACF8AEB04
:1010100098E06CE272E00E94BA4B009781F08AEB94
:1010200098E062E372E00E94BA4B009741F08AEBCD
:1010300098E064E372E00E94BA4B0097D1F480918B
:10104000DB028C3338F086958093D0028091DA02EF
:10105000869505C08B3028F08EE18093D002809376
:10106000D10288E496E00E9445158091D202836007
:1010700098CF8AEB98E066E372E00E94BA4B009743
:1010800041F08AEB98E069E372E00E94BA4B009766
:10109000A9F48091DB028C3330F086958093D002E6
:1010A0008091DA0206C08B3030F084E18093D00268
:1010B00088E28093D10286E396E026C08AEB98E02E
:1010C0006BE372E00E94BA4B009741F08AEB98E024
:1010D0006EE372E00E94BA4B0097E1F49091DA025D
:1010E0009C3340F08091DB028093D00296959093E0
:1010F000D10208C09B3030F088E28093D00284E1B6
:101100008093D10284E296E00E9445158091D2023C
:101110008C7F47CFCAEBD8E0CE0160E472E00E943A
:10112000BA4B009739F0CE0164E472E00E94BA4BEA
:10113000009771F48CE196E00E9445158091D202EF
:101140008C7F8093D2021092D0021092D10250C0B4
:10115000CE010E94814BF82E882331F5FE010190CB
:101160000020E9F73197EA5BF840EE2EEA94CE2DA5
:10117000DD27C7FDD095C654D74F90E000E010E0C2
:101180000CC0888180538A3028F084E096E00E9469
:10119000451591E00F5F1F4F21978E2D801B87FF14
:1011A000F0CF992329F509C080EA8F1530F489EE34
:1011B00095E00E94961380EAF82E83ED95E00E9458
:1011C00045158F2D90E06AE00E9423198AE00E9465
:1011D0002015F092D002F092D102F092DB02F09250
:1011E000DA0206C081E08093D50202C01092D502D7
:1011F000DF91CF911F910F91FF90EF9008950E9482
:101200003D078091D502882331F082E00E941C06C0
:1012100080ED92E005C081E00E941C068AEC92E01D
:101220000E94110508950E94D5120E9400108CE6BC
:1012300095E00E9496138FE395E00E94961384E058
:1012400095E00E9496138BEC94E00E9445158EE980
:1012500094E00E94451584E494E00E9445158BEECD
:1012600093E00E94451587ED93E00E9445158EE7B7
:1012700093E00E94451585E493E00E9445158DE0BA
:1012800093E00E94451585EE92E00E94451581ECA1
:1012900092E00E94451588E992E00E94451583E797
:1012A00092E00E94451588E492E00E9445158EE187
:1012B00092E00E9445158FEF91E00E94451586EA65
:1012C00091E00E9445158DE491E00E9445158BE266
:1012D00091E00E94451586ED94E00E943E0D88E461
:1012E0000E94C40983ED94E00E94D70983EC94E046
:1012F0000E94DD098FE00E94A70F8AE191E069E07A
:1013000071E00E944A1184EF91E00E9462128FEF17
:1013100090E066EF70E00E944A1188EE93E00E9430
:10132000621280E00E94A70F8AE060E049E020E0BE
:101330000E94F00B8AE060E04BE021E00E94F00B9D
:101340008AE060E04CE021E00E94F00B8091AF0663
:1013500081608093AF068091AF0682608093AF0674
:101360008091AF0684608093AF0685EE90E064EED6
:1013700070E00E944A110E94EE040E941E0E0E941C
:10138000F2090E94FF08F7CFF8948093B8001092FA
:10139000B9008FEF8093BB0084E08093BC00809104
:1013A000DE0281608093DE02789408950895909320
:1013B0004802809347020895089590934A028093CB
:1013C00049020895DF93CF930F92CDB7DEB786E938
:1013D00089838981815089838F5FD9F70F90CF915D
:1013E000DF910895DF93CF930F92CDB7DEB7809151
:1013F000BC0080FD71C08091DE0280FF50C08091F2
:10140000E502882309F468C08130D1F486E9898334
:101410008981815089838F5FD9F792E09093270368
:101420008091E0028093E7028091E1028093E802DC
:101430001092DE0285EA8093BC009093E5024CC0D6
:101440008230E1F486E989838981815089838F5FC5
:10145000D9F78091E2028F5F809327038091E002A9
:1014600081608093E0028093E7021092DE0285EAB9
:101470008093BC0083E08093E5022EC0833061F549
:101480001092E5028091E3029091E4022FEF8F3FEA
:10149000920711F1E0914702F09148021CC080913F
:1014A000BC0080FDFCCF9091DF029923A9F010923F
:1014B000E5028091DE0281608093DE021092E002FC
:1014C0001092E4021092E3021092E202E0914902CB
:1014D000F0914A02892F19950F90CF91DF910895CD
:1014E000FF920F931F93182F062FF42E02C00E9415
:1014F000F2098091BC0080FDFACF8091E50288233B
:10150000B1F782E08093E5021093E0020093E302DA
:101510001092E402F092E2021F910F91FF90089561
:10152000EF92FF920F931F93E82E162F042FF22EA7
:1015300002C00E94F2098091BC0080FDFACF809128
:10154000E5028823B1F781E08093E5021093E3027E
:101550001092E402E092E0020093E102F092E202D3
:101560001F910F91FF90EF9008959C018091BC0016
:1015700080FDFCCF8091DE0280FF0CC0E8EFF2E03E
:10158000D90170E06E0F7F1F02C081918D93E61725
:10159000F707D9F708958091BC0080FDFCCF8091BA
:1015A000DF020895FF920F931F93CF93DF93082FCD
:1015B000F62EEA01122F02C00E94F2098091BC00AF
:1015C00080FDFACF8091E5028823B1F781E0809316
:1015D000E5020093E0028FEF9FEF9093E402809387
:1015E000E302F092E1021093E20202C00E94F209CB
:1015F0008091BC0080FDFACF8091E5028823B1F78D
:101600008091DE0280FF05C01F5FCE01612F0E9426
:10161000B50ADF91CF911F910F91FF900895EF923E
:10162000FF920F931F93DF93CF930F92CDB7DEB747
:10163000082F7B01142F02C00E94F2098091BC0088
:1016400080FDFACF8091E5028823B1F786E989838E
:101650008981815089838F5FD9F782E08093E50289
:101660000093E0028FEF9FEF9093E4028093E302F8
:101670001093E20202C00E94F2098091BC0080FD3A
:10168000FACF8091E5028823B1F78091DE0280FFD6
:1016900005C01F5FC701612F0E94B50A0F90CF914F
:1016A000DF911F910F91FF90EF9008951F93DF93AB
:1016B000CF930F92CDB7DEB7182F02C00E94F20968
:1016C0008091BC0080FDFACF8091E5028823B1F7BC
:1016D00086E989838981815089838F5FD9F782E088
:1016E0008093E5021093E0028FEF9FEF9093E40266
:1016F0008093E30281E08093E20202C00E94F2093B
:101700008091E5028823D1F78091DE0280FD02C03E
:1017100080E002C08091F8020F90CF91DF911F917D
:1017200008950F931F93DF93CF930F92CDB7DEB73A
:10173000182F062F02C00E94F2098091BC0080FD84
:10174000FACF8091E5028823B1F786E98983898100
:10175000815089838F5FD9F782E0809327031093AC
:10176000E7020093E8021092DE0285EA8093BC0053
:101770000F90CF91DF911F910F910895FF920F93DA
:101780001F93DF93CF930F92CDB7DEB7182F062F9D
:10179000F42E02C00E94F2098091BC0080FDFACFB5
:1017A0008091E5028823B1F786E989838981815098
:1017B00089838F5FD9F783E0809327031093E70233
:1017C0000093E802F092E9021092DE0285EA80932B
:1017D000BC000F90CF91DF911F910F91FF90089562
:1017E000EF92FF920F931F93DF93CF930F92CDB79A
:1017F000DEB7182F062FF42EE22E02C00E94F20947
:101800008091BC0080FDFACF8091E5028823B1F77A
:1018100086E989838981815089838F5FD9F784E044
:10182000809327031093E7020093E802F092E90205
:10183000E092EA021092DE0285EA8093BC000F90EB
:10184000CF91DF911F910F91FF90EF900895DF925C
:10185000EF92FF920F931F93DF93CF930F92CDB729
:10186000DEB7182FF62EE42ED22E02C00E94F20907
:101870008091BC0080FDFACF8091E5028823B1F70A
:1018800086E989838981815089838F5FD9F785E0D3
:10189000809327031093E702F092E802E092E902B6
:1018A000D092EA020093EB021092DE0285EA809366
:1018B000BC000F90CF91DF911F910F91FF90EF909F
:1018C000DF900895EF92FF920F931F93DF93CF93D2
:1018D0000F92CDB7DEB7082FF62EE72E142F02C0D9
:1018E0000E94F2098091BC0080FDFACF8091E50250
:1018F0008823B1F786E989838981815089838F5F45
:10190000D9F7412F4F5F409327030093E702A8EEDA
:10191000B2E08F2D9E2D9C01F90102C081918D9323
:101920008E2F8F198417D0F31092DE0285EA8093F0
:10193000BC000F90CF91DF911F910F91FF90EF901E
:1019400008951F920F920FB60F920BB60F921124AB
:101950002F933F938F939F93EF93FF938091B900C1
:101960008832D1F0893240F48031A1F08831A1F081
:10197000883009F050C00EC0803459F1813420F411
:10198000883309F048C041C08035B9F0883509F086
:1019900042C02DC01092E6029091E602809127038A
:1019A000981768F5E92FF0E0E951FD4F80818093A9
:1019B000BB009F5F9093E60218C08091E602909171
:1019C000BB00E82FF0E0E950FD4F90838F5F8093DC
:1019D000E6022091E60230E08091270390E0019733
:1019E0002817390714F485EC1BC085E819C08091CD
:1019F000BB00E091E602F0E0E950FD4F808380916A
:101A0000DE0281608093DE020AC08091B90080937B
:101A1000DF0285EA05C08091B9008093DF0284E986
:101A20008093BC00FF91EF919F918F913F912F91F7
:101A30000F900BBE0F900FBE0F901F90189508953A
:101A400090934E0280934D0208950895909356020C
:101A500080935502089508959093500280934F0209
:101A60000895089590934C0280934B020895089531
:101A700090935202809351020895089590935402D6
:101A80008093530208958AE060E043E020914D0680
:101A90000E94F00B0895282F80934D068AE060E0A5
:101AA00043E00E94F00B0895282F8AE060E046E0B2
:101AB0000E94F00B02C00E94F2098091BC0080FDE0
:101AC000FACF8091E5028823B1F708950F93282F6C
:101AD000062F8AE060E045E00E94270C02C00E94C9
:101AE000F2098091BC0080FDFACF8091E502882345
:101AF000B1F70F9108950F931F93DF93CF930F9238
:101B00000F92CDB7DEB7882311F080E090C08DE84A
:101B100096E063E00E94B50A20918D068091490607
:101B2000822720934906082F10E0C8018076907024
:101B3000892B81F0229526952770822F81708093C2
:101B40007B062695217020937E06E0914B02F09152
:101B50004C021995C80186709070892B81F0809194
:101B600049068695982F917090934F0686958170BF
:101B700080938806E0914D02F0914E02199503FF83
:101B80001CC08AE06BE10E94910B8AE0BE016F5F8E
:101B90007F4F42E00E940F0B298130E086E0220F48
:101BA000331F8A95E1F78A8190E0282B392BE09149
:101BB0004F02F0915002C901199500FF1DC08AE043
:101BC00065E10E94910B8AE0BE016F5F7F4F42E0AA
:101BD0000E940F0B9A8180E0298130E0822B932BA9
:101BE00090938A068093890680914906E09151027C
:101BF000F09152028170199580918E0680934E0665
:101C000083FF05C0E0915302F09154021995809131
:101C10008F0680934C068091490687FF05C0E091AE
:101C20005502F091560219951092280381E00F9009
:101C30000F90CF91DF911F910F910895809128030C
:101C4000882369F48091030183FF09C081E08093B8
:101C500028038AE060E040E023E00E94900A0895B3
:101C600002C00E94F2098091BC0080FDFACF8091F1
:101C7000E5028823B1F786E090E00E9462120E949C
:101C80001E0E02C00E94F2098091BC0080FDFACFB6
:101C90008091E5028823B1F708958AE060E044E08E
:101CA0000E94BE0B0E94300E08951F93122F1092B7
:101CB0006A0697E090936B0680936C0660936D06BE
:101CC00050936E0640936F068AE06AE676E046E03F
:101CD0000E94620C0E94300E112349F004C00E9441
:101CE0001E0E0E94F20980914C0680FFF8CF1F91D2
:101CF00008951F93122F10926A0698E090936B0636
:101D000080936C0660936D0650936E0640936F0649
:101D10008AE06AE676E046E00E94620C0E94300E9D
:101D2000112349F004C00E941E0E0E94F209809106
:101D30004C0680FFF8CF1F9108958AE06DE040E5E2
:101D400056E024E00E94D20A9091510680E0209152
:101D50005006820F911D909379068093780690919A
:101D6000530680E020915206820F911D90937D06CC
:101D700080937C0608958AE063E040E556E028E120
:101D80000E94D20A80915006809374068091510679
:101D900080937A068091520680937506809153064F
:101DA000809387068091540680936906809155063A
:101DB000809368069091570680E020915606820F26
:101DC000911D90938606809385069091590680E038
:101DD00020915806820F911D9093800680937F0674
:101DE00090915B0680E020915A06820F911D90939E
:101DF00079068093780690915D0680E020915C06DC
:101E0000820F911D90937D0680937C0690915F06D2
:101E100080E020915E06820F911D90938C06809346
:101E20008B069091610680E020916006820F911DE3
:101E300090938406809383069091630680E02091BE
:101E40006206820F911D90938A0680938906909175
:101E5000650680E020916406820F911D90938206B2
:101E6000809381069091670680E020916606820F3C
:101E7000911D90937706809376060895982F809110
:101E80007A0086FF03C020E030E01CC0983020F0CC
:101E900088E080937B0002C010927B009770906472
:101EA00090937C0086ED80937A0080917A0086FD85
:101EB000FCCF80917A00806180937A002091780035
:101EC00030917900C90108958EBD0DB407FEFDCF94
:101ED00008958FEF8EBD0DB407FEFDCF8EB508952A
:101EE0008FEF8EBD0DB407FEFDCF3EB58FEF8EBDDB
:101EF0000DB407FEFDCF2EB5932F80E030E0282BE8
:101F0000392BC90108959EBD0DB407FEFDCF8EBDCE
:101F10000DB407FEFDCF0895FC0190E007C080815D
:101F20008EBD0DB407FEFDCF9F5F31969617B8F3B7
:101F30000895FC0190E02FEF07C02EBD0DB407FE01
:101F4000FDCF8EB581939F5F9617B8F3089598B132
:101F5000937C98B998B1880F880F8C73982B98B997
:101F60000895429898B1811184E0892B88B9089529
:101F7000439898B1811188E0892B88B908954498D5
:101F800098B1811180E1892B88B90895459898B15D
:101F9000811180E2892B88B9089582B91092C00618
:101FA0008091C00690E00797DCF3A19A26E930E023
:101FB000C90121503040892BD9F70000A19824E1B4
:101FC00030E0C90121503040892BD9F70000089535
:101FD000A2980E94CD0F24EF31E0C901215030407A
:101FE000892BD9F70000089581E00E94E80F2CE7C3
:101FF00035E1C90121503040892BD9F700000895FF
:1020000020ED34E8C90121503040892BD9F7000078
:10201000A098A298A19825E030E007C01092C006D1
:102020008091C00690E00C97DCF3215030408FEF98
:102030002F3F380799F780E30E94E80F2CEC38ED2A
:10204000C90121503040892BD9F7000022E330E04C
:1020500007C01092C0068091C00690E00C97DCF398
:10206000215030408FEF2F3F380799F780E30E94CF
:10207000E80F2CEC38EDC90121503040892BD9F7FD
:10208000000025E030E007C01092C0068091C00635
:1020900090E00C97DCF3215030408FEF2F3F380752
:1020A00099F780E30E94E80F2CEC38EDC90121502C
:1020B0003040892BD9F7000025E030E007C01092AE
:1020C000C0068091C00690E00C97DCF321503040B0
:1020D0008FEF2F3F380799F788E30E94E80F2CEC29
:1020E00038EDC90121503040892BD9F7000021E09B
:1020F00030E007C01092C0068091C00690E00C97B7
:10210000DCF3215030408FEF2F3F380799F788E0FC
:102110000E94E80F2CEC38EDC90121503040892B8A
:10212000D9F7000021E030E007C01092C00680918E
:10213000C00690E00C97DCF3215030408FEF2F3F2A
:10214000380799F781E00E94E80F2CEC38EDC901BF
:1021500021503040892BD9F7000021E030E007C042
:102160001092C0068091C00690E00C97DCF32150DD
:1021700030408FEF2F3F380799F782E00E94E80F39
:102180002CEC38EDC90121503040892BD9F70000E3
:1021900021E030E007C01092C0068091C00690E0B8
:1021A0000C97DCF3215030408FEF2F3F380799F721
:1021B0008CE00E94E80F2CEC38EDC9012150304032
:1021C000892BD9F7000021E030E007C01092C0064B
:1021D0008091C00690E00C97DCF3215030408FEFE7
:1021E0002F3F380799F725E030E007C01092C0066E
:1021F0008091C00690E00C97DCF3215030408FEFC7
:102200002F3F380799F70E94F40F0895A29A0E9471
:10221000CD0F22E330E0C90121503040892BD9F79E
:1022200000000895CF93DF93EC0102C00E940611D5
:10223000FE01219684918823C9F7DF91CF910895FB
:10224000CF93DF93EC0103C021960E940611888191
:102250008823D1F7DF91CF9108951F93CF93DF9318
:10226000162FEC01C40FD11D04C021960E94061147
:1022700011508881882311F01123B9F7DF91CF9194
:102280001F9108956068813009F4605C862F0E9478
:10229000E80F0895EF92FF920F931F938C017B013B
:1022A0000E94F40FC8010E94121181E060E00E94B8
:1022B0004211C7010E9412111F910F91FF90EF90E0
:1022C00008951F93142F0E94421104C080E20E94BF
:1022D000061111501123D1F71F910895949916C03A
:1022E00028EE33E0C90121503040892BD9F7000096
:1022F000949924C028EE33E0C90121503040892B45
:10230000D9F70000949902C081E00895939916C00E
:1023100028EE33E0C90121503040892BD9F7000065
:1023200093990CC028EE33E0C90121503040892B2D
:10233000D9F70000939902C082E0089580E00895E3
:1023400080912B03882341F00E946E11882311F4A1
:1023500010922B0380E008950E946E1180932B034E
:1023600008951F9310912A03112349F00E946E11C2
:10237000882311F010E007C010922A0304C00E94C5
:102380006E1180932A03812F1F9108951F920F923F
:102390000FB60F9211248F939F9380914A069091CC
:1023A0004B06019690934B0680934A068091C00697
:1023B0008F5F8093C0068091C1068F5F8093C106B6
:1023C0008150893008F46AC08091AF0680FF09C04F
:1023D0008091B0069091B10601969093B1068093DA
:1023E000B0068091AF0681FF09C08091B20690913E
:1023F000B30601969093B3068093B2068091AF0620
:1024000082FF09C08091B4069091B5060196909321
:10241000B5068093B4068091AF0683FF09C0809112
:10242000B6069091B70601969093B7068093B606CC
:102430008091AF0684FF09C08091B8069091B906DB
:1024400001969093B9068093B8068091AF0685FFF8
:1024500009C08091BA069091BB0601969093BB0685
:102460008093BA068091AF0686FF09C08091BC06B2
:102470009091BD0601969093BD068093BC06809115
:10248000AF0687FF09C08091BE069091BF060196F6
:102490009093BF068093BE061092C1069F918F91C4
:1024A0000F900FBE0F901F9018951092C006282F06
:1024B00030E02F5F3F4F8091C00690E0281739072A
:1024C000D4F708959C0109C01092C0068091C006FF
:1024D00090E00C97DCF32150304021153105A1F735
:1024E0000895DF93CF930F920F92CDB7DEB79A8303
:1024F000898389819A8101979A8389830196C9F793
:1025000000000F900F90CF91DF910895F999FECFC1
:1025100090E092BD81BD60BDFA9AF99A0895F9994B
:10252000FECF90E092BD81BDF89A80B50895F999EB
:10253000FECF12BC11BCF89A80B58A32E1F4F99949
:10254000FECF88E090E092BD81BDF89A80B580937F
:102550003501F999FECF87E090E092BD81BDF89AF0
:1025600080B5809334011092300186E0809332016F
:1025700088E9809331010895F999FECF12BC11BC0E
:10258000F89A80B58A3271F4F999FECF86E190E02D
:1025900092BD81BDF89A00B400FE04C081E0809332
:1025A000290308951092290308950F931F93F89417
:1025B000989AA098999AA19812B887EF85B983E85C
:1025C00088B90FEF0BB98DEF8EB901BB88E384BBDF
:1025D000009302018DE780930501009308018FE3CA
:1025E00080930B0101B914B88CE787B91AB812E0CF
:1025F0001DB910BA87E083BB1092010196E0909359
:1026000004011092070180EC80930A011092C5002A
:1026100089E18093C4001092C0009093C20028E921
:102620002093C1001092350183E080933401109211
:10263000300190933201209331010E947B140E945B
:10264000331614BD15BD87EC87BD08BD10936E0011
:102650000E9497120E94BC1278941F910F910895C6
:102660000F931F93462F0EE916E0B80150E00E9429
:10267000054CC8010E9420111F910F910895EF92FF
:10268000FF920F931F93DF93CF93CDB7DEB7619780
:102690000FB6F894DEBF0FBECDBF262F042F7E01EC
:1026A0000894E11CF11CB701422F50E00E94054C38
:1026B000F70101900020E9F73197EE19FF09102F7B
:1026C0001E1B11165CF4115080E30E9406111123A9
:1026D000D1F7CE0101960E94201106C01195C701C5
:1026E000602F412F0E942D1161960FB6F894DEBF26
:1026F0000FBECDBFCF91DF911F910F91FF90EF9053
:102700000895982F8091C00085FFFCCF9093C6005C
:102710000895FC0107C08091C00085FFFCCF319671
:102720009093C60090819923B1F708959C0106C04B
:102730008091C00085FFFCCF9093C600F9012F5F08
:102740003F4F94919923A1F70895FC01E40FF11DE7
:1027500008C08091C00085FFFCCF31969093C600E1
:1027600061509081992311F0662399F708951F9283
:102770000F920FB60F920BB60F9211242F933F9327
:102780004F935F938F939F93EF93FF934091320307
:102790005091330380913003909131039A01281BAB
:1027A000390BC901845F9140F8F480912E03909118
:1027B0002F032091C600FC01EB53F94F20830196B3
:1027C00090932F0380932E034F5F5F4F50933303FB
:1027D00040933203855F914020F010922F031092B6
:1027E0002E031092C40607C08091C6008093350363
:1027F00081E08093C406FF91EF919F918F915F914B
:102800004F913F912F910F900BBE0F900FBE0F90E5
:102810001F9018951092C406209130033091310317
:1028200080913203909133038217930711F4E0E013
:102830001EC02F5F3F4F30933103209330038091B0
:102840002C0390912D03855F914020F010922D0371
:1028500010922C0380912C0390912D03FC01EB53DB
:10286000F94FE081019690932D0380932C038E2FD6
:102870000895DC011092C40640E050E020C02F5FB4
:102880003F4F309331032093300380912C0390917C
:102890002D03FC01EB53F94F2081FD01E40FF51FDF
:1028A0002083019690932D0380932C03855F9140A4
:1028B00020F010922D0310922C034F5F5F4F209158
:1028C00030033091310380913203909133038217AA
:1028D000930719F04617570790F2CA0108952091FF
:1028E0003203309133038091300390913103281BE0
:1028F000390BC9010895E1ECF0E080818F77808386
:102900008091C6008093340310922D0310922C0303
:1029100010922F0310922E03109231031092300365
:1029200010923303109232031092C40680818068A3
:10293000808308950F931F93DF93CF93CDB7DEB7B6
:1029400061970FB6F894DEBF0FBECDBF462F8E0144
:102950000F5F1F4FB80150E00E94054CC8010E9454
:10296000891361960FB6F894DEBF0FBECDBFCF912D
:10297000DF911F910F910895FF920F931F93DF93A3
:10298000CF93CDB7DEB761970FB6F894DEBF0FBE19
:10299000CDBF262FF42E8E010F5F1F4FB801422F9F
:1029A00050E00E94054CF80101900020E9F73197B2
:1029B000E01BF10B4F2D4E1B14167CF490E341509D
:1029C0008091C00085FFFCCF9093C6004423B9F7E7
:1029D000CE0101960E94891305C04195C8016F2D53
:1029E0000E94A51361960FB6F894DEBF0FBECDBF4F
:1029F000CF91DF911F910F91FF9008950F931F9337
:102A0000DF93CF93CDB7DEB7A1970FB6F894DEBFB3
:102A10000FBECDBF242F8E010F5F1F4FA80130E0E6
:102A20000E94264CC8010E948913A1960FB6F89403
:102A3000DEBF0FBECDBFCF91DF911F910F910895E3
:102A4000382F01C000008091300185FFFBCF20911D
:102A5000BB02909136038091030187FF04C02223BB
:102A600011F091E0F8CF909336033093360108953A
:102A7000CF93DF93EC0103C021960E94201588813B
:102A80008823D1F7DF91CF910895CF93DF93EC01A5
:102A900002C00E942015FE01219684918823C9F767
:102AA000DF91CF9108951F93CF93DF93162FEC0101
:102AB000C40FD11D04C021960E9420151150888199
:102AC000882311F01123B9F7DF91CF911F91089559
:102AD0001F920F920FB60F920BB60F9211242F93E5
:102AE0003F934F935F938F939F93EF93FF93409107
:102AF0003D0350913E0380913B0390913C039A012A
:102B0000281B390BC901885E9340F8F48091390382
:102B100090913A0320913601FC01E554F64F208351
:102B2000019690933A03809339034F5F5F4F509320
:102B30003E0340933D03895E934020F010923A0398
:102B4000109239031092BA090CC08091360180931B
:102B50004A038091050184608093050181E08093A0
:102B6000BA09FF91EF919F918F915F914F913F91A2
:102B70002F910F900BBE0F900FBE0F901F901895C6
:102B800020913B0330913C0380913D0390913E03A3
:102B90008217930711F4E0E025C02F5F3F4F309379
:102BA0003C0320933B038091370390913803895E67
:102BB000934020F010923803109237031092BA0914
:102BC000809105018B7F809305018091370390915F
:102BD0003803FC01E554F64FE081019690933803E9
:102BE000809337038E2F0895DC0140E050E023C02E
:102BF00080913B0390913C03019690933C0380931A
:102C00003B038091370390913803FC01E554F64F64
:102C10002081FD01E40FF51F208301969093380376
:102C200080933703895E934020F01092380310920E
:102C300037034F5F5F4F46175707D0F21092BA091C
:102C4000809105018B7F80930501CB010895209130
:102C50003D0330913E0380913B0390913C03281B40
:102C6000390BC9010895E1E3F1E080818F7780831A
:102C700080913601809349031092380310923703F4
:102C800010923A031092390310923C0310923B03C6
:102C900010923E0310923D031092BA098081806821
:102CA0008083E5E0F1E080818B7F808308958A3026
:102CB00011F08D3021F590914803992379F08A30F5
:102CC00019F49D3059F404C08D3041F49A3031F438
:102CD000109248031092460380E0089580934803C1
:102CE00080914603E82FF0E0E654F74F108280937E
:102CF0004403109245031092460381E00895909199
:102D000046039F3F71F41092B9098FEF90E09093C2
:102D1000450380934403109248031092460382E0D7
:102D2000089510924803E92FF0E0E654F74F8083AE
:102D30009F5F9093460380E0089587E592E00E94AC
:102D400089138FE792E00E94381581E892E00E9493
:102D5000381586E990E00E9462128FE792E00E94A7
:102D6000381582E390E00E94621281E892E00E94AE
:102D7000381586E990E00E9462128FE792E00E9487
:102D8000381581E892E00E9438158FE792E00E94A2
:102D9000381586E990E00E94621287E892E00E946E
:102DA000891304C00E94C0150E94811320913D0325
:102DB00030913E0380913B0390913C0328173907E3
:102DC00089F787EA92E00E9489130895CF92DF92F3
:102DD000EF92FF920F931F93082F6A017B0183EFFD
:102DE00098E00E949613802F0E94811380EF98E054
:102DF0000E94961340E050E060E070E020913D03B7
:102E000030913E0380913B0390913C032817390792
:102E1000E1F00E94C015182F0E948113101789F449
:102E20008AEE98E00E949613802F0E94811387EE0D
:102E300098E00E9496138AE090E00E94621281E07E
:102E400018C040E050E060E070E04C155D056E0594
:102E50007F0550F08DED98E00E94961384E690E097
:102E60000E94621280E005C04F5F5F4F6F4F7F4F3F
:102E7000C5CF1F910F91FF90EF90DF90CF900895F5
:102E8000CF92DF92EF92FF921F93CF93DF93EC01EB
:102E90006A017B0189ED98E00E949613CE010E94A1
:102EA000891386ED98E00E94961340E050E060E0C0
:102EB00070E020913D0330913E0380913B0390915F
:102EC0003C032817390769F10E94C015182F0E948A
:102ED0008113812F0E9457168823F9F080914403B3
:102EE000909145030297C8F08AEB98E0BE010E94DA
:102EF000EB4B009791F080ED98E00E9496138AEBDF
:102F000098E00E9489138DEC98E00E9496138AE065
:102F100090E00E94621281E018C040E050E060E062
:102F200070E04C155D056E057F0550F083EC98E070
:102F30000E94961384E690E00E94621280E005C031
:102F40004F5F5F4F6F4F7F4FB4CFDF91CF911F9196
:102F5000FF90EF90DF90CF9008958AE398E00E9471
:102F600096130E943316809129038823A1F187E2EA
:102F700098E00E949613469A85E090E00E946212C3
:102F80008FE792E00E9438158FE348EF54E261E04A
:102F900070E00E94E6168823E1F4469880E098E00D
:102FA0000E94961385E090E00E946212469A85E0A6
:102FB00090E00E9462128FE792E00E9438158FE342
:102FC00040EB51E76BE070E00E94E616882331F198
:102FD0004698469816C08DEE97E00E94961384E0BE
:102FE00091E00E94621289EA92E00E9438158DEA0F
:102FF00092E040EE50E762E770E00E9440178823BD
:1030000069F085E090E00E9462128FE792E00E94F2
:10301000381581E090E00E94621208950E949D168A
:103020000895CF92DF92EF92FF920F931F93CF9369
:10303000DF93EC0187E399E00E949613CE010E9492
:10304000891384E399E00E9496130E94331642C0CC
:103050008D2D0E9481138D2D0E94201596E9E92E59
:10306000F12C012D112DCC2482E00E9455122091CB
:103070003D0330913E0380913B0390913C03281720
:10308000390729F00E94C0158D15E9F422C0E1141A
:10309000F1040105110531F00894E108F108010976
:1030A0001109E2CF81E08C1570F084E199E00E9473
:1030B00096138D2D0E942015C3948AEFE82EF12CD3
:1030C000012D112DD1CF8CE099E00E94961380E064
:1030D0000AC02196D880DD2009F0BACF87EF98E0AA
:1030E0000E94961381E0DF91CF911F910F91FF9085
:1030F000EF90DF90CF9008950F931F93CF93DF93BE
:10310000EC018B018BEB98E00E949613CE010E949C
:10311000891387EB98E00E949613C8010E948913D7
:1031200084EB98E00E949613CE010E9411181816A5
:1031300034F081E998E00E9496138FEF6CC08FE71E
:1031400092E00E94381540E050E060E070E020918D
:103150003D0330913E0380913B0390913C0328173F
:10316000390749F10E94C0150E945716882309F4B7
:1031700049C08091440390914503029708F442C0EE
:103180008AEB98E0B8010E94EB4B0097D9F186E8F2
:1031900098E00E9496138AEB98E00E94891383E8D6
:1031A00098E00E9496138AE090E00E9462121092CA
:1031B000470381E030C0403980ED580783E068075D
:1031C00080E0780718F18CE798E00E949613CE0112
:1031D0000E94891387E698E00E94961384E690E0A7
:1031E0000E94621280914703833040F48F5F809386
:1031F000470384E598E00E94961384CF109247031A
:1032000080E009C040E050E060E070E04F5F5F4F59
:103210006F4F7F4F9CCFDF91CF911F910F910895FA
:1032200083ED97E00E9496138FE792E00E94381595
:1032300086E990E00E94621281EB92E066EB72E018
:103240000E947C1808950F931F93DF93CF93CDB7FF
:10325000DEB761970FB6F894DEBF0FBECDBF462F25
:103260008E010F5F1F4FB80150E00E94054CC8014E
:103270000E94381561960FB6F894DEBF0FBECDBF21
:10328000CF91DF911F910F910895EF92FF920F93CD
:103290001F93DF93CF93CDB7DEB761970FB6F89446
:1032A000DEBF0FBECDBF262F042F7E010894E11C88
:1032B000F11CB701422F50E00E94054CF70101902C
:1032C0000020E9F73197EE19FF09102F1E1B111688
:1032D0005CF4115080E30E9420151123D1F7CE0138
:1032E00001960E94381506C01195C701602F412F25
:1032F0000E94531561960FB6F894DEBF0FBECDBF86
:10330000CF91DF911F910F91FF90EF9008950F9350
:103310001F93DF93CF93CDB7DEB7A1970FB6F89485
:10332000DEBF0FBECDBF242F8E010F5F1F4FA80140
:1033300030E00E94264CC8010E943815A1960FB6B5
:10334000F894DEBF0FBECDBFCF91DF911F910F91DB
:10335000089581E0089580E00895282F8FEF8EBDB5
:103360000DB407FEFDCF8DB58F778DBD8EB5822F45
:1033700080648EBD0DB407FEFDCF8DB58F778DBDFA
:10338000872F9927AA27BB278EBD0DB407FEFDCF37
:103390008DB58F778DBDCB01AA27BB278EBD0DB410
:1033A00007FEFDCF8DB58F778DBDBB27A72F962F3D
:1033B000852F8EBD0DB407FEFDCF8DB58F778DBDEA
:1033C0004EBD0DB407FEFDCF8DB58F778DBD222389
:1033D00019F0283069F406C085E98EBD0DB407FEEA
:1033E000FDCF0BC087E88EBD0DB407FEFDCF05C035
:1033F0008FEF8EBD0DB407FEFDCF8DB58F778DBDE0
:1034000090E02FEF2EBD0DB407FEFDCF8DB58F7769
:103410008DBD8EB58F3F19F49F5F9A3099F708954F
:103420008F929F92AF92BF92CF92DF92EF92FF92D4
:103430000F931F93CF93DF93EC01009781F08DE101
:10344000FE0111928A95E9F728988AE040E050E061
:1034500060E070E00E94AD19882319F0289A80E09E
:1034600021C19FEF9EBD0DB407FEFDCF8DB58F77B7
:103470008DBD8EB58E3FB1F71C2FCE01FC0160E6ED
:1034800070E00FEF9E2F911B0EBD0DB407FEFDCF18
:103490008DB58F778DBD2EB5983028F4933088F494
:1034A000992359F00CC09D3018F4993070F40BC07A
:1034B0009D3019F19E3069F524C028832AC02083ED
:1034C00028C0218326C02A8724C030E040E050E095
:1034D000062E04C0220F331F441F551F0A94D2F733
:1034E0008B859C85AD85BE85822B932BA42BB52B1C
:1034F0008B879C87AD87BE870CC02295207F2F8746
:1035000008C0922F92959F708F85892B8F872F707F
:10351000288B3196685070408FEF603D780709F036
:10352000B1CF89E040E050E060E070E00E94AD196A
:10353000882309F093CF9FEF9EBD0DB407FEFDCF0A
:103540008DB58F778DBD8EB58E3FB1F780915405C7
:10355000C82EDD24E2E0CE22DD249924BB24EE2413
:10356000FF2410E088248A94AA24A3948EBC0DB46E
:1035700007FEFDCF8DB58F778DBD2EB51E3081F442
:10358000822F90E026FDA98E85FDAA8E84FDAB8E4C
:103590008C70907095958795959587958C8F7CC04C
:1035A000C114D10439F1173029F0173050F01A3016
:1035B00040F401C02F739E2D8827E22EFF24E82AB5
:1035C000F92A193009F068C00894E11CF11C970130
:1035D00040E050E060E070E080E090E003E10E94B5
:1035E0004149298B3A8B4B8B5C8B6D8B7E8B8F8B00
:1035F000988F52C01730D9F0183030F4153061F080
:10360000163009F049C00CC0193031F11930C0F042
:103610001A3009F041C025C07FE0972E92223CC0AD
:10362000822F90E083709070F82EEE2435C0822FA8
:1036300090E0E82AF92AEE0CFF1CEE0CFF1C2CC0CF
:103640002295269526952370822F90E0E82AF92A64
:103650000894E11CF11C20C043E0B42EB222BB0C44
:103660001BC0221F2227221FB22A970140E050E0F0
:10367000E92DF0E03296EB0DF11D04C0220F331F4F
:10368000441F551FEA95D2F7298B3A8B4B8B5C8BE5
:103690001D8A1E8A1F8A188E1F5F123109F066CF9D
:1036A000289A81E0DF91CF911F910F91FF90EF90C9
:1036B000DF90CF90BF90AF909F908F9008952F9202
:1036C0003F924F925F926F927F928F929F92AF92B2
:1036D000BF92CF92DF92EF92FF920F931F93DF93EF
:1036E000CF93CDB7DEB72C970FB6F894DEBF0FBEE1
:1036F000CDBF39014A015B016C011A830983FC8249
:10370000EB8290C1BFEF4B2EB1E05B2E46205720DD
:103710009201A62DA419AA87E1E06A1608F0E0E05C
:10372000872D831B21E0781608F020E0B82FBE1B00
:10373000BD8391E08B1708F090E0292BE82DE21B68
:10374000EE8331E08E1608F030E0F92DF31BFF8395
:1037500061E09F1608F060E02A2D261B288771E0A3
:10376000A21608F070E02B2C271A91E0B21408F092
:1037700090E03C2C391A91E0C31408F090E03D2D04
:10378000391B398780E092E0841995099C878B87E3
:10379000AB81BC81A817B90710F4BC87AB878091B7
:1037A0004B05BA858B1709F580914C05ED818E1775
:1037B000E1F480914D05FE818F17B9F480914E059B
:1037C0002F81821791F480914F053885831769F412
:1037D00080915005821549F480915105831529F493
:1037E0008091520599858917A9F10E94331D88237C
:1037F00009F41FC14114510429F4AB85BC85A050C4
:10380000B24090F42A853D814E815F816885722D9A
:10381000832D99850BE413E0E12CA2E0FA2E0E949F
:103820005E1D882309F405C1FA85F0934B052D81AF
:1038300020934C053E8130934D058F8180934E053A
:10384000988590934F052092500530925105A98597
:10385000A0935205E981FA81EB54F340A1F0920163
:10386000255B3C4FC90169817A814B855C850E944B
:103870009F4B109253058B819C81AB85BC858A1729
:103880009B0709F4D4C028988091540582FF0FC08B
:103890002A853D814E815F816885722D832D9985B2
:1038A00009E00E94C248BA01A9019B0105C08A85AE
:1038B0009D812E813F81AC0188E1B9010E94AD1943
:1038C000882311F0289AB5C0BEEFBEBD0DB407FE27
:1038D000FDCF8DB58F778DBDEBE4F3E081918EBD8B
:1038E0000DB407FEFDCF8DB58F778DBD25E0EB3490
:1038F000F207A1F73FEF3EBD0DB407FEFDCF8DB53A
:103900008F778DBD8FEF8EBD0DB407FEFDCF8DB5CA
:103910008F778DBD9FEF9EBD0DB407FEFDCF8DB59A
:103920008F778DBD8EB58F3FA9F78EBD0DB407FE85
:10393000FDCF8DB58F778DBD8EB5289AA981BA81BF
:10394000EB85FC85AE0FBF1FBA83A9839F0140E0C2
:1039500050E060E070E080E090E0462C4E0EF1E038
:10396000461408F0F0E0E72DE30FA1E0E71508F0BA
:10397000A0E05F2E5E0EF1E05E1608F0F0E0AF2BE7
:10398000E82DE40FB1E0E81508F0B0E0EA2EEE0E05
:10399000F1E0EE1608F0F0E0BF2BE92DE50FA1E015
:1039A000E91508F0A0E0FB2EFE0EF1E0FE1608F08F
:1039B000F0E0AF2BEA2DE60FB1E0EA1508F0B0E039
:1039C0000A2F0E0FF1E00E1708F0F0E0BF2BEB2DE1
:1039D000E70FA1E0EB1508F0A0E01B2F1E0FF1E0B0
:1039E0001E1708F0F0E0AF2BEC2DE80FB1E0EC155E
:1039F00008F0B0E0AE0FF1E0AE1708F0F0E0BF2B3A
:103A00008D2D890F3201470158016D01D80E2B8190
:103A10003C818B859C85281B390B3C832B8391E053
:103A200090935305AB81BC81AB2B09F06BCE81E049
:103A300001C080E02C960FB6F894DEBF0FBECDBF5C
:103A4000CF91DF911F910F91FF90EF90DF90CF907A
:103A5000BF90AF909F908F907F906F905F904F90AE
:103A60003F902F900895EF92FF920F931F938091B4
:103A70005305882311F081E01CC020914B05309143
:103A80004C0540914D0550914E0560914F05709148
:103A9000500580915105909152050BE413E0E12C03
:103AA000E2E0FE2E0E945F1B882319F081E08093E4
:103AB00053051F910F91FF90EF9008952F923F9221
:103AC0004F925F926F927F928F929F92AF92BF922E
:103AD000CF92DF92EF92FF920F931F93DF93CF93DA
:103AE000CDB7DEB729970FB6F894DEBF0FBECDBFB6
:103AF00039014A015B016C012801FA82E9826BC13C
:103B0000FFEFEF2EF1E0FF2EE620F7209701A62D24
:103B1000AE19AF83E1E06A1608F0E0E0872D831B61
:103B200021E0781608F020E0B82FBE1BBB8391E09F
:103B30008B1708F090E0292B382C321A31E08314CF
:103B400008F030E0192D131B61E0911608F060E0D9
:103B5000EA2DE61BEC8371E0AE1608F070E0FB2D59
:103B6000F71BFD8391E0BF1608F090E02C2C291A7A
:103B700091E0C21408F090E02D2D291B2E8380E0E7
:103B800092E08E199F0999878887A981BA81A81721
:103B9000B90710F4B987A88780914B05BF818B17AF
:103BA00009F580914C05EB818E17E1F480914D056C
:103BB0008315C1F480914E058117A1F480914F05C2
:103BC000FC818F1779F4809150052D81821751F473
:103BD00080915105821531F4809152053E81831701
:103BE00009F483C00E94331D882309F4FAC0289881
:103BF0008091540582FF0FC02F813B81432D512FAF
:103C00006C817D81822D9E8109E00E94C248BA01AB
:103C1000A9019B0105C08F819B81232D312FAC0110
:103C200081E1B9010E94AD19882319F0289A80E03A
:103C3000D8C08FEF8EBD0DB407FEFDCF8DB58F7749
:103C40008DBD8EB58E3FA9F7EBE4F3E09FEF9EBDEF
:103C50000DB407FEFDCF8DB58F778DBD8EB58083FA
:103C6000A5E0EA34FA0711F03196F0CFBF81B093A6
:103C70004B05EB81E0934C0530924D0510934E05BA
:103C8000FC81F0934F052D81209350052092510522
:103C90003E81309352059701255B3C4FC201B9012B
:103CA000488559850E949F4B8FEF8EBD0DB407FE4E
:103CB000FDCF8DB58F778DBD8EB59FEF9EBD0DB4B9
:103CC00007FEFDCF8DB58F778DBD8EB5289AAFEFEE
:103CD000AEBD0DB407FEFDCFE885F9854E0E5F1E23
:103CE0008DB58F778DBD8EB50DC09701255B3C4F8F
:103CF000C201B901488559850E949F4B28853985A5
:103D0000420E531E89819A81A885B9858A1B9B0B17
:103D10009A838983AD0160E070E080E090E0A0E0EC
:103D2000B0E0262C240E31E0261408F030E0272DD8
:103D3000250FE1E0271508F0E0E0332E320E31E0E8
:103D4000321608F030E0E32B282D260FF1E028157D
:103D500008F0F0E0EE2EE20E31E0E21608F030E07E
:103D6000F32B292D270FE1E0291508F0E0E0FF2EC5
:103D7000F20E31E0F21608F030E0E32B2A2D280F86
:103D8000F1E02A1508F0F0E00E2F020F31E00217E3
:103D900008F030E0F32B2B2D290FE1E02B1508F074
:103DA000E0E01F2F120F31E0121708F030E0E32B94
:103DB0002C2D2A0FF1E02C1508F0F0E0E20F31E095
:103DC000E21708F030E0F32B8D2D8B0F3101470106
:103DD00058016F01D80EE981FA81EF2B09F090CEDE
:103DE00081E029960FB6F894DEBF0FBECDBFCF910C
:103DF000DF911F910F91FF90EF90DF90CF90BF90D8
:103E0000AF909F908F907F906F905F904F903F907A
:103E10002F9008952F923F924F925F926F927F92D0
:103E20008F929F92AF92BF92CF92DF92EF92FF92CA
:103E30000F931F93DF93CF93CDB7DEB760970FB685
:103E4000F894DEBF0FBECDBF522E432E4B835C8352
:103E50006D837E838F839887180137019A828982C8
:103E60000115110509F488C0E114F10409F484C0B6
:103E7000CE14DF0408F480C0A114B10409F47CC09E
:103E8000882499248E189F08CE18DF08970140E0F7
:103E900050E060E070E080E090E0E9863A874B8790
:103EA0005C876D877E878F87988B252D342D4B817E
:103EB0005C816D817E818F819885810173010E9473
:103EC0005E1D882309F458C0C101052D142D2B81D6
:103ED0003C814D815E816F817885E980FA80F501B2
:103EE0001995882309F44AC0C80CD91CC601860D4F
:103EF000971D8615970508F441C03985350D91E069
:103F0000351508F090E08A85840D21E0841508F0CD
:103F100020E0192F180F91E0181708F090E0922B6D
:103F20004B81940F81E0941708F080E06C81680F5A
:103F300081E05C81651708F080E05D81580F81E0C9
:103F40007D81571708F080E04E81480F81E02E8177
:103F5000421708F080E07F81870F21E0871708F083
:103F600020E0532E412E9B836C835D834E838F8391
:103F70008885820F888799CF80E001C081E06096B4
:103F80000FB6F894DEBF0FBECDBFCF91DF911F916A
:103F90000F91FF90EF90DF90CF90BF90AF909F90E8
:103FA0008F907F906F905F904F903F902F900895EB
:103FB0008F929F92BF92CF92DF92EF92FF920F93D8
:103FC0001F93CF93DF93229A219A209A2398289ABD
:103FD00083E58CBD8DB58E7F8DBD1092540590E02C
:103FE0002FEF2EBD0DB407FEFDCF8DB58F778DBDA4
:103FF0008EB59F5F9A30A9F7289800E010E080E026
:1040000040E050E060E070E00E94AD19F82E81E0E1
:10401000F81641F081E00F3F180709F4C3C00F5FA5
:104020001F4FEDCF88E04AEA51E060E070E00E9467
:10403000AD1982FD2DC08FEF8EBD0DB407FEFDCFF3
:104040008DB58F778DBD8EB58FEF8EBD0DB407FE0C
:10405000FDCF8DB58F778DBD8EB58FEF8EBD0DB435
:1040600007FEFDCF8DB58F778DBD0EB400FECAC0A3
:104070008FEF8EBD0DB407FEFDCF8DB58F778DBD53
:104080008EB58A3A09F0BEC082E08093540512C012
:1040900087E340E050E060E070E00E94AD1989E203
:1040A00040E050E060E070E00E94AD1982FD02C087
:1040B000F0925405B09054058B2D90E003E0802ED3
:1040C000912C8822992212E0C12ED12CC822D9220B
:1040D000C0E0D0E081149104B9F0C114D10431F0F2
:1040E000E12CF12C012DB0E41B2F03C0EE24FF24A2
:1040F000870187E340E050E060E070E00E94AD1986
:1041000089E2B801A70105C081E040E050E060E02D
:1041100070E00E94AD1980FF07C08FE7CF3FD8073E
:1041200009F440C02196D6CFCD2899F18AE340E02A
:1041300050E060E070E00E94AD19882399F58FEFA0
:104140008EBD0DB407FEFDCF8DB58F778DBD0EB43E
:1041500006FE04C084E0B82AB09254058FEF8EBDED
:104160000DB407FEFDCF8DB58F778DBD8EB58FEF6A
:104170008EBD0DB407FEFDCF8DB58F778DBD8EB58D
:104180008FEF8EBD0DB407FEFDCF8DB58F778DBD42
:104190008EB580E140E052E060E070E00E94AD1931
:1041A000882311F0289A2EC0289A8CB58C7F8CBD5C
:1041B0008DB581608DBD8FEF80934B0580934C054D
:1041C00080934D0580934E0580934F058093500555
:1041D000809351058093520581E08093530520E040
:1041E00030E040E050E060E070E080E090E00BE420
:1041F00013E0E12CA2E0FA2E0E945E1D882319F044
:1042000081E001C080E0DF91CF911F910F91FF907D
:10421000EF90DF90CF90BF909F908F9008952F9256
:104220003F924F925F926F927F928F929F92AF9246
:10423000BF92CF92DF92EF92FF920F931F93DF9383
:10424000CF93CDB7DEB728970FB6F894DEBF0FBE79
:10425000CDBF922E832E542E452E362E272E8D83A3
:104260009E833801F886EF82DA82C982BC82AB82F3
:104270000115110509F47EC0CD2809F47BC0BB24CB
:10428000EF2809F06EC0BB24B3946BC0C301092DA5
:10429000182D252D342D432D522D6D817E81EB80DF
:1042A000FC80A981BA81FD0119956C01009709F480
:1042B00063C0BB2031F4EF81F885E817F90708F4F3
:1042C00059C0292D382D452D542D632D722D8D81EA
:1042D0009E81830176010E945F1B882309F44AC0F6
:1042E0009601F92DFC0DE1E0F91508F0E0E0882DCC
:1042F000830F21E0881508F020E01E2F180F91E0B1
:10430000181708F090E0922B950D81E0951508F0B4
:1043100080E0682F640D81E0641508F080E0582F7C
:10432000530D81E0531508F080E0482F420D81E0E5
:10433000421508F080E02D81820F21E03D81831736
:1043400008F020E09F2E812E592E462E1A018D83D3
:104350008E81820F8E83AF81B885AC19BD09B88775
:10436000AF83BB2009F092CFEF81F885EF2B09F0E6
:104370008DCF02C080E001C081E028960FB6F8948E
:10438000DEBF0FBECDBFCF91DF911F910F91FF9088
:10439000EF90DF90CF90BF90AF909F908F907F90E5
:1043A0006F905F904F903F902F900895FC01009781
:1043B00011F01182108208952F923F924F925F92D6
:1043C0006F927F928F929F92AF92BF92CF92DF9225
:1043D000EF92FF920F931F93DF93CF93CDB7DEB78A
:1043E00028970FB6F894DEBF0FBECDBFFC01009733
:1043F00009F440C1423051056105710508F43AC124
:1044000080809180D40118968C915A016B0162844E
:104410005384448435842684B785BF8390899887E4
:1044200071888B3009F093C09A01A60160E070E0BA
:1044300080E090E002E00E944149E32FF42FA52F95
:10444000B62F172F082FE92EF22EF60C31E0F216B8
:1044500008F030E02E2F250D41E02E1708F040E047
:10446000320FE1E0321708F0E0E04E2B2F2F240D41
:1044700051E02F1708F050E0420FE1E0421708F03A
:10448000E0E05E2B2A2F230D61E02A1708F060E0A0
:10449000520FE1E0521708F0E0E06E2B2B2F220DB7
:1044A00071E02B1708F070E0620FE1E0621708F08E
:1044B000E0E07E2B2F81210F81E0211708F080E0C2
:1044C000720FE1E0721708F0E0E08E2B2885200FD4
:1044D00091E0201708F090E0820FE1E0821708F0E9
:1044E000E0E09E2B7E0CD401ED91FC912F2D970DD9
:1044F0008E010D5F1F4FB4E0EB2EF12C1995882330
:1045000009F4B8C02B813C814D815E8121153105B4
:104510004105510509F4B2C0273FBFEF3B07BFEF8C
:104520004B07BFE05B0709F4A5C0DA01C901805F52
:104530009F4FAF4FBF400797A105B10508F49AC040
:10454000DA01C901885F9F4FAF4FBF408FC09A010A
:10455000A60160E070E080E090E001E00E94414947
:10456000E32FF42FA52FB62F172F082FE92EF22EA9
:10457000F60C31E0F21608F030E02E2F250D41E068
:104580002E1708F040E0320FE1E0321708F0E0E0CB
:104590004E2B2F2F240D51E02F1708F050E0420F23
:1045A000E1E0421708F0E0E05E2B2A2F230D61E0E6
:1045B0002A1708F060E0520FE1E0521708F0E0E03F
:1045C0006E2B2B2F220D71E02B1708F070E0620F7D
:1045D000E1E0621708F0E0E07E2B2F81210F81E0FF
:1045E000211708F080E0720FE1E0721708F0E0E0B8
:1045F0008E2B2885200F91E0201708F090E0820F85
:10460000E1E0821708F0E0E09E2B7E0CD401ED91F2
:10461000FC912F2D970D8E010F5F1F4FA2E0EA2E08
:10462000F12C1995882331F189819A819C0140E010
:1046300050E0211531054105510501F1273FBFEF3C
:104640003B07B0E04B07B0E05B07A1F0DA01C9011E
:10465000805F9F4FA040B0400797A105B10550F083
:10466000DA01C901885F9F4FA040B0400897A105BB
:10467000B10520F420E030E040E050E0B901CA018B
:1046800028960FB6F894DEBF0FBECDBFCF91DF9155
:104690001F910F91FF90EF90DF90CF90BF90AF9060
:1046A0009F908F907F906F905F904F903F902F9052
:1046B00008952F923F924F925F926F927F928F92C6
:1046C0009F92AF92BF92CF92DF92EF92FF920F93A1
:1046D0001F93DF93CF93CDB7DEB764970FB6F894EF
:1046E000DEBF0FBECDBF2C013A014B01009709F48C
:1046F000A9C1423051056105710508F4A3C1D20179
:104700001A96BC91BC87F201F385FD87D2011C96F5
:10471000BC91BE87F201F585FF87D2011E96BC9140
:10472000B88BF201F785F98BD2015096BC91BA8B08
:10473000F201F189FB8BD201ED91FC9180858B30E8
:1047400009F0D6C0640153019301A60160E070E056
:1047500080E090E002E00E944149E32FF42FB52F62
:10476000162F072FF82EA92F8C85820F8C8B31E006
:10477000821708F030E02D852E0F41E02E1708F04B
:1047800040E0320F3F8331E09F81921708F030E024
:10479000432B2E852F0F51E02F1708F050E0420FCA
:1047A000488731E0421708F030E0532B2F852B0F5C
:1047B00061E02B1708F060E0520F598731E0521783
:1047C00008F030E0632B2889210F71E0211708F0F1
:1047D00070E0620F6A8731E0621708F030E0732BF7
:1047E0002989200F81E0201708F080E0720F7B8775
:1047F00031E0721708F030E0832B2A892F0D31E069
:104800002F1508F030E0282E220E91E0221608F035
:1048100090E0332E392ABB89AB0F3A0ED201ED91CD
:10482000FC910190F081E02D2C893F8148855985CC
:104830006A857B85C1018E010D5F1F4FB4E0EB2EB1
:10484000F12C1995882309F4FDC0AB80BC80CD8084
:10485000DE80A114B104C104D10409F4F5C0D6016D
:10486000C501805F9F4FAF4FBF400897A105B105BD
:1048700008F4E8C0D601C501885F9F4FAF4FBF4025
:104880000897A105B10518F4AA24BB246501F2011B
:1048900086A597A5A0A9B1A90097A105B10539F4EE
:1048A000D2019E966D927D928D929C92D1971B82A1
:1048B0001C821D821E82D201ED91FC910480F58143
:1048C000E02D2C893F81488559856A857B85C1010A
:1048D0008E010D5F1F4FA4E0EA2EF12C19953501D2
:1048E0004601A114B104C104D10409F02BCFACC01E
:1048F000640153019301A60160E070E080E090E064
:1049000001E00E944149E32FF42FB52F162F072F06
:10491000F82EA92F2C84220E31E0221608F030E068
:104920002D852E0F41E02E1708F040E0332E320E79
:1049300031E0321608F030E0432B2E852F0F51E086
:104940002F1708F050E0642E620E31E0621608F076
:1049500030E0532B2F852B0F61E02B1708F060E020
:10496000752E720E31E0721608F030E0632B288944
:10497000210F71E0211708F070E0862E820E31E0E1
:10498000821608F030E0732B2989200F81E0201770
:1049900008F080E0972E920E31E0921608F030E099
:1049A000832B2A892F0D31E02F1508F030E0A82E37
:1049B000A20E91E0A21608F090E0B32EB92ABB89AE
:1049C000AB0FBA0ED201ED91FC910190F081E02D78
:1049D0009101A301B401C5018E010F5F1F4FB2E029
:1049E000EB2EF12C1995882369F1C980DA80C11466
:1049F000D10451F1C6014096089720F1B8EFCB16CB
:104A0000BFEFDB0610F0CC24DD241A821982D2011C
:104A1000ED91FC910480F581E02D9101A301B40199
:104A2000C5018E010F5F1F4FA2E0EA2EF12C1995F0
:104A3000360188249924611471048104910409F0D9
:104A400057CF02C080E001C081E064960FB6F894B1
:104A5000DEBF0FBECDBFCF91DF911F910F91FF90B1
:104A6000EF90DF90CF90BF90AF909F908F907F900E
:104A70006F905F904F903F902F9008952F923F92AC
:104A80004F925F926F927F928F929F92AF92BF925E
:104A9000CF92DF92EF92FF920F931F93DF93CF930A
:104AA000CDB7DEB7AD970FB6F894DEBF0FBECDBF62
:104AB000998F888F4A8F5B8F6C8F7D8FB90100979C
:104AC00009F41BC3DC01ED91FC9111972081318128
:104AD0003F8B2E8B448155815D8B4C8B1A965C915C
:104AE0001A975CA31B968C911B978DA31C969C9187
:104AF0001C979EA31D96AC91AFA3A88DB98D1E9651
:104B0000BC91B8A7A88DB98D1F96BC91B9A7A88DE7
:104B1000B98D5096BC91BAA7A88DB98D5196BC910C
:104B2000BBA7A88DB98D9E962D903D904D905C9021
:104B3000D1971B8680858B3011F4B1E0BB87E88D5F
:104B4000F98D82899389A489B589FB85FF2351F06A
:104B50009C01AD0182E056954795379527958A953A
:104B6000D1F706C09C01AD0156954795379527951D
:104B70002C873D874E875F87A88DB98D9E961D92A5
:104B80001D921D921C92D197C801DB01888B998BD5
:104B9000AA8BBB8B2C853D854E855F852F833887FF
:104BA00049875A876624772443019DC132E0231642
:104BB00031044104510448F08C859D85AE85BF8544
:104BC000281639064A065B0628F0A2E02A2E312C68
:104BD000412C512C620151019B85992309F47FC01E
:104BE0009101A60160E070E080E090E002E00E94A8
:104BF0004149E32FF42FB52F162F072FF82EA92F99
:104C00003CA1320F3CA731E04CA5421708F030E040
:104C10002DA12E0F41E02E1708F040E0320F3E8FFD
:104C200031E05E8D521708F030E0432B2EA12F0F9C
:104C300051E02F1708F050E0420F4F8F31E042173C
:104C400008F030E0532B2FA12B0F61E02B1708F059
:104C500060E0520F58A331E0521708F030E0632BA8
:104C600028A5210F71E0211708F070E0A62EA20EF2
:104C700031E0A21608F030E0732B29A5200F81E067
:104C8000201708F080E0B72EB20E31E0B21608F01F
:104C900030E0832B2AA52F0D31E02F1508F030E0EE
:104CA000C82EC20E91E0C21608F090E0D32ED92A89
:104CB0008BA5A80FDA0E2CA53E8D4F8D58A1B501FE
:104CC000C6018E010D5F1F4FF4E0EF2EF12CAE896F
:104CD000BF89FD011995882309F085C00EC2910195
:104CE000A60160E070E080E090E001E00E944149B0
:104CF000E32FF42FB52F162F072FF82EA92F3CA145
:104D0000320F3DA731E04DA5421708F030E02DA14C
:104D10002E0F41E02E1708F040E0320F39A331E0AA
:104D200059A1521708F030E0432B2EA12F0F51E06C
:104D30002F1708F050E0420F4AA331E0421708F065
:104D400030E0532B2FA12B0F61E02B1708F060E010
:104D5000520F5BA331E0521708F030E0632B28A517
:104D6000210F71E0211708F070E0A62EA20E31E0AD
:104D7000A21608F030E0732B29A5200F81E0201740
:104D800008F080E0B72EB20E31E0B21608F030E045
:104D9000832B2AA52F0D31E02F1508F030E0C82E07
:104DA000C20E91E0C21608F090E0D32ED92A8BA54E
:104DB000A80FDA0E2DA539A14AA15BA1B501C60144
:104DC0008E010F5F1F4FE2E0EE2EF12CAE89BF89FE
:104DD000FD011995882309F490C189819A81892B55
:104DE00009F071C031C08B819C81AD81BE8100977B
:104DF000A105B10509F067C0288939894A895B890D
:104E0000211531054105510541F1611471048104F9
:104E1000910449F42FEF3FEF4FEF5FE02B833C838A
:104E20004D835E8304C06B827C828D829E822CA522
:104E30003E8D4F8D58A1B501C6018E010D5F1F4FEC
:104E4000B4E0EB2EF12C2AC0288939894A895B8984
:104E5000211531054105510549F4A88DB98D9E965E
:104E60002D923D924D925C92D19750C06114710485
:104E70008104910429F4EFEFFFEFFA83E98302C084
:104E80007A8269822DA539A14AA15BA1B501C6012B
:104E90008E010F5F1F4FA2E0EA2EF12CAC89BD8975
:104EA000FD011995882309F422C1288939894A8985
:104EB0005B892150304040405040288B398B4A8BD1
:104EC0005B8B420131018F819885A985BA85019755
:104ED000A109B1098F839887A987BA870894211CF3
:104EE000311C411C511C2F81388549855A8521155B
:104EF00031054105510509F059CE88899989AA895A
:104F0000BB890097A105B10509F0F1C02A8D3B8D41
:104F10004C8D5D8D223031054105510508F4F0C0FE
:104F200059016A013B85332309F470C06B827C828E
:104F30008D829E829501A60160E070E080E090E0A5
:104F400002E00E944149E32FF42FA52FB62F172F1F
:104F5000082FE92EFCA0F20E31E0F21608F030E046
:104F60002DA12E0F41E02E1708F040E0320FE1E0B6
:104F7000321708F0E0E04E2B2EA12F0F51E02F1733
:104F800008F050E0420FE1E0421708F0E0E05E2B4D
:104F90002FA12A0F61E02A1708F060E0520FE1E02C
:104FA000521708F0E0E06E2B28A52B0F71E02B17AD
:104FB00008F070E0620FE1E0621708F0E0E07E2B9D
:104FC00029A5210F81E0211708F080E0720FE1E0B0
:104FD000721708F0E0E08E2B2AA5200F91E0201731
:104FE00008F090E0820FE1E0821708F0E0E09E2BED
:104FF000ABA5AE0D2F2D9A0F8E010D5F1F4FF4E064
:10500000EF2EF12CEC89FD8919956FC0C3016982DF
:105010009A839501A60160E070E080E090E001E0F5
:105020000E944149E32FF42FA52FB62F172F082FE9
:10503000E92EFCA0F20E31E0F21608F030E02DA1CE
:105040002E0F41E02E1708F040E0320FE1E032175A
:1050500008F0E0E04E2B2EA12F0F51E02F1708F0A3
:1050600050E0420FE1E0421708F0E0E05E2B2FA194
:105070002A0F61E02A1708F060E0520FE1E05217B2
:1050800008F0E0E06E2B28A52B0F71E02B1708F03D
:1050900070E0620FE1E0621708F0E0E07E2B29A5E6
:1050A000210F81E0211708F080E0720FE1E0721714
:1050B00008F0E0E08E2B2AA5200F91E0201708F0E1
:1050C00090E0820FE1E0821708F0E0E09E2BFBA564
:1050D000FE0D2F2D9F0F8E010F5F1F4FE2E0EE2E72
:1050E000F12CAC89BD89FD011995882349F4888D7F
:1050F000998DB401A3010E945923662477244301AA
:10510000B301C401AD960FB6F894DEBF0FBECDBF9C
:10511000CF91DF911F910F91FF90EF90DF90CF9093
:10512000BF90AF909F908F907F906F905F904F90C7
:105130003F902F90089580E190E00895FC01009742
:1051400011F01182108208952F923F924F925F9238
:105150006F927F928F929F92AF92BF92CF92DF9287
:10516000EF92FF920F931F93DF93CF93CDB7DEB7EC
:1051700068970FB6F894DEBF0FBECDBF988F8F8BA8
:105180007E876D87588B4F87009709F41EC3672B66
:1051900009F41BC34115510509F417C3DC01D3966B
:1051A000AC90D397D496BC90D497D596CC90D59705
:1051B000D696DC90D697D796EC90D797D896FC9059
:1051C000D897D9960C91D997DA961C91DA97979639
:1051D0002D903D904D905C909A979A0140E050E060
:1051E00060E070E080E090E0B22FBA0DBA8BF1E0A1
:1051F000B21708F0F0E0E32FEB0D99249394E31736
:1052000008F09924FE0FF98BF1E0A989AE1708F098
:10521000F0E09F2AE42FEC0DB1E0E41708F0B0E0D5
:10522000692C6E0EF1E06E1608F0F0E0BF2BE52F52
:10523000ED0DA1E0E51708F0A0E07B2E7E0EF1E079
:105240007E1608F0F0E0AF2BE62FEE0DB1E0E6178A
:1052500008F0B0E08A2E8E0EF1E08E1608F0F0E035
:10526000BF2BE72FEF0DA1E0E71708F0A0E09B2E82
:105270009E0EF1E09E1608F0F0E0AF2BE82FE00F55
:10528000B1E0E81708F0B0E0AE0FF1E0AE1708F0BB
:10529000F0E0EB2FEF2B892F810FE80FA201910196
:1052A00060E070E080E090E09E17F0F0E91721F5F3
:1052B0008A17D0F0A81701F57915B0F09716E1F428
:1052C000681590F08616C1F4571570F07516A1F4A4
:1052D000461550F0641681F4B9893B1728F0B317CE
:1052E00059F4EA892E1640F491012A193B09388BAA
:1052F0002F87232B09F46CC2AF89B88DED91FC91F7
:105300001197208D318D3C872B87DB968D919D9158
:105310000D90BC91A02D8F839887A987BA8700979D
:10532000A105B10509F059C0AF89B88D93962D91AB
:105330003D914D915C9196972F83388749875A8785
:10534000211531054105510559F48A2D8B298C29E8
:105350008D298E298F29802B812B09F439C235C2E2
:105360008A2D8B298C298D298E298F29802B812BA1
:10537000A1F135014601EB85FC851F01442455242C
:1053800022273327A90122193309440955092B8BF8
:105390003C8B4D8B5E8B1CC0AF89B88D8D919C91E1
:1053A0004F81588569857A850E94DC216F837887D3
:1053B00089879A87611571058105910509F405C2F0
:1053C0002B893C894D895E89620E731E841E951E51
:1053D0006214730484049504F8F64B855C8541508F
:1053E00050405C874B874A215B215C834B838B85D4
:1053F0009C8501969C878B87AF85B889BE83AD83DA
:10540000EF89F88D0190F081E02DFA83E9833097E0
:1054100009F48EC02F81388549855A85223031059F
:105420004105510508F484C02250304040405040AE
:1054300059016A012E5F3F4F4F4F5F4F2F833887CF
:1054400049875A87208C318C9501A60160E070E075
:1054500080E090E05101CC24DD24EE24FF2400E024
:1054600010E00E94C747E981FA81A28DF38CB48DC8
:10547000058DE68CD78CC0A011A1A20FF1E0A21778
:1054800008F0F0E0232F2F0DE1E0231708F0E0E013
:10549000FF2EF20E31E0F21608F030E0E32B242F5D
:1054A0002B0FF1E0241708F0F0E0BE2FB20F31E02F
:1054B000B21708F030E0F32B252F200F41E025171D
:1054C00008F040E0F20F31E0F21708F030E0432B33
:1054D000262F2E0D51E0261708F050E0E42FE20FA2
:1054E00031E0E21708F030E0532B272F2D0D41E07B
:1054F000271708F040E0520F31E0521708F030E073
:10550000432B282F2C0D31E0281708F030E0420FF4
:1055100081E0421708F080E0732E782A190F2A2FB5
:105520009F2D6B2F7F2FAE2FB52F342E710E08C0FD
:1055300020E090E060E070E0A0E0B0E03324772469
:105540008B849C844B815C81841A950AED81FE8159
:10555000E815F90508F44F01E981FA81408051808E
:105560004B815C815A01CC24DD24EE24FF24870189
:10557000622E640E31E0621608F030E0892F8B0D48
:1055800041E0891708F040E0380F91E0381708F043
:1055900090E0492B862F8C0D51E0861708F050E0E3
:1055A000480F91E0481708F090E0592B872F8D0D98
:1055B00061E0871708F060E0580F91E0581708F095
:1055C00090E0692B8A2F8E0D71E08A1708F070E049
:1055D000680F91E0681708F090E0792B9B2F9F0DE2
:1055E00081E09B1708F080E0790FA1E0791708F0BF
:1055F000A0E08A2BA32DA00F91E0A31508F090E066
:105600008A0FB1E08A1708F0B0E09B2B710ED2012F
:10561000ED91FC91262D970D0D851E857401199530
:10562000882309F4AFC02D813E81281939093E83B2
:105630002D83940140E050E060E070E080E090E075
:10564000AF89B88DD3961C91D397D496DC90D4971C
:10565000D596BC91EF89F88D06A9E7A8A0AC71ACEE
:10566000F2AC180DF1E0181508F0F0E0ED2DE30FA5
:10567000A1E0E31708F0A0E0BF2EBE0EF1E0BE16D9
:1056800008F0F0E0AF2BE42FEB0FB1E0E41708F0E7
:10569000B0E0CA2ECE0EF1E0CE1608F0F0E0BF2B3F
:1056A000E52FE00FA1E0E51708F0A0E0DB2EDE0E0D
:1056B000F1E0DE1608F0F0E0AF2BE62FEE0DB1E0E2
:1056C000E61708F0B0E0EA2EEE0EF1E0EE1608F074
:1056D000F0E0BF2BE72FEA0DA1E0E71708F0A0E00C
:1056E0000B2F0E0FF1E00E1708F0F0E0AF2BE82FB4
:1056F000E70DF1E0E81708F0F0E0AA2EAE0EA1E009
:10570000AE1608F0A0E0FA2BF90EFF0DAF89B88DA8
:10571000D3961C93D397D496BC92D497D596CC921B
:10572000D597D696DC92D697D796EC92D797D896FF
:105730000C93D897D996AC92D997DA96FC93DA97CE
:105740008B819C81880D991DEB85FC858E179F07A9
:1057500010F18D919C914F81588569857A850E94C1
:10576000DC216F83788789879A87611571058105A8
:10577000910579F4AF89B88DDB961D921D921D922B
:105780001C92DE974F855889ED81FE814E1B5F0B81
:1057900021C01C821B822F81388549855A85AF899B
:1057A000B88DDB962D933D934D935C93DE97ED8101
:1057B000FE81EF2B39F02D853E85280D391D3E8762
:1057C0002D871ECE4F85588905C04FEF5FEF02C071
:1057D00040E050E0CA0168960FB6F894DEBF0FBEF5
:1057E000CDBFCF91DF911F910F91FF90EF90DF9090
:1057F000CF90BF90AF909F908F907F906F905F9071
:105800004F903F902F900895FC01009711F0118266
:1058100010820895FC01009711F480E0089583A19F
:1058200094A1A5A1B6A183AB94ABA5ABB6AB10AECA
:1058300017AA81E008952F923F924F925F926F9244
:105840007F928F929F92AF92BF92CF92DF92EF9210
:10585000FF920F931F93DF93CF93CDB7DEB72C97B3
:105860000FB6F894DEBF0FBECDBF3C016B010097B1
:1058700009F49CC06115710509F498C0DB01999683
:10588000BC9099979A96AC909A979B969C909B9770
:105890009C968C909C979D965C909D979E964C9024
:1058A0009E979F963C909F97D0962C908B2D8A29FF
:1058B00089298829852984298329822909F476C0A0
:1058C000D301ED91FC910190F081E02D2B2D3A2D2B
:1058D000492D582D652D742D832D922D8E010F5F2E
:1058E0001F4FACE0EA2EF12C1995882309F45EC015
:1058F000B5EEB983D301ED91FC910480F581E02DE3
:105900002B2D3A2D492D582D652D742D832D922D3B
:105910008E010F5F1F4F1995882309F447C08C85AE
:105920008F3079F57B2D705E81E07B1508F080E08B
:10593000682F6A0D81E06A1508F080E0582F590D34
:1059400081E0591508F080E0482F480D81E04815A6
:1059500008F080E0382F350D81E0351508F080E043
:10596000282F240D81E0241508F080E0830D91E0BC
:10597000831508F090E05B014A012901382E290EB9
:105980009FCFF60141A152A163A174A14115510518
:105990006105710539F0C3010E94592320E030E010
:1059A000882311F021E030E0822F01C080E02C96A6
:1059B0000FB6F894DEBF0FBECDBFCF91DF911F9120
:1059C0000F91FF90EF90DF90CF90BF90AF909F909E
:1059D0008F907F906F905F904F903F902F900895A1
:1059E0002F923F924F925F926F927F928F929F92EF
:1059F000AF92BF92CF92DF92EF92FF920F931F93DD
:105A0000DC01009749F420E030E040E050E060E045
:105A100070E080E090E030C0ED91FC9111978085BE
:105A200052962D913D914D915C9155975896ED91DF
:105A3000FC9159978B3041F412E056954795379574
:105A400027951A95D1F704C0569547953795279510
:105A5000225030404040504059016A01A60160E0A8
:105A600070E080E090E05F01CC24DD24EE24FF2490
:105A700000E010E00E94C7471F910F91FF90EF9048
:105A8000DF90CF90BF90AF909F908F907F906F905E
:105A90005F904F903F902F9008952F923F924F929A
:105AA0005F926F927F928F929F92AF92BF92CF92AE
:105AB000DF92EF92FF920F931F93DF93CF93CDB7B7
:105AC000DEB7E0970FB6F894DEBF0FBECDBF3C0146
:105AD000009709F4F8C019821A821B821C8280E2A6
