:100000000C9488000C9472010C949F010C94CC0108
:100010000C94A5000C94A5000C94A5000C94A500CC
:100020000C94A5000C94A5000C9471040C94A500EC
:100030000C94A5000C94FE050C94A5000C94A5004E
:100040000C94A5000C94A5000C94A5000C94990B9D
:100050000C94A500524947485400524F544154450E
:1000600000465744004D4F5645004C4546540052FB
:100070004F5441544500465744004D4F5645004D9E
:100080006F76656D656E742E2E2E004932432D4DB0
:1000900061737465720023232323232323232323E3
:1000A0002323232323230023232323232323232343
:1000B00023232323232323000A4D6F76696E672EA3
:1000C0002E2E0A000A0A52503620434F4E54524FE9
:1000D0004C204D333220493243204D617374657298
:1000E000204578616D706C652050726F6772616D2C
:1000F000210A000A493243204552524F52202D20F6
:100100005457492053544154453A20307800230035
:1001100011241FBECFE5D8E0DEBFCDBF10E0A0E6C2
:10012000B0E0E4EAF8E102C005900D92A637B1070D
:10013000D9F711E0A6E7B0E001C01D92A736B107DC
:10014000E1F70E94A7000C94500C0C9400000E9450
:1001500059050E94110384EC90E00E94E50588EBAC
:1001600090E00E94E50584E591E00E940D0788E497
:100170000E94D70881E591E00E94E60881E491E0C1
:100180000E94EC0884EB60E570E00E941A0589E6A5
:1001900090E00E9444058CED60E570E00E941A0535
:1001A00089E690E00E9444058FE00E94D00287EA31
:1001B00090E066E970E00E94D00384EF91E00E9435
:1001C00044058BE890E06FE770E00E94D00388EE72
:1001D00093E00E94440580E00E94D0028AE060E043
:1001E00049E022E00E94EE0A8AE060E04BE021E074
:1001F0000E94EE0A8AE060E04CE021E00E94EE0AF4
:1002000089E00E94D0028AE790E066E770E00E94F1
:10021000D0038CE360E042EE54E021E00E940C0841
:1002200088E00E94D0028FE690E06AE670E00E94CB
:10023000D00382E362E044EB50E021E00E9430080A
:1002400089E00E94D00285E690E061E670E00E94BD
:10025000D0038CE360E042EE54E021E00E940C0801
:1002600081E00E94D0028AE590E064E570E00E949F
:10027000D00382E363E044EB50E021E00E943008C9
:10028000BFCF1F93182F83EF90E00E94E505812FC9
:1002900090E060E10E948D068AE00E94D7051F91E0
:1002A00008950E943707089580917600882341F0D1
:1002B00080E06EE041E00E94E7031092760008952E
:1002C00080E06EE00E94C8038EE091E00E949803F7
:1002D00081E080937600089508959093650080935F
:1002E000640008951F920F920FB60F9211242F935E
:1002F0003F934F935F936F937F938F939F93AF93AE
:10030000BF93EF93FF93E0916400F091650009952E
:10031000FF91EF91BF91AF919F918F917F916F91DD
:100320005F914F913F912F910F900FBE0F901F90B3
:1003300018950895909363008093620008951F922A
:100340000F920FB60F9211242F933F934F935F9309
:100350006F937F938F939F93AF93BF93EF93FF938D
:10036000E0916200F09163000995FF91EF91BF91D8
:10037000AF919F918F917F916F915F914F913F913D
:100380002F910F900FBE0F901F9018950895909386
:1003900061008093600008951F920F920FB60F9234
:1003A00011242F933F934F935F936F937F938F937A
:1003B0009F93AF93BF93EF93FF93E0916000F09111
:1003C00061000995FF91EF91BF91AF919F918F913E
:1003D0007F916F915F914F913F912F910F900FBE41
:1003E0000F901F901895369B03C020E030E009C0A5
:1003F000806487B986ED86B93699FECF349A24B1E8
:1004000035B1C90108958FB9779BFECF08958FEF5D
:100410008FB9779BFECF8FB108958FEF8FB9779B00
:10042000FECF3FB18FEF8FB9779BFECF2FB1932FC8
:1004300080E030E0282B392BC90108959FB9779BC4
:10044000FECF8FB9779BFECF0895FC0190E006C0E8
:1004500080818FB9779BFECF9F5F31969617C0F34F
:100460000895FC0190E02FEF06C02FB9779BFECFD7
:100470008FB181939F5F9617C0F308959C01C09838
:1004800083E08FB9779BFECFC9010E941E028FEFD8
:100490008FB9779BFECF8FB1C09A08951F93CF93EA
:1004A000DF939C01EB01142FC09883E08FB9779BF9
:1004B000FECFC9010E941E02CE01612F0E943102AF
:1004C000C09ADF91CF911F910895C09886E08FB9AF
:1004D000779BFECFC09A0895C09884E08FB9779B30
:1004E000FECFC09A0895C09885E08FB9779BFECF64
:1004F0008FEF8FB9779BFECF8FB1C09A0895FF928F
:100500000F931F93CF93DF93EC01162F072FF42E39
:100510000E94730280FDFCCF0E946502C09882E0B9
:100520008FB9779BFECFCE010E941E02812F902FA4
:100530009C01F90190E006C080818FB9779BFECFC6
:100540009F5F31969F15C0F3C09ADF91CF911F91A5
:100550000F91FF9008951F93CF93DF93EC01162F17
:100560000E94730280FDFCCF0E946502C09882E069
:100570008FB9779BFECFCE010E941E021FB9779BD9
:10058000FECFC09ADF91CF911F9108958091F20024
:100590008FB9779BFECF949A00000000949808953D
:1005A0008F709091F200907F982B9093F2000E94B0
:1005B000C60208958295807F9091F2009F70982BDB
:1005C0009093F2000E94C602C49A82E390E001C0B8
:1005D000000001972FEF8F3F9207D1F7C49808953D
:1005E0001F93182F82958F700E94DA02812F0E942C
:1005F000DA0286E990E001C0000001972FEF8F3FFB
:100600009207D1F71F910895C3980E94F00286E9DE
:1006100090E001C0000001972FEF8F3F9207D1F7C4
:10062000089583E00E94DA0280E596E401C00000AC
:1006300001972FEF8F3F9207D1F783E00E94DA02F4
:100640008CE795E101C0000001972FEF8F3F9207E3
:10065000D1F783E00E94DA028CE795E101C0000047
:1006600001972FEF8F3F9207D1F782E00E94DA02C5
:100670008CE795E101C0000001972FEF8F3F9207B3
:10068000D1F788E20E9404038CE795E101C00000E5
:1006900001972FEF8F3F9207D1F788E00E94040364
:1006A0008CE795E101C0000001972FEF8F3F920783
:1006B000D1F781E00E9404038CE795E101C00000BE
:1006C00001972FEF8F3F9207D1F782E00E9404033A
:1006D0008CE795E101C0000001972FEF8F3F920753
:1006E000D1F78CE00E9404038CE795E101C0000083
:1006F00001972FEF8F3F9207D1F7089581E00E9475
:1007000004038CE795E101C0000001972FEF8F3FB4
:100710009207D1F70895C39A0E94F00282E390E015
:1007200001C0000001972FEF8F3F9207D1F7089586
:10073000CF93DF93EC0102C00E948B03FE01219650
:1007400084918823C9F7DF91CF910895CF93DF93E8
:10075000EC0103C021960E948B0388818823D1F786
:10076000DF91CF9108951F93CF93DF93162FEC0164
:10077000C40FD11D04C021960E948B0311508881A3
:10078000882311F01123B9F7DF91CF911F910895BC
:100790006068813009F4605C862F0E94040308952C
:1007A000EF92FF920F931F938C017B010E947E03B7
:1007B000C8010E94980381E060E00E94C803C7015D
:1007C0000E9498031F910F91FF90EF9008951F933F
:1007D000142F0E94C80304C080E20E948B031150B2
:1007E0001123D1F71F910895CF93DF9381E00E94E9
:1007F000F301EC0183E0CC3FD80778F4000000005F
:10080000000081E00E94F301C80FD91FD695C7955B
:10081000C233D10510F481E018C082E0C434D80797
:1008200010F482E012C082E0CC3BD80710F483E0E1
:100830000CC083E0C631D80710F484E006C0CE5364
:10084000D34010F080E001C085E0DF91CF910895A2
:1008500080917800882341F00E94F403882311F4EA
:100860001092780080E008950E94F403809378004D
:1008700008951F9310917700112349F00E94F4030B
:10088000882311F010E007C01092770004C00E9486
:10089000F40380937700812F1F910895D09AD89800
:1008A00021E030E007C01092F3008091F30090E067
:1008B0000C97DCF3215030408FEF2F3F380799F72A
:1008C000D0980895CF93DF9380E00E94F301EC016C
:1008D0008530910510F00E944E04CE01DF91CF913A
:1008E00008951F920F920FB60F9211248F939F932A
:1008F0008091CB009091CC0001969093CC00809396
:10090000CB008091F3008F5F8093F3008091F4001F
:100910008F5F8093F4008150893008F484C0809107
:10092000E10080FF09C08091E2009091E300019610
:100930009093E3008093E2008091E10081FF09C081
:100940008091E4009091E50001969093E5008093FA
:10095000E4008091E10082FF09C08091E60090915F
:10096000E70001969093E7008093E6008091E10014
:1009700083FF09C08091E8009091E900019690936F
:10098000E9008093E8008091E10084FF09C0809134
:10099000EA009091EB0001969093EB008093EA00BF
:1009A0008091E10085FF09C08091EC009091ED00FD
:1009B00001969093ED008093EC008091E10086FF1A
:1009C00009C08091EE009091EF0001969093EF00A6
:1009D0008093EE008091E10087FF09C08091F000D4
:1009E0009091F10001969093F1008093F000809136
:1009F000CF0080FF16C08091F5009091F600892B02
:100A000039F415BC8091CF008E7F8093CF0009C050
:100A10008091F5009091F60001979093F6008093F5
:100A2000F5001092F4009F918F910F900FBE0F90E0
:100A30001F9018959091CF0091609093CF00709384
:100A4000F6006093F500809583BD8EE185BD089525
:100A50009091CF009E7F9093CF00982F909593BD5B
:100A6000882319F08EE185BD089515BC0895109274
:100A7000F300282F30E02F5F3F4F8091F30090E08C
:100A800028173907D4F708959C0109C01092F30084
:100A90008091F30090E00C97DCF321503040211559
:100AA0003105A1F7089502C0000001970097E1F712
:100AB00008951BBA87E088BB8CEF85BB81E682BBBB
:100AC0001ABA8BEB87BB14BA82E981BBF89410BCCD
:100AD00089E189B91BB886E880BD88E98AB917B869
:100AE00086E186B910BE8FE085BF1BBE14BE8AE0CA
:100AF00083BF87EC8CBF15BC8FEF83BD82E089BFBD
:100B000080E58DB981E08EB9789408950F931F9395
:100B1000462F00ED10E0B80150E00E940B0CC80118
:100B20000E94A6031F910F910895EF92FF920F93D9
:100B30001F93DF93CF93CDB7DEB761970FB6F894CD
:100B4000DEBF0FBECDBF262F042F7E010894E11C0F
:100B5000F11CB701422F50E00E940B0CF7010190ED
:100B60000020E9F73197EE19FF09102F1E1B11160F
:100B70005CF4115080E30E948B031123D1F7CE0166
:100B800001960E94A60306C01195C701602F412F50
:100B90000E94B30361960FB6F894DEBF0FBECDBFBF
:100BA000CF91DF911F910F91FF90EF9008955D9B82
:100BB000FECF8CB90895FC0104C05D9BFECF319639
:100BC0008CB980818823C9F7089503C05D9BFECF4F
:100BD0002CB9FC01019624912223C1F70895FC0150
:100BE000E40FF11D05C05D9BFECF31968CB96150BD
:100BF0008081882311F06623B1F708951F920F9228
:100C00000FB60F9211242F938F939F93EF93FF931F
:100C100020917C0080917B00922F981B9032A8F449
:100C200080917A00E82FF0E09CB1E850FF4F90836C
:100C30008F5F80937A002F5F20937C00813210F0C9
:100C400010927A001092F70006C08CB180937E005B
:100C500081E08093F700FF91EF919F918F912F9109
:100C60000F900FBE0F901F9018951092F700909163
:100C70007B0080917C00891711F4E0E013C09F5F36
:100C800090937B0080917900813210F0109279006E
:100C900080917900E82FF0E0E850FF4FE0818F5F0E
:100CA000809379008E2F08951092F700DC0120E0E8
:100CB00014C09F5F90937B0080917900E82FF0E053
:100CC000E850FF4F90819C938F5F80937900813231
:100CD00010F0109279002F5F119690917B00809117
:100CE0007C00891711F0261720F3822F0895809138
:100CF0007C0090917B00891B089557988CB180935C
:100D00007D001092790010927A0010927B00109270
:100D10007C001092F700579A08950F931F93DF936A
:100D2000CF93CDB7DEB761970FB6F894DEBF0FBE95
:100D3000CDBF462F8E010F5F1F4FB80150E00E94BC
:100D40000B0CC8010E94DB0561960FB6F894DEBF5C
:100D50000FBECDBFCF91DF911F910F910895FF92EC
:100D60000F931F93DF93CF93CDB7DEB761970FB685
:100D7000F894DEBF0FBECDBF262FF42E8E010F5F7D
:100D80001F4FB801422F50E00E940B0CF801019058
:100D90000020E9F73197E01BF10B4F2D4E1B141685
:100DA00064F480E341505D9BFECF8CB94423D1F7BE
:100DB000CE0101960E94DB0505C04195C8016F2D4B
:100DC0000E94EF0561960FB6F894DEBF0FBECDBF4F
:100DD000CF91DF911F910F91FF9008950895909307
:100DE000690080936800089508959093710080933E
:100DF00070000895089590936B0080936A000895A1
:100E000008959093670080936600089508959093E5
:100E10006D0080936C000895089590936F00809307
:100E20006E000895282F8AE060E046E00E94EE0AF6
:100E300002C00E94010906B600FCFBCF809187002A
:100E40008823B9F708950F93282F062F8AE060E0D2
:100E500045E00E94230B02C00E94010906B600FC77
:100E6000FBCF809187008823B9F70F9108950F93E6
:100E70001F93DF93CF9300D0CDB7DEB7882311F057
:100E800080E090C087E591E063E00E94BE09209178
:100E900057018091CA0082272093CA00082F10E0D2
:100EA000C80180769070892B81F022952695277055
:100EB000822F8170809345012695217020934801EF
:100EC000E0916600F09167000995C8018670907006
:100ED000892B81F08091CA008695982F917090930C
:100EE00019018695817080935201E0916800F0911C
:100EF0006900099503FF1CC08AE06BE10E94930A18
:100F00008AE0BE016F5F7F4F42E00E94140A298190
:100F100030E086E0220F331F8A95E1F78A8190E066
:100F2000282B392BE0916A00F0916B00C9010995DB
:100F300000FF1DC08AE065E10E94930A8AE0BE01BD
:100F40006F5F7F4F42E00E94140A9A8180E02981FE
:100F500030E0822B932B9093540180935301809126
:100F6000CA00E0916C00F0916D008170099580914C
:100F700058018093CE0083FF05C0E0916E00F09190
:100F80006F000995809159018093CD008091CA002E
:100F900087FF05C0E0917000F091710009951092F3
:100FA0007F0081E00F900F90CF91DF911F910F9103
:100FB000089580917F00882359F4829B09C081E0C5
:100FC00080937F008AE060E040E023E00E949A097D
:100FD000089502C00E94010906B600FCFBCF809173
:100FE00087008823B9F786E090E00E9444050E94BC
:100FF000D90702C00E94010906B600FCFBCF809110
:1010000087008823B9F708958AE060E044E00E94F1
:10101000BE0A0E94E90708951F93122F109234010F
:1010200097E0909335018093360160933701509398
:101030003801409339018AE064E371E046E00E94A0
:101040005C0B0E94E907112349F004C00E94D907F4
:101050000E9401098091CD0080FFF8CF1F91089573
:101060001F93122F1092340198E0909335018093D2
:1010700036016093370150933801409339018AE07B
:1010800064E371E046E00E945C0B0E94E9071123D3
:1010900049F004C00E94D9070E9401098091CD0047
:1010A00080FFF8CF1F9108958AE063E04AE151E0A4
:1010B00028E10E94D90980911A0180933E01809114
:1010C0001B018093440180911C0180933F0180911A
:1010D0001D018093510180911E0180933301809105
:1010E0001F01809332019091210180E02091200125
:1010F000820F911D9093500180934F019091230195
:1011000080E020912201820F911D90934A018093EB
:1011100049019091250180E020912401820F911DC9
:1011200090934301809342019091270180E02091A8
:101130002601820F911D9093470180934601909163
:10114000290180E020912801820F911D9093560182
:101150008093550190912B0180E020912A01820F0C
:10116000911D90934E0180934D0190912D0180E04F
:1011700020912C01820F911D909354018093530173
:1011800090912F0180E020912E01820F911D90936C
:101190004C0180934B019091310180E0209130010E
:1011A000820F911D90934101809340010895F8941E
:1011B00080B911B88FEF83B984E086BF8091800039
:1011C00081608093800078940895089590937300CF
:1011D0008093720008950895909375008093740031
:1011E0000895DF93CF930F92CDB7DEB786E9898359
:1011F0008981815089838F5FD9F70F90CF91DF91DB
:101200000895DF93CF930F92CDB7DEB706B600FCFB
:101210006EC08091800080FF4EC08091870088233F
:1012200009F465C08130C9F486E9898389818150D8
:1012300089838F5FD9F792E09093C90080918200F3
:10124000809389008091830080938A0010928000AF
:1012500085EA86BF909387004AC08230D9F486E938
:1012600089838981815089838F5FD9F78091840038
:101270008F5F8093C900809182008160809382009B
:10128000809389001092800085EA86BF83E0809376
:1012900087002DC0833059F510928700809185001A
:1012A000909186002FEF8F3F920709F1E091720035
:1012B000F09173001BC006B600FCFDCF9091810039
:1012C0009923A9F01092870080918000816080931B
:1012D0008000109282001092860010928500109279
:1012E0008400E0917400F0917500892F09950F90AA
:1012F000CF91DF910895FF920F931F93182F062F20
:10130000F42E02C00E94010906B600FCFBCF8091BA
:1013100087008823B9F782E08093870010938200CA
:101320000093850010928600F09284001F910F9127
:10133000FF900895EF92FF920F931F93E82E162FC0
:10134000042FF22E02C00E94010906B600FCFBCF5A
:10135000809187008823B9F781E0809387001093FC
:10136000850010928600E092820000938300F09244
:1013700084001F910F91FF90EF9008959C0106B695
:1013800000FCFDCF8091800080FF0CC0EAE9F0E016
:10139000D90170E06E0F7F1F02C081918D93E61717
:1013A000F707D9F7089506B600FCFDCF80918100BC
:1013B0000895FF920F931F93CF93DF93082FF62E7C
:1013C000EA01122F02C00E94010906B600FCFBCF01
:1013D000809187008823B9F781E08093870000938C
:1013E00082008FEF9FEF9093860080938500F092AC
:1013F00083001093840002C00E94010906B600FC1D
:10140000FBCF809187008823B9F78091800080FF0F
:1014100005C01F5FCE01612F0E94BE09DF91CF91F1
:101420001F910F91FF900895EF92FF920F931F93DA
:10143000DF93CF930F92CDB7DEB7082F7B01142F28
:1014400002C00E94010906B600FCFBCF8091870014
:101450008823B9F786E989838981815089838F5FE1
:10146000D9F782E080938700009382008FEF9FEF8F
:1014700090938600809385001093840002C00E94A0
:10148000010906B600FCFBCF809187008823B9F7DD
:101490008091800080FF05C01F5FC701612F0E94FF
:1014A000BE090F90CF91DF911F910F91FF90EF90A8
:1014B00008951F93DF93CF930F92CDB7DEB7182F08
:1014C00002C00E94010906B600FCFBCF8091870094
:1014D0008823B9F786E989838981815089838F5F61
:1014E000D9F782E080938700109382008FEF9FEFFF
:1014F000909386008093850081E08093840002C0F1
:101500000E940109809187008823D1F78091800093
:1015100080FD02C080E002C080919A000F90CF91C0
:10152000DF911F9108950F931F93DF93CF930F9235
:10153000CDB7DEB7182F062F02C00E94010906B6EC
:1015400000FCFBCF809187008823B9F786E9898367
:101550008981815089838F5FD9F782E08093C900A8
:101560001093890000938A001092800085EA86BF5C
:101570000F90CF91DF911F910F910895FF920F93DC
:101580001F93DF93CF930F92CDB7DEB7182F062F9F
:10159000F42E02C00E94010906B600FCFBCF809128
:1015A00087008823B9F786E98983898181508983F7
:1015B0008F5FD9F783E08093C9001093890000936F
:1015C0008A00F0928B001092800085EA86BF0F900F
:1015D000CF91DF911F910F91FF900895EF92FF92AD
:1015E0000F931F93DF93CF930F92CDB7DEB7182FD2
:1015F000062FF42EE22E02C00E94010906B600FC5E
:10160000FBCF809187008823B9F786E98983898198
:10161000815089838F5FD9F784E08093C90010934C
:10162000890000938A00F0928B00E0928C00109267
:10163000800085EA86BF0F90CF91DF911F910F91B7
:10164000FF90EF900895DF92EF92FF920F931F9318
:10165000DF93CF930F92CDB7DEB7182FF62EE42E7F
:10166000D22E02C00E94010906B600FCFBCF809179
:1016700087008823B9F786E9898389818150898326
:101680008F5FD9F785E08093C90010938900F092AD
:101690008A00E0928B00D0928C0000938D00109213
:1016A000800085EA86BF0F90CF91DF911F910F9147
:1016B000FF90EF90DF900895EF92FF920F931F93AA
:1016C000DF93CF930F92CDB7DEB7082FF62EE72E1C
:1016D000142F02C00E94010906B600FCFBCF8091C6
:1016E00087008823B9F786E98983898181508983B6
:1016F0008F5FD9F7412F4F5F4093C9000093890056
:10170000AAE8B0E08F2D9E2D9C01F90102C08191C5
:101710008D938E2F8F198417D0F31092800085EA55
:1017200086BF0F90CF91DF911F910F91FF90EF90A7
:1017300008951F920F920FB60F9211242F933F938B
:101740008F939F93EF93FF9381B18832C9F08932D1
:1017500040F4803199F0883199F0883009F04BC01D
:101760000DC0803441F1813420F4883309F043C046
:101770003DC08035A9F08835F1F52BC01092880066
:10178000909188008091C900981750F5E92FF0E0FA
:10179000E757FF4F808183B99F5F9093880017C000
:1017A0008091880093B1E82FF0E0E756FF4F9083D7
:1017B0008F5F809388002091880030E08091C9007D
:1017C00090E001972817390714F485EC18C085E8D4
:1017D00016C083B1E0918800F0E0E756FF4F8083A8
:1017E0008091800081608093800008C081B18093E7
:1017F000810085EA04C081B18093810084E986BFBD
:10180000FF91EF919F918F913F912F910F900FBE7C
:101810000F901F901895FB019F01E8944230C4F08F
:101820004532B4F44A3029F497FB1EF49095819523
:101830009F4F642F77270E943C0C805D8A330CF009
:10184000895D8193CB010097A1F716F45DE2519376
:101850001082C9010C942C0CDC01FC01672F7191E2
:101860007723E1F7329704C07C916D937083629186
:10187000AE17BF07C8F30895AA1BBB1B51E107C0F1
:10188000AA1FBB1FA617B70710F0A61BB70B881F10
:10189000991F5A95A9F780959095BC01CD0108959F
:0418A000F894FFCFEA
:1018A400C60199016C010007EE06FA0606070C074B
:0618B400F406E508EB0854
:00000001FF
