:100000000C94D2000C9448060C9475060C94A2062D
:100010000C94EF000C94EF000C94EF000C94EF00A4
:100020000C94EF000C94EF000C9442080C94EF0039
:100030000C94EF000C94C70A0C94EF000C94EF00A2
:100040000C94EF000C94EF000C94EF000C946610ED
:100050000C94EF00416374697665204265686176AF
:10006000696F757200004932432D4D61737465727A
:10007000004265686176696F7572730023232323DC
:100080002323232323232323232323230023232363
:1000900023232323232323232323232323000A4D42
:1000A0006F76696E672E2E2E0A000A0A525036208D
:1000B000434F4E54524F4C204D333220493243204F
:1000C0004D6173746572204578616D706C65205068
:1000D000726F6772616D210A000A493243204552EE
:1000E000524F52202D205457492053544154453AE1
:1000F0002030780023002A00207C204144313A003F
:10010000207C204144303A00207C204241543A0077
:10011000207C204D43523A00207C204D434C3A0035
:10012000207C204C53523A004C534C3A00207C2007
:10013000445354523A004453544C3A00207C2044D7
:10014000523A00207C20444C3A00207C2056523AFF
:1001500000207C20564C3A00207C2050523A00501F
:100160004C3A000A526561642053656E736F7220C9
:1001700056616C7565733A0A0053544F50004352F0
:10018000554953450041564F49440045534341505A
:10019000450057414954004C4F5720424154544563
:1001A0005259210011241FBECFE5D8E0DEBFCDBFDC
:1001B00011E0A0E6B0E0E4EBF7E202C005900D929A
:1001C000A638B107D9F712E0A6E8B1E001C01D9248
:1001D000A539B107E1F70E9467050C94D9130C9477
:1001E0000000089580919101843009F46FC085303A
:1001F00048F4823061F1833008F050C0813009F05A
:10020000B3C00AC0863009F487C0863008F467C0DE
:10021000873009F0A9C0A2C080E580938C0180914D
:100220008E018C7F856080938E012091A301243004
:1002300018F088EC90E002C08CE890E09093900178
:1002400080938F0182E0809391012E5F62C02091A4
:100250008E0122FD89C08CE380938C018091A301E3
:10026000843060F08EE690E09093900180938F014F
:10027000236020938E011092A3010AC02C7F22607C
:1002800020938E018BE490E09093900180938F01F6
:1002900080918E01886080938E015CC080E58093A0
:1002A0008C0180918E018C7F856080938E012091DE
:1002B000A301243018F080EA90E002C084E690E0C8
:1002C0009093900180938F0184E020C090918E01E3
:1002D00092FD4AC08CE380938C019B6026C080E530
:1002E00080938C0180918E018C7F856080938E013C
:1002F0002091A301243018F080EA90E002C084E647
:1003000090E09093900180938F0186E0809391011B
:100310002F5F2093A301089590918E0192FD24C038
:100320008CE380938C019C7F9A6090938E018091E6
:10033000A301843048F084E690E09093900180938C
:100340008F011092A30106C081E490E09093900188
:1003500080938F0187E080939101089580918E01B1
:100360008C7011F410929101089580919701823060
:1003700009F47AC0833030F4882351F0813009F0D9
:10038000B6C04DC08330C9F0853009F0B0C09DC003
:1003900090917602992331F080917302882311F0B5
:1003A00083E03AC080917302882311F082E034C068
:1003B000992309F49CC081E02FC090916E00937046
:1003C000809194018C7F892B809394018CE380939E
:1003D00092018093930180917302882309F087C072
:1003E00080917602882309F082C08091A201843036
:1003F00038F01092A201109217021092160206C055
:1004000080E991E0909317028093160280910F0289
:10041000886080930F0285E0809397010895809112
:1004200094018C7F8093940184E18093920180E514
:100430008093930180917602882331F0809173023A
:10044000882381F083E00CC084EF91E09093170241
:100450008093160280910F02886080930F0285E0DE
:100460008093970183E029C0809194018C7F8093D1
:10047000940180E58093920184E1809393018091BF
:100480007602882339F080917302882319F083E083
:100490008093970180917302882371F484EF91E037
:1004A000909317028093160280910F0288608093C8
:1004B0000F0285E08093970182E080936E00809127
:1004C000A2018F5F8093A2010895809116029091FE
:1004D0001702895E934058F080910F02877F8093C6
:1004E0000F021092170210921602109297010895AF
:1004F0000895882319F081E080939D0108958091EB
:10050000470290918002882339F1992359F064E6DB
:1005100070E088EC0E94EB0884E690E00E941509E8
:1005200081E017C069E170E088EC0E94EB0883E28B
:1005300090E00E94150969E170E086E90E94EB08ED
:1005400089E190E00E941509809191018230F9F0D3
:1005500083E08093910108959923C9F069E170E0E7
:1005600088EC0E94EB0883E290E00E94150969E1A3
:1005700070E086E90E94EB0889E190E00E9415098D
:1005800080919101823019F085E080939101089566
:100590001F93182F89ED90E00E94800B60E1812F5E
:1005A00090E00E945E0B8AE00E94AA0A1F910895C3
:1005B0000E941E0C089580919E01882341F041E025
:1005C0006EE081E00E94CE0710929E0108956EE0D9
:1005D00081E00E94AF0784EF90E00E947F0781E0F6
:1005E00080939E0108951F93182F8091A101811778
:1005F00009F443C01093A1014DE060E081E00E9446
:10060000CE0760E081E00E94AF07133001F11430A3
:1006100028F4113051F1123081F51FC0153061F00E
:10062000153068F0163049F587E991E00E947F07A0
:1006300080E00E94240749C082E991E018C08BE85D
:1006400091E00E947F0786E00E9424073CC085E875
:1006500091E00E947F0789E00DC08EE791E00E9443
:100660007F0780E00E9424070AC089E791E00E948A
:100670007F0780E00E94240757C0123021F5809147
:100680001202909113028536910508F44DC08091B5
:100690006C000E9424078091A00190916C00882337
:1006A00011F4990F01C0969590936C0080916C00A5
:1006B000883020F081E08093A00132C0823080F544
:1006C0001092A0012DC0163079F580911202909100
:1006D0001302895B9B4040F164E170E088EC0E946A
:1006E000EB0888E290E00E94150964E170E081EE79
:1006F0000E94EB0880E590E00E94150964E170E03B
:1007000088EC0E94EB0888E290E00E94150964E101
:1007100070E081EE0E94EB0884E190E00E941509F0
:1007200010921302109212021F9108950E946D0DF3
:1007300083E691E00E94800B8FE591E00E94800BA0
:1007400080916C0243E06AE090E00E948A0B88E5A9
:1007500091E00E94800B8091720243E06AE090E099
:100760000E948A0B81E591E00E94800B80916D02CE
:1007700043E06AE090E00E948A0B8AE491E00E94E4
:10078000800B80917F0243E06AE090E00E948A0B38
:1007900083E491E00E94800B8091610243E06AE073
:1007A00090E00E948A0B8CE391E00E94800B809184
:1007B000600243E06AE090E00E948A0B8AE00E94B7
:1007C000AA0A86E391E00E94800B45E06AE08091EE
:1007D0007D0290917E020E948A0B8DE291E00E9440
:1007E000800B45E06AE080917702909178020E9448
:1007F0008A0B8AE00E94AA0A88E291E00E94800B9C
:1008000044E06AE080917002909171020E948A0B2C
:1008100080E291E00E94800B44E06AE080917402E3
:10082000909175020E948A0B88E191E00E94800BF2
:1008300044E06AE080918302909184020E948A0BD6
:1008400080E191E00E94800B44E06AE080917B02AD
:1008500090917C020E948A0B88E091E00E94800BBC
:1008600044E06AE080918102909182020E948A0BAA
:1008700080E091E00E94800B44E06AE08091790280
:1008800090917A020E948A0B88EF90E00E94800B80
:1008900044E06AE080916E0290916F020E948A0BA0
:1008A0008AE00E94AA0A0895809110029091110294
:1008B000855F9140E8F080919F01882341F041E0FD
:1008C0006FE081E00E94CE0710929F010DC06FE0A3
:1008D00081E00E94AF0786EF90E00E947F0781E0F1
:1008E00080939F010E9496031092110210921002B1
:1008F00008951F93CF93DF93EC014B815C811A81A4
:100900004115510519F113FF07C0137020E0612F45
:1009100088810E941D0D17C012FF15C0BA0180E02A
:1009200090E00E94D8102FE832EC45E75EE30E9489
:10093000A9120E941113AB01BC01137020E0612FBA
:1009400088810E94F70C1C821B8212C0812F8C7040
:1009500049F4812F83700E94F90B698188810E947C
:100960000A0C06C08091FA0180FF02C0137F1A832F
:10097000DF91CF911F910895CF93DF9380916B000A
:100980008130C9F480911202909113028B3F91053E
:1009900008F45AC066E081E00E94AF0780916D00C4
:1009A00041E06AE090E00E947F090E94250982E010
:1009B00080936B0045C0823009F046C00E942C082D
:1009C000882311F010926B00809112029091130213
:1009D000C397D0F10E942D09EC01059770F1809129
:1009E0002002807F8093200290E020E030E02832D7
:1009F000310508F0990F9F5F9F70285D3F4F2C17BE
:100A00003D07A8F39F7080912002807F892B8093FF
:100A100020020E941A07C937D10540F081E0809377
:100A20006B0080916D00815080936D0080916D000E
:100A3000882331F410926B0003C080E00E942407E9
:100A40001092130210921202DF91CF9108950E942A
:100A5000BC040E94B5010E94F20080919D01882390
:100A600031F086E00E94F30288E991E02DC0809188
:100A70006B00882331F085E00E94F30286E690E067
:100A800023C080919101882331F084E00E94F30219
:100A90008CE891E019C080919701882331F083E0C0
:100AA0000E94F30282E991E00FC0809165008823E3
:100AB00031F082E00E94F30280E690E005C081E020
:100AC0000E94F30286E891E00E94790408950E9452
:100AD00043090E94C0098AEA90E00E94800B8EE9D7
:100AE00090E00E94800B8BED92E00E94E70B8FE775
:100AF00092E00E94C90B85EE95E00E94DB0B89E72E
:100B000092E00E94E10B88E40E94020E88ED92E0E0
:100B10000E94110E88EC92E00E94170E60E570E0D2
:100B200084EB0E94EB0889E690E00E94150960E5DD
:100B300070E08CED0E94EB0889E690E00E941509B8
:100B40008FE00E9424076DE870E08CE790E00E943F
:100B5000B70784EF91E00E94150961E770E086E62F
:100B600090E00E94B70788EE93E00E94150980E0AC
:100B70000E94240722E049E060E08AE00E94E50F3D
:100B800021E04BE060E08AE00E94E50F21E04CE0CC
:100B900060E08AE00E94E50F80910F0281608093FF
:100BA0000F0280910F02826080930F0265E670E071
:100BB00084E590E00E94B7070E9454040E94CC0C88
:100BC0000E94370E0E942705F7CF2091730222233F
:100BD00041F080917602882321F084E28093FB012A
:100BE00002C01092FB01822F81708295807F9091CC
:100BF000FB019F7E982B9093FB0130E0222309F4A8
:100C000031E0330F330F330F292F257F9091760278
:100C1000892F8170880F232B282B2093FB0180E0E4
:100C2000992309F481E02E7F282B2093FB010E9459
:100C3000EC0B809173028823B9F0809176028823AF
:100C400051F064E170E080EA0E94EB0884E190E0FA
:100C50000E94150908956AE070E088E70E94EB0899
:100C60008AE090E00E94150980917602882349F07D
:100C70006AE070E08CE80E94EB088AE090E00E9455
:100C80001509089508959093740080937300089552
:100C90001F920F920FB60F9211242F933F934F93F1
:100CA0005F936F937F938F939F93AF93BF93EF93D4
:100CB000FF93E0917300F09174000995FF91EF911B
:100CC000BF91AF919F918F917F916F915F914F9164
:100CD0003F912F910F900FBE0F901F901895089580
:100CE000909372008093710008951F920F920FB637
:100CF0000F9211242F933F934F935F936F937F93A2
:100D00008F939F93AF93BF93EF93FF93E091710005
:100D1000F09172000995FF91EF91BF91AF919F9172
:100D20008F917F916F915F914F913F912F910F9094
:100D30000FBE0F901F9018950895909370008093A8
:100D40006F0008951F920F920FB60F9211242F93E8
:100D50003F934F935F936F937F938F939F93AF9343
:100D6000BF93EF93FF93E0916F00F09170000995AE
:100D7000FF91EF91BF91AF919F918F917F916F9173
:100D80005F914F913F912F910F900FBE0F901F9049
:100D90001895369B03C080E090E00895806487B981
:100DA00086ED86B93699FECF349A84B195B108950F
:100DB0008FB9779BFECF08958FEF8FB9779BFECFCA
:100DC0008FB190E008959C01832F99278FB9779B6D
:100DD000FECF2FB9779BFECF0895FC0190E006C0AF
:100DE00080818FB9779BFECF9F5F31969617C1F7B1
:100DF0000895FC0190E007C08FEF8FB9779BFECF7D
:100E00008FB181939F5F9617B9F70895C09886E0D8
:100E10008FB9779BFECFC09A0895C09885E08FB9AF
:100E2000779BFECF8FEF8FB9779BFECF8FB1C09AA4
:100E300090E00895809120028FB9779BFECF949A1D
:100E400000000000949808958F7090912002907F88
:100E5000982B909320020E941A0708958295807F14
:100E6000909120029F70982B909320020E941A0765
:100E7000C49A82E390E001C0000001972FEF8F3FFA
:100E80009207D1F7C49808951F93182F82958F70F9
:100E90000E942E07812F0E942E0786E990E001C054
:100EA000000001972FEF8F3F9207D1F71F91089510
:100EB000C3980E94440786E990E001C000000197B2
:100EC0002FEF8F3F9207D1F7089581E00E945807D6
:100ED0008CE795E101C0000001972FEF8F3F92074B
:100EE000D1F70895C39A0E94440782E390E001C0BD
:100EF000000001972FEF8F3F9207D1F70895CF930E
:100F0000DF93EC0102C00E947207FE0121968491DA
:100F10008823C9F7DF91CF910895CF93DF93EC0138
:100F200003C021960E94720788818823D1F7DF9140
:100F3000CF9108951F93CF93DF93162FEC01C40F29
:100F4000D11D04C021960E94720711508881882308
:100F500011F01123B9F7DF91CF911F9108956068C7
:100F6000813009F4605C862F0E9458070895EF9243
:100F7000FF920F931F938C017B010E946507C801AC
:100F80000E947F0760E081E00E94AF07C7010E94D6
:100F90007F071F910F91FF90EF9008951F93142FDB
:100FA0000E94AF0703C080E20E9472071150D8F779
:100FB0001F910895CF93DF9381E00E94C906EC0151
:100FC00083E0CC3FD80780F400000000000081E0FF
:100FD0000E94C906C80FD91FD695C795C233D1053F
:100FE00018F481E090E01DC082E0C434D80718F402
:100FF00082E090E016C082E0CC3BD80718F483E092
:1010000090E00FC083E0C631D80718F484E090E088
:1010100008C0CE53D34018F485E090E002C080E0D1
:1010200090E0DF91CF9108958091A501882349F048
:101030000E94DA07882369F41092A50180E090E00D
:1010400008950E94DA078093A501882311F090E0AB
:10105000089580E090E008951F931091A40111235A
:1010600049F00E94DA07882349F41092A401812FE5
:1010700090E006C00E94DA078093A40180E090E02F
:101080001F9108951F920F920FB60F9211248F9304
:101090009F938091F8019091F90101969093F90145
:1010A0008093F801809121028F5F809321028091CB
:1010B00022028F5F8093220281508A3008F484C01C
:1010C00080910F0280FF09C080911002909111025F
:1010D0000196909311028093100280910F0281FF7C
:1010E00009C080911202909113020196909313020D
:1010F0008093120280910F0282FF09C08091140236
:10110000909115020196909315028093140280919C
:101110000F0283FF09C08091160290911702019679
:10112000909317028093160280910F0284FF09C0EA
:101130008091180290911902019690931902809360
:10114000180280910F0285FF09C080911A029091C8
:101150001B02019690931B0280931A0280910F024A
:1011600086FF09C080911C0290911D020196909308
:101170001D0280931C0280910F0287FF09C080919D
:101180001E0290911F02019690931F0280931E02EF
:101190008091FD0180FF16C080912302909124026E
:1011A000892B39F415BC8091FD018E7F8093FD0160
:1011B00009C0809123029091240201979093240208
:1011C00080932302109222029F918F910F900FBE65
:1011D0000F901F9018959091FD0191609093FD01E3
:1011E0007093240260932302809583BD8EE185BDB8
:1011F00008959091FD019E7F9093FD01982F909509
:1012000093BD882319F08EE185BD089515BC08951E
:1012100010922102282F30E02F5F3F4F8091210252
:1012200090E028173907D4F708959C0107C0109261
:1012300021028091210290E00C97DCF32150304094
:101240008FEF2F3F380799F70895D09AD89881E00B
:1012500090E00E941509D0980895CF93DF9380E025
:101260000E94C906EC01059710F00E942509CE01E5
:10127000DF91CF91089501C0000001972FEF8F3FBC
:101280009207D1F708951BBA87E088BB8CEF85BB26
:1012900081E682BB1ABA8BEB87BB14BA82E981BBA9
:1012A000F89410BC89E189B91BB886E880BD88E94B
:1012B0008AB917B886E186B910BE8FE085BF1BBE1C
:1012C00014BE8AE083BF87EC8CBF15BC8FEF83BD53
:1012D00082E089BF80E58DB981E08EB97894089568
:1012E0000F931F93462F50E00EEF11E0B8010E94BC
:1012F0007812C8010E948D071F910F910895EF92F7
:10130000FF920F931F93CF93DF93CDB7DEB7619713
:101310000FB6F894DEBF0FBECDBF042F70E0AB0157
:101320007E010894E11CF11CB7010E947812F701BC
:1013300001900020E9F73197EE19FF09102F1E1BCD
:1013400011165CF4115080E30E9472071123D1F74B
:10135000CE0101960E948D0706C01195412F602F86
:10136000C7010E949A0761960FB6F894DEBF0FBEC0
:10137000CDBFDF91CF911F910F91FF90EF90089516
:1013800083E00E942E0780E596E401C000000197EB
:101390002FEF8F3F9207D1F783E00E942E078CE753
:1013A00095E101C0000001972FEF8F3F9207D1F721
:1013B00083E00E942E078CE795E101C000000197B1
:1013C0002FEF8F3F9207D1F782E00E942E078CE724
:1013D00095E101C0000001972FEF8F3F9207D1F7F1
:1013E00088E20E9458078CE795E101C00000019750
:1013F0002FEF8F3F9207D1F788E00E9458078CE7C4
:1014000095E101C0000001972FEF8F3F9207D1F7C0
:1014100081E00E9458078CE795E101C00000019728
:101420002FEF8F3F9207D1F782E00E9458078CE799
:1014300095E101C0000001972FEF8F3F9207D1F790
:101440008CE00E9458078CE795E101C000000197ED
:101450002FEF8F3F9207D1F70895FF920F931F93BD
:10146000CF93DF93EC018B01F42E0E940D0780FDDA
:10147000FCCF0E940607C09882E08FB9779BFECF11
:10148000CE010E94E3066F2DC8010E94ED06C09AAE
:10149000DF91CF911F910F91FF9008951F93CF93EC
:1014A000DF93EC01162F0E940D0780FDFCCF0E94F8
:1014B0000607C09882E08FB9779BFECFCE010E94CD
:1014C000E3061FB9779BFECFC09ADF91CF911F91A2
:1014D0000895C09884E08FB9779BFECFC09A089595
:1014E0001F93CF93DF939C01EB01142FC09883E0EF
:1014F0008FB9779BFECFC9010E94E306612FCE0111
:101500000E94F906C09ADF91CF911F9108959C0126
:10151000C09883E08FB9779BFECFC9010E94E30694
:101520008FEF8FB9779BFECF8FB1C09A90E008956F
:101530008FEF8FB9779BFECF9FB18FEF8FB9779BDE
:10154000FECF2FB1892F90E0982F882730E0822B93
:10155000932B08955D9BFECF8CB90895FC0104C0C8
:101560005D9BFECF31968CB980818823C9F70895A1
:10157000FC01E40FF11D05C05D9BFECF31968CB9D7
:1015800061508081882311F06623B1F708951F927E
:101590000F920FB60F9211242F938F939F93EF9377
:1015A000FF932091A9018091A801922F981B90325E
:1015B000A8F48091A701E82FF0E09CB1EA5DFD4F0F
:1015C00090838F5F8093A7012F5F2093A9018132C1
:1015D00010F01092A7011092250206C08CB18093E2
:1015E000AB0181E080932502FF91EF919F918F9154
:1015F0002F910F900FBE0F901F90189510922502FB
:101600009091A8018091A901891719F420E030E098
:1016100015C09F5F9093A8018091A601813210F0C0
:101620001092A6018091A601E82FF0E0EA5DFD4F3F
:101630009081292F30E08F5F8093A601C901089522
:10164000AC011092250220E030E016C09F5F90931D
:10165000A8018091A601E82FF0E0EA5DFD4F90819E
:10166000A40FB51F9C938F5F8093A601813210F069
:101670001092A6012F5F3F4F9091A8018091A90180
:10168000891BA22FB0E0861708F7CD01089580913D
:10169000A9019091A801891B90E0089557988CB1F9
:1016A0008093AA011092A6011092A7011092A8019E
:1016B0001092A90110922502579A08950F931F9333
:1016C000CF93DF93CDB7DEB761970FB6F894DEBF47
:1016D0000FBECDBF462F50E08E010F5F1F4FB801E8
:1016E0000E947812C8010E94AE0A61960FB6F89463
:1016F000DEBF0FBECDBFDF91CF911F910F91089537
:1017000003C05D9BFECF2CB9FC01019624912223DE
:10171000C1F70895FF920F931F93CF93DF93CDB737
:10172000DEB761970FB6F894DEBF0FBECDBFF42EC3
:1017300070E0AB018E010F5F1F4FB8010E9478125D
:10174000F80101900020E9F73197E01BF10B4F2DD4
:101750004E1B141664F441505D9BFECF80E38CB9A0
:101760004423C9F7CE0101960E94AE0A05C04195F7
:101770006F2DC8010E94B80A61960FB6F894DEBFBB
:101780000FBECDBFDF91CF911F910F91FF900895B4
:10179000089590937800809377000895089590932A
:1017A000800080937F000895089590937A0080933D
:1017B00079000895089590937600809375000895B8
:1017C000089590937C0080937B00089508959093F2
:1017D0007E0080937D0008952091FB0143E060E04E
:1017E0008AE00E94E50F08958093FB010E94EC0BB4
:1017F0000895282F46E060E08AE00E94E50F02C0CD
:101800000E94370E06B600FCFBCF8091B4018823FE
:10181000B9F708950F93062F282F45E060E08AE07E
:101820000E940D1002C00E94370E06B600FCFBCFCE
:101830008091B4018823B9F70F9108950F931F93F6
:10184000CF93DF93CDB7DEB722970FB6F894DEBF04
:101850000FBECDBF882319F080E090E092C063E016
:1018600085E892E00E94E70E209185028091F701C1
:1018700082272093F701082F10E0C801807690702E
:10188000892B81F0229526952770822F8170809375
:1018900073022695217020937602E0917500F091F5
:1018A00076000995C80186709070892B81F080912F
:1018B000F7018695982F91709093470286958170D5
:1018C00080938002E0917700F0917800099503FF02
:1018D0001BC06BE18AE00E94A40F42E0BE016F5F73
:1018E0007F4F8AE00E943D0F898190E036E0880FAB
:1018F000991F3A95E1F72A8130E0E0917900F09163
:101900007A00822B932B099500FF1FC065E18AE0C6
:101910000E94A40F42E0BE016F5F7F4F8AE00E94E9
:101920003D0F8A8190E0982F8827298130E0822B13
:10193000932B90938202809381028091F701E09132
:101940007B00F0917C0081700995809186028093E4
:10195000FC0183FF05C0E0917D00F0917E000995B8
:10196000809187028093FA018091F70187FF05C07B
:10197000E0917F00F091800009951092AC0181E028
:1019800090E022960FB6F894DEBF0FBECDBFDF9178
:10199000CF911F910F9108958091AC01882359F444
:1019A000829B09C081E08093AC0123E040E060E0CD
:1019B0008AE00E94C10E089502C00E94370E06B64A
:1019C00000FCFBCF8091B4018823B9F786E090E05A
:1019D0000E9415090E94CC0C02C00E94370E06B668
:1019E00000FCFBCF8091B4018823B9F708951F93C1
:1019F000122F1092620297E0909363028093640228
:101A000060936502852F9927809366024093670251
:101A100046E062E672E08AE00E9439100E94DC0C27
:101A2000112329F408C00E94CC0C0E94370E80912B
:101A3000FA0180FFF8CF1F9108951F93122F109283
:101A4000620298E09093630280936402609365025F
:101A5000852F9927809366024093670246E062E6ED
:101A600072E08AE00E9439100E94DC0C112329F4F4
:101A700008C00E94CC0C0E94370E8091FA0180FFB2
:101A8000F8CF1F91089544E060E08AE00E94C20F01
:101A90000E94DC0C089524E048E452E06DE08AE006
:101AA0000E94020F8091490290E0982F8827209190
:101AB0004802820F911D9093710280937002809171
:101AC0004B0290E0982F882720914A02820F911DA7
:101AD0009093750280937402089528E148E452E0DF
:101AE00063E08AE00E94020F8091480280936C02BA
:101AF000809149028093720280914A0280936D0224
:101B000080914B0280937F0280914C02809361020E
:101B100080914D028093600280914F0290E0982F57
:101B2000882720914E02820F911D90937E02809310
:101B30007D028091510290E0982F882720915002D9
:101B4000820F911D909378028093770280915302C7
:101B500090E0982F882720915202820F911D909338
:101B60007102809370028091550290E0982F88272F
:101B700020915402820F911D9093750280937402FC
:101B80008091570290E0982F882720915602820F6B
:101B9000911D90938402809383028091590290E07A
:101BA000982F882720915802820F911D90937C02D4
:101BB00080937B0280915B0290E0982F8827209190
:101BC0005A02820F911D909382028093810280912C
:101BD0005D0290E0982F882720915C02820F911D72
:101BE00090937A028093790280915F0290E0982F1F
:101BF000882720915E02820F911D90936F0280933F
:101C00006E020895F89480B911B88FEF83B984E01B
:101C100086BF8091AD0181608093AD017894089575
:101C20000895909382008093810008950895909381
:101C30008400809383000895CF93DF93CDB7DEB700
:101C400021970FB6F894DEBF0FBECDBF86E989831A
:101C500089818150898389818F3FD1F721960FB681
:101C6000F894DEBF0FBECDBFDF91CF91089506B6C9
:101C700000FC65C08091AD0180FF45C08091B4013A
:101C8000882309F45CC08130A1F40E941C0E92E00C
:101C90009093F6018091AF018093B6018091B001DD
:101CA0008093B7011092AD0185EA86BF9093B4018D
:101CB00008958230B1F40E941C0E8091B1018F5FB3
:101CC0008093F6018091AF0181608093AF01809392
:101CD000B6011092AD0185EA86BF83E08093B4011E
:101CE0000895833061F51092B4018091B201909112
:101CF000B3012FEF8F3F920711F1E0918100F09136
:101D000082000995089506B600FCFDCF9091AE01C2
:101D10009923A9F01092B4018091AD018160809364
:101D2000AD011092AF011092B3011092B201109266
:101D3000B101E0918300F0918400892F0995089505
:101D4000FF920F931F93182F062FF42E02C00E94AC
:101D5000370E06B600FCFBCF8091B4018823B9F79B
:101D600082E08093B4011093AF01802F90E09093B4
:101D7000B3018093B201F092B1011F910F91FF90D6
:101D80000895EF92FF920F931F93E82E162F042FC2
:101D9000F22E02C00E94370E06B600FCFBCF8091E7
:101DA000B4018823B9F781E08093B401812F90E0DA
:101DB0009093B3018093B201E092AF010093B00120
:101DC000F092B1011F910F91FF90EF9008959C0147
:101DD00006B600FCFDCF8091AD0180FF0BC0E6ECA4
:101DE000F1E0D90190E004C081818D939F5F31962D
:101DF0009617D1F7089506B600FCFDCF8091AE018D
:101E000090E00895FF920F931F93CF93DF93082FD5
:101E1000F62EEA01122F02C00E94370E06B600FC11
:101E2000FBCF8091B4018823B9F781E08093B4019E
:101E30000093AF018FEF9FEF9093B3018093B201B6
:101E4000F092B0011093B10102C00E94370E06B6A5
:101E500000FCFBCF8091B4018823B9F78091AD01DC
:101E600080FF05C01F5F612FCE010E94E70EDF914A
:101E7000CF911F910F91FF9008950F931F93CF93D0
:101E8000DF93082FEB01142F02C00E94370E06B615
:101E900000FCFBCF8091B4018823B9F70E941C0E8F
:101EA00082E08093B4010093AF018FEF9FEF909396
:101EB000B3018093B2011093B10102C00E94370EAA
:101EC00006B600FCFBCF8091B4018823B9F780915E
:101ED000AD0180FF05C01F5F612FCE010E94E70E9C
:101EE000DF91CF911F910F9108951F93182F02C07A
:101EF0000E94370E06B600FCFBCF8091B401882308
:101F0000B9F70E941C0E82E08093B4011093AF01D8
:101F10008FEF9FEF9093B3018093B20181E08093A4
:101F2000B10102C00E94370E8091B4018823D1F71D
:101F30008091AD0180FD03C080E090E003C08091FE
:101F4000C70190E01F9108950F931F93182F062F3C
:101F500002C00E94370E06B600FCFBCF8091B40190
:101F60008823B9F70E941C0E82E08093F60110933B
:101F7000B6010093B7011092AD0185EA86BF1F91AB
:101F80000F910895FF920F931F93182F062FF42E91
:101F900002C00E94370E06B600FCFBCF8091B40150
:101FA0008823B9F70E941C0E83E08093F6011093FA
:101FB000B6010093B701F092B8011092AD0185EA25
:101FC00086BF1F910F91FF900895EF92FF920F939C
:101FD0001F93182F062FF42EE22E02C00E94370EF8
:101FE00006B600FCFBCF8091B4018823B9F70E94AC
:101FF0001C0E84E08093F6011093B6010093B701A4
:10200000F092B801E092B9011092AD0185EA86BF65
:102010001F910F91FF90EF900895DF92EF92FF9242
:102020000F931F93182FF62EE42ED22E02C00E947B
:10203000370E06B600FCFBCF8091B4018823B9F7B8
:102040000E941C0E85E08093F6011093B601F09279
:10205000B701E092B801D092B9010093BA01109291
:10206000AD0185EA86BF1F910F91FF90EF90DF9041
:1020700008950F931F93CF93DF93082FEB01142F35
:1020800002C00E94370E06B600FCFBCF8091B4015F
:102090008823B9F70E941C0E412F4F5F4093F60131
:1020A0000093B601DE01E6EBF1E090E004C08D9113
:1020B00081839F5F31969417D1F71092AD0185EA25
:1020C00086BFDF91CF911F910F9108951F920F92BC
:1020D0000FB60F9211242F933F938F939F93EF93FB
:1020E000FF9381B18832C9F0893240F4803199F090
:1020F000883199F0883009F04BC00DC0803441F12F
:10210000813420F4883309F043C03DC08035A9F004
:102110008835F1F52BC01092B5019091B5018091F1
:10212000F601981750F5E92FF0E0EA54FE4F808150
:1021300083B99F5F9093B50117C08091B50193B1AA
:10214000E82FF0E0EA53FE4F90838F5F8093B50154
:102150002091B50130E08091F60190E001972817B9
:10216000390714F485EC18C085E816C083B1E091F6
:10217000B501F0E0EA53FE4F80838091AD018160AC
:102180008093AD0108C081B18093AE0185EA04C09F
:1021900081B18093AE0184E986BFFF91EF919F9159
:1021A0008F913F912F910F900FBE0F901F90189518
:1021B000A8E0B0E0EEEDF0E10C9498137B018C0107
:1021C000611571058105910519F482E089835AC072
:1021D00083E089838EE1C82ED12CDC82CB82ED8214
:1021E000FE820F831887C801B7010E944B11BC0102
:1021F0006150704077FF33C0EE27FF27E61BF70BD7
:1022000020E030E040E050E081E090E0A0E0B0E08D
:102210000E2E04C0880F991FAA1FBB1F0A94D2F765
:102220000197A109B1098E219F21A023B123009715
:10223000A105B10521F021E030E040E050E004C00C
:1022400016950795F794E794EA95D2F72E293F293A
:10225000402B512B2D833E834F8358870FC0611530
:10226000710581F0062E04C0EE0CFF1C001F111F2B
:102270000A94D2F7ED82FE820F831887C61AD70A16
:10228000DC82CB821A82CE0101960E949811E8E08E
:1022900028960C94B413EF92FF920F931F939B0117
:1022A000AC01203080E0380781E0480780E0580723
:1022B00080F42F3F31054105510509F020F4EE244B
:1022C000FF24870119C068E0E62EF12C012D112DA5
:1022D00013C0203080E0380780E0480781E05807CD
:1022E00030F490E1E92EF12C012D112D05C088E18B
:1022F000E82EF12C012D112D80E290E0A0E0B0E05D
:102300008E199F09A00BB10B04C0569547953795C0
:102310002795EA94D2F7F901EB57FF4F2081821BF2
:102320009109A109B1091F910F91FF90EF900895B4
:102330009F92AF92BF92CF92DF92EF92FF920F9354
:102340001F93EE24FF248701FC01248135814681FF
:10235000578191808081823010F44061A2C0843026
:1023600009F49BC0823029F420E030E040E050E0E6
:1023700005C0211531054105510519F4E0E0F0E0F3
:1023800092C0828193816FEF823896070CF05AC019
:1023900062E87FEF681B790B6A3171052CF020E051
:1023A00030E040E050E02AC0AA24BB24650181E06F
:1023B00090E0A0E0B0E0062E04C0880F991FAA1F8D
:1023C000BB1F0A94D2F70197A109B1098223932375
:1023D000A423B5230097A105B10529F071E0A72E2C
:1023E000B12CC12CD12C04C0569547953795279513
:1023F0006A95D2F72A293B294C295D29DA01C901BE
:102400008F779070A070B07080349105A105B105F0
:1024100039F427FF09C0205C3F4F4F4F5F4F04C086
:10242000215C3F4F4F4F5F4F80E090E0203060E0F5
:10243000360760E0460760E4560710F081E090E060
:10244000FC0123C08038910544F5FC01E158FF4FA1
:10245000DA01C9018F779070A070B0708034910557
:10246000A105B10539F427FF09C0205C3F4F4F4F4C
:102470005F4F04C0215C3F4F4F4F5F4F57FF05C078
:102480005695479537952795319687E05695479508
:10249000379527958A95D1F706C020E030E040E0D7
:1024A00050E0EFEFF0E0E22EF32E942F9F77802F95
:1024B0008078892B9E2F9795992797958F77082F4E
:1024C000092B9E2F9695812F8078892B979499249C
:1024D00097948F77182F1929C801B7011F910F9171
:1024E000FF90EF90DF90CF90BF90AF909F900895B6
:1024F000FB019F01E8944230C4F04532B4F44A3005
:1025000029F497FB1EF4909581959F4F642F7727B0
:102510000E94C513805D8A330CF0895D8193CB01E5
:102520000097A1F716F45DE251931082C9010C9453
:102530009912DC01FC01672F71917723E1F7329743
:1025400004C07C916D9370836291AE17BF07C8F38E
:1025500008950CD0A9C0A1D040F098D030F021F45B
:102560005F3F19F08AC05111D3C08DC0AED098F32F
:102570009923C9F35523B1F3951B550BBB27AA2704
:1025800062177307840738F09F5F5F4F220F331F76
:10259000441FAA1FA9F333D00E2E3AF0E0E830D042
:1025A00091505040E695001CCAF729D0FE2F27D045
:1025B000660F771F881FBB1F261737074807AB0713
:1025C000B0E809F0BB0B802DBF01FF2793585F4F88
:1025D0002AF09E3F510568F050C09AC05F3FECF36F
:1025E000983EDCF3869577956795B795F7959F5F4D
:1025F000C9F7880F911D9695879597F90895E1E0A1
:10260000660F771F881FBB1F621773078407BA07FF
:1026100020F0621B730B840BBA0BEE1F88F7E0955A
:1026200008955BD088F09F5790F0B92F9927B75144
:10263000A0F0D1F0660F771F881F991F1AF0BA9586
:10264000C9F712C0B13081F062D0B1E008955FC027
:10265000672F782F8827B85F39F0B93FCCF386957C
:1026600077956795B395D9F73EF4909580957095D9
:1026700061957F4F8F4F9F4F089597F99F6780E82F
:1026800070E060E008959FEF80EC089500240A94C4
:102690001616170618060906089500240A9412163D
:1026A0001306140605060895092E0394000C11F470
:1026B000882352F0BB0F40F4BF2B11F460FF04C01D
:1026C0006F5F7F4F8F4F9F4F089557FD9058440F76
:1026D000551F59F05F3F71F04795880F97FB991F81
:1026E00061F09F3F79F0879508951216130614063E
:1026F000551FF2CF4695F1DF08C0161617061806CB
:10270000991FF1CF86957105610508940895E894A5
:10271000BB2766277727CB0197F908952F923F9221
:102720004F925F926F927F928F929F92AF92BF92E1
:10273000CF92DF92EF92FF920F931F93CF93DF938D
:10274000CDB7DEB7CA1BDB0B0FB6F894DEBF0FBEEA
:10275000CDBF09942A88398848885F846E847D8437
:102760008C849B84AA84B984C884DF80EE80FD8039
:102770000C811B81AA81B981CE0FD11D0FB6F894AF
:10278000DEBF0FBECDBFED010895AA1BBB1B51E1FB
:1027900007C0AA1FBB1FA617B70710F0A61BB70BD1
:1027A000881F991F5A95A9F780959095BC01CD0176
:0427B0000895FFCFBA
:1027B4005050000000010000000000010103029CD1
:1027C400066F064206DA0BC80BD40BE00BE60BCE01
:1027D4000B100E160E00010202030303030404048B
:1027E400040404040405050505050505050505059A
:1027F400050505050506060606060606060606067A
:102804000606060606060606060606060606060664
:102814000606060606070707070707070707070749
:102824000707070707070707070707070707070734
:102834000707070707070707070707070707070724
:102844000707070707070707070707070707070714
:1028540007070707070808080808080808080808F9
:1028640008080808080808080808080808080808E4
:1028740008080808080808080808080808080808D4
:1028840008080808080808080808080808080808C4
:1028940008080808080808080808080808080808B4
:1028A40008080808080808080808080808080808A4
:1028B4000808080808080808080808080808080894
:1028C4000808080808080808080808080808080884
:0628D400080808080800D6
:00000001FF
