:100000000C94F1000C9484020C94B1020C94DE0266
:100010000C940E010C940E010C940E010C940E0124
:100020000C940E010C940E010C9483050C940E019B
:100030000C940E010C9410070C940E010C940E01FC
:100040000C940E010C940E010C940E010C94C20A37
:100050000C940E012E2E2E20524947485421005256
:100060004F544154452041204249542E2E2E002EFB
:100070002E2E204C4546542100524F5441544520C9
:1000800041204249542E2E2E004C3A202020202080
:1000900020523A004C494748542053454E534F5242
:1000A000533A005245474953544552530052454133
:1000B0004420414C4C20525036004C454420434F84
:1000C000554E54455200494E4352454D454E5400FD
:1000D0004578616D706C652050726F6772616D203C
:1000E00031004932432D4D6173746572002323231F
:1000F00023232323232323232323232323002323F3
:100100002323232323232323232323232323000AFB
:100110000A52503620434F4E54524F4C204D3332EA
:1001200020493243204D6173746572204578616DBA
:10013000706C652050726F6772616D210A00207CBF
:10014000204C53523A00207C204C534C3A000A0A6F
:10015000204C696768742053656E736F7220566116
:100160006C7565733A00207C204C53525F483A000E
:10017000207C204C53525F4C3A00207C204C534C46
:100180005F483A00207C204C534C5F4C3A004C694D
:100190006768742053656E736F7220726567697348
:1001A000746572733A0A00207C20000A524541446B
:1001B000494E4720414C4C20525036205245474929
:1001C00053544552533A000A493243204552524F44
:1001D00052202D205457492053544154453A203041
:1001E000780011241FBECFE5D8E0DEBFCDBF10E000
:1001F000A0E6B0E0E6EFF6E102C005900D92AA3667
:10020000B107D9F711E0AAE6B0E001C01D92A23310
:10021000B107E1F70E94EA010C94790B0C940000FD
:100220001F93182F87EC91E00E94F706812F90E032
:1002300060E10E949F078AE00E94E9061F910895ED
:10024000DF93CF9300D000D0CDB7DEB78AE06DE06A
:100250000E94BC098AE0BE016F5F7F4F44E00E94AC
:100260003D098EE891E00E94F70684E891E00E9443
:10027000F706898190E06AE00E949F078AE791E093
:100280000E94F7068A8190E06AE00E949F0780E75B
:1002900091E00E94F7068B8190E06AE00E949F0740
:1002A00086E691E00E94F7068C8190E06AE00E9469
:1002B0009F078EE491E00E94F70686E491E00E9499
:1002C000F7069A8180E02981820F911D6AE00E94E1
:1002D0009F078EE391E00E94F7069C8180E02B81CE
:1002E000820F911D6AE00E949F078AE00E94E90642
:1002F00081E063E00E94DA049A8180E02981820F24
:10030000911D6AE044E00E94A70681E06BE00E9434
:10031000DA049C8180E02B81820F911D6AE044E029
:100320000E94A7060F900F900F900F90CF91DF9132
:100330000895CF93DF938AE060E00E94BC098AE0D1
:1003400068EC70E04EE10E943D098BEA91E00E946A
:10035000F706C0E0D0E0CE0187709070892B21F4C1
:100360008AE00E94E90604C087EA91E00E94F7064D
:1003700083E20E94E906CE016AE042E00E94C107E2
:100380008AE30E94E906FE01E853FF4F808190E076
:100390006AE043E00E94C1072196CE31D105D9F62B
:1003A0008AE00E94E906DF91CF9108951092BE0085
:1003B00098E09093BF008093C0006093C100509379
:1003C000C2004093C3008AE06EEB70E046E00E94FA
:1003D000850A08951F930E946B060E9423048FE0F4
:1003E00091E00E94F70688E40E94000880E191E015
:1003F0000E94150884EB60E570E00E942C0689E6F7
:1004000090E00E9456068CED60E570E00E942C069C
:1004100089E690E00E9456068FE00E94E2038EEF8C
:1004200090E06DEE70E00E94E20484EF91E00E94A3
:10043000560682EE90E060ED70E00E94E20488EEE5
:1004400093E00E94560680E00E94E20311E00E94C1
:100450004B058823E1F3833049F1843028F481305F
:1004600041F08230A1F716C0843061F1853079F710
:1004700035C081E00E94E20386EC90E06AEB70E018
:100480000E94E2048AE060E043E0212F0E94170A04
:100490001F5FDDCF82E00E94E2038DEA90E063EA15
:1004A00070E00E94E2040E949901D1CF84E00E9492
:1004B000E20384E990E069E870E00E94E2040E94AF
:1004C0002001C5CF88E00E94E20389E790E06FE653
:1004D00070E00E94E20483E262E00BC089E00E94C7
:1004E000E2038FE590E064E570E00E94E20483E2BD
:1004F00063E048E250E00E94D601A9CF08959093AE
:1005000065008093640008951F920F920FB60F92BA
:1005100011242F933F934F935F936F937F938F9308
:100520009F93AF93BF93EF93FF93E0916400F0919B
:1005300065000995FF91EF91BF91AF919F918F91C8
:100540007F916F915F914F913F912F910F900FBECF
:100550000F901F9018950895909363008093620008
:1005600008951F920F920FB60F9211242F933F936D
:100570004F935F936F937F938F939F93AF93BF93AB
:10058000EF93FF93E0916200F09163000995FF9172
:10059000EF91BF91AF919F918F917F916F915F91FB
:1005A0004F913F912F910F900FBE0F901F90189574
:1005B0000895909361008093600008951F920F92B8
:1005C0000FB60F9211242F933F934F935F936F9326
:1005D0007F938F939F93AF93BF93EF93FF93E0919C
:1005E0006000F09161000995FF91EF91BF91AF918B
:1005F0009F918F917F916F915F914F913F912F913B
:100600000F900FBE0F901F901895369B03C020E0EF
:1006100030E009C0806487B986ED86B93699FECF8F
:10062000349A24B135B1C90108958FB9779BFECFB3
:1006300008958FEF8FB9779BFECF8FB108958FEF1D
:100640008FB9779BFECF3FB18FEF8FB9779BFECFEE
:100650002FB1932F80E030E0282B392BC90108956A
:100660009FB9779BFECF8FB9779BFECF0895FC0192
:1006700090E006C080818FB9779BFECF9F5F319657
:100680009617C0F30895FC0190E02FEF06C02FB934
:10069000779BFECF8FB181939F5F9617C0F308952C
:1006A0009C01C09883E08FB9779BFECFC9010E945F
:1006B00030038FEF8FB9779BFECF8FB1C09A08952B
:1006C0001F93CF93DF939C01EB01142FC09883E01D
:1006D0008FB9779BFECFC9010E943003CE01612FF5
:1006E0000E944303C09ADF91CF911F910895C09853
:1006F00086E08FB9779BFECFC09A0895C09884E0BA
:100700008FB9779BFECFC09A0895C09885E08FB9C6
:10071000779BFECF8FEF8FB9779BFECF8FB1C09ABB
:100720000895FF920F931F93CF93DF93EC01162F41
:10073000072FF42E0E94850380FDFCCF0E947703D3
:10074000C09882E08FB9779BFECFCE010E94300324
:10075000812F902F9C01F90190E006C080818FB914
:10076000779BFECF9F5F31969F15C0F3C09ADF91B4
:10077000CF911F910F91FF9008951F93CF93DF9317
:10078000EC01162F0E94850380FDFCCF0E947703A9
:10079000C09882E08FB9779BFECFCE010E943003D4
:1007A0001FB9779BFECFC09ADF91CF911F9108951B
:1007B00080910B018FB9779BFECF949A00000000C7
:1007C000949808958F7090910B01907F982B90933F
:1007D0000B010E94D80308958295807F90910B01B0
:1007E0009F70982B90930B010E94D803C49A82E3C8
:1007F00090E001C0000001972FEF8F3F9207D1F7E3
:10080000C49808951F93182F82958F700E94EC034F
:10081000812F0E94EC0386E990E001C0000001975F
:100820002FEF8F3F9207D1F71F910895C3980E9431
:10083000020486E990E001C0000001972FEF8F3F8E
:100840009207D1F7089583E00E94EC0380E596E4D7
:1008500001C0000001972FEF8F3F9207D1F783E08F
:100860000E94EC038CE795E101C0000001972FEF97
:100870008F3F9207D1F783E00E94EC038CE795E16C
:1008800001C0000001972FEF8F3F9207D1F782E060
:100890000E94EC038CE795E101C0000001972FEF67
:1008A0008F3F9207D1F788E20E9416048CE795E10A
:1008B00001C0000001972FEF8F3F9207D1F788E02A
:1008C0000E9416048CE795E101C0000001972FEF0C
:1008D0008F3F9207D1F781E00E9416048CE795E1E3
:1008E00001C0000001972FEF8F3F9207D1F782E000
:1008F0000E9416048CE795E101C0000001972FEFDC
:100900008F3F9207D1F78CE00E9416048CE795E1A7
:1009100001C0000001972FEF8F3F9207D1F7089594
:1009200081E00E9416048CE795E101C00000019768
:100930002FEF8F3F9207D1F70895C39A0E940204C8
:1009400082E390E001C0000001972FEF8F3F9207F4
:10095000D1F70895CF93DF93EC0102C00E949D046C
:10096000FE01219684918823C9F7DF91CF910895E4
:10097000CF93DF93EC0103C021960E949D048881F0
:100980008823D1F7DF91CF9108951F93CF93DF9301
:10099000162FEC01C40FD11D04C021960E949D04A6
:1009A00011508881882311F01123B9F7DF91CF917D
:1009B0001F9108956068813009F4605C862F0E9461
:1009C00016040895EF92FF920F931F938C017B0101
:1009D0000E949004C8010E94AA0481E060E00E9485
:1009E000DA04C7010E94AA041F910F91FF90EF90B3
:1009F00008951F93142F0E94DA0404C080E20E941D
:100A00009D0411501123D1F71F910895CF93DF93C7
:100A100081E00E940503EC0183E0CC3FD80778F425
:100A200000000000000081E00E940503C80FD91FEC
:100A3000D695C795C233D10510F481E018C082E085
:100A4000C434D80710F482E012C082E0CC3BD8074F
:100A500010F483E00CC083E0C631D80710F484E0C2
:100A600006C0CE53D34010F080E001C085E0DF9196
:100A7000CF91089580916B00882341F00E94060574
:100A8000882311F410926B0080E008950E940605FF
:100A900080936B0008951F9310916A00112349F011
:100AA0000E940605882311F010E007C010926A002A
:100AB00004C00E94060580936A00812F1F9108954B
:100AC000D09AD89821E030E007C010920C018091B4
:100AD0000C0190E00C97DCF3215030408FEF2F3F5A
:100AE000380799F7D0980895CF93DF9380E00E945C
:100AF0000503EC018530910510F00E946005CE01E0
:100B0000DF91CF9108951F920F920FB60F9211248B
:100B10008F939F938091BC009091BD00019690931C
:100B2000BD008093BC0080910C018F5F80930C010D
:100B300080910D018F5F80930D018150893008F401
:100B400084C08091FA0080FF09C08091FB009091E1
:100B5000FC0001969093FC008093FB008091FA00CA
:100B600081FF09C08091FD009091FE000196909355
:100B7000FE008093FD008091FA0082FF09C0809101
:100B8000FF00909100010196909300018093FF0077
:100B90008091FA0083FF09C08091010190910201C8
:100BA000019690930201809301018091FA0084FFE5
:100BB00009C0809103019091040101969093040172
:100BC000809303018091FA0085FF09C0809105019F
:100BD0009091060101969093060180930501809102
:100BE000FA0086FF09C080910701909108010196E3
:100BF00090930801809307018091FA0087FF09C054
:100C00008091090190910A01019690930A018093C5
:100C100009018091E80080FF16C080910E0190913B
:100C20000F01892B39F415BC8091E8008E7F8093E9
:100C3000E80009C080910E0190910F0101979093F7
:100C40000F0180930E0110920D019F918F910F90D3
:100C50000FBE0F901F9018959091E80091609093AF
:100C6000E80070930F0160930E01809583BD8EE1C3
:100C700085BD08959091E8009E7F9093E800982F9D
:100C8000909593BD882319F08EE185BD089515BC1C
:100C9000089510920C01282F30E02F5F3F4F809174
:100CA0000C0190E028173907D4F708959C0109C07A
:100CB00010920C0180910C0190E00C97DCF3215014
:100CC000304021153105A1F7089502C000000197B9
:100CD0000097E1F708951BBA87E088BB8CEF85BBCE
:100CE00081E682BB1ABA8BEB87BB14BA82E981BB5F
:100CF000F89410BC89E189B91BB886E880BD88E901
:100D00008AB917B886E186B910BE8FE085BF1BBED1
:100D100014BE8AE083BF87EC8CBF15BC8FEF83BD08
:100D200082E089BF80E58DB981E08EB9789408951D
:100D30000F931F93462F09EE10E0B80150E00E9478
:100D4000340BC8010E94B8041F910F910895EF92CF
:100D5000FF920F931F93DF93CF93CDB7DEB76197C9
:100D60000FB6F894DEBF0FBECDBF262F042F7E0135
:100D70000894E11CF11CB701422F50E00E94340B93
:100D8000F70101900020E9F73197EE19FF09102FC4
:100D90001E1B11165CF4115080E30E949D04112368
:100DA000D1F7CE0101960E94B80406C01195C70183
:100DB000602F412F0E94C50461960FB6F894DEBFE4
:100DC0000FBECDBFCF91DF911F910F91FF90EF909C
:100DD00008955D9BFECF8CB90895FC0104C05D9B16
:100DE000FECF31968CB980818823C9F7089503C05E
:100DF0005D9BFECF2CB9FC01019624912223C1F703
:100E00000895FC01E40FF11D05C05D9BFECF3196F6
:100E10008CB961508081882311F06623B1F7089561
:100E20001F920F920FB60F9211242F938F939F93BF
:100E3000EF93FF9320916F0080916E00922F981B8B
:100E40009032A8F480916D00E82FF0E09CB1EF5E45
:100E5000FE4F90838F5F80936D002F5F20936F0014
:100E6000813210F010926D001092100106C08CB10A
:100E70008093710081E080931001FF91EF919F9129
:100E80008F912F910F900FBE0F901F901895109279
:100E9000100190916E0080916F00891711F4E0E0CD
:100EA00013C09F5F90936E0080916C00813210F0B0
:100EB00010926C0080916C00E82FF0E0EF5EFE4F26
:100EC000E0818F5F80936C008E2F08951092100147
:100ED000DC0120E014C09F5F90936E0080916C0055
:100EE000E82FF0E0EF5EFE4F90819C938F5F809340
:100EF0006C00813210F010926C002F5F119690916F
:100F00006E0080916F00891711F0261720F3822F51
:100F1000089580916F0090916E00891B08955798F5
:100F20008CB18093700010926C0010926D00109242
:100F30006E0010926F0010921001579A08950F934F
:100F40001F93DF93CF93CDB7DEB761970FB6F894B9
:100F5000DEBF0FBECDBF462F8E010F5F1F4FB80102
:100F600050E00E94340BC8010E94ED0661960FB656
:100F7000F894DEBF0FBECDBFCF91DF911F910F91CF
:100F80000895FF920F931F93DF93CF93CDB7DEB7F2
:100F900061970FB6F894DEBF0FBECDBF262FF42E9B
:100FA0008E010F5F1F4FB801422F50E00E94340B9B
:100FB000F80101900020E9F73197E01BF10B4F2D6C
:100FC0004E1B141664F480E341505D9BFECF8CB938
:100FD0004423D1F7CE0101960E94ED0605C041954C
:100FE000C8016F2D0E94010761960FB6F894DEBF0D
:100FF0000FBECDBFCF91DF911F910F91FF9008954C
:10100000F89480B911B88FEF83B984E086BF8091DE
:10101000720081608093720078940895089590938F
:101020006700809366000895089590936900809307
:1010300068000895DF93CF930F92CDB7DEB786E9AE
:1010400089838981815089838F5FD9F70F90CF91F0
:10105000DF910895DF93CF930F92CDB7DEB706B639
:1010600000FC6EC08091720080FF4EC080917900BC
:10107000882309F465C08130C9F486E989838981B0
:10108000815089838F5FD9F792E09093BB00809164
:10109000740080937B008091750080937C00109297
:1010A000720085EA86BF909379004AC08230D9F4F5
:1010B00086E989838981815089838F5FD9F78091FF
:1010C00076008F5F8093BB00809174008160809375
:1010D000740080937B001092720085EA86BF83E0E3
:1010E000809379002DC0833059F51092790080915A
:1010F0007700909178002FEF8F3F920709F1E091F0
:101100006600F09167001BC006B600FCFDCF909111
:1011100073009923A9F01092790080917200816088
:1011200080937200109274001092780010927700F1
:1011300010927600E0916800F0916900892F09957E
:101140000F90CF91DF910895FF920F931F93182F67
:10115000062FF42E02C00E942A0806B600FCFBCF20
:10116000809179008823B9F782E080937900109309
:1011700074000093770010927800F09276001F912F
:101180000F91FF900895EF92FF920F931F93E82E17
:10119000162F042FF22E02C00E942A0806B600FC69
:1011A000FBCF809179008823B9F781E080937900A3
:1011B0001093770010927800E0927400009375000D
:1011C000F09276001F910F91FF90EF9008959C018F
:1011D00006B600FCFDCF8091720080FF0CC0ECE8E9
:1011E000F0E0D90170E06E0F7F1F02C081918D93F6
:1011F000E617F707D9F7089506B600FCFDCF8091F2
:1012000073000895FF920F931F93CF93DF93082FDE
:10121000F62EEA01122F02C00E942A0806B600FC30
:10122000FBCF809179008823B9F781E08093790022
:10123000009374008FEF9FEF909378008093770076
:10124000F09275001093760002C00E942A0806B63C
:1012500000FCFBCF809179008823B9F78091720060
:1012600080FF05C01F5FCE01612F0E94E708DF915C
:10127000CF911F910F91FF900895EF92FF920F93DE
:101280001F93DF93CF930F92CDB7DEB7082F7B016B
:10129000142F02C00E942A0806B600FCFBCF8091E2
:1012A00079008823B9F786E9898389818150898308
:1012B0008F5FD9F782E080937900009374008FEFFD
:1012C0009FEF90937800809377001093760002C090
:1012D0000E942A0806B600FCFBCF80917900882383
:1012E000B9F78091720080FF05C01F5FC701612FB1
:1012F0000E94E7080F90CF91DF911F910F91FF900F
:10130000EF9008951F93DF93CF930F92CDB7DEB781
:10131000182F02C00E942A0806B600FCFBCF80915D
:1013200079008823B9F786E9898389818150898387
:101330008F5FD9F782E080937900109374008FEF6C
:101340009FEF909378008093770081E08093760000
:1013500002C00E942A08809179008823D1F78091E9
:10136000720080FD02C080E002C080918C000F906E
:10137000CF91DF911F9108950F931F93DF93CF9328
:101380000F92CDB7DEB7182F062F02C00E942A0891
:1013900006B600FCFBCF809179008823B9F786E977
:1013A00089838981815089838F5FD9F782E0809317
:1013B000BB0010937B0000937C001092720085EAC2
:1013C00086BF0F90CF91DF911F910F910895FF92EB
:1013D0000F931F93DF93CF930F92CDB7DEB7182FE4
:1013E000062FF42E02C00E942A0806B600FCFBCF8E
:1013F000809179008823B9F786E9898389818150B2
:1014000089838F5FD9F783E08093BB0010937B00C3
:1014100000937C00F0927D001092720085EA86BFF6
:101420000F90CF91DF911F910F91FF900895EF9250
:10143000FF920F931F93DF93CF930F92CDB7DEB739
:10144000182F062FF42EE22E02C00E942A0806B69C
:1014500000FCFBCF809179008823B9F786E9898366
:101460008981815089838F5FD9F784E08093BB00A5
:1014700010937B0000937C00F0927D00E0927E0050
:101480001092720085EA86BF0F90CF91DF911F9175
:101490000F91FF90EF900895DF92EF92FF920F93DC
:1014A0001F93DF93CF930F92CDB7DEB7182FF62E91
:1014B000E42ED22E02C00E942A0806B600FCFBCF02
:1014C000809179008823B9F786E9898389818150E1
:1014D00089838F5FD9F785E08093BB0010937B00F1
:1014E000F0927C00E0927D00D0927E0000937F001D
:1014F0001092720085EA86BF0F90CF91DF911F9105
:101500000F91FF90EF90DF900895EF92FF920F936D
:101510001F93DF93CF930F92CDB7DEB7082FF62E30
:10152000E72E142F02C00E942A0806B600FCFBCF4B
:10153000809179008823B9F786E989838981815070
:1015400089838F5FD9F7412F4F5F4093BB00009392
:101550007B00ACE7B0E08F2D9E2D9C01F90102C00D
:1015600081918D938E2F8F198417D0F31092720072
:1015700085EA86BF0F90CF91DF911F910F91FF9069
:10158000EF9008951F920F920FB60F9211242F9390
:101590003F938F939F93EF93FF9381B18832C9F06C
:1015A000893240F4803199F0883199F0883009F01F
:1015B0004BC00DC0803441F1813420F4883309F0F0
:1015C00043C03DC08035A9F08835F1F52BC010929D
:1015D0007A0090917A008091BB00981750F5E92F1E
:1015E000F0E0E558FF4F808183B99F5F90937A00C8
:1015F00017C080917A0093B1E82FF0E0E557FF4FD4
:1016000090838F5F80937A0020917A0030E0809100
:10161000BB0090E001972817390714F485EC18C037
:1016200085E816C083B1E0917A00F0E0E557FF4FFE
:1016300080838091720081608093720008C081B1C4
:101640008093730085EA04C081B18093730084E9BC
:1016500086BFFF91EF919F918F913F912F910F90B6
:101660000FBE0F901F901895FB019F01E894423028
:10167000C4F04532B4F44A3029F497FB1EF4909537
:1016800081959F4F642F77270E94650B805D8A3379
:101690000CF0895D8193CB010097A1F716F45DE210
:1016A00051931082C9010C94550BDC01FC01672F8A
:1016B00071917723E1F7329704C07C916D93708329
:1016C0006291AE17BF07C8F30895AA1BBB1B51E177
:1016D00007C0AA1FBB1FA617B70710F0A61BB70BA2
:1016E000881F991F5A95A9F780959095BC01CD0147
:0616F0000895F894FFCFFD
:0A16F600D802AB027E020E081408B1
:00000001FF
