:100000000C94D5010C94F6010C94F6010C94F601B5
:100010000C94F6010C94F6010C94F6010C94F60184
:100020000C94F6010C94F6010C94F6010C94F60174
:100030000C94F6010C94F6010C94F6010C94F60164
:100040000C94F6010C94F6010C94F6010C94F60154
:100050000C94F6010C94AE0A0C94F6010C94F60183
:100060000C94F6010C949F0C0C94F6010C94F60180
:100070000C94F6010C94F6010C94F6010C94F60124
:100080000C94F6010C94F6010C94F6010C94F60114
:100090000C94F6010C94F6010C94F6010C9489056D
:1000A0000C94F6010C94F6010C94F6010C94F601F4
:1000B0000C94F6010C94F6010C94F6010C94F601E4
:1000C0000C94F6010C94F6010C94F6010C94F601D4
:1000D0000C94F6010C94F6010C94500E0C94F6015D
:1000E0000C94F601202020205C5F2D5F2D5F2D5F9A
:1000F0002D5F2D5F2D5F2D5F2D5F2D5F2F0A0A0075
:100100002020205C7C205250362020524F424F54F9
:100110002053595354454D207C2F0A000A0A2020B1
:10012000205F5F5F5F5F5F5F5F5F5F5F5F5F5F5F1E
:100130005F5F5F5F5F5F5F5F0A00535732207761E9
:1001400073207072657373656420616E64207265DC
:100150006C6561736564210A0053544F502100524D
:10016000554E2120005357312077617320707265FE
:100170007373656420616E642072656C656173657C
:1001800064210A004B65792072656C656173656452
:10019000210A00202D2D3E20507265737365642066
:1001A0006B65793A002D2D3E2000507265737365A2
:1001B0006420427574746F6E000A53544152542186
:1001C0000A004578616D706C652050726F677261CE
:1001D0006D00427574746F6E7300232323232323F1
:1001E0002323232323232323232300232323232302
:1001F000232323232323232323232300436865630B
:100200006B2057494649205465726D696E616C20B8
:100210006F7574707574210A000A0A5250364D3297
:10022000353620427574746F6E204578616D706C40
:10023000652050726F6772616D210A000A232323C3
:100240002057494649204C6561766520434D44203E
:100250006D6F64650A00454E54455220434D44205D
:100260004E4F524D414C210A000A23232320434D77
:1002700044206D6F6465202A2A2A4641494C2A2A67
:100280002A2054525920414741494E2E2E2E0A0011
:10029000454E54455220434D44204750494F313438
:1002A000210A000A232323205749464920456E741A
:1002B000657220434D44206D6F64650A000A232354
:1002C00023232052455452592120232323230A005B
:1002D0000A232323232054494D454F5554212023DD
:1002E0002323236E000A232323230A005D0A002010
:1002F0005B524553505F4F4B3A000A232323232080
:10030000575249544520434F4D4D414E442046419C
:10031000494C5552452120232323230A007D0A00FE
:10032000203B200020575F434D447B000A54494D39
:10033000454F55540A005D0A000A5B4F4B3A007D59
:100340000A000A577B000A54494D454F55540A008C
:100350005D0A000A5B4F4B3A007D0A000A577B009A
:100360000A577269746520436F6D6D616420646F14
:100370006E65210A004552524F52210A000A23237A
:1003800023232054494D454F555421205452592080
:10039000414741494E2120232323230A007D0A009F
:1003A0005241575F434D447B000011241FBECFEFE5
:1003B000D1E2DEBFCDBF00E00CBF12E0A0E0B2E0B2
:1003C000E8E2F8E800E00BBF02C007900D92A43805
:1003D000B107D9F71DE0A4E8B2E001C01D92AB342B
:1003E000B107E1F70E941F020C9412440C94000024
:1003F000809157069091580685369105F8F08091C6
:1004000000020E948F08809184029091000288234C
:1004100011F4990F01C0969590930002809100020B
:10042000883020F081E08093840204C0823010F490
:1004300010928402109258061092570608951F9346
:100440000E94BD0B0E94E80889E192E00E942D0EF7
:100450008CEF91E00E947E0C8FE00E948F088BEE63
:1004600091E06AED71E00E94320A84EF91E00E940F
:100470004A0B82ED91E062EC71E00E94320A88EE54
:1004800093E00E944A0B80E00E948F0889EB91E084
:100490000E942D0E8AEA91E065EA71E00E94320A1C
:1004A0000E94560A182F882309F453C081E064E0A3
:1004B0000E942A0A812F90E06AE00E94180C83E9CA
:1004C00091E00E942D0E812F90E06AE00E940B12B5
:1004D0008AE00E94080E0E94560A8823E1F784E809
:1004E00091E00E942D0E113011F585E691E00E94F9
:1004F0002D0E8091560680FD0CC081E069E00E94BF
:100500002A0A8FE591E00E94FA09809156068160DF
:100510000BC081E069E00E942A0A89E591E00E940F
:10052000FA09809156068E7F8093560612C01230CB
:1005300081F48AE391E00E942D0E8CE191E00E940B
:100540002D0E80E091E00E942D0E84EE90E00E943E
:100550002D0E0E94F801A4CFF8948093B800109259
:10056000B9008FEF8093BB0084E08093BC00809142
:100570008502816080938502789408950895909310
:1005800002028093010208950895909304028093DB
:1005900003020895DF93CF930F92CDB7DEB786E9BC
:1005A00089838981815089838F5FD9F70F90CF919B
:1005B000DF910895DF93CF930F92CDB7DEB780918F
:1005C000BC0080FD71C08091850280FF50C0809189
:1005D0008C02882309F468C08130D1F486E98983CC
:1005E0008981815089838F5FD9F792E09093CE0201
:1005F0008091870280938E028091880280938F027F
:100600001092850285EA8093BC0090938C024CC0C6
:100610008230E1F486E989838981815089838F5F03
:10062000D9F7809189028F5F8093CE0280918702F3
:1006300081608093870280938E021092850285EA02
:100640008093BC0083E080938C022EC0833061F5E0
:1006500010928C0280918A0290918B022FEF8F3F33
:10066000920711F1E0910102F09102021CC0809109
:10067000BC0080FDFCCF909186029923A9F01092D6
:100680008C0280918502816080938502109287029E
:1006900010928B0210928A0210928902E09103025A
:1006A000F0910402892F19950F90CF91DF91089551
:1006B000FF920F931F93182F062FF42E02C00E9453
:1006C000DA028091BC0080FDFACF80918C028823F1
:1006D000B1F782E080938C021093870200938A0224
:1006E00010928B02F09289021F910F91FF90089552
:1006F000EF92FF920F931F93E82E162F042FF22EE6
:1007000002C00E94DA028091BC0080FDFACF809185
:100710008C028823B1F781E080938C0210938A02C7
:1007200010928B02E092870200938802F092890275
:100730001F910F91FF90EF9008959C018091BC0054
:1007400080FDFCCF8091850280FF0CC0EFE9F2E0D4
:10075000D90170E06E0F7F1F02C081918D93E61763
:10076000F707D9F708958091BC0080FDFCCF8091F8
:1007700086020895FF920F931F93CF93DF93082F64
:10078000F62EEA01122F02C00E94DA028091BC000C
:1007900080FDFACF80918C028823B1F781E08093AD
:1007A0008C02009387028FEF9FEF90938B028093D0
:1007B0008A02F09288021093890202C00E94DA0233
:1007C0008091BC0080FDFACF80918C028823B1F724
:1007D0008091850280FF05C01F5FCE01612F0E94BE
:1007E0009D03DF91CF911F910F91FF900895EF929C
:1007F000FF920F931F93DF93CF930F92CDB7DEB786
:10080000082F7B01142F02C00E94DA028091BC00E5
:1008100080FDFACF80918C028823B1F786E9898325
:100820008981815089838F5FD9F782E080938C0220
:10083000009387028FEF9FEF90938B0280938A0241
:100840001093890202C00E94DA028091BC0080FDF0
:10085000FACF80918C028823B1F78091850280FFC6
:1008600005C01F5FC701612F0E949D030F90CF91AC
:10087000DF911F910F91FF90EF9008951F93DF93E9
:10088000CF930F92CDB7DEB7182F02C00E94DA02C5
:100890008091BC0080FDFACF80918C028823B1F753
:1008A00086E989838981815089838F5FD9F782E0C6
:1008B00080938C02109387028FEF9FEF90938B02AF
:1008C00080938A0281E08093890202C00E94DA024A
:1008D00080918C028823D1F78091850280FD02C02F
:1008E00080E002C080919F020F90CF91DF911F9115
:1008F00008950F931F93DF93CF930F92CDB7DEB779
:10090000182F062F02C00E94DA028091BC0080FDE1
:10091000FACF80918C028823B1F786E98983898197
:10092000815089838F5FD9F782E08093CE02109344
:100930008E0200938F021092850285EA8093BC009C
:100940000F90CF91DF911F910F910895FF920F9318
:100950001F93DF93CF930F92CDB7DEB7182F062FDB
:10096000F42E02C00E94DA028091BC0080FDFACF12
:1009700080918C028823B1F786E98983898181502F
:1009800089838F5FD9F783E08093CE0210938E0224
:1009900000938F02F09290021092850285EA809374
:1009A000BC000F90CF91DF911F910F91FF900895A0
:1009B000EF92FF920F931F93DF93CF930F92CDB7D8
:1009C000DEB7182F062FF42EE22E02C00E94DA02A4
:1009D0008091BC0080FDFACF80918C028823B1F712
:1009E00086E989838981815089838F5FD9F784E083
:1009F0008093CE0210938E0200938F02F0929002A9
:100A0000E09291021092850285EA8093BC000F90DB
:100A1000CF91DF911F910F91FF90EF900895DF929A
:100A2000EF92FF920F931F93DF93CF930F92CDB767
:100A3000DEB7182FF62EE42ED22E02C00E94DA0264
:100A40008091BC0080FDFACF80918C028823B1F7A1
:100A500086E989838981815089838F5FD9F785E011
:100A60008093CE0210938E02F0928F02E092900259
:100A7000D0929102009392021092850285EA8093AF
:100A8000BC000F90CF91DF911F910F91FF90EF90DD
:100A9000DF900895EF92FF920F931F93DF93CF9310
:100AA0000F92CDB7DEB7082FF62EE72E142F02C017
:100AB0000E94DA028091BC0080FDFACF80918C0206
:100AC0008823B1F786E989838981815089838F5F83
:100AD000D9F7412F4F5F4093CE0200938E02AFE8CB
:100AE000B2E08F2D9E2D9C01F90102C081918D9362
:100AF0008E2F8F198417D0F31092850285EA809388
:100B0000BC000F90CF91DF911F910F91FF90EF905C
:100B100008951F920F920FB60F920BB60F921124E9
:100B20002F933F938F939F93EF93FF938091B900FF
:100B30008832D1F0893240F48031A1F08831A1F0BF
:100B4000883009F050C00EC0803459F1813420F44F
:100B5000883309F048C041C08035B9F0883509F0C4
:100B600042C02DC010928D0290918D028091CE02D4
:100B7000981768F5E92FF0E0E257FD4F80818093E8
:100B8000BB009F5F90938D0218C080918D02909161
:100B9000BB00E82FF0E0E256FD4F90838F5F80931B
:100BA0008D0220918D0230E08091CE0290E001977D
:100BB0002817390714F485EC1BC085E819C080910B
:100BC000BB00E0918D02F0E0E256FD4F8083809102
:100BD00085028160809385020AC08091B90080936C
:100BE000860285EA05C08091B9008093860284E977
:100BF0008093BC00FF91EF919F918F913F912F9136
:100C00000F900BBE0F900FBE0F901F901895089578
:100C1000909308028093070208950895909310021C
:100C200080930F020895089590930A028093090219
:100C300008950895909306028093050208950895FB
:100C400090930C0280930B020895089590930E02E6
:100C500080930D0208958AE060E043E02091210630
:100C60000E94D8040895282F809321068AE060E02E
:100C700043E00E94D8040895282F8AE060E046E00F
:100C80000E94D80402C00E94DA028091BC0080FD5C
:100C9000FACF80918C028823B1F708950F93282F03
:100CA000062F8AE060E045E00E940F0502C00E9426
:100CB000DA028091BC0080FDFACF80918C028823FB
:100CC000B1F70F9108950F931F93DF93CF930F9276
:100CD0000F92CDB7DEB7882311F080E090C084E397
:100CE00096E063E00E949D032091340680910C06FB
:100CF000822720930C06082F10E0C80180769070A0
:100D0000892B81F0229526952770822F8170809300
:100D100020062695217020932406E0910502F0918B
:100D200006021995C80186709070892B81F0809118
:100D30000C068695982F91709093F2058695817098
:100D400080932E06E0910702F0910802199503FFA7
:100D50001CC08AE06BE10E9479048AE0BE016F5FEB
:100D60007F4F42E00E94F703298130E086E0220FA6
:100D7000331F8A95E1F78A8190E0282B392BE09187
:100D80000902F0910A02C901199500FF1DC08AE00D
:100D900065E10E9479048AE0BE016F5F7F4F42E007
:100DA0000E94F7039A8180E0298130E0822B932B07
:100DB0009093300680932F0680910C06E0910B02F1
:100DC000F0910C028170199580913506809331065F
:100DD00083FF05C0E0910D02F0910E0219958091FC
:100DE00036068093180680910C0687FF05C0E091B7
:100DF0000F02F091100219951092CF0281E00F902E
:100E00000F90CF91DF911F910F9108958091CF02A4
:100E1000882369F48091030183FF09C081E08093F6
:100E2000CF028AE060E040E023E00E94780308956A
:100E300002C00E94DA028091BC0080FDFACF80914E
:100E40008C028823B1F786E090E00E944A0B0E9452
:100E5000060702C00E94DA028091BC0080FDFACF32
:100E600080918C028823B1F708958AE060E044E025
:100E70000E94A6040E94180708951F93122F109233
:100E80000E0697E090930F0680931006609311066C
:100E900050931206409313068AE06EE076E046E037
:100EA0000E944A050E941807112349F004C00E94BD
:100EB00006070E94DA028091180680FFF8CF1F9182
:100EC00008951F93122F10920E0698E090930F062C
:100ED00080931006609311065093120640931306F8
:100EE0008AE06EE076E046E00E944A050E9418071C
:100EF000112349F004C00E9406070E94DA02809183
:100F0000180680FFF8CF1F9108958AE06DE043EF47
:100F100055E024E00E94BA039091F40580E020910E
:100F2000F305820F911D90931E0680931D069091EC
:100F3000F60580E02091F505820F911D9093230620
:100F40008093220608958AE063E043EF55E028E1AC
:100F50000E94BA038091F305809319068091F405ED
:100F600080931F068091F50580931A068091F605FF
:100F700080932D068091F70580930D068091F805EA
:100F800080930B069091FA0580E02091F905820F7D
:100F9000911D90932C0680932B069091FC0580E088
:100FA0002091FB05820F911D9093260680932506C4
:100FB0009091FE0580E02091FD05820F911D909398
:100FC0001E0680931D069091000680E02091FF058B
:100FD000820F911D90932306809322069091020622
:100FE00080E020910106820F911D9093330680933B
:100FF00032069091040680E020910306820F911D35
:1010000090932A06809329069091060680E020910D
:101010000506820F911D9093300680932F069091C4
:10102000080680E020910706820F911D9093280604
:101030008093270690910A0680E020910906820F8E
:10104000911D90931C0680931B060895982F809104
:101050007A0086FF03C020E030E01CC0983020F00A
:1010600088E080937B0002C010927B0097709064B0
:1010700090937C0086ED80937A0080917A0086FDC3
:10108000FCCF80917A00806180937A002091780073
:1010900030917900C90108958EBD0DB407FEFDCFD2
:1010A00008958FEF8EBD0DB407FEFDCF8EB5089568
:1010B0008FEF8EBD0DB407FEFDCF3EB58FEF8EBD19
:1010C0000DB407FEFDCF2EB5932F80E030E0282B26
:1010D000392BC90108959EBD0DB407FEFDCF8EBD0D
:1010E0000DB407FEFDCF0895FC0190E007C080819C
:1010F0008EBD0DB407FEFDCF9F5F31969617B8F3F6
:101100000895FC0190E02FEF07C02EBD0DB407FE3F
:10111000FDCF8EB581939F5F9617B8F3089598B170
:10112000937C98B998B1880F880F8C73982B98B9D5
:101130000895429898B1811184E0892B88B9089567
:10114000439898B1811188E0892B88B90895449813
:1011500098B1811180E1892B88B90895459898B19B
:10116000811180E2892B88B9089582B910926706AF
:101170008091670690E00797DCF3A19A26E930E0BA
:10118000C90121503040892BD9F70000A19824E1F2
:1011900030E0C90121503040892BD9F70000089573
:1011A000A2980E94B50824EF31E0C90121503040D7
:1011B000892BD9F70000089581E00E94D0082CE720
:1011C00035E1C90121503040892BD9F7000008953D
:1011D00020ED34E8C90121503040892BD9F70000B7
:1011E000A098A298A19825E030E007C01092670669
:1011F0008091670690E00C97DCF3215030408FEF30
:101200002F3F380799F780E30E94D0082CEC38ED87
:10121000C90121503040892BD9F7000022E330E08A
:1012200007C0109267068091670690E00C97DCF388
:10123000215030408FEF2F3F380799F780E30E940D
:10124000D0082CEC38EDC90121503040892BD9F75A
:10125000000025E030E007C0109267068091670625
:1012600090E00C97DCF3215030408FEF2F3F380790
:1012700099F780E30E94D0082CEC38EDC901215089
:101280003040892BD9F7000025E030E007C01092EC
:1012900067068091670690E00C97DCF321503040A0
:1012A0008FEF2F3F380799F788E30E94D0082CEC86
:1012B00038EDC90121503040892BD9F7000021E0D9
:1012C00030E007C0109267068091670690E00C97A7
:1012D000DCF3215030408FEF2F3F380799F788E03B
:1012E0000E94D0082CEC38EDC90121503040892BE8
:1012F000D9F7000021E030E007C010926706809126
:10130000670690E00C97DCF3215030408FEF2F3FC1
:10131000380799F781E00E94D0082CEC38EDC9011C
:1013200021503040892BD9F7000021E030E007C080
:10133000109267068091670690E00C97DCF32150CD
:1013400030408FEF2F3F380799F782E00E94D00896
:101350002CEC38EDC90121503040892BD9F7000021
:1013600021E030E007C0109267068091670690E0A8
:101370000C97DCF3215030408FEF2F3F380799F75F
:101380008CE00E94D0082CEC38EDC901215030408F
:10139000892BD9F7000021E030E007C010926706E2
:1013A0008091670690E00C97DCF3215030408FEF7E
:1013B0002F3F380799F725E030E007C01092670605
:1013C0008091670690E00C97DCF3215030408FEF5E
:1013D0002F3F380799F70E94DC080895A29A0E94CF
:1013E000B50822E330E0C90121503040892BD9F7FC
:1013F00000000895CF93DF93EC0102C00E94EE0934
:10140000FE01219684918823C9F7DF91CF91089539
:10141000CF93DF93EC0103C021960E94EE098881EF
:101420008823D1F7DF91CF9108951F93CF93DF9356
:10143000162FEC01C40FD11D04C021960E94EE09A5
:1014400011508881882311F01123B9F7DF91CF91D2
:101450001F9108956068813009F4605C862F0E94B6
:10146000D0080895EF92FF920F931F938C017B0198
:101470000E94DC08C8010E94FA0981E060E00E9435
:101480002A0AC7010E94FA091F910F91FF90EF905D
:1014900008951F93142F0E942A0A04C080E20E941C
:1014A000EE0911501123D1F71F910895949916C098
:1014B00028EE33E0C90121503040892BD9F70000D4
:1014C000949924C028EE33E0C90121503040892B83
:1014D000D9F70000949902C081E00895939916C04D
:1014E00028EE33E0C90121503040892BD9F70000A4
:1014F00093990CC028EE33E0C90121503040892B6C
:10150000D9F70000939902C082E0089580E0089521
:101510008091D202882341F00E94560A882311F458
:101520001092D20280E008950E94560A8093D2025F
:1015300008951F931091D102112349F00E94560A79
:10154000882311F010E007C01092D10204C00E945D
:10155000560A8093D102812F1F9108951F920F92F6
:101560000FB60F9211248F939F938091F005909165
:10157000F10501969093F1058093F005809167063F
:101580008F5F80936706809168068F5F80936806FF
:101590008150893008F46AC08091560680FF09C0E6
:1015A0008091570690915806019690935806809323
:1015B00057068091560681FF09C080915906909187
:1015C0005A06019690935A068093590680915606C2
:1015D00082FF09C080915B0690915C060196909312
:1015E0005C0680935B068091560683FF09C080915C
:1015F0005D0690915E06019690935E0680935D066F
:101600008091560684FF09C080915F069091600624
:1016100001969093600680935F068091560685FF41
:1016200009C08091610690916206019690936206CE
:10163000809361068091560686FF09C080916306FB
:10164000909164060196909364068093630680915E
:10165000560687FF09C0809165069091660601963F
:101660009093660680936506109268069F918F910D
:101670000F900FBE0F901F90189510926706282F9D
:1016800030E02F5F3F4F8091670690E028173907C1
:10169000D4F708959C0109C01092670680916706EF
:1016A00090E00C97DCF32150304021153105A1F773
:1016B0000895DF93CF930F920F92CDB7DEB79A8341
:1016C000898389819A8101979A8389830196C9F7D1
:1016D00000000F900F90CF91DF910895F999FECF00
:1016E00090E092BD81BD60BDFA9AF99A0895F9998A
:1016F000FECF90E092BD81BDF89A80B50895F9992A
:10170000FECF12BC11BCF89A80B58A32E1F4F99987
:10171000FECF88E090E092BD81BDF89A80B58093BD
:101720003501F999FECF87E090E092BD81BDF89A2E
:1017300080B5809334011092300186E080933201AD
:1017400088E9809331010895F999FECF12BC11BC4C
:10175000F89A80B58A3271F4F999FECF86E190E06B
:1017600092BD81BDF89A00B400FE04C081E0809370
:10177000D00208951092D00208950F931F93F89409
:10178000989AA098999AA19812B887EF85B983E89A
:1017900088B90FEF0BB98DEF8EB901BB88E384BB1D
:1017A000009302018DE780930501009308018FE308
:1017B00080930B0101B914B88CE787B91AB812E00D
:1017C0001DB910BA87E083BB1092010196E0909397
:1017D00004011092070180EC80930A011092C50069
:1017E00089E18093C4001092C0009093C20028E960
:1017F0002093C1001092350183E080933401109250
:10180000300190933201209331010E94630D0E94B8
:101810001B0F14BD15BD87EC87BD08BD10936E006E
:101820000E947F0B0E94A40B78941F910F91089542
:101830000F931F93462F05E416E0B80150E00E9475
:10184000AD43C8010E94080A1F910F910895EF92BD
:10185000FF920F931F93DF93CF93CDB7DEB76197BE
:101860000FB6F894DEBF0FBECDBF262F042F7E012A
:101870000894E11CF11CB701422F50E00E94AD43D7
:10188000F70101900020E9F73197EE19FF09102FB9
:101890001E1B11165CF4115080E30E94EE09112307
:1018A000D1F7CE0101960E94080A06C01195C70122
:1018B000602F412F0E94150A61960FB6F894DEBF83
:1018C0000FBECDBFCF91DF911F910F91FF90EF9091
:1018D0000895982F8091C00085FFFCCF9093C6009B
:1018E0000895FC0107C08091C00085FFFCCF3196B0
:1018F0009093C60090819923B1F708959C0106C08A
:101900008091C00085FFFCCF9093C600F9012F5F46
:101910003F4F94919923A1F70895FC01E40FF11D25
:1019200008C08091C00085FFFCCF31969093C6001F
:1019300061509081992311F0662399F708951F92C1
:101940000F920FB60F920BB60F9211242F933F9365
:101950004F935F938F939F93EF93FF934091D9029F
:101960005091DA028091D7029091D8029A01281BF7
:10197000390BC901845F9140F8F48091D5029091B0
:10198000D6022091C600FC01E459F94F208301964C
:101990009093D6028093D5024F5F5F4F5093DA0247
:1019A0004093D902855F914020F01092D6021092A8
:1019B000D50210926B0607C08091C6008093DC02AE
:1019C00081E080936B06FF91EF919F918F915F91E2
:1019D0004F913F912F910F900BBE0F900FBE0F9024
:1019E0001F90189510926B062091D7023091D80263
:1019F0008091D9029091DA028217930711F4E0E006
:101A00001EC02F5F3F4F3093D8022093D7028091A2
:101A1000D3029091D402855F914020F01092D402BD
:101A20001092D3028091D3029091D402FC01E45928
:101A3000F94FE08101969093D4028093D3028E2FC8
:101A40000895DC0110926B0640E050E020C02F5F4B
:101A50003F4F3093D8022093D7028091D3029091C8
:101A6000D402FC01E459F94F2081FD01E40FF51F78
:101A7000208301969093D4028093D302855F914096
:101A800020F01092D4021092D3024F5F5F4F20914A
:101A9000D7023091D8028091D9029091DA02821750
:101AA000930719F04617570790F2CA01089520913D
:101AB000D9023091DA028091D7029091D802281B86
:101AC000390BC9010895E1ECF0E080818F778083C4
:101AD0008091C6008093DB021092D4021092D30250
:101AE0001092D6021092D5021092D8021092D7020C
:101AF0001092DA021092D90210926B0680818068EF
:101B0000808308950F931F93DF93CF93CDB7DEB7F4
:101B100061970FB6F894DEBF0FBECDBF462F8E0182
:101B20000F5F1F4FB80150E00E94AD43C8010E94F3
:101B3000710C61960FB6F894DEBF0FBECDBFCF918A
:101B4000DF911F910F910895FF920F931F93DF93E1
:101B5000CF93CDB7DEB761970FB6F894DEBF0FBE57
:101B6000CDBF262FF42E8E010F5F1F4FB801422FDD
:101B700050E00E94AD43F80101900020E9F7319751
:101B8000E01BF10B4F2D4E1B14167CF490E34150DB
:101B90008091C00085FFFCCF9093C6004423B9F725
:101BA000CE0101960E94710C05C04195C8016F2DB0
:101BB0000E948D0C61960FB6F894DEBF0FBECDBFAC
:101BC000CF91DF911F910F91FF9008950F931F9375
:101BD000DF93CF93CDB7DEB7A1970FB6F894DEBFF2
:101BE0000FBECDBF242F8E010F5F1F4FA80130E025
:101BF0000E94CE43C8010E94710CA1960FB6F894C2
:101C0000DEBF0FBECDBFCF91DF911F910F91089521
:101C1000382F01C000008091300185FFFBCF20915B
:101C200075029091DD028091030187FF04C0222399
:101C300011F091E0F8CF9093DD02309336010895D2
:101C4000CF93DF93EC0103C021960E94080E888198
:101C50008823D1F7DF91CF910895CF93DF93EC01E3
:101C600002C00E94080EFE01219684918823C9F7C4
:101C7000DF91CF9108951F93CF93DF93162FEC013F
:101C8000C40FD11D04C021960E94080E11508881F6
:101C9000882311F01123B9F7DF91CF911F91089597
:101CA0001F920F920FB60F920BB60F9211242F9323
:101CB0003F934F935F938F939F93EF93FF93409145
:101CC000E4025091E5028091E2029091E3029A01D0
:101CD000281B390BC901885E9340F8F48091E0021B
:101CE0009091E10220913601FC01EE59F64F2083DC
:101CF00001969093E1028093E0024F5F5F4F509313
:101D0000E5024093E402895E934020F01092E102E4
:101D10001092E002109261090CC08091360180930C
:101D2000F1028091050184608093050181E0809338
:101D30006109FF91EF919F918F915F914F913F9139
:101D40002F910F900BBE0F900FBE0F901F90189504
:101D50002091E2023091E3028091E4029091E50249
:101D60008217930711F4E0E025C02F5F3F4F3093B7
:101D7000E3022093E2028091DE029091DF02895E0D
:101D8000934020F01092DF021092DE02109261095F
:101D9000809105018B7F809305018091DE029091F7
:101DA000DF02FC01EE59F64FE08101969093DF02CD
:101DB0008093DE028E2F0895DC0140E050E023C0C6
:101DC0008091E2029091E30201969093E302809366
:101DD000E2028091DE029091DF02FC01EE59F64FA3
:101DE0002081FD01E40FF51F208301969093DF020F
:101DF0008093DE02895E934020F01092DF02109201
:101E0000DE024F5F5F4F46175707D0F2109261090D
:101E1000809105018B7F80930501CB01089520916E
:101E2000E4023091E5028091E2029091E302281BE6
:101E3000390BC9010895E1E3F1E080818F77808358
:101E4000809136018093F0021092DF021092DE0240
:101E50001092E1021092E0021092E3021092E2026C
:101E60001092E5021092E40210926109808180686C
:101E70008083E5E0F1E080818B7F808308958A3064
:101E800011F08D3021F59091EF02992379F08A308D
:101E900019F49D3059F404C08D3041F49A3031F476
:101EA0001092EF021092ED0280E008958093EF020D
:101EB0008091ED02E82FF0E0EF59F74F1082809308
:101EC000EB021092EC021092ED0281E008959091E5
:101ED000ED029F3F71F4109260098FEF90E09093B4
:101EE000EC028093EB021092EF021092ED0282E07E
:101EF00008951092EF02E92FF0E0EF59F74F808339
:101F00009F5F9093ED0280E0089581E192E00E944E
:101F1000710C89E392E00E94200E8BE392E00E9414
:101F2000200E86E990E00E944A0B89E392E00E942D
:101F3000200E82E390E00E944A0B8BE392E00E9425
:101F4000200E86E990E00E944A0B89E392E00E940D
:101F5000200E8BE392E00E94200E89E392E00E9423
:101F6000200E86E990E00E944A0B81E492E00E94F4
:101F7000710C04C00E94A80E0E94690C2091E4021A
:101F80003091E5028091E2029091E302281739072F
:101F900089F781E692E00E94710C0895CF92DF925A
:101FA000EF92FF920F931F93082F6A017B018CE53C
:101FB00093E00E947E0C802F0E94690C89E593E0DB
:101FC0000E947E0C40E050E060E070E02091E4026E
:101FD0003091E5028091E2029091E30228173907DF
:101FE000E1F00E94A80E182F0E94690C101789F4C6
:101FF00083E593E00E947E0C802F0E94690C80E5AF
:1020000093E00E947E0C8AE090E00E944A0B81E0FF
:1020100018C040E050E060E070E04C155D056E05D2
:102020007F0550F086E493E00E947E0C84E690E009
:102030000E944A0B80E005C04F5F5F4F6F4F7F4F9C
:10204000C5CF1F910F91FF90EF90DF90CF90089533
:10205000CF92DF92EF92FF921F93CF93DF93EC0129
:102060006A017B0182E493E00E947E0CCE010E9413
:10207000710C8FE393E00E947E0C40E050E060E042
:1020800070E02091E4023091E5028091E2029091AB
:10209000E3022817390769F10E94A80E182F0E9441
:1020A000690C812F0E943F0F8823F9F08091EB0289
:1020B0009091EC020297C8F081E698E0BE010E9480
:1020C0009343009791F089E393E00E947E0C81E6B0
:1020D00098E00E94710C86E393E00E947E0C8AE0F7
:1020E00090E00E944A0B81E018C040E050E060E0C0
:1020F00070E04C155D056E057F0550F08CE293E0B5
:102100000E947E0C84E690E00E944A0B80E005C0AD
:102110004F5F5F4F6F4F7F4FB4CFDF91CF911F91D4
:10212000FF90EF90DF90CF90089583EA92E00E94B5
:102130007E0C0E941B0F8091D0028823A1F180E9C0
:1021400092E00E947E0C469A85E090E00E944A0B45
:1021500089E392E00E94200E8FE348EF54E261E0B1
:1021600070E00E94CE0F8823E1F4469889E692E061
:102170000E947E0C85E090E00E944A0B469A85E022
:1021800090E00E944A0B89E392E00E94200E8FE3C8
:1021900040EB51E76BE070E00E94CE0F882331F1F5
:1021A0004698469816C086E592E00E947E0C84E030
:1021B00091E00E944A0B83E692E00E94200E87E69F
:1021C00092E040EE50E762E770E00E94281088231A
:1021D00069F085E090E00E944A0B89E392E00E945A
:1021E000200E81E090E00E944A0B08950E94850F26
:1021F0000895CF92DF92EF92FF920F931F93CF93A8
:10220000DF93EC0180EA93E00E947E0CCE010E94F5
:10221000710C8DE993E00E947E0C0E941B0F42C05E
:102220008D2D0E94690C8D2D0E94080E96E9E92ED5
:10223000F12C012D112DCC2482E00E943D0B209128
:10224000E4023091E5028091E2029091E3022817C6
:10225000390729F00E94A80E8D15E9F422C0E11477
:10226000F1040105110531F00894E108F1080109B4
:102270001109E2CF81E08C1570F08DE793E00E94A8
:102280007E0C8D2D0E94080EC3948AEFE82EF12C4F
:10229000012D112DD1CF85E793E00E947E0C80E0C7
:1022A0000AC02196D880DD2009F0BACF80E693E0FD
:1022B0000E947E0C81E0DF91CF911F910F91FF90E2
:1022C000EF90DF90CF9008950F931F93CF93DF93FC
:1022D000EC018B0184E293E00E947E0CCE010E940F
:1022E000710C80E293E00E947E0CC8010E94710C88
:1022F0008DE193E00E947E0CCE010E94F910181629
:1023000034F08AEF92E00E947E0C8FEF6CC089E37C
:1023100092E00E94200E40E050E060E070E02091EA
:10232000E4023091E5028091E2029091E3022817E5
:10233000390749F10E94A80E0E943F0F882309F433
:1023400049C08091EB029091EC02029708F442C0E0
:1023500081E698E0B8010E9493430097D9F18FEE8F
:1023600092E00E947E0C81E698E00E94710C8CEE57
:1023700092E00E947E0C8AE090E00E944A0B10924C
:10238000EE0281E030C0403980ED580783E06807F5
:1023900080E0780718F185EE92E00E947E0CCE0175
:1023A0000E94710C80ED92E00E947E0C84E690E029
:1023B0000E944A0B8091EE02833040F48F5F80933D
:1023C000EE028DEB92E00E947E0C84CF1092EE0222
:1023D00080E009C040E050E060E070E04F5F5F4F98
:1023E0006F4F7F4F9CCFDF91CF911F910F91089539
:1023F0008CE392E00E947E0C89E392E00E94200E22
:1024000086E990E00E944A0B8BE692E060E772E07A
:102410000E94641108950F931F93DF93CF93CDB75C
:10242000DEB761970FB6F894DEBF0FBECDBF462F63
:102430008E010F5F1F4FB80150E00E94AD43C801ED
:102440000E94200E61960FB6F894DEBF0FBECDBF7E
:10245000CF91DF911F910F910895EF92FF920F930B
:102460001F93DF93CF93CDB7DEB761970FB6F89484
:10247000DEBF0FBECDBF262F042F7E010894E11CC6
:10248000F11CB701422F50E00E94AD43F7010190CB
:102490000020E9F73197EE19FF09102F1E1B1116C6
:1024A0005CF4115080E30E94080E1123D1F7CE0195
:1024B00001960E94200E06C01195C701602F412F82
:1024C0000E943B0E61960FB6F894DEBF0FBECDBFE3
:1024D000CF91DF911F910F91FF90EF9008950F938F
:1024E0001F93DF93CF93CDB7DEB7A1970FB6F894C4
:1024F000DEBF0FBECDBF242F8E010F5F1F4FA8017F
:1025000030E00E94CE43C8010E94200EA1960FB673
:10251000F894DEBF0FBECDBFCF91DF911F910F9119
:10252000089581E0089580E00895282F8FEF8EBDF3
:102530000DB407FEFDCF8DB58F778DBD8EB5822F83
:1025400080648EBD0DB407FEFDCF8DB58F778DBD38
:10255000872F9927AA27BB278EBD0DB407FEFDCF75
:102560008DB58F778DBDCB01AA27BB278EBD0DB44E
:1025700007FEFDCF8DB58F778DBDBB27A72F962F7B
:10258000852F8EBD0DB407FEFDCF8DB58F778DBD28
:102590004EBD0DB407FEFDCF8DB58F778DBD2223C7
:1025A00019F0283069F406C085E98EBD0DB407FE28
:1025B000FDCF0BC087E88EBD0DB407FEFDCF05C073
:1025C0008FEF8EBD0DB407FEFDCF8DB58F778DBD1E
:1025D00090E02FEF2EBD0DB407FEFDCF8DB58F77A8
:1025E0008DBD8EB58F3F19F49F5F9A3099F708958E
:1025F0008F929F92AF92BF92CF92DF92EF92FF9213
:102600000F931F93CF93DF93EC01009781F08DE13F
:10261000FE0111928A95E9F728988AE040E050E09F
:1026200060E070E00E949512882319F0289A80E0FB
:1026300021C19FEF9EBD0DB407FEFDCF8DB58F77F5
:102640008DBD8EB58E3FB1F71C2FCE01FC0160E62B
:1026500070E00FEF9E2F911B0EBD0DB407FEFDCF56
:102660008DB58F778DBD2EB5983028F4933088F4D2
:10267000992359F00CC09D3018F4993070F40BC0B8
:102680009D3019F19E3069F524C028832AC020832B
:1026900028C0218326C02A8724C030E040E050E0D3
:1026A000062E04C0220F331F441F551F0A94D2F771
:1026B0008B859C85AD85BE85822B932BA42BB52B5A
:1026C0008B879C87AD87BE870CC02295207F2F8784
:1026D00008C0922F92959F708F85892B8F872F70BE
:1026E000288B3196685070408FEF603D780709F075
:1026F000B1CF89E040E050E060E070E00E949512C8
:10270000882309F093CF9FEF9EBD0DB407FEFDCF48
:102710008DB58F778DBD8EB58E3FB1F78091FB045F
:10272000C82EDD24E2E0CE22DD249924BB24EE2451
:10273000FF2410E088248A94AA24A3948EBC0DB4AC
:1027400007FEFDCF8DB58F778DBD2EB51E3081F480
:10275000822F90E026FDA98E85FDAA8E84FDAB8E8A
:102760008C70907095958795959587958C8F7CC08A
:10277000C114D10439F1173029F0173050F01A3054
:1027800040F401C02F739E2D8827E22EFF24E82AF3
:10279000F92A193009F068C00894E11CF11C97016E
:1027A00040E050E060E070E080E090E003E10E94F3
:1027B0002942298B3A8B4B8B5C8B6D8B7E8B8F8B5D
:1027C000988F52C01730D9F0183030F4153061F0BE
:1027D000163009F049C00CC0193031F11930C0F081
:1027E0001A3009F041C025C07FE0972E92223CC0EC
:1027F000822F90E083709070F82EEE2435C0822FE7
:1028000090E0E82AF92AEE0CFF1CEE0CFF1C2CC00D
:102810002295269526952370822F90E0E82AF92AA2
:102820000894E11CF11C20C043E0B42EB222BB0C82
:102830001BC0221F2227221FB22A970140E050E02E
:10284000E92DF0E03296EB0DF11D04C0220F331F8D
:10285000441F551FEA95D2F7298B3A8B4B8B5C8B23
:102860001D8A1E8A1F8A188E1F5F123109F066CFDB
:10287000289A81E0DF91CF911F910F91FF90EF9007
:10288000DF90CF90BF90AF909F908F9008952F9240
:102890003F924F925F926F927F928F929F92AF92F0
:1028A000BF92CF92DF92EF92FF920F931F93DF932D
:1028B000CF93CDB7DEB72C970FB6F894DEBF0FBE1F
:1028C000CDBF39014A015B016C011A830983FC8287
:1028D000EB8290C1BFEF4B2EB1E05B2E462057201C
:1028E0009201A62DA419AA87E1E06A1608F0E0E09B
:1028F000872D831B21E0781608F020E0B82FBE1B3F
:10290000BD8391E08B1708F090E0292BE82DE21BA6
:10291000EE8331E08E1608F030E0F92DF31BFF83D3
:1029200061E09F1608F060E02A2D261B288771E0E1
:10293000A21608F070E02B2C271A91E0B21408F0D0
:1029400090E03C2C391A91E0C31408F090E03D2D42
:10295000391B398780E092E0841995099C878B8721
:10296000AB81BC81A817B90710F4BC87AB878091F5
:10297000F204BA858B1709F58091F304ED818E1767
:10298000E1F48091F404FE818F17B9F48091F5048D
:102990002F81821791F48091F6043885831769F4AA
:1029A0008091F704821549F48091F804831529F485
:1029B0008091F90499858917A9F10E941B16882333
:1029C00009F41FC14114510429F4AB85BC85A05002
:1029D000B24090F42A853D814E815F816885722DD9
:1029E000832D998502EF12E0E12CA2E0FA2E0E94DD
:1029F0004616882309F405C1FA85F093F2042D8167
:102A00002093F3043E813093F4048F818093F50486
:102A100098859093F6042092F7043092F804A985E3
:102A2000A093F904E981FA81E25FF240A1F09201FA
:102A30002E503D4FC90169817A814B855C850E948A
:102A400047431092FA048B819C81AB85BC858A1721
:102A50009B0709F4D4C028988091FB0482FF0FC023
:102A60002A853D814E815F816885722D832D9985F0
:102A700009E00E94AA41BA01A9019B0105C08A850B
:102A80009D812E813F81AC0188E1B9010E949512A0
:102A9000882311F0289AB5C0BEEFBEBD0DB407FE65
:102AA000FDCF8DB58F778DBDE2EFF2E081918EBDC8
:102AB0000DB407FEFDCF8DB58F778DBD24E0E23FCD
:102AC000F207A1F73FEF3EBD0DB407FEFDCF8DB578
:102AD0008F778DBD8FEF8EBD0DB407FEFDCF8DB509
:102AE0008F778DBD9FEF9EBD0DB407FEFDCF8DB5D9
:102AF0008F778DBD8EB58F3FA9F78EBD0DB407FEC4
:102B0000FDCF8DB58F778DBD8EB5289AA981BA81FD
:102B1000EB85FC85AE0FBF1FBA83A9839F0140E000
:102B200050E060E070E080E090E0462C4E0EF1E076
:102B3000461408F0F0E0E72DE30FA1E0E71508F0F8
:102B4000A0E05F2E5E0EF1E05E1608F0F0E0AF2B25
:102B5000E82DE40FB1E0E81508F0B0E0EA2EEE0E43
:102B6000F1E0EE1608F0F0E0BF2BE92DE50FA1E053
:102B7000E91508F0A0E0FB2EFE0EF1E0FE1608F0CD
:102B8000F0E0AF2BEA2DE60FB1E0EA1508F0B0E077
:102B90000A2F0E0FF1E00E1708F0F0E0BF2BEB2D1F
:102BA000E70FA1E0EB1508F0A0E01B2F1E0FF1E0EE
:102BB0001E1708F0F0E0AF2BEC2DE80FB1E0EC159C
:102BC00008F0B0E0AE0FF1E0AE1708F0F0E0BF2B78
:102BD0008D2D890F3201470158016D01D80E2B81CF
:102BE0003C818B859C85281B390B3C832B8391E092
:102BF0009093FA04AB81BC81AB2B09F06BCE81E0E2
:102C000001C080E02C960FB6F894DEBF0FBECDBF9A
:102C1000CF91DF911F910F91FF90EF90DF90CF90B8
:102C2000BF90AF909F908F907F906F905F904F90EC
:102C30003F902F900895EF92FF920F931F938091F2
:102C4000FA04882311F081E01CC02091F204309135
:102C5000F3044091F4045091F5046091F6047091EE
:102C6000F7048091F8049091F90402EF12E0E12C4E
:102C7000E2E0FE2E0E944714882319F081E0809341
:102C8000FA041F910F91FF90EF9008952F923F92B9
:102C90004F925F926F927F928F929F92AF92BF926C
:102CA000CF92DF92EF92FF920F931F93DF93CF9318
:102CB000CDB7DEB729970FB6F894DEBF0FBECDBFF4
:102CC00039014A015B016C012801FA82E9826BC17A
:102CD000FFEFEF2EF1E0FF2EE620F7209701A62D63
:102CE000AE19AF83E1E06A1608F0E0E0872D831BA0
:102CF00021E0781608F020E0B82FBE1BBB8391E0DE
:102D00008B1708F090E0292B382C321A31E083140D
:102D100008F030E0192D131B61E0911608F060E017
:102D2000EA2DE61BEC8371E0AE1608F070E0FB2D97
:102D3000F71BFD8391E0BF1608F090E02C2C291AB8
:102D400091E0C21408F090E02D2D291B2E8380E025
:102D500092E08E199F0999878887A981BA81A8175F
:102D6000B90710F4B987A8878091F204BF818B1747
:102D700009F58091F304EB818E17E1F48091F4045E
:102D80008315C1F48091F5048117A1F48091F604B4
:102D9000FC818F1779F48091F7042D81821751F40B
:102DA0008091F804821531F48091F9043E818317F3
:102DB00009F483C00E941B16882309F4FAC02898DE
:102DC0008091FB0482FF0FC02F813B81432D512F47
:102DD0006C817D81822D9E8109E00E94AA41BA0109
:102DE000A9019B0105C08F819B81232D312FAC014F
:102DF00081E1B9010E949512882319F0289A80E098
:102E0000D8C08FEF8EBD0DB407FEFDCF8DB58F7787
:102E10008DBD8EB58E3FA9F7E2EFF2E09FEF9EBD2C
:102E20000DB407FEFDCF8DB58F778DBD8EB5808338
:102E3000A4E0E13FFA0711F03196F0CFBF81B093E3
:102E4000F204EB81E093F3043092F4041093F50460
:102E5000FC81F093F6042D812093F7042092F8046E
:102E60003E813093F90497012E503D4FC201B901C4
:102E7000488559850E9447438FEF8EBD0DB407FEEC
:102E8000FDCF8DB58F778DBD8EB59FEF9EBD0DB4F7
:102E900007FEFDCF8DB58F778DBD8EB5289AAFEF2C
:102EA000AEBD0DB407FEFDCFE885F9854E0E5F1E61
:102EB0008DB58F778DBD8EB50DC097012E503D4FCE
:102EC000C201B901488559850E9447432885398543
:102ED000420E531E89819A81A885B9858A1B9B0B56
:102EE0009A838983AD0160E070E080E090E0A0E02B
:102EF000B0E0262C240E31E0261408F030E0272D17
:102F0000250FE1E0271508F0E0E0332E320E31E026
:102F1000321608F030E0E32B282D260FF1E02815BB
:102F200008F0F0E0EE2EE20E31E0E21608F030E0BC
:102F3000F32B292D270FE1E0291508F0E0E0FF2E03
:102F4000F20E31E0F21608F030E0E32B2A2D280FC4
:102F5000F1E02A1508F0F0E00E2F020F31E0021721
:102F600008F030E0F32B2B2D290FE1E02B1508F0B2
:102F7000E0E01F2F120F31E0121708F030E0E32BD2
:102F80002C2D2A0FF1E02C1508F0F0E0E20F31E0D3
:102F9000E21708F030E0F32B8D2D8B0F3101470144
:102FA00058016F01D80EE981FA81EF2B09F090CE1C
:102FB00081E029960FB6F894DEBF0FBECDBFCF914A
:102FC000DF911F910F91FF90EF90DF90CF90BF9016
:102FD000AF909F908F907F906F905F904F903F90B9
:102FE0002F9008952F923F924F925F926F927F920F
:102FF0008F929F92AF92BF92CF92DF92EF92FF9209
:103000000F931F93DF93CF93CDB7DEB760970FB6C3
:10301000F894DEBF0FBECDBF522E432E4B835C8390
:103020006D837E838F839887180137019A82898206
:103030000115110509F488C0E114F10409F484C0F4
:10304000CE14DF0408F480C0A114B10409F47CC0DC
:10305000882499248E189F08CE18DF08970140E035
:1030600050E060E070E080E090E0E9863A874B87CE
:103070005C876D877E878F87988B252D342D4B81BC
:103080005C816D817E818F819885810173010E94B1
:103090004616882309F458C0C101052D142D2B8133
:1030A0003C814D815E816F817885E980FA80F501F0
:1030B0001995882309F44AC0C80CD91CC601860D8D
:1030C000971D8615970508F441C03985350D91E0A7
:1030D000351508F090E08A85840D21E0841508F00C
:1030E00020E0192F180F91E0181708F090E0922BAC
:1030F0004B81940F81E0941708F080E06C81680F99
:1031000081E05C81651708F080E05D81580F81E007
:103110007D81571708F080E04E81480F81E02E81B5
:10312000421708F080E07F81870F21E0871708F0C1
:1031300020E0532E412E9B836C835D834E838F83CF
:103140008885820F888799CF80E001C081E06096F2
:103150000FB6F894DEBF0FBECDBFCF91DF911F91A8
:103160000F91FF90EF90DF90CF90BF90AF909F9026
:103170008F907F906F905F904F903F902F90089529
:103180008F929F92BF92CF92DF92EF92FF920F9316
:103190001F93CF93DF93229A219A209A2398289AFB
:1031A00083E58CBD8DB58E7F8DBD1092FB0490E0C4
:1031B0002FEF2EBD0DB407FEFDCF8DB58F778DBDE2
:1031C0008EB59F5F9A30A9F7289800E010E080E064
:1031D00040E050E060E070E00E949512F82E81E03F
:1031E000F81641F081E00F3F180709F4C3C00F5FE4
:1031F0001F4FEDCF88E04AEA51E060E070E00E94A6
:10320000951282FD2DC08FEF8EBD0DB407FEFDCF50
:103210008DB58F778DBD8EB58FEF8EBD0DB407FE4A
:10322000FDCF8DB58F778DBD8EB58FEF8EBD0DB473
:1032300007FEFDCF8DB58F778DBD0EB400FECAC0E1
:103240008FEF8EBD0DB407FEFDCF8DB58F778DBD91
:103250008EB58A3A09F0BEC082E08093FB0412C0AA
:1032600087E340E050E060E070E00E94951289E260
:1032700040E050E060E070E00E94951282FD02C0E4
:10328000F092FB04B090FB048B2D90E003E0802EC5
:10329000912C8822992212E0C12ED12CC822D92249
:1032A000C0E0D0E081149104B9F0C114D10431F030
:1032B000E12CF12C012DB0E41B2F03C0EE24FF24E0
:1032C000870187E340E050E060E070E00E949512E3
:1032D00089E2B801A70105C081E040E050E060E06C
:1032E00070E00E94951280FF07C08FE7CF3FD8079C
:1032F00009F440C02196D6CFCD2899F18AE340E069
:1033000050E060E070E00E949512882399F58FEFFD
:103310008EBD0DB407FEFDCF8DB58F778DBD0EB47C
:1033200006FE04C084E0B82AB092FB048FEF8EBD85
:103330000DB407FEFDCF8DB58F778DBD8EB58FEFA8
:103340008EBD0DB407FEFDCF8DB58F778DBD8EB5CB
:103350008FEF8EBD0DB407FEFDCF8DB58F778DBD80
:103360008EB580E140E052E060E070E00E9495128E
:10337000882311F0289A2EC0289A8CB58C7F8CBD9A
:103380008DB581608DBD8FEF8093F2048093F3043F
:103390008093F4048093F5048093F6048093F704FB
:1033A0008093F8048093F90481E08093FA0420E08C
:1033B00030E040E050E060E070E080E090E002EF5C
:1033C00012E0E12CA2E0FA2E0E944616882319F0A2
:1033D00081E001C080E0DF91CF911F910F91FF90BC
:1033E000EF90DF90CF90BF909F908F9008952F9295
:1033F0003F924F925F926F927F928F929F92AF9285
:10340000BF92CF92DF92EF92FF920F931F93DF93C1
:10341000CF93CDB7DEB728970FB6F894DEBF0FBEB7
:10342000CDBF922E832E542E452E362E272E8D83E1
:103430009E833801F886EF82DA82C982BC82AB8231
:103440000115110509F47EC0CD2809F47BC0BB2409
:10345000EF2809F06EC0BB24B3946BC0C301092DE3
:10346000182D252D342D432D522D6D817E81EB801D
:10347000FC80A981BA81FD0119956C01009709F4BE
:1034800063C0BB2031F4EF81F885E817F90708F431
:1034900059C0292D382D452D542D632D722D8D8128
:1034A0009E81830176010E944714882309F44AC053
:1034B0009601F92DFC0DE1E0F91508F0E0E0882D0A
:1034C000830F21E0881508F020E01E2F180F91E0EF
:1034D000181708F090E0922B950D81E0951508F0F3
:1034E00080E0682F640D81E0641508F080E0582FBB
:1034F000530D81E0531508F080E0482F420D81E024
:10350000421508F080E02D81820F21E03D81831774
:1035100008F020E09F2E812E592E462E1A018D8311
:103520008E81820F8E83AF81B885AC19BD09B887B3
:10353000AF83BB2009F092CFEF81F885EF2B09F024
:103540008DCF02C080E001C081E028960FB6F894CC
:10355000DEBF0FBECDBFCF91DF911F910F91FF90C6
:10356000EF90DF90CF90BF90AF909F908F907F9023
:103570006F905F904F903F902F900895FC010097BF
:1035800011F01182108208952F923F924F925F9214
:103590006F927F928F929F92AF92BF92CF92DF9263
:1035A000EF92FF920F931F93DF93CF93CDB7DEB7C8
:1035B00028970FB6F894DEBF0FBECDBFFC01009771
:1035C00009F440C1423051056105710508F43AC162
:1035D00080809180D40118968C915A016B0162848D
:1035E0005384448435842684B785BF839089988723
:1035F00071888B3009F093C09A01A60160E070E0F9
:1036000080E090E002E00E942942E32FF42FA52FF2
:10361000B62F172F082FE92EF22EF60C31E0F216F6
:1036200008F030E02E2F250D41E02E1708F040E085
:10363000320FE1E0321708F0E0E04E2B2F2F240D7F
:1036400051E02F1708F050E0420FE1E0421708F078
:10365000E0E05E2B2A2F230D61E02A1708F060E0DE
:10366000520FE1E0521708F0E0E06E2B2B2F220DF5
:1036700071E02B1708F070E0620FE1E0621708F0CC
:10368000E0E07E2B2F81210F81E0211708F080E000
:10369000720FE1E0721708F0E0E08E2B2885200F12
:1036A00091E0201708F090E0820FE1E0821708F027
:1036B000E0E09E2B7E0CD401ED91FC912F2D970D17
:1036C0008E010D5F1F4FB4E0EB2EF12C199588236E
:1036D00009F4B8C02B813C814D815E8121153105F3
:1036E0004105510509F4B2C0273FBFEF3B07BFEFCB
:1036F0004B07BFE05B0709F4A5C0DA01C901805F91
:103700009F4FAF4FBF400797A105B10508F49AC07E
:10371000DA01C901885F9F4FAF4FBF408FC09A0148
:10372000A60160E070E080E090E001E00E942942A4
:10373000E32FF42FA52FB62F172F082FE92EF22EE7
:10374000F60C31E0F21608F030E02E2F250D41E0A6
:103750002E1708F040E0320FE1E0321708F0E0E009
:103760004E2B2F2F240D51E02F1708F050E0420F61
:10377000E1E0421708F0E0E05E2B2A2F230D61E024
:103780002A1708F060E0520FE1E0521708F0E0E07D
:103790006E2B2B2F220D71E02B1708F070E0620FBB
:1037A000E1E0621708F0E0E07E2B2F81210F81E03D
:1037B000211708F080E0720FE1E0721708F0E0E0F6
:1037C0008E2B2885200F91E0201708F090E0820FC3
:1037D000E1E0821708F0E0E09E2B7E0CD401ED9131
:1037E000FC912F2D970D8E010F5F1F4FA2E0EA2E47
:1037F000F12C1995882331F189819A819C0140E04F
:1038000050E0211531054105510501F1273FBFEF7A
:103810003B07B0E04B07B0E05B07A1F0DA01C9015C
:10382000805F9F4FA040B0400797A105B10550F0C1
:10383000DA01C901885F9F4FA040B0400897A105F9
:10384000B10520F420E030E040E050E0B901CA01C9
:1038500028960FB6F894DEBF0FBECDBFCF91DF9193
:103860001F910F91FF90EF90DF90CF90BF90AF909E
:103870009F908F907F906F905F904F903F902F9090
:1038800008952F923F924F925F926F927F928F9204
:103890009F92AF92BF92CF92DF92EF92FF920F93DF
:1038A0001F93DF93CF93CDB7DEB764970FB6F8942D
:1038B000DEBF0FBECDBF2C013A014B01009709F4CA
:1038C000A9C1423051056105710508F4A3C1D201B7
:1038D0001A96BC91BC87F201F385FD87D2011C9634
:1038E000BC91BE87F201F585FF87D2011E96BC917F
:1038F000B88BF201F785F98BD2015096BC91BA8B47
:10390000F201F189FB8BD201ED91FC9180858B3026
:1039100009F0D6C0640153019301A60160E070E094
:1039200080E090E002E00E942942E32FF42FB52FBF
:10393000162F072FF82EA92F8C85820F8C8B31E044
:10394000821708F030E02D852E0F41E02E1708F089
:1039500040E0320F3F8331E09F81921708F030E062
:10396000432B2E852F0F51E02F1708F050E0420F08
:10397000488731E0421708F030E0532B2F852B0F9A
:1039800061E02B1708F060E0520F598731E05217C1
:1039900008F030E0632B2889210F71E0211708F02F
:1039A00070E0620F6A8731E0621708F030E0732B35
:1039B0002989200F81E0201708F080E0720F7B87B3
:1039C00031E0721708F030E0832B2A892F0D31E0A7
:1039D0002F1508F030E0282E220E91E0221608F074
:1039E00090E0332E392ABB89AB0F3A0ED201ED910C
:1039F000FC910190F081E02D2C893F81488559850B
:103A00006A857B85C1018E010D5F1F4FB4E0EB2EEF
:103A1000F12C1995882309F4FDC0AB80BC80CD80C2
:103A2000DE80A114B104C104D10409F4F5C0D601AB
:103A3000C501805F9F4FAF4FBF400897A105B105FB
:103A400008F4E8C0D601C501885F9F4FAF4FBF4063
:103A50000897A105B10518F4AA24BB246501F20159
:103A600086A597A5A0A9B1A90097A105B10539F42C
:103A7000D2019E966D927D928D929C92D1971B82DF
:103A80001C821D821E82D201ED91FC910480F58181
:103A9000E02D2C893F81488559856A857B85C10148
:103AA0008E010D5F1F4FA4E0EA2EF12C1995350110
:103AB0004601A114B104C104D10409F02BCFACC05C
:103AC000640153019301A60160E070E080E090E0A2
:103AD00001E00E942942E32FF42FB52F162F072F64
:103AE000F82EA92F2C84220E31E0221608F030E0A7
:103AF0002D852E0F41E02E1708F040E0332E320EB8
:103B000031E0321608F030E0432B2E852F0F51E0C4
:103B10002F1708F050E0642E620E31E0621608F0B4
:103B200030E0532B2F852B0F61E02B1708F060E05E
:103B3000752E720E31E0721608F030E0632B288982
:103B4000210F71E0211708F070E0862E820E31E01F
:103B5000821608F030E0732B2989200F81E02017AE
:103B600008F080E0972E920E31E0921608F030E0D7
:103B7000832B2A892F0D31E02F1508F030E0A82E75
:103B8000A20E91E0A21608F090E0B32EB92ABB89EC
:103B9000AB0FBA0ED201ED91FC910190F081E02DB6
:103BA0009101A301B401C5018E010F5F1F4FB2E067
:103BB000EB2EF12C1995882369F1C980DA80C114A4
:103BC000D10451F1C6014096089720F1B8EFCB1609
:103BD000BFEFDB0610F0CC24DD241A821982D2015B
:103BE000ED91FC910480F581E02D9101A301B401D8
:103BF000C5018E010F5F1F4FA2E0EA2EF12C19952F
:103C0000360188249924611471048104910409F017
:103C100057CF02C080E001C081E064960FB6F894EF
:103C2000DEBF0FBECDBFCF91DF911F910F91FF90EF
:103C3000EF90DF90CF90BF90AF909F908F907F904C
:103C40006F905F904F903F902F9008952F923F92EA
:103C50004F925F926F927F928F929F92AF92BF929C
:103C6000CF92DF92EF92FF920F931F93DF93CF9348
:103C7000CDB7DEB7AD970FB6F894DEBF0FBECDBFA0
:103C8000998F888F4A8F5B8F6C8F7D8FB9010097DA
:103C900009F41BC3DC01ED91FC9111972081318166
:103CA0003F8B2E8B448155815D8B4C8B1A965C919A
:103CB0001A975CA31B968C911B978DA31C969C91C5
:103CC0001C979EA31D96AC91AFA3A88DB98D1E968F
:103CD000BC91B8A7A88DB98D1F96BC91B9A7A88D26
:103CE000B98D5096BC91BAA7A88DB98D5196BC914B
:103CF000BBA7A88DB98D9E962D903D904D905C9060
:103D0000D1971B8680858B3011F4B1E0BB87E88D9D
:103D1000F98D82899389A489B589FB85FF2351F0A8
:103D20009C01AD0182E056954795379527958A9578
:103D3000D1F706C09C01AD0156954795379527955B
:103D40002C873D874E875F87A88DB98D9E961D92E3
:103D50001D921D921C92D197C801DB01888B998B13
:103D6000AA8BBB8B2C853D854E855F852F8338873D
:103D700049875A876624772443019DC132E0231680
:103D800031044104510448F08C859D85AE85BF8582
:103D9000281639064A065B0628F0A2E02A2E312CA6
:103DA000412C512C620151019B85992309F47FC05C
:103DB0009101A60160E070E080E090E002E00E94E6
:103DC0002942E32FF42FB52F162F072FF82EA92FF6
:103DD0003CA1320F3CA731E04CA5421708F030E07F
:103DE0002DA12E0F41E02E1708F040E0320F3E8F3C
:103DF00031E05E8D521708F030E0432B2EA12F0FDB
:103E000051E02F1708F050E0420F4F8F31E042177A
:103E100008F030E0532B2FA12B0F61E02B1708F097
:103E200060E0520F58A331E0521708F030E0632BE6
:103E300028A5210F71E0211708F070E0A62EA20E30
:103E400031E0A21608F030E0732B29A5200F81E0A5
:103E5000201708F080E0B72EB20E31E0B21608F05D
:103E600030E0832B2AA52F0D31E02F1508F030E02C
:103E7000C82EC20E91E0C21608F090E0D32ED92AC7
:103E80008BA5A80FDA0E2CA53E8D4F8D58A1B5013C
:103E9000C6018E010D5F1F4FF4E0EF2EF12CAE89AD
:103EA000BF89FD011995882309F085C00EC29101D3
:103EB000A60160E070E080E090E001E00E9429420D
:103EC000E32FF42FB52F162F072FF82EA92F3CA183
:103ED000320F3DA731E04DA5421708F030E02DA18B
:103EE0002E0F41E02E1708F040E0320F39A331E0E9
:103EF00059A1521708F030E0432B2EA12F0F51E0AB
:103F00002F1708F050E0420F4AA331E0421708F0A3
:103F100030E0532B2FA12B0F61E02B1708F060E04E
:103F2000520F5BA331E0521708F030E0632B28A555
:103F3000210F71E0211708F070E0A62EA20E31E0EB
:103F4000A21608F030E0732B29A5200F81E020177E
:103F500008F080E0B72EB20E31E0B21608F030E083
:103F6000832B2AA52F0D31E02F1508F030E0C82E45
:103F7000C20E91E0C21608F090E0D32ED92A8BA58C
:103F8000A80FDA0E2DA539A14AA15BA1B501C60182
:103F90008E010F5F1F4FE2E0EE2EF12CAE89BF893C
:103FA000FD011995882309F490C189819A81892B93
:103FB00009F071C031C08B819C81AD81BE810097B9
:103FC000A105B10509F067C0288939894A895B894B
:103FD000211531054105510541F161147104810438
:103FE000910449F42FEF3FEF4FEF5FE02B833C83C9
:103FF0004D835E8304C06B827C828D829E822CA561
:104000003E8D4F8D58A1B501C6018E010D5F1F4F2A
:10401000B4E0EB2EF12C2AC0288939894A895B89C2
:10402000211531054105510549F4A88DB98D9E969C
:104030002D923D924D925C92D19750C061147104C3
:104040008104910429F4EFEFFFEFFA83E98302C0C2
:104050007A8269822DA539A14AA15BA1B501C60169
:104060008E010F5F1F4FA2E0EA2EF12CAC89BD89B3
:10407000FD011995882309F422C1288939894A89C3
:104080005B892150304040405040288B398B4A8B0F
:104090005B8B420131018F819885A985BA85019793
:1040A000A109B1098F839887A987BA870894211C31
:1040B000311C411C511C2F81388549855A85211599
:1040C00031054105510509F059CE88899989AA8998
:1040D000BB890097A105B10509F0F1C02A8D3B8D80
:1040E0004C8D5D8D223031054105510508F4F0C03D
:1040F00059016A013B85332309F470C06B827C82CD
:104100008D829E829501A60160E070E080E090E0E3
:1041100002E00E942942E32FF42FA52FB62F172F7C
:10412000082FE92EFCA0F20E31E0F21608F030E084
:104130002DA12E0F41E02E1708F040E0320FE1E0F4
:10414000321708F0E0E04E2B2EA12F0F51E02F1771
:1041500008F050E0420FE1E0421708F0E0E05E2B8B
:104160002FA12A0F61E02A1708F060E0520FE1E06A
:10417000521708F0E0E06E2B28A52B0F71E02B17EB
:1041800008F070E0620FE1E0621708F0E0E07E2BDB
:1041900029A5210F81E0211708F080E0720FE1E0EE
:1041A000721708F0E0E08E2B2AA5200F91E020176F
:1041B00008F090E0820FE1E0821708F0E0E09E2B2B
:1041C000ABA5AE0D2F2D9A0F8E010D5F1F4FF4E0A2
:1041D000EF2EF12CEC89FD8919956FC0C30169821E
:1041E0009A839501A60160E070E080E090E001E034
:1041F0000E942942E32FF42FA52FB62F172F082F47
:10420000E92EFCA0F20E31E0F21608F030E02DA10C
:104210002E0F41E02E1708F040E0320FE1E0321798
:1042200008F0E0E04E2B2EA12F0F51E02F1708F0E1
:1042300050E0420FE1E0421708F0E0E05E2B2FA1D2
:104240002A0F61E02A1708F060E0520FE1E05217F0
:1042500008F0E0E06E2B28A52B0F71E02B1708F07B
:1042600070E0620FE1E0621708F0E0E07E2B29A524
:10427000210F81E0211708F080E0720FE1E0721752
:1042800008F0E0E08E2B2AA5200F91E0201708F01F
:1042900090E0820FE1E0821708F0E0E09E2BFBA5A2
:1042A000FE0D2F2D9F0F8E010F5F1F4FE2E0EE2EB0
:1042B000F12CAC89BD89FD011995882349F4888DBD
:1042C000998DB401A3010E94411C66247724430107
:1042D000B301C401AD960FB6F894DEBF0FBECDBFDB
:1042E000CF91DF911F910F91FF90EF90DF90CF90D2
:1042F000BF90AF909F908F907F906F905F904F9006
:104300003F902F90089580E190E00895FC01009780
:1043100011F01182108208952F923F924F925F9276
:104320006F927F928F929F92AF92BF92CF92DF92C5
:10433000EF92FF920F931F93DF93CF93CDB7DEB72A
:1043400068970FB6F894DEBF0FBECDBF988F8F8BE6
:104350007E876D87588B4F87009709F41EC3672BA4
:1043600009F41BC34115510509F417C3DC01D396A9
:10437000AC90D397D496BC90D497D596CC90D59743
:10438000D696DC90D697D796EC90D797D896FC9097
:10439000D897D9960C91D997DA961C91DA97979677
:1043A0002D903D904D905C909A979A0140E050E09E
:1043B00060E070E080E090E0B22FBA0DBA8BF1E0DF
:1043C000B21708F0F0E0E32FEB0D99249394E31774
:1043D00008F09924FE0FF98BF1E0A989AE1708F0D7
:1043E000F0E09F2AE42FEC0DB1E0E41708F0B0E014
:1043F000692C6E0EF1E06E1608F0F0E0BF2BE52F91
:10440000ED0DA1E0E51708F0A0E07B2E7E0EF1E0B7
:104410007E1608F0F0E0AF2BE62FEE0DB1E0E617C8
:1044200008F0B0E08A2E8E0EF1E08E1608F0F0E073
:10443000BF2BE72FEF0DA1E0E71708F0A0E09B2EC0
:104440009E0EF1E09E1608F0F0E0AF2BE82FE00F93
:10445000B1E0E81708F0B0E0AE0FF1E0AE1708F0F9
:10446000F0E0EB2FEF2B892F810FE80FA2019101D4
:1044700060E070E080E090E09E17F0F0E91721F531
:104480008A17D0F0A81701F57915B0F09716E1F466
:10449000681590F08616C1F4571570F07516A1F4E2
:1044A000461550F0641681F4B9893B1728F0B3170C
:1044B00059F4EA892E1640F491012A193B09388BE8
:1044C0002F87232B09F46CC2AF89B88DED91FC9135
:1044D0001197208D318D3C872B87DB968D919D9197
:1044E0000D90BC91A02D8F839887A987BA870097DC
:1044F000A105B10509F059C0AF89B88D93962D91EA
:104500003D914D915C9196972F83388749875A87C3
:10451000211531054105510559F48A2D8B298C2926
:104520008D298E298F29802B812B09F439C235C220
:104530008A2D8B298C298D298E298F29802B812BDF
:10454000A1F135014601EB85FC851F01442455246A
:1045500022273327A90122193309440955092B8B36
:104560003C8B4D8B5E8B1CC0AF89B88D8D919C911F
:104570004F81588569857A850E94C41A6F83788730
:1045800089879A87611571058105910509F405C22E
:104590002B893C894D895E89620E731E841E951E8F
:1045A0006214730484049504F8F64B855C854150CD
:1045B00050405C874B874A215B215C834B838B8512
:1045C0009C8501969C878B87AF85B889BE83AD8318
:1045D000EF89F88D0190F081E02DFA83E98330971F
:1045E00009F48EC02F81388549855A8522303105DE
:1045F0004105510508F484C02250304040405040ED
:1046000059016A012E5F3F4F4F4F5F4F2F8338870D
:1046100049875A87208C318C9501A60160E070E0B3
:1046200080E090E05101CC24DD24EE24FF2400E062
:1046300010E00E94AF40E981FA81A28DF38CB48D25
:10464000058DE68CD78CC0A011A1A20FF1E0A217B6
:1046500008F0F0E0232F2F0DE1E0231708F0E0E051
:10466000FF2EF20E31E0F21608F030E0E32B242F9B
:104670002B0FF1E0241708F0F0E0BE2FB20F31E06D
:10468000B21708F030E0F32B252F200F41E025175B
:1046900008F040E0F20F31E0F21708F030E0432B71
:1046A000262F2E0D51E0261708F050E0E42FE20FE0
:1046B00031E0E21708F030E0532B272F2D0D41E0B9
:1046C000271708F040E0520F31E0521708F030E0B1
:1046D000432B282F2C0D31E0281708F030E0420F33
:1046E00081E0421708F080E0732E782A190F2A2FF4
:1046F0009F2D6B2F7F2FAE2FB52F342E710E08C03C
:1047000020E090E060E070E0A0E0B0E033247724A7
:104710008B849C844B815C81841A950AED81FE8197
:10472000E815F90508F44F01E981FA8140805180CC
:104730004B815C815A01CC24DD24EE24FF248701C7
:10474000622E640E31E0621608F030E0892F8B0D86
:1047500041E0891708F040E0380F91E0381708F081
:1047600090E0492B862F8C0D51E0861708F050E021
:10477000480F91E0481708F090E0592B872F8D0DD6
:1047800061E0871708F060E0580F91E0581708F0D3
:1047900090E0692B8A2F8E0D71E08A1708F070E087
:1047A000680F91E0681708F090E0792B9B2F9F0D20
:1047B00081E09B1708F080E0790FA1E0791708F0FD
:1047C000A0E08A2BA32DA00F91E0A31508F090E0A4
:1047D0008A0FB1E08A1708F0B0E09B2B710ED2016E
:1047E000ED91FC91262D970D0D851E85740119956F
:1047F000882309F4AFC02D813E81281939093E83F1
:104800002D83940140E050E060E070E080E090E0B3
:10481000AF89B88DD3961C91D397D496DC90D4975A
:10482000D596BC91EF89F88D06A9E7A8A0AC71AC2C
:10483000F2AC180DF1E0181508F0F0E0ED2DE30FE3
:10484000A1E0E31708F0A0E0BF2EBE0EF1E0BE1617
:1048500008F0F0E0AF2BE42FEB0FB1E0E41708F025
:10486000B0E0CA2ECE0EF1E0CE1608F0F0E0BF2B7D
:10487000E52FE00FA1E0E51708F0A0E0DB2EDE0E4B
:10488000F1E0DE1608F0F0E0AF2BE62FEE0DB1E020
:10489000E61708F0B0E0EA2EEE0EF1E0EE1608F0B2
:1048A000F0E0BF2BE72FEA0DA1E0E71708F0A0E04A
:1048B0000B2F0E0FF1E00E1708F0F0E0AF2BE82FF2
:1048C000E70DF1E0E81708F0F0E0AA2EAE0EA1E047
:1048D000AE1608F0A0E0FA2BF90EFF0DAF89B88DE7
:1048E000D3961C93D397D496BC92D497D596CC925A
:1048F000D597D696DC92D697D796EC92D797D8963E
:104900000C93D897D996AC92D997DA96FC93DA970C
:104910008B819C81880D991DEB85FC858E179F07E7
:1049200010F18D919C914F81588569857A850E94FF
:10493000C41A6F83788789879A8761157105810505
:10494000910579F4AF89B88DDB961D921D921D9269
:104950001C92DE974F855889ED81FE814E1B5F0BBF
:1049600021C01C821B822F81388549855A85AF89D9
:10497000B88DDB962D933D934D935C93DE97ED813F
:10498000FE81EF2B39F02D853E85280D391D3E87A0
:104990002D871ECE4F85588905C04FEF5FEF02C0AF
:1049A00040E050E0CA0168960FB6F894DEBF0FBE33
:1049B000CDBFCF91DF911F910F91FF90EF90DF90CE
:1049C000CF90BF90AF909F908F907F906F905F90AF
:1049D0004F903F902F900895FC01009711F01182A5
:1049E00010820895FC01009711F480E0089583A1DE
:1049F00094A1A5A1B6A183AB94ABA5ABB6AB10AE09
:104A000017AA81E008952F923F924F925F926F9282
:104A10007F928F929F92AF92BF92CF92DF92EF924E
:104A2000FF920F931F93DF93CF93CDB7DEB72C97F1
:104A30000FB6F894DEBF0FBECDBF3C016B010097EF
:104A400009F49CC06115710509F498C0DB019996C1
:104A5000BC9099979A96AC909A979B969C909B97AE
:104A60009C968C909C979D965C909D979E964C9062
:104A70009E979F963C909F97D0962C908B2D8A293D
:104A800089298829852984298329822909F476C0DE
:104A9000D301ED91FC910190F081E02D2B2D3A2D69
:104AA000492D582D652D742D832D922D8E010F5F6C
:104AB0001F4FACE0EA2EF12C1995882309F45EC053
:104AC000B5EEB983D301ED91FC910480F581E02D21
:104AD0002B2D3A2D492D582D652D742D832D922D7A
:104AE0008E010F5F1F4F1995882309F447C08C85ED
:104AF0008F3079F57B2D705E81E07B1508F080E0CA
:104B0000682F6A0D81E06A1508F080E0582F590D72
:104B100081E0591508F080E0482F480D81E04815E4
:104B200008F080E0382F350D81E0351508F080E081
:104B3000282F240D81E0241508F080E0830D91E0FA
:104B4000831508F090E05B014A012901382E290EF7
:104B50009FCFF60141A152A163A174A14115510556
:104B60006105710539F0C3010E94411C20E030E06D
:104B7000882311F021E030E0822F01C080E02C96E4
:104B80000FB6F894DEBF0FBECDBFCF91DF911F915E
:104B90000F91FF90EF90DF90CF90BF90AF909F90DC
:104BA0008F907F906F905F904F903F902F900895DF
:104BB0002F923F924F925F926F927F928F929F922D
:104BC000AF92BF92CF92DF92EF92FF920F931F931B
:104BD000DC01009749F420E030E040E050E060E084
:104BE00070E080E090E030C0ED91FC9111978085FD
:104BF00052962D913D914D915C9155975896ED911E
:104C0000FC9159978B3041F412E0569547953795B2
:104C100027951A95D1F704C056954795379527954E
:104C2000225030404040504059016A01A60160E0E6
:104C300070E080E090E05F01CC24DD24EE24FF24CE
:104C400000E010E00E94AF401F910F91FF90EF90A5
:104C5000DF90CF90BF90AF909F908F907F906F909C
:104C60005F904F903F902F9008952F923F924F92D8
:104C70005F926F927F928F929F92AF92BF92CF92EC
:104C8000DF92EF92FF920F931F93DF93CF93CDB7F5
:104C9000DEB7E0970FB6F894DEBF0FBECDBF3C0184
:104CA000009709F4F8C019821A821B821C8280E2E4
:104CB00090E09E838D83D3011A96BC91B9A7F3012E
:104CC000F385FAA7D3011C96BC91BBA7F301F58528
:104CD000FCA7D3011E96BC91BDA7F301F785FEA7E3
:104CE000D3015096BC91BFA7F301F189F8ABD30172
:104CF00052962D903D904D905C905597ADC0BEEF73
:104D00002B16BFEF3B06B0E04B06B0E05B0628F089
:104D1000EEEFFFEFF8A7EFA302C038A62FA2D30152
:104D2000ED91FC91A281B3818085863019F0E2E992
:104D3000F7E202C0ECE6F7E229A53AA54BA55CA58F
:104D40006DA57EA58FA598A98E01095F1F4FEE2442
:104D5000FF246894E5F8CFA0D8A45F014E01089421
:104D6000811C911CFD011995882309F494C0CFA0E2
:104D7000D8A45601CC24DD24EE24FF248701F9A514
:104D8000FA0D91E0B9A5FB1708F090E08AA58B0D0C
:104D900021E0EAA58E1708F020E0392F380F91E0C6
:104DA000381708F090E0292B8BA58C0D51E09BA5BE
:104DB000891708F050E0422F480F91E0481708F09B
:104DC00090E0592B8CA58D0D21E0ACA58A1708F039
:104DD00020E0580F91E0581708F090E0292B8DA59E
:104DE0008E0D71E0BDA58B1708F070E0622F680F83
:104DF00091E0681708F090E0792B8EA58F0D21E0E7
:104E0000EEA58E1708F020E0780F91E0781708F0F3
:104E100090E0292B9FA5900FE1E08FA5981708F04F
:104E2000E0E0822F890F21E0891708F020E0E22BD3
:104E300098A9910FF9A73AA74BA75CA76DA77EA7E2
:104E40008FA79E0F98ABEFA1F8A5CF01A0E0B0E02F
:104E5000281A390A4A0A5B0A211431044104510410
:104E600009F04DCFD30158964D915C915997298007
:104E70003A804B805C809A0140E050E060E070E056
:104E800080E090E051016201EE24FF2400E010E098
:104E90000E94AF4008C020E030E040E050E060E019
:104EA00070E080E090E0E0960FB6F894DEBF0FBEB1
:104EB000CDBFCF91DF911F910F91FF90EF90DF90C9
:104EC000CF90BF90AF909F908F907F906F905F90AA
:104ED0004F903F902F900895EF92FF92CF93DF93E2
:104EE000EC01F7014481558120E030E012C0888157
:104EF0009981892B59F480819181A281B381019696
:104F0000A11DB11D80839183A283B3832E5F3F4F88
:104F100022962417350758F381E0DF91CF91FF9057
:104F2000EF900895EF92FF92CF93DF93EC01F7019A
:104F30004481558120E030E016C088819981AA81A2
:104F4000BB810097A105B10559F480819181A281AF
:104F5000B3810196A11DB11D80839183A283B38388
:104F60002C5F3F4F24962417350738F381E0DF91FB
:104F7000CF91FF90EF9008952F923F924F925F92C2
:104F80006F927F928F929F92AF92BF92CF92DF9259
:104F9000EF92FF920F931F93DF93CF93CDB7DEB7BE
:104FA00062970FB6F894DEBF0FBECDBF9A8B898B88
:104FB000423051056105710510F480E0A2C0898975
:104FC0009A89892B49F420E030E040E050E060E02D
:104FD00070E010E090E07BC0425050406040704074
:104FE0005A016B01E989FA89208C318C9A01A6015A
:104FF00060E070E080E090E05101CC24DD24EE24FC
:10500000FF2400E010E00E94AF40C92EE989FA8930
:10501000B28DB38CA48D158DF68CE78CD0A001A138
:10502000B20FE1E0B21708F0E0E0232F2B0DF1E022
:10503000231708F0F0E03E2F320FE1E0321708F0BE
:10504000E0E0FE2B242F2A0FA1E0241708F0A0E0B7
:105050004F2F420FE1E0421708F0E0E0AE2B252F82
:10506000210FF1E0251708F0F0E05A2F520FE1E090
:10507000521708F0E0E0FE2B262F2F0DA1E0261797
:1050800008F0A0E06F2F620FE1E0621708F0E0E0A7
:10509000AE2B272F2E0DF1E0271708F0F0E07A2F26
:1050A000720FE1E0721708F0E0E0FE2B282F2D0DC3
:1050B000E1E0281708F0E0E08F2F820F91E08217DF
:1050C00008F090E09E2B0C0D2B2F182F900FDE0177
:1050D000119680E1FD0111928A95E9F7E989FA8933
:1050E000C080D180E08CF18CF60186809780812F82
:1050F0008D01E3E8CE2EE1E2DE2EAA24BB24F401EA
:10510000199562960FB6F894DEBF0FBECDBFCF9152
:10511000DF911F910F91FF90EF90DF90CF90BF90A4
:10512000AF909F908F907F906F905F904F903F9047
:105130002F9008952F923F924F925F926F927F929D
:105140008F929F92AF92BF92CF92DF92EF92FF9297
:105150000F931F93DF93CF93CDB7DEB7C254D040E8
:105160000FB6F894DEBF0FBECDBF9AAF89AFDB019B
:10517000009709F463C26115710509F45FC2FC016F
:105180000190F081E02DF8AFEFAB208D318D3EAB7B
:105190002DABFC0143A954A965A976A949AB5AAB2B
:1051A0006BAB7CAB27A930AD4DA95EA924173507A1
:1051B00008F0F2C1AE014F5F5F4F86E0FA01119235
:1051C0008A95E9F781E3FD0111928A95E9F749A9EA
:1051D0005AA96BA97CA9411551056105710509F012
:1051E000E6C1EFA9F8AD80819181FC0180858B300B
:1051F00059F4EFA9F8AD42A553A564A575A549AB2F
:105200005AAB6BAB7CABD3C1EFA9F8AD028CF38D7D
:10521000E02DFEABEDABEFA9F8AD82A193A14DA9B6
:105220005EA9481B590B5EAB4DABC1C14FA558A938
:105230009A0140E050E060E070E080E090E02FA351
:1052400038A749A75AA76BA77CA78DA79EA769A9CE
:105250007AA98BA99CA9611571058105910509F0B1
:1052600072C0AFA9B8AD92962C91929793968C91FB
:10527000939794965C91949795966C919597969642
:105280007C91969797961C9197979896AC91EFA9D9
:10529000F8ADB1A5FFA12F0F91E02F1708F090E016
:1052A00048A5840F41E0E8A58E1708F040E0392FAB
:1052B000380F91E0381708F090E0492B89A5850F49
:1052C00051E0F9A58F1708F050E0480F91E048171A
:1052D00008F090E0592B8AA5860F61E09AA58917FE
:1052E00008F060E0580F91E0581708F090E0692B43
:1052F0008BA5870F71E0EBA58E1708F070E0680FA3
:1053000091E0681708F090E0792B8CA5810FF1E00F
:105310009CA5891708F0F0E0780F91E0781708F065
:1053200090E0F92BEDA5EA0FA1E08DA5E81708F0B4
:10533000A0E08F2F8E0F91E08E1708F090E09A2B4F
:10534000AEA5BA0FE0C0EFA9F8AD309709F481C05F
:1053500029A93AA94BA95CA922303105410551057B
:1053600008F477C0208C318C2BAD3CAD4DAD5EADDB
:1053700060E070E080E090E05101CC24DD24EE2478
:10538000FF2400E010E00E94AF40EFA9F8ADA28D2D
:10539000F38CB48D158DD68CC78CB0A001A1A20F53
:1053A000F1E0A21708F0F0E0232F2F0DE1E0231722
:1053B00008F0E0E0EF2EE20E31E0E21608F030E017
:1053C000E32B242F2B0FF1E0241708F0F0E0FE2E42
:1053D000F20E31E0F21608F030E0F32B252F210F0A
:1053E00041E0251708F040E0F20F31E0F21708F035
:1053F00030E0432B262F2D0D51E0261708F050E00A
:10540000E42FE20F31E0E21708F030E0532B272FB2
:105410002C0D41E0271708F040E0520F31E0521701
:1054200008F030E0432B282F2B0D31E0281708F02F
:1054300030E0420F81E0421708F080E0B32FB82B34
:10544000090F2A2F9E2D6F2D7F2FA52F142FB00F00
:1054500008C020E090E060E070E0E0E0A0E010E054
:10546000B0E00FA1020F31E0021708F030E088A58C
:10547000890F41E0891708F040E0380F91E03817B4
:1054800008F090E0492B89A5860F51E0861708F0B7
:1054900050E0480F91E0481708F090E0592B8AA59A
:1054A000870F61E0871708F060E0580F91E0581708
:1054B00008F090E0692B8BA58E0F71E08E1708F035
:1054C00070E0680F91E0681708F090E0792B8CA5E8
:1054D0008A0FF1E08A1708F0F0E0780F91E0781772
:1054E00008F090E0F92BEDA5E10FA1E0E11708F03D
:1054F000A0E08F2F8E0F91E08E1708F090E09A2B8E
:10550000FEA5BF0F202F9B0F1C821B82AFA9B8AD39
:10551000ED91FC91CDA8DEA8AFA5B8A9CA1ADB0A07
:105520000280F381E02D8E01095F1F4FB0E2EB2E68
:10553000F12CA9E3AA2EABE2BA2E4E010894811CED
:10554000911C1995882309F479C08B819C81EFA562
:10555000F8A9E80FF91FF8ABEFA72DA93EA9E217AC
:10556000F30708F453C08FA998AD49A95AA96BA9AC
:105570007CA90E94C41A69AB7AAB8BAB9CAB20E0D0
:1055800030E0611571058105910599F48E818823BC
:1055900009F040C0E9ADFAAD83A194A1A5A1B6A1DF
:1055A00083AB94ABA5ABB6AB10AE17AA47C0BA831A
:1055B000A98338AB2FA729A93AA94BA95CA92250E6
:1055C00030404040504029AB3AAB4BAB5CABBA01EA
:1055D000A90180E090E0A0E0B0E04BAF5CAF6DAF20
:1055E0007EAF8FAF21969FAF21972296AFAF2297C4
:1055F0002396BFAF239789A99AA9ABA9BCA9029604
:10560000A11DB11D89AB9AABABABBCAB8E8188231E
:1056100009F40CCE29A93AA94BA95CA9A9ADBAAD48
:10562000D3962D933D934D935C93D697EFA5F8A910
:10563000D896FC93EE93D7978E8101C080E0CE5B25
:10564000DF4F0FB6F894DEBF0FBECDBFCF91DF9115
:105650001F910F91FF90EF90DF90CF90BF90AF9090
:105660009F908F907F906F905F904F903F902F9082
:105670000895AF92BF92CF92DF92EF92FF920F9375
:105680001F93CF93DF936C01B62EA72EB701D701DE
:10569000CD91DC91119712968D919C9113978096E4
:1056A00013969C938E931297F6019081953E11F07C
:1056B000992321F4DB0114961C92D9C0F60183854D
:1056C0008F3009F040C0D70114969C91992319F0AE
:1056D0008585981791F081E3FE0111928A95E9F78B
:1056E000D6011D968C91FB01848309A71AA72BA7CD
:1056F0003CA74DA75EA7BFA6A8AAD6018C9190E0B3
:105700008F7390702DE030E0829FA001839F500D39
:10571000929F500D11244D505040A6E7B2E0C40FA7
:10572000D51F0DC08D91F601E80FF11D8081899381
:105730004F5F5F4FE2E0A338BE0709F498C04F31D6
:10574000510580F394C08881882399F0F701B481D2
:10575000F601A1E0892F8695979599279795982B23
:105760008181980FAF5F3196AB30A1F7B91709F47B
:105770005AC081E3DE011D928A95E9F709A71AA7AD
:105780002BA73CA74DA75EA7BFA6A8AAA601DE012E
:10579000860120E0F8019081903299F09C93F60107
:1057A000848583FF08C0F8018081813420F08B3527
:1057B00010F4905E9C932F5F0F5F1F4F119628305F
:1057C00049F78881853011F485EE8883D6011896D3
:1057D0008C91803221F1FE01E20FF11D8EE2808377
:1057E000322F3F5F2C5FFA0190859032B9F0FE01B5
:1057F000E30FF11D9083D6011C968C9184FF09C0A4
:10580000DA0118968C91813420F08B3510F4905E7B
:1058100090833F5F4F5F5F4F321729F7232FFE01C1
:10582000E20FF11D1082F601838588A3228D338D4E
:1058300040E050E084899589A0E0B0E0DC01992740
:105840008827822B932BA42BB52B89A39AA3ABA3D8
:10585000BCA3848D958DA68DB78D8DA39EA3AFA37C
:10586000B8A781E0DB0115968C9380E001C081E050
:10587000DF91CF911F910F91FF90EF90DF90CF902C
:10588000BF90AF9008952F923F924F925F926F9288
:105890007F928F929F92AF92BF92CF92DF92EF92C0
:1058A000FF920F931F93DF93CF93CDB7DEB7CD5405
:1058B000D0400FB6F894DEBF0FBECDBF2C010097CD
:1058C00009F4D9C3DC0114968D919C911597892B0D
:1058D00009F4D1C316968D919C911797892B09F4E1
:1058E000CAC3E6C3ECEFF4E082E3DF011D928A95C0
:1058F000E9F75092FD044092FC04F201A184B284C5
:10590000C384D4849501A60160E070E080E090E05B
:1059100009E00E9429422EAF3FAF21964FAF219759
:1059200022965FAF229723966FAF239724967FAF7F
:10593000249725968FAF259726969FAF2697255FAC
:1059400031E0FEAD2F1708F030E0EFAC3E0D41E046
:105950003E1508F040E02196FFAC21974F0D51E035
:105960004F1508F050E022960FAD2297500F61E0DE
:10597000501708F060E023961FAD2397610F71E088
:10598000611708F070E024968FAD2497780F81E0BE
:1059900024969FAD2497791708F080E02596AFAD47
:1059A00025978A0F91E08A1708F090E0D201ED91D7
:1059B000FC912696BFAD26979B0F8E010F5F1F4F60
:1059C000A5E2EA2EF12C1995882309F478C32980E1
:1059D0003A80EC81FD81FFA7EEA7FB81F8ABEE805A
:1059E000E9AA0F8118851BAB0AAB89859A852C859E
:1059F0003D853DAB2CABAE88BF88C88CD98C4A8D19
:105A00005B8D6C8D7D8D4EAB5FAB68AF79AFEAA0DF
:105A1000FBA00CA11DA1EAAEFBAE0CAF1DAFA11403
:105A2000B104C104D10431F4009709F448C35C0106
:105A3000CC24DD240CA91DA90115110541F0980104
:105A400040E050E02EAB3FAB48AF59AF0AC06EA963
:105A50007FA988AD99AD611571058105910509F49E
:105A60002EC3EEA5FFA5CF01A0E0B0E08601750131
:105A7000E81AF90A0A0B1B0BF9A92F2F30E040E0B6
:105A800050E06EA97FA988AD99AD0E94A842E61AA0
:105A9000F70A080B190BC10101972AA93BA945E098
:105AA000220F331F4A95E1F7820F931FB1010E9425
:105AB000C74280E090E0E61AF70A080B190B68A9C4
:105AC000262F30E040E050E0C801B7010E94EE42CE
:105AD00039014A0175EF67167FE0770670E08706A7
