:100000000C9417010C9444040C9464040C94820521
:100010000C9422050C9434010C9434010C9434019A
:100020000C9434010C9434010C9443070C94340167
:100030000C9434010C949E0D0C9434010C943401F6
:100040000C9434010C9434010C9434010C9434015C
:100050000C9434018901A501CC01EA010C022502AE
:100060002F020D04130419041F0425042B0431046A
:1000700054686520526F626F74206E6565647320EA
:10008000746F206265207265736574746564206E98
:100090006F772E0A0A00596F75206E6565642074AB
:1000A0006F20636865636B204D6F746F722061739E
:1000B00073656D626C7920286F7220796F7572207C
:1000C000736F667477617265292E0A0A000A0A281E
:1000D000732E207461736B5F6D6F746F72436F6EFC
:1000E00074726F6C28292066756E6374696F6E2058
:1000F000696E205250364C696221290A000A0A238F
:100100002323204D4F544F52204F564552435552B2
:1001100052454E54202323230A00596F75206E65E3
:10012000656420746F20636865636B20456E636F40
:100130006465722F4D6F746F7220617373656D62A9
:100140006C7920286F7220796F757220736F6674D6
:1001500077617265292E0A0A00210A0A28732E2067
:100160007461736B5F6D6F746F72436F6E74726FD7
:100170006C28292066756E6374696F6E20696E2025
:100180005250364C696221290A00524947485400AE
:100190004C45465400416666656374656420636837
:1001A000616E6E656C3A000A23232320454E434F4F
:1001B00044455220284F52204D4F544F5229204D34
:1001C000414C46554E4354494F4E21202323230A88
:1001D00000232323232320414C4C204F50455241E0
:1001E00054494F4E532053544F5050454420544F80
:1001F0002050524556454E5420414E592044414DC1
:10020000414745212023232323230A000A0A2323CD
:1002100023232320454D455247454E4359205348FB
:100220005554444F574E2023232323230A001124DF
:100230001FBECFE5D8E0DEBFCDBF10E0A0E6B0E046
:10024000ECE0F0E202C005900D92A037B107D9F7BB
:1002500021E0A0E7B0E001C01D92A932B207E1F7AA
:100260000E942D0E0C9404100C9400008091DF006D
:100270009091E800882331F0992321F024E2209323
:100280009F0002C010929F0020919F0080FB24F9E4
:1002900020939F0021E0811120E080919F0020FBAE
:1002A00083F990FB81F980939F0021E0911120E078
:1002B00080919F0020FB80F980939F000C946A033B
:1002C0009091A0008091FD00992351F0882311F0B6
:1002D00081E00DC080917B00823059F083E007C03F
:1002E000882339F080917B00823019F085E080937B
:1002F0007B0008950895E0917B008E2F90E0FC0133
:100300003197E730F10508F0B0C0E65DFF4F0C947F
:10031000AF0F88E280937600809178008C7F8160B7
:1003200084608093780080918300843018F02CEDF5
:1003300030E002C020EA30E030937A002093790068
:1003400092E090937B008E5F42C08091780082FDA6
:100350008CC09EE19093760090918300943060F081
:1003600024E630E030937A00209379008360809314
:100370007800109283000AC08C7F8260809378009E
:1003800086E490E090937A008093790080917800E1
:100390008860809378003CC088E2809376008091EA
:1003A00078008C7F816084608093780080918300E6
:1003B000843018F02EEB30E002C026E930E03093B4
:1003C0007A002093790094E090937B008F5F809374
:1003D000830008958091780082FD47C09EE190934C
:1003E00076008360886080937800809183008430F9
:1003F00048F08EE690E090937A0080937900109216
:10040000830006C080E590E090937A0080937900A5
:1004100087E080937B00089588E280937600809146
:1004200078008C7F81608460809378008091830065
:10043000843018F02EEB30E002C026E930E0309333
:100440007A002093790096E0BFCF8091780082FDFA
:100450000CC09EE1909376008C7F8260C3CF809128
:1004600078008C7011F410927B00089580917500D3
:10047000823009F468C030F4882351F0813009F4E7
:1004800049C008958330B9F0853009F48BC00895D0
:100490009091E8008091DF00992321F0882349F0B2
:1004A00083E004C0882309F49DC082E08093750036
:1004B000089581E0FBCF80916000982F9370809128
:1004C00072008C7F892B809372008EE18093700084
:1004D000809371008091DF00811184C08091E800D9
:1004E000811180C080918200843038F010928200A7
:1004F0001092D5001092D40006C080E991E090934C
:10050000D5008093D4008091CD0088608093CD0089
:1005100085E0CCCF809172008C7F809372008EE159
:100520008093700088E2809371008091E8008823B6
:1005300009F44BC08091DF00882319F083E0809399
:10054000750083E027C0809172008C7F80937200D9
:1005500088E2809370008EE1809371009091E800B2
:100560008091DF00992329F0882329F093E090936C
:10057000750081110EC084EF91E09093D5008093B7
:10058000D4008091CD0088608093CD0085E0809379
:10059000750082E080936000809182008F5F80937D
:1005A000820008958091D4009091D500893E9340B7
:1005B000C8F08091CD00877F8093CD001092D50048
:1005C0001092D40010927500089584EF91E09093FA
:1005D000D5008093D4008091CD0088608093CD00B9
:1005E00085E0ADCF08950F931F93CF938C01FC014D
:1005F00043815481C2814115510521F1C3FF07C0D8
:100600006C2F637020E080810E94490C17C0C2FFEC
:1006100015C0BA0180E090E00E94EB0E2FE832ECAA
:1006200045E75EE30E944A0E0E94BC0EC37020E0C4
:10063000AB016C2FF80180810E94AF0BF80114828E
:10064000138218C08C2F8C7061F48C2F83700E94E1
:100650009A04F80161818081CF911F910F910C94D0
:1006600089040E94BE04882329F0F8018281877FD3
:100670008B7F8283CF911F910F9108950E94360244
:100680000E947B0180917B00882319F086E790E02F
:1006900010C080917500882319F080E790E009C0B0
:1006A00080916600882319F081E690E002C08CE713
:1006B00090E00C94F30208950895089508958091B0
:1006C000B400843010F01092B400089584E0809358
:1006D000B400089587B38C7787BB88B38C7788BBC9
:1006E00080919F0083FF02C0BF9AC79A80919F00AC
:1006F00084FF02C0B99AC19A80919F0085FF02C011
:10070000B89AC09A84B38F7884BB85B38F7885BB41
:1007100024B390919F0030E1939FC0011124807712
:10072000822B84BB25B390919F0030E1939FC00141
:1007300011248077822B85BB8091B400811106C083
:1007400081E090919F00911101C080E08093B400FE
:10075000089580939F000C946A03C098B898000095
:1007600086B3817090919F0095FF02C0B89AC09A9D
:100770000895AE98A698000083B3807490919F006E
:1007800092FF02C0A69AAE9A089590936F0080934C
:100790006E000895CF938091EC008333C0F00E94E7
:1007A000AD03C82F0E94B9039091A0009C1304C010
:1007B0009091FD00981749F0C093A0008093FD0030
:1007C000E0916E00F0916F0009951092EC00CF91CE
:1007D000089536990AC0806487B986ED86B936993E
:1007E000FECF349A84B195B1089580E090E00895E9
:1007F000806487B986ED86B90895369944C0E09142
:1008000095008E2F90E08730910598F5FC01EF5C04
:10081000FF4F84B195B10C94AF0F90930101809379
:10082000000186E423C0909306018093050185E4CE
:100830001DC09093F7008093F60083E417C0909357
:10084000C0008093BF0082E411C09093E6008093C3
:10085000E50080E40BC09093F4008093F30081E402
:1008600005C09093BE008093BD0087E487B986EDF4
:1008700086B980919500863019F4109295000895FC
:100880008F5F8093950008951F920F920FB60F927D
:1008900011248F939F938091FB009091FC0001960F
:1008A0009093FC008093FB008091F1009091F20006
:1008B00001969093F2008093F1009F918F910F9099
:1008C0000FBE0F901F9018951F920F920FB60F92A8
:1008D00011248F939F938091ED009091EE000196EB
:1008E0009093EE008093ED008091C7009091C80036
:1008F00001969093C8008093C7009F918F910F90AD
:100900000FBE0F901F90189590936D0080936C0010
:100910000895893C08F088EC90E09093A6008093BD
:10092000A500693C08F068EC70E07093A400609347
:10093000A3000895809384002FEF280F91E02230C8
:1009400008F090E0909388008D7F91E0813009F06D
:1009500090E0909387000895292F221F2227221FBD
:1009600020938800771F7727771F709387001816CA
:10097000190614F0819561950C94890490919E005C
:10098000937081E009F080E008951092A600109223
:10099000A5001092A4001092A3001092B000109233
:1009A000AF001092EB001092EA0080919E008E7FC3
:1009B0008D7F80939E008093FF00E0916C00F0910A
:1009C0006D000994633D08F062ED70E07093C6001D
:1009D0006093C500833D08F082ED90E09093B600EF
:1009E0008093B5000895809386006093850080937E
:1009F000880060938700882311F0AA9A01C0AA9802
:100A0000662311F0AB9A0895AB9808959091AA00CF
:100A1000992321F099B7906899BFF8CF6F7370E070
:100A200070638F7320E4829FC0011124862B972B63
:100A30009093CA008093C9008091A900806480933C
:100A4000A90008951F920F920FB60F9211248F9351
:100A50009F9380916B008230B0F580919400882341
:100A6000D1F08C3338F48091E3009091E40096FF4C
:100A700007C008C08091E3009091E40096FF02C097
:100A8000979803C082B3805882BB809194008150B4
:100A90008093940030C08091AA009798882359F1E0
:100AA0008091E3009091E400880F991F9093E400F7
:100AB0008093E30088E7809394008091AA0081509E
:100AC0008093AA0018C08091AE00882391F0809195
:100AD000A90080FD05C098B380E4892788BB03C0C6
:100AE00085B3805885BB8091AE0081508093AE0065
:100AF00002C0C69AAF9A9F918F910F900FBE0F9030
:100B00001F9018951F920F920FB60F9211248F937A
:100B100080916B00833011F0863079F48091A900C8
:100B200084FD0BC08091A90085FF07C0B29905C064
:100B30008091FE008F5F8093FE0086B38091A900B4
:100B40008D7F8093A9008F910F900FBE0F901F9003
:100B5000189590936A0080936900089590936800B7
:100B60008093670008958091C1009091C200029720
:100B700008F43CC18091A90084FD19C180916B00EB
:100B8000823009F467C028F4882369F0813091F03D
:100B900014C1853009F4AFC0863009F4C5C0833074
:100BA00009F00BC16FC089B78F7789BF9798C69A34
:100BB000AF9A03C18091AA0081112AC08091A90037
:100BC00086FF14C08091C9009091CA009093E40000
:100BD0008093E3008EE08093AA008091A9008F7B30
:100BE0008093A90089B7806889BF06C089B78F77CD
:100BF00089BF9798C69AAF9A8091930091E0980F19
:100C000090939300843138F082E080936B0003C0AE
:100C100089B7806889BF8091A90083FFCEC0E09129
:100C20006900F0916A008091020190910301099599
:100C300080910201909103019093B2008093B100E2
:100C400010920301109202018091A900877F809386
:100C5000A900B3C089B78F7789BF9798C69AAF9A12
:100C60001092AE001092FE0010929200109291002D
:100C70008091A9008E7F80628093A90083E0809399
:100C8000930077C08091AE00811110C080919300D5
:100C900091E0980F90939300833040F089B780687B
:100CA00089BF88E28093AE00109293008091DF00AC
:100CB000882321F08091FE00823020F48091FE0094
:100CC000863038F01092FE0081E08093DF0085E0EE
:100CD00050C080919100909192009C012F5F3F4FF6
:100CE00030939200209391000E9708F466C0109202
:100CF000DF0085E051C089B78F7789BF9798C69A82
:100D0000AF9A1092AE001092FE00109292001092D4
:100D100091008091A900816080628093A90083E0A6
:100D20008093930086E025C08091AE00811110C0B1
:100D30008091930091E0980F90939300833040F05E
:100D400089B7806889BF88E28093AE0010929300D3
:100D50008091E800882321F08091FE00823020F409
:100D60008091FE00863040F01092FE0081E080937A
:100D7000E80080936B0021C08091910090919200D7
:100D80009C012F5F3F4F30939200209391000E976C
:100D9000A0F01092E80081E080936B0089B78F7714
:100DA00089BF9798C69AAF9A1092AE0006C010926B
:100DB000920010929100109293009091DF00209188
:100DC00090008091E800291304C020918F0028171B
:100DD00049F09093900080938F00E0916700F0912C
:100DE000680009951092C2001092C10008951092F7
:100DF0006B0089B78F7789BF9798C69AAF9A109280
:100E0000E8001092DF00089589B78F7789BF97981F
:100E1000C69AAF9A1092E8001092DF0081E08093AA
:100E20006B0008958E989698BB98C398C698AF9813
:100E300008958E9A969ABB98C39808958E9896981E
:100E4000BB9AC39A08958E9A969ABB9AC39A0895AC
:100E5000C49A8091B400843018F483E08093B40085
:100E60000895C4988091B400843060F4811107C063
:100E700081E090919F00911103C080E001C081E06A
:100E80008093B40008951F920F920FB60F92112411
:100E90002F933F934F935F936F937F938F939F9382
:100EA000AF93BF93EF93FF9380919C0090919D002F
:100EB000019690939D0080939C008091F5008F5F38
:100EC0008093F5008091F80091E0980F9093F800DE
:100ED000893008F446C18091CD0080FF09C080911F
:100EE000CE009091CF0001969093CF008093CE00DA
:100EF0008091CD0081FF09C08091D0009091D100F8
:100F000001969093D1008093D0008091CD0082FF14
:100F100009C08091D2009091D30001969093D300A4
:100F20008093D2008091CD0083FF09C08091D400CE
:100F30009091D50001969093D5008093D400809134
:100F4000CD0084FF09C08091D6009091D700019612
:100F50009093D7008093D6008091CD0085FF09C083
:100F60008091D8009091D90001969093D9008093F8
:100F7000D8008091CD0086FF09C08091DA00909161
:100F8000DB0001969093DB008093DA008091CD0026
:100F900087FF09C08091DC009091DD00019690935D
:100FA000DD008093DC008091E90091E0980F909340
:100FB000E900893CE8F08091C7009091C8009093C7
:100FC000FA008093F9008091F1009091F2009093E3
:100FD000B8008093B7001092C8001092C70010921A
:100FE000F2001092F10081E08093B3001092E900CA
:100FF0002091B400233008F051C0223079F580915F
:101000009F0081111FC080918D0090918E00FC0186
:101010003196F0938E00E0938D0068EC70E00E94B2
:10102000790F892BD9F5E13AFF4028F0B998C1989A
:101030001092B40029C087B3822787BB88B32827C2
:1010400028BB2CC084FD02C0B998C19810928E00B4
:1010500010928D0081E08093B40020C080918D00BB
:1010600090918E00813E3EE2930798F0213049F442
:101070001092B40080919F0084FD06C0B998C19879
:1010800003C082E08093B40010928E0010928D0015
:1010900005C0019690938E0080938D008091C100D1
:1010A0009091C200039748F48091C1009091C200D2
:1010B00001969093C2008093C1008091E100873334
:1010C00018F48F5F8093E1008091EC00843328F462
:1010D0008091EC008F5F8093EC008091E70091E0BD
:1010E000980F9093E7008330D0F18091E200482F71
:1010F00050E02091C5003091C6004217530759F0C7
:101100004217530714F48F5F01C081508093E200AF
:101110008091E2008ABD80910401482F50E0209127
:10112000B5003091B6004217530759F042175307E4
:1011300014F48F5F01C081508093040180910401F9
:1011400088BD80910401811104C08091E200882350
:1011500019F082EA8FBD01C01FBC1092E700109207
:10116000F8003091A90033FD46C080918B0090912A
:101170008C0020918A002F5F20938A00263198F0FE
:1011800096FD0AC095FF08C0909303018093020169
:10119000832F88608093A9008091A9008F7E80931F
:1011A000A90080E090E03091890046B3432742FFD8
:1011B0001EC0309530938900273040F48091A900FB
:1011C0008F7E8093A90080E090E004C0009711F02A
:1011D0002F3068F02091A90020612093A90096FD8E
:1011E00002C0880F991F32FF816010928A0090938D
:1011F0008C0080938B00FF91EF91BF91AF919F91F5
:101200008F917F916F915F914F913F912F910F90AF
:101210000FBE0F901F9018951092F5009091F50059
:101220009817E0F30895CF93DF93EC01209729F00E
:101230008AE00E940C092197F9CFDF91CF910895A0
:10124000019710F00000FCCF0895C82FF8949798EC
:101250000E9412071092B6001092B5001092C600BC
:101260001092C5001092B0001092AF001092EB00E7
:101270001092EA00109204011092E2001ABC18BC0D
:101280001FBC0E9431078CE092E00E94140D81ED9A
:1012900091E00E94140D8FEF8C0F8230C0F487EA2A
:1012A00091E00E94140D85E991E00E94140DC13077
:1012B00019F480E991E002C08AE891E00E94140DDF
:1012C00089E591E00E94140D8AE191E00CC0C330E1
:1012D00061F48DEF90E00E94140D8DEC90E00E947F
:1012E000140D86E990E00E94140D80E790E00E94C2
:1012F000140DD6E3D0939F000E946A03CAE080E0F9
:1013000090E80E942009C150D1F710929F000E94DE
:101310006A03CAE08FEF9FEF0E942009C150D1F706
:10132000E9CF8091E100823308F474C01092E100AB
:101330008091DE00209105013091060181113BC0B2
:1013400080919E00233043E0340738F44091F6004A
:101350005091F70043305340E0F09091E0009F5FE0
:101360009093E0009AE09093DE001092B600109205
:10137000B5001092C6001092C5001092B0001092F5
:10138000AF001092EB001092EA00846080939E0000
:1013900008958B7F80939E008091AB00853628F066
:1013A0001092E0001092AB0006C08091E000833004
:1013B00010F083E014C02639310598F48091B7000D
:1013C0009091B800892B69F48091A5009091A600B6
:1013D000892B39F080910401873918F081E00E944F
:1013E00025098091F6009091F7008639910590F4D7
:1013F0008091F9009091FA00892B61F48091A3000B
:101400009091A400892B31F08091E200873910F08F
:1014100082E0E5CF8091B300882309F484C18091F4
:10142000DE0081117BC18091E000882331F0809142
:10143000AB008F5F8093AB0002C01092AB00809135
:101440009E0081FF35C04091FB005091FC0020912F
:10145000A1003091A2004217530780F01092A6001D
:101460001092A5001092B0001092AF001092B6003A
:101470001092B5008D7F80939E001AC02091FB00D2
:101480003091FC008091B9009091BA00281739077B
:1014900078F08091A5009091A60096958795863169
:1014A000910510F486E190E09093A6008093A5004A
:1014B00080919E0080FF35C04091ED005091EE007C
:1014C0002091C3003091C4004217530780F010925E
:1014D000A4001092A3001092EB001092EA00109268
:1014E000C6001092C5008E7F80939E001AC0209186
:1014F000ED003091EE008091EF009091F000281700
:10150000390778F08091A3009091A4009695879573
:101510008631910510F486E190E09093A4008093C9
:10152000A3008091880090918600891307C02091C4
:10153000870090918500291709F451C04091A500BA
:101540005091A6002091A3003091A40041155105AF
:1015500019F42115310501F15093A8004093A7001B
:101560003093BC002093BB001092A6001092A500FF
:101570001092A4001092A3001092C6001092C50011
:101580001092B6001092B5001092B0001092AF0009
:101590001092EB001092EA009FB5911120C060916B
:1015A00087000E94F3042091A7003091A800309397
:1015B000A6002093A5008091BB009091BC00909361
:1015C000A4008093A300369527953093B000209314
:1015D000AF00969587959093EB008093EA00209159
:1015E000A5003091A6008091B7009091B800A901A4
:1015F000481B590B8091AF009091B000840F951F4C
:10160000853A41E0940714F084EA91E09093B000A9
:101610008093AF008091AF009091B0008C359E4FC9
:1016200034F48CE59EEF9093B0008093AF008091EE
:10163000B7009091B800892B31F4232B21F410923C
:10164000B0001092AF008091AF009091B00097FD74
:10165000019695958795833D910514F082ED90E074
:101660009093B6008093B5008091B5009091B6003C
:1016700097FF04C01092B6001092B5002091A3000D
:101680003091A4008091F9009091FA00A901481BC3
:10169000590B8091EA009091EB00840F951F853AD9
:1016A00041E0940714F084EA91E09093EB0080937A
:1016B000EA008091EA009091EB008C359E4F34F463
:1016C0008CE59EEF9093EB008093EA008091F90007
:1016D0009091FA00892B31F4232B21F41092EB0026
:1016E0001092EA008091EA009091EB0097FD01963C
:1016F00095958795833D910514F082ED90E0909348
:10170000C6008093C5008091C5009091C60097FFE8
:1017100008C01092C6001092C50003C0815080938B
:10172000DE001092B30080919E009091FF00981708
:1017300039F08093FF00E0916C00F0916D00099406
:101740000895D49ADC9A0895DC98D49808950E945C
:10175000FD030E94B3050E94CA030C949109EF9205
:10176000FF921F93CF93DF931F92CDB7DEB7162F53
:101770007A0190919E009160926090939E001092E9
:10178000F0001092EF001092BA001092B900873169
:1017900080F046EF5FEF481B5109440F551F4E0D77
:1017A0005F1D5093F0004093EF005093BA004093B8
:1017B000B900A701425051095093C4004093C3009F
:1017C0005093A2004093A10098E2E916F104C0F4FE
:1017D00044E150E05093C4004093C3005093A200F2
:1017E0004093A1004AE050E05093F0004093EF0096
:1017F0005093BA004093B90048E2E42EF12C05C0A2
:1018000090E9E91691E0F90698F4893288F0C70169
:101810009695879596958795A701481B590B5093E8
:10182000F0004093EF005093BA004093B90088E273
:101830001092FC001092FB001092EE001092ED004E
:10184000682F29830E948904812F0E949A04F092B4
:10185000CC00E092CB00F092AD00E092AC00809121
:101860009E008093FF00E0916C00F0916D0009955F
:101870002981222339F00E94BE04811103C00E94F5
:10188000A70BF9CF0F90DF91CF911F91FF90EF90B1
:101890000895FF920F931F93CF93DF93182FF62E87
:1018A000022F90919E009160926090939E009A0109
:1018B000A0EBB2E00E94B50F24E630E040E050E03B
:1018C0000E948D0FE901F901E456F109F093F0004F
:1018D000E093EF00F093BA00E093B9003093C400B6
:1018E0002093C3003093A2002093A1002832310539
:1018F000B0F444E150E05093C4004093C3005093CF
:10190000A2004093A1004AE050E05093F0004093C1
:10191000EF005093BA004093B900C8E2D0E0612FC5
:10192000812F0E9489048F2D0E949A041092FC003E
:101930001092FB001092EE001092ED00D093CC00BC
:10194000C093CB00D093AD00C093AC0080919E00BB
:101950008093FF00E0916C00F0916D0009950023E9
:1019600039F00E94BE04811103C00E94A70BF9CF79
:10197000DF91CF911F910F91FF900895CF931BBAE4
:1019800018BA15BAC1E0C2BB1ABA88E587BB8CE8A1
:1019900084BB82EF81BBF894C598BD9A97980E944A
:1019A000120710BC8CE089B91BB886E880BD88E9B5
:1019B0008AB917B886E186B910BE85E085BF80EE8A
:1019C0008BBF14BE8AE083BF83E68CBF82EA8FBDE3
:1019D00081E18EBD82ED90E097BD86BD1ABC18BC3A
:1019E00060E080E00E94F30489E085BD8EE683BD5F
:1019F00082E089BF8091A90081608093A900C09393
:101A00006B007894CF9108955D9BFECF8CB90895BB
:101A1000CF93DF93EC018991882319F00E94040D84
:101A2000FACFDF91CF910895CF93DF93FC0184919A
:101A3000EF012196882321F00E94040DFE01F7CFCB
:101A4000DF91CF9108950F931F93CF93DF931F9250
:101A5000CDB7DEB78C01040F111DF80181918F0104
:101A6000882341F0662331F069830E94040D698167
:101A70006150F3CF0F90DF91CF911F910F91089597
:101A8000CF93DF93CDB7DEB761970FB6F894DEBF83
:101A90000FBECDBF462F50E0BE016F5F7F4F0E944B
:101AA000C40FCE0101960E94080D61960FB6F894FE
:101AB000DEBF0FBECDBFDF91CF910895EF92FF92B1
:101AC0000F931F93CF93DF93CDB7DEB761970FB618
:101AD000F894DEBF0FBECDBF042F462F50E09E010D
:101AE0002F5F3F4F7901B9010E94C40FF7010190A8
:101AF0000020E9F73197EE19FF09102F1E1B111670
:101B000054F4115080E30E94040D1111FACFC70163
:101B10000E94080D06C0412F4195602FC7010E9409
:101B2000230D61960FB6F894DEBF0FBECDBFDF91D7
:101B3000CF911F910F91FF90EF9008951F920F92F8
:101B40000FB60F9211242F938F939F93EF93FF93D0
:101B50008091960090919700282F291B2032A8F49D
:101B6000E091980091E09E0F90939800F0E02CB1E6
:101B7000E85FFE4F20838F5F80939600913210F0D4
:101B8000109298001092070106C08CB180939B00C0
:101B900081E080930701FF91EF919F918F912F91A9
:101BA0000F900FBE0F901F90189510920701809113
:101BB0009700909196009817A1F08F5F80939700FF
:101BC00080919900813210F010929900E091990073
:101BD00081E08E0F80939900F0E0E85FFE4F8081F6
:101BE000089580E0089510920701282FDC018A2FC4
:101BF000821B90919700309196003917B9F08617A3
:101C0000A8F49F5F90939700E091990081E08E0F78
:101C100080939900F0E0E85FFE4F80818D93809182
:101C20009900813220F310929900E1CF08958091BC
:101C3000960090919700891B089557988CB18093D6
:101C40009A001092990010929800109297001092AA
:101C5000960010920701579A08950E94BE0C8FE3D8
:101C60000E94A90384EC99E00E94130984E20E9477
:101C7000A90380E691E00E94C50386E391E00E94FB
:101C8000AE050E9428070E941E070E943E030E9484
:101C9000A70BFBCF0E945E0E0C943F0F0E94380FE3
:101CA00058F00E94310F40F029F45F3F29F00C9466
:101CB000280F51110C94730F0C942E0F0E94500F8B
:101CC00068F39923B1F3552391F3951B550BBB276B
:101CD000AA2762177307840738F09F5F5F4F220FB0
:101CE000331F441FAA1FA9F335D00E2E3AF0E0E8A7
:101CF00032D091505040E695001CCAF72BD0FE2FF1
:101D000029D0660F771F881FBB1F26173707480784
:101D1000AB07B0E809F0BB0B802DBF01FF2793583C
:101D20005F4F3AF09E3F510578F00C94280F0C94C9
:101D3000730F5F3FE4F3983ED4F3869577956795EC
:101D4000B795F7959F5FC9F7880F911D9695879571
:101D500097F90895E1E0660F771F881FBB1F621790
:101D600073078407BA0720F0621B730B840BBA0B4E
:101D7000EE1F88F7E09508950E94580F88F09F574E
:101D800098F0B92F9927B751B0F0E1F0660F771F9F
:101D9000881F991F1AF0BA95C9F714C0B13091F095
:101DA0000E94720FB1E008950C94720F672F782F84
:101DB0008827B85F39F0B93FCCF38695779567955A
:101DC000B395D9F73EF490958095709561957F4FC6
:101DD0008F4F9F4F0895E89409C097FB3EF490956C
:101DE0008095709561957F4F8F4F9F4F9923A9F0F4
:101DF000F92F96E9BB279395F69587957795679583
:101E0000B795F111F8CFFAF4BB0F11F460FF1BC0C6
:101E10006F5F7F4F8F4F9F4F16C0882311F096E959
:101E200011C0772321F09EE8872F762F05C0662307
:101E300071F096E8862F70E060E02AF09A95660FC0
:101E4000771F881FDAF7880F9695879597F9089579
:101E500097F99F6780E870E060E008959FEF80EC5D
:101E6000089500240A941616170618060906089500
:101E700000240A9412161306140605060895092E66
:101E80000394000C11F4882352F0BB0F40F4BF2BD5
:101E900011F460FF04C06F5F7F4F8F4F9F4F089515
:101EA00057FD9058440F551F59F05F3F71F047950B
:101EB000880F97FB991F61F09F3F79F087950895F0
:101EC000121613061406551FF2CF4695F1DF08C00F
:101ED000161617061806991FF1CF8695710561052C
:101EE00008940895E894BB2766277727CB0197F9D4
:101EF0000895AA1BBB1B51E107C0AA1FBB1FA61751
:101F0000B70710F0A61BB70B881F991F5A95A9F7A2
:101F100080959095BC01CD010895A1E21A2EAA1BCF
:101F2000BB1BFD010DC0AA1FBB1FEE1FFF1FA21789
:101F3000B307E407F50720F0A21BB30BE40BF50B86
:101F4000661F771F881F991F1A9469F7609570950F
:101F5000809590959B01AC01BD01CF010895EE0FD6
:101F6000FF1F0590F491E02D0994A29FB001B39F4B
:101F7000C001A39F700D811D1124911DB29F700D92
:101F8000811D1124911D08954532510520F44230E0
:101F900010F00C94CF0FFB011082CB010895BB27EA
:101FA0004A3031F4992322F4BDE2909581959F4FF8
:101FB0000C94DB0FBB27FB015527AA27880F991F1D
:101FC000AA1FA41710F0A41B83955051B9F7A05D68
:101FD000AA3308F0A95DA193009779F7B111B193E5
:101FE0001192CB010C94F40FDC01FC01672F71916D
:101FF0007723E1F7329704C07C916D9370836291EF
:0C200000AE17BF07C8F30895F894FFCF97
:10200C00022828000000015E035D03015C035B03F2
:00000001FF
