:100000000C94A8130C94AE210C94E7220C940C25AC
:100010000C94AC240C94C5130C94C5130C94C51308
:100020000C94C5130C94C5130C94CD260C94C513D5
:100030000C94C5130C947E2D0C94C5130C94C5130D
:100040000C94C5130C94C5130C94C5130C94C513D0
:100050000C94C513312F342F372F3A2F3D2F402FBB
:10006000432F462F77217D21832189218F219521BF
:100070009B21596F75206E65656420746F20656ED5
:1000800074657220612073696E676C65206E756D92
:100090006265722066726F6D203020746F20382C7C
:1000A00020732C2064206F722063210023232323DC
:1000B0002323232323232323232323232323232310
:1000C0002323232323232323232323232323232300
:1000D00023232323232323232323232323232323F0
:1000E00023232323232323232323232323232323E0
:1000F000230A002320506C6561736520656E74656A
:100100007220796F75722063686F6963652028318A
:100110002D382C20732C20642C20632921202020B2
:1001200020202020202020202020202020202020CF
:1001300020202020202020230A00232323232323E0
:10014000232323232323232323232323232323237F
:10015000232323232323232323232323232323236F
:10016000232323232323232323232323232323235F
:100170002323232323232323232323232323230A68
:10018000002320202020202020202020202020208C
:10019000202020202020202020202020202020205F
:1001A000202020232020202020202020202020204C
:1001B000202020202020202020202020202020203F
:1001C0002020202020230A00202020202020202062
:1001D00020202020202020202020202020230A0052
:1001E000232038202D204D6F746F727320616E6450
:1001F00020456E636F6465727320546573742020AC
:1002000020202320202020202000232037202D20E4
:100210004952434F4D4D2F5243352054657374203E
:10022000202020202020202020202020232053793F
:100230007374656D20766F6C746167652069733ABD
:100240002020202020202020202020202020230AC1
:1002500000232036202D204143532028616E642046
:10026000524335207265636569766529205465734C
:100270007420202320202020202020202020202027
:10028000202020202020202020202020202020206E
:100290002020202020230A00232035202D204C69F7
:1002A0006768742053656E736F7220546573742091
:1002B000202020202020202020202320202020203B
:1002C000202020202020202020202020202020202E
:1002D000202020202020202020202020230A00234E
:1002E0002034202D2042756D706572205465737422
:1002F00020202020202020202020202020202020FE
:1003000020232020202020202020202020202020EA
:1003100020202020202020202020202020202020DD
:10032000202020230A00232033202D20566F6C74B8
:100330006167652053656E736F7220546573742016
:1003400020202020202020202320202020202020AA
:10035000202020202020202020202020202020209D
:1003600020202020202020202020230A00232032AB
:10037000202D204C454420546573742020202020DB
:10038000202020202020202020202020202020236A
:100390002063202D20456E636F6465722044757460
:1003A000792D4379636C6520546573742020202077
:1003B00020230A00232031202D20506F7765724FB3
:1003C0006E205465737420202020202020202020BF
:1003D000202020202020232064202D204D6F7665B2
:1003E0002064697374616E636520546573742020A2
:1003F0002020202020202020230A00232030202D10
:100400002052756E20414C4C2053656C66746573A8
:1004100074732028302D3829202020202023207399
:10042000202D204D6F7665206174207370656564A2
:100430002054657374202020202020202020202399
:100440000A002320202020202020202020202020DF
:10045000202020202020202020202020202020209C
:100460002020202023202020202020202020202089
:10047000202020202020202020202020202020207C
:10048000202020202020230A002323232323202090
:1004900020202020204D61696E204D656E75202042
:1004A0002020202020202023232323232323232331
:1004B000202020202020416476616E636564204DF9
:1004C000656E7520202020202023232323230A006B
:1004D00023232323232323232323232323232323EC
:1004E00023232323232323232323232323232323DC
:1004F00023232323232323232323232323232323CC
:1005000023232323232323232323232323232323BB
:1005100023232323230A00232323232323232323E7
:1005200020484F4D452056455253494F4E202020DC
:100530002020202020202020202020202020207665
:100540002E20312E35202D2032352E30372E3230D0
:100550003132202323232323232323230A0023238D
:100560002323232323232320202020202020202076
:1005700020202052503620526F626F7420426173E7
:10058000652053656C6674657374202020202020DC
:100590002020202020202020202023232323232349
:1005A0002323230A00232323232323232323232357
:1005B000232323232323232323232323232323230B
:1005C00023232323232323232323232323232323FB
:1005D00023232323232323232323232323232323EB
:1005E000232323232323232323230A00616C6C204A
:1005F000696E707574206C696E6573210A004869B4
:100600006E743A20546869732070726F6772616DFE
:100610002072657175697265732061206E65776CF3
:10062000696E652063686172616374657220282257
:100630005C6E22292061742074686520656E6420D8
:100640006F660A00506C6561736520656E74657233
:100650002022782220616E642068697420456E74BF
:10066000657220746F20636F6E74696E7565210A00
:10067000002323232323232323232323232323236D
:10068000232323232323232323232323232323233A
:10069000232323232323232323232323232323232A
:1006A000232323232323232323232323232323231A
:1006B0002323232323230A0A004D616B65207375CE
:1006C000726520626F746820637261776C65722056
:1006D000747261636B7320617265204652454520D8
:1006E00052554E4E494E472120444F204E4F5420E4
:1006F000424C4F434B205448454D210A004D414B3D
:1007000045205355524520544841542049542043D4
:10071000414E205F5F4E4F545F5F204D4F56452145
:100720000A00544845205250362057494C4C20531B
:1007300054415254204D4F56494E4720494E205463
:1007400045535420382120594F552043414E2044D1
:10075000414D41474520495420494620594F552095
:10076000444F204E4F540A005468652063617465FD
:100770007270696C6C617220747261636B73207348
:10078000686F756C64204E4F5420746F75636820D9
:100790007468652067726F756E64210A28686F6CD3
:1007A0006420697420696E20796F75722068616EAB
:1007B000647320666F72206578616D706C652E2E93
:1007C0002E290A004D616B6520737572652074686F
:1007D000617420746865205250362043414E205F7A
:1007E0005F4E4F545F5F204D4F5645210A00232333
:1007F0002320415454454E54494F4E212121204439
:10080000414E474552212121205741524E494E47E2
:100810002121210A002323232323232323232323EA
:100820002323232323232323232323232323232398
:100830002323232323232323232323232323232388
:100840002323232323232323232323232323232378
:10085000232323232323232323230A000A0A52507A
:100860003620526F626F7420426173652053656C4D
:1008700066746573740A0A00454E434F444552201E
:1008800052494748540020002000454E434F4445FC
:1008900052204C454654002000200042415454450B
:1008A000525920564F4C54414745003000313032A8
:1008B000330044495354414E43452052494748541C
:1008C00000300036353533350044495354414E43EA
:1008D00045204C45465400300036353533350053FD
:1008E0005045454420524947485400300032353580
:1008F000005350454544204C4546540030003235A5
:1009000035005350454544205249474854204953E7
:1009100020544F4F204C4F57212121210A00535082
:10092000454544204C45465420495320544F4F20C0
:100930004C4F57212121210A00207C55423A2000AA
:10094000207C4443523A2000207C44434C3A20000F
:10095000207C49523A2000207C494C3A2000207CDF
:1009600056523A2000207C564C3A2000503A200043
:100970000A2D2D3E204368616E67652073706565A2
:100980006420746F3A000A2D2D3E20506F776572F7
:10099000206C696D6974656420746F203132302178
:1009A000000A232323204E4F542041204E554D4210
:1009B000455221202323230A000A4368616E67659C
:1009C00020646972656374696F6E3A205269676862
:1009D000740A000A4368616E676520646972656322
:1009E00074696F6E3A204C6566740A000A43686148
:1009F0006E676520646972656374696F6E3A204240
:100A000057440A000A4368616E676520646972652D
:100A10006374696F6E3A204657440A000A454E4493
:100A20000A005468652074657374206973207275B8
:100A30006E6E696E6720616C72656164792C2079D5
:100A40006F752063616E20456E7465722050574D3E
:100A50002076616C756573206E6F77210A00456E94
:100A60007465722022667764222C202262776422C9
:100A70002C20226C22206F722022722220746F2080
:100A80006368616E6765206D6F746F722074757234
:100A90006E696E6720646972656374696F6E210A9E
:100AA00000456E7465722022656E6422206F72208C
:100AB00022782220616E64206869742072657475E2
:100AC000726E207768656E20796F752077616E741D
:100AD00020746F2073746F70207468652074657360
:100AE00074210A00302C2032352C2039342C20314E
:100AF00030302C2031323020284C494D4954454467
:100B0000204D4158494D554D2121212920616E64C8
:100B10002068697420456E746572210A000A557355
:100B20006167653A20456E7465722050574D207696
:100B3000616C756573206C696B653A200A004F6EB5
:100B40002F4F66662074696D65206F662074686536
:100B5000207369676E616C2073686F756C642062C6
:100B60006520617320657175616C20617320706F01
:100B7000737369626C652E0A006F6620353025201C
:100B80002D20636865636B207468697320776974CE
:100B900068207468652077617665666F726D206481
:100BA0006973706C61797320696E20746865205276
:100BB00050364C6F6164657220536F667477617252
:100BC000652E0A004F7074696D616C206973206135
:100BD00020612064757479206379636C65200A0054
:100BE000746F20736574207468652064757479204F
:100BF0006379636C652070726F7065726C792E001A
:100C00005468697320616C6C6F777320796F7520FD
:100C1000746F2061646A7573742074686520736DE5
:100C2000616C6C20706F746973206F6E20746865DE
:100C300020456E636F646572730A00537065656466
:100C400020726567756C6174696F6E2069732064CA
:100C5000697361626C6564202D20746865206D6F16
:100C6000746F72732067657420636F6E7374616E46
:100C70007420506F776572210A00232323232323D6
:100C80002323232323232323232323232323232334
:100C90002323232323232323232323232323232324
:100CA0002323232323232323232323232323232314
:100CB0002323232323232323232323232323230A1D
:100CC0000A004D414B45205355524520544841544C
:100CD0002049542043414E205F5F4E4F545F5F20B8
:100CE0004D4F5645210A0054484520525036204366
:100CF000414E205354415254204D4F56494E4720A7
:100D00005645525920464153542120594F552043AE
:100D1000414E2044414D41474520495420494620F9
:100D2000594F5520444F204E4F540A0054686520B7
:100D3000636174657270696C6C6172207472616356
:100D40006B732073686F756C64205F5F4E4F545FE8
:100D50005F20746F756368207468652067726F75B3
:100D60006E64210A28686F6C6420697420696E20A3
:100D7000796F75722068616E647320666F7220658A
:100D800078616D706C652E2E2E290A004D616B65A1
:100D900020737572652074686174207468652052D0
:100DA00050362063616E205F5F4E4F545F5F206D51
:100DB0006F7665210A0023232320415454454E5465
:100DC000494F4E2121212044414E474552212121A6
:100DD000205741524E494E472121210A0023232307
:100DE00023232323232323232323232323232323D3
:100DF00023232323232323232323232323232323C3
:100E000023232323232323232323232323232323B2
:100E100023232323232323232323232323232323A2
:100E200023230A000A456E636F646572204475745B
:100E300079204379636C6520746573740A0A000A2B
:100E40002D2D3E204D6F76653A000A232323204E38
:100E50004F542041204E554D4245522120232323FB
:100E60000A000A4368616E6765206469726563748D
:100E7000696F6E3A2052696768740A000A436861B4
:100E80006E676520646972656374696F6E3A204CA1
:100E90006566740A000A4368616E6765206469725A
:100EA000656374696F6E3A204257440A000A4368CA
:100EB000616E676520646972656374696F6E3A205C
:100EC0004657440A000A454E440A000A454E440A61
:100ED0000054686520746573742069732072756EA0
:100EE0006E696E6720616C72656164792C20796F20
:100EF000752063616E20456E746572204469737459
:100F0000616E63652076616C756573206E6F772105
:100F10000A00456E7465722022667764222C2022B6
:100F2000627764222C20226C22206F72202272228F
:100F300020746F206368616E676520646972656301
:100F400074696F6E210A00456E7465722022656EA9
:100F50006422206F722022782220616E64206869EA
:100F6000742072657475726E207768656E20796F73
:100F7000752077616E7420746F2073746F702074A5
:100F800068652074657374210A003135302C203572
:100F900030302C20313538302C20343030302C207B
:100FA000333030303020286D617821290A000A550D
:100FB000736167653A20456E746572204469737485
:100FC000616E63652076616C756573206C696B6515
:100FD0003A200A0077696C6C206F75747075742004
:100FE0007468652064726976656E20456E636F640F
:100FF000657220636F756E74732E0A00596F7520C9
:1010000063616E206C65742074686520526F626F36
:1010100074206472697665207370656369666963BC
:101020002064697374616E636573207769746820E6
:10103000697420616E642069740A005468697320C1
:1010400070726F6772616D2063616E2062652075DA
:1010500073656420746F2063616C6962726174658A
:101060002074686520456E636F64657220526573F5
:101070006F6C7574696F6E2E0A002323232323235C
:101080002323232323232323232323232323232330
:101090002323232323232323232323232323232320
:1010A0002323232323232323232323232323232310
:1010B0002323232323232323232323232323230A19
:1010C0000A004D414B452053555245205448415448
:1010D0002049542043414E205F5F4E4F545F5F20B4
:1010E0004D4F5645210A0054484520525036204362
:1010F000414E205354415254204D4F56494E4720A3
:101100005645525920464153542120594F552043AA
:10111000414E2044414D41474520495420494620F5
:10112000594F5520444F204E4F540A0054686520B3
:10113000636174657270696C6C6172207472616352
:101140006B732073686F756C64205F5F4E4F545FE4
:101150005F20746F756368207468652067726F75AF
:101160006E64210A28686F6C6420697420696E209F
:10117000796F75722068616E647320666F72206586
:1011800078616D706C652E2E2E290A004D616B659D
:1011900020737572652074686174207468652052CC
:1011A00050362063616E205F5F4E4F545F5F206D4D
:1011B0006F7665210A0023232320415454454E5461
:1011C000494F4E2121212044414E474552212121A2
:1011D000205741524E494E472121210A0023232303
:1011E00023232323232323232323232323232323CF
:1011F00023232323232323232323232323232323BF
:1012000023232323232323232323232323232323AE
:10121000232323232323232323232323232323239E
:1012200023230A000A4D6F76652044697374616E4A
:10123000636520746573740A000A2D2D3E2043688F
:10124000616E676520737065656420746F3A000A8B
:10125000232323204E4F542041204E554D424552CA
:1012600021202323230A000A4368616E67652064F6
:101270006972656374696F6E3A2052696768740AAF
:10128000000A4368616E676520646972656374690A
:101290006F6E3A204C6566740A000A4368616E6797
:1012A0006520646972656374696F6E3A20425744C1
:1012B0000A000A4368616E67652064697265637439
:1012C000696F6E3A204657440A000A454E440A00A8
:1012D000456E7465722022782220616E64206869F0
:1012E000742072657475726E207768656E20796FF0
:1012F000752061726520726561647920746F205376
:1013000054415254210A00456E746572202266775A
:1013100064222C2022627764222C20226C22206FEF
:10132000722022722220746F206368616E676520CC
:10133000646972656374696F6E210A00456E746535
:10134000722022656E6422206F7220227822206132
:101350006E64206869742072657475726E20776897
:10136000656E20796F752077616E7420746F2073BD
:10137000746F70207468652074657374210A00307E
:101380002C2032352C2039342C203130302C203197
:1013900035352C2032303020286D617821292061AC
:1013A0006E642068697420456E746572210A000AB3
:1013B0000A55736167653A20456E746572205370F3
:1013C0006565642076616C756573206C696B653A40
:1013D000200A00232323232323232323232323231C
:1013E00023232323232323232323232323232323CD
:1013F00023232323232323232323232323232323BD
:1014000023232323232323232323232323232323AC
:1014100023232323232323230A0A004D414B452062
:101420005355524520544841542049542043414E7D
:10143000205F5F4E4F545F5F204D4F5645210A009D
:10144000544845205250362043414E205354415277
:1014500054204D4F56494E4720564552592046413B
:1014600053542120594F552043414E2044414D4172
:10147000474520495420494620594F5520444F2084
:101480004E4F540A00546865206361746572706938
:101490006C6C617220747261636B732073686F751A
:1014A0006C64205F5F4E4F545F5F20746F7563689C
:1014B000207468652067726F756E64210A28686FF2
:1014C0006C6420697420696E20796F757220686180
:1014D0006E647320666F72206578616D706C652E26
:1014E0002E2E290A004D616B65207375726520747C
:1014F00068617420746865205250362063616E20E4
:101500005F5F4E4F545F5F206D6F7665210A002349
:10151000232320415454454E54494F4E212121202C
:1015200044414E474552212121205741524E494EB8
:10153000472121210A002323232323232323232399
:10154000232323232323232323232323232323236B
:10155000232323232323232323232323232323235B
:10156000232323232323232323232323232323234B
:1015700023232323232323232323230A000A4D6128
:101580006E75616C20737065656420726567756C3B
:101590006174696F6E20746573740A0A00202323D6
:1015A0002320207C20554241543A2000207C2044B6
:1015B00053544C3A2000207C20445354523A20008B
:1015C000207C2056523A2000207C20564C3A2000A5
:1015D000207C2049523A2000207C20494C3A2000AF
:1015E000207C2050523A2000504C3A20000A2A2AEF
:1015F0002A2A2A204D4F544F5220414E4420454E16
:10160000434F4445522054455354204F4B21202AE8
:101610002A2A2A2A0A000A0A456E74657220616E17
:10162000792063686172616374657220746F2063EE
:101630006F6E74696E7565210A0023232323204190
:101640006E6420616C736F20636865636B20536503
:101650006E736F727320666F722064656665637463
:1016600073212020202020202323230A002323234A
:101670002320506C6561736520636865636B206D22
:101680006F746F7220616E6420656E636F64657243
:1016900020617373656D626C7921202323230A0016
:1016A0002323232323232320212121205445535462
:1016B0002046494E495348454420574954482045FF
:1016C00052524F525320212121202323232323230D
:1016D000230A002323232323232320212121202025
:1016E0005741524E494E47205741524E494E47208E
:1016F0005741524E494E47202021212120232323A8
:10170000232323230A002323232323232320455297
:10171000524F5220526967687420232323232323C6
:10172000230A0053706565642052696768743A2023
:101730004F4B0A0023232323232323204552524FB8
:1017400052204C6566742023232323232323230A5A
:10175000005370656564204C6566743A204F4B0AEF
:101760000023232323232323204552524F523A2080
:10177000537570706C7920566F6C74616765206961
:101780007320746F6F206C6F7720283C352E3530B6
:1017900056292120506C6561736520636865636B11
:1017A00020706F77657220737570706C79212023BB
:1017B0002323232323230A00232323232323232038
:1017C00052696768743A2043757272656E7420536B
:1017D000656E736F7220697320646566656374213A
:1017E00021212043757272656E74206D6561737579
:1017F00072656D656E7420697320746F6F206C6FF5
:1018000077212023232323232323230A0023232395
:1018100023232323204C6566743A20437572726536
:101820006E742053656E736F7220697320646566F1
:101830006563742121212043757272656E74206D79
:101840006561737572656D656E7420697320746F60
:101850006F206C6F77212023232323232323230A44
:1018600000232323232323232052696768743A200B
:1018700043555252454E5420434F4E53554D5054AC
:10188000494F4E20495320544F4F20484947482143
:101890002023232323232323230A00232323232357
:1018A0002323204C6566743A2043555252454E54CA
:1018B00020434F4E53554D5054494F4E20495320CD
:1018C000544F4F20484947482120232323232323D3
:1018D00023230A00207C55423A2000207C49523ABA
:1018E0002000207C494C3A2000207C50523A2000B5
:1018F000207C504C3A2000207C56523A2000207C1C
:10190000564C3A2000543A200023232320456E747D
:1019100065722022782220616E64206869742072CA
:10192000657475726E207768656E20544F2053542D
:1019300041525420746869732074657374210A23BA
:101940002323204D616B6520737572652074686573
:10195000205250362063616E206E6F74206D6F765A
:1019600065210A0A0023232323232323232323235C
:101970002323232323232323232323232323232337
:101980002323232323232323232323232323232327
:101990002323232323232323232323232323232317
:1019A000232323232323232323230A0A002D2D3E2D
:1019B000204F5448455257495345205448452054D8
:1019C0004553542057494C4C204641494C210A006C
:1019D0004D616B65207375726520626F746820635A
:1019E0007261776C657220747261636B73206172CF
:1019F0006520465245452052554E4E494E472120BE
:101A0000444F204E4F5420424C4F434B20544845A6
:101A10004D210A004D414B45205355524520544815
:101A200041542049542043414E205F5F4E4F545F44
:101A30005F204D4F5645210A0054484520525036EC
:101A40002057494C4C205354415254204D4F564935
:101A50004E4720464153542120594F552043414E73
:101A60002044414D41474520495420494620594F83
:101A70005520444F204E4F540A005468652063613E
:101A800074657270696C6C617220747261636B73DF
:101A90002073686F756C64205F5F4E4F545F5F20EA
:101AA000746F756368207468652067726F756E6403
:101AB000210A28686F6C6420697420696E20796F30
:101AC00075722068616E647320666F72206578613C
:101AD0006D706C652E2E2E290A004D616B6520738A
:101AE0007572652074686174207468652052503680
:101AF0002063616E205F5F4E4F545F5F206D6F7695
:101B000065210A0023232320415454454E54494F54
:101B10004E2121212044414E474552212121205769
:101B200041524E494E472121210A002323232323DA
:101B30002323232323232323232323232323232375
:101B40002323232323232323232323232323232365
:101B50002323232323232323232323232323232355
:101B60002323232323232323232323232323232345
:101B70000A000A4175746F6D617469632073706542
:101B8000656420737065656420726567756C617447
:101B9000696F6E20746573740A0A000A0A456E74D0
:101BA000657220616E792063686172616374657229
:101BB00020746F20636F6E74696E7565210A00234F
:101BC00023232323232320212120506C6561736567
:101BD00020636865636B204952434F4D4D2061730C
:101BE00073656D626C792021202323232323232313
:101BF0000A002323232323232320212121205445AA
:101C000053542046494E4953484544205749544867
:101C1000204552524F525320212121202323232398
:101C20002323230A002323232323232320212121C9
:101C300020205741524E494E47205741524E494E5F
:101C400047205741524E494E472020212121202331
:101C50002323232323230A000A5245434550544992
:101C60004F4E204552524F522121210A0A000A5458
:101C70006573742066696E6973686564210A00542F
:101C80005820524335205061636B65743A20000A36
:101C900054494D454F55542121210A0A000A232356
:101CA0002320456E7465722022782220616E6420A4
:101CB0006869742072657475726E20746F20535455
:101CC00041525420746869732074657374210A0A40
:101CD000005468652041435320697320616374692F
:101CE000766520616E642074686520526F626F743F
:101CF0002077696C6C20646574656374206F62730F
:101D00007461636C6573207468617420796F750AFF
:101D10006D6F766520696E2066726F6E74206F66D7
:101D2000206974210A0A006173207468697320773E
:101D3000696C6C20646973747572622074686520C4
:101D40007465737420616E642069742077696C6CAB
:101D5000206661696C210A0A00506C656173652018
:101D6000444F204E4F542073656E6420616E797429
:101D700068696E6720776974682054562052656DD3
:101D80006F746520436F6E74726F6C73206F722076
:101D900073696D696C61720A004F626A65637420D1
:101DA0006469726563746C79206F766572207468FB
:101DB00065204952434F4D4D204C454473206F6E72
:101DC000207468652066726F6E74206F6620746878
:101DD0006520525036210A0A00506C6561736520F7
:101DE0006D616B6520737572652074686174207411
:101DF0006865726520697320612077686974652061
:101E00006365696C696E67206F7220736F6D652002
:101E10007265666C6563746976650A00696620742C
:101E200068657920617265207265636569766564AD
:101E3000206261636B2070726F7065726C79210A29
:101E4000005468697320746573742077696C6C2022
:101E50007472616E736D6974207365766572616CFE
:101E60002052433520436F6465732077697468207E
:101E7000746865204952434F4D4D20616E64206364
:101E80006865636B0A000A4952434F4D4D20546503
:101E900073740A00465245453A2052494748542136
:101EA0000A004F42535441434C453A205249474857
:101EB00054210A00465245453A204C454654210AD1
:101EC000004F42535441434C453A204C454654211F
:101ED0000A00232323205468652054657374206905
:101EE000732072756E6E696E67206E6F772E0A238F
:101EF000232320456E7465722022782220616E644F
:101F0000206869742072657475726E20746F205336
:101F1000544F5020746869732074657374210A0AE1
:101F2000005349524353206F722052454353383077
:101F3000206574632E212054686572652061726586
:101F4000207365766572616C206F746865722066B7
:101F50006F726D61747320746861742077696C6C42
:101F6000204E4F5420776F726B210A0A004D616B2F
:101F700065207375726520796F75722072656D6F5B
:101F8000746520636F6E74726F6C207472616E730F
:101F90006D69747320696E2052433520616E642030
:101FA0006E6F740A00616E64204B6579636F6465BF
:101FB000206F662074686520524335205472616E2C
:101FC000736D697373696F6E210A00746F20746892
:101FD0006520525036202D2069742077696C6C2062
:101FE000646973706C61792074686520546F6767E9
:101FF0006C65204269742C204465766963652041D4
:1020000064726573730A00596F752063616E206195
:102010006C736F2073656E642052433520436F6488
:102020006573207769746820612054562052656D6D
:102030006F746520436F6E74726F6C0A0041435376
:102040002069732073657420746F204D4158494D89
:10205000554D20706F7765722F72616E6765210A2A
:102060000A00616E64207665726966792074686121
:102070007420626F746820414353206368616E6E00
:10208000656C732061726520776F726B696E672073
:1020900070726F7065726C79210A0A00506C65610C
:1020A0007365206D6F766520796F75722068616E3B
:1020B00064206F72206F74686572206F6273746140
:1020C000636C657320696E2066726F6E74206F6634
:1020D0002074686520526F626F740A000A4143538E
:1020E00020546573740A00232323204552524F5213
:1020F00021212120232323004F4B2100202D2D3E81
:102100002000207C204B657920436F64653A0020D5
:102110007C204465766963652041646472657373ED
:102120003A00525820524335205061636B65742049
:102130002D2D3E20546F67676C65204269743A000C
:102140002C202052696768743A20004C6566743A06
:102150002000506572666F726D696E67206D6561F3
:10216000737572656D656E74732E2E2E3A0A002398
:10217000232320546865205465737420697320728A
:10218000756E6E696E67206E6F772E0A232323208B
:10219000456E7465722022782220616E6420686921
:1021A000742072657475726E20746F2053544F5092
:1021B00020746869732074657374210A0A002323EC
:1021C0002320456E7465722022782220616E64207F
:1021D0006869742072657475726E207768656E2008
:1021E000796F7520617265207265616479210A00DA
:1021F000616E642077617463682069662074686525
:102200002076616C756573206368616E6765206117
:1022100063636F7264696E676C79210A0A0057689C
:10222000696C652074686520746573742072756EBE
:10223000732C206D6F766520697420696E2066723C
:102240006F6E74206F662074686520526F626F74C1
:102250000A00506C656173652067657420796F753D
:102260007273656C66206120736D616C6C20666CA6
:102270006173686C69676874210A000A232323204C
:102280004C696768742053656E736F722054657370
:1022900074202323230A00465245453A20524947D9
:1022A0004854210A004F42535441434C453A20526E
:1022B00049474854210A00465245453A204C454674
:1022C00054210A004F42535441434C453A204C4557
:1022D0004654210A00232323205468652054657343
:1022E000742069732072756E6E696E67206E6F77E9
:1022F0002E0A23232320456E746572202278222023
:10230000616E64206869742072657475726E2074E1
:102310006F2053544F502074686973207465737430
:10232000210A0A007468617420626F746820427523
:102330006D706572732061726520776F726B696E64
:10234000672070726F7065726C79210A0A00506C98
:10235000656173652068697420626F7468206275B6
:102360006D7065727320616E64207665726966793E
:10237000200A000A42756D70657220546573740AF4
:1023800000202873686F756C64206265206D696E2B
:102390002E20352E35305620746F206D61782E201A
:1023A000392E35305629210A0048494748004C4FFC
:1023B00057000A5741524E494E473A20564F4C5407
:1023C00041474520495320544F4F2000202D2D3E9A
:1023D000204F4B210A003A20004D656173757265EC
:1023E0006D656E74202300506572666F726D696E44
:1023F00067203130206D6561737572656D656E742F
:10240000733A0A000A23232320456E746572202242
:10241000782220616E642068697420726574757218
:102420006E20746F20535441525420746869732095
:1024300074657374210A0A00426520737572652001
:102440007468617420796F75206172652075736995
:102450006E6720676F6F6420616363756D756C6173
:10246000746F7273210A000A23232320566F6C7441
:102470006167652053656E736F72205465737420B5
:102480002323230A00506C656173652077617463B0
:102490006820746865204C45447320616E64207622
:1024A0006572696679207468617420746865792042
:1024B000616C6C20776F726B210A000A2323232042
:1024C0004C45442054657374202323230A00286953
:1024D000742077696C6C20666C617368206120667B
:1024E00065772074696D657321290A00506C6561F8
:1024F0007365207761746368207468652079656C02
:102500006C6F7720506F7765724F6E204C4544207A
:10251000616E6420766572696679207468617420E2
:102520006974206C6967687473207570210A000AE9
:1025300023232320504F574552204F4E20544553BC
:1025400054202323230A003C252853544152542964
:10255000253E0A003C25284352454154452C003C69
:102560002528434F4E4E45435429253E0A007829DD
:10257000253E0A003C25280020232323230A00238C
:102580002323232054455354202300446F6E652198
:102590000A0054686520526F626F74206E6565642E
:1025A0007320746F2062652072657365747465644E
:1025B000206E6F772E0A0A00596F75206E6565646C
:1025C00020746F20636865636B204D6F746F722099
:1025D000617373656D626C7920286F7220796F75F5
:1025E0007220736F667477617265292E0A0A000A79
:1025F0000A28732E207461736B5F6D6F746F724362
:102600006F6E74726F6C28292066756E6374696FC3
:102610006E20696E205250364C696221290A000AE8
:102620000A232323204D4F544F52204F56455243E7
:10263000555252454E54202323230A00596F7520CA
:102640006E65656420746F20636865636B20456EFA
:10265000636F6465722F4D6F746F72206173736561
:102660006D626C7920286F7220796F757220736F9C
:10267000667477617265292E0A0A00210A0A287396
:102680002E207461736B5F6D6F746F72436F6E7425
:10269000726F6C28292066756E6374696F6E20698D
:1026A0006E205250364C696221290A00524947482F
:1026B00054004C4546540041666665637465642069
:1026C0006368616E6E656C3A000A23232320454ED1
:1026D000434F44455220284F52204D4F544F5229CA
:1026E000204D414C46554E4354494F4E2120232303
:1026F000230A00232323232320414C4C204F504501
:10270000524154494F4E532053544F50504544204A
:10271000544F2050524556454E5420414E59204466
:10272000414D414745212023232323230A000A0A40
:10273000232323232320454D455247454E4359200B
:1027400053485554444F574E2023232323230A0034
:1027500011241FBECFE5D8E0DEBFCDBF10E0A0E65C
:10276000B0E0E0E5F3E602C005900D92A03AB107B3
:10277000D9F723E0A0EAB0E001C01D92AE37B2075E
:10278000E1F70E940D2E0C94A6310C940000CF921C
:10279000DF92EF92FF920F931F93CF93DF93082F57
:1027A0000F738295869586958370C92FC770CC0F5D
:1027B000CC0FC82B93FB112710F982E291E20E9403
:1027C000F42C80E3810F0E94E42C8FE091E20E94C0
:1027D000F42CD0E06AE0CE010E94202D82E091E24C
:1027E0000E94F42CC02ED12C6AE0C6010E94202D3C
:1027F0008091E100823061F58CEF90E20E94F42C30
:102800002091E200822F90E0C816D906B9F4822FF9
:102810008F7190E0C817D90789F4812F90E025FBCC
:10282000EE24E0F8F12C8E159F0541F488EF90E23C
:102830000E94F42C109208018AE008C087EE90E212
:102840000E94F42C81E08093080185E08093E100F0
:102850008AE0DF91CF911F910F91FF90EF90DF9071
:10286000CF900C94E42C8BE895E20C94F42CCF934D
:10287000DF93C82F8AE00E94E42CCC2359F0D5E4E2
:1028800083E20E94E42CD150D9F78AE00E94E42C24
:10289000C150F3CFDF91CF910895CF93C82F82E03D
:1028A0000E9437148FE795E20E94F42C6AE08C2F87
:1028B00090E00E94202D88E795E2CF910C94F42CB3
:1028C000CF92DF92EF92FF92BC0180E090E00E94F5
:1028D0005E306B017C012DEC3CEC4CEC52E40E9430
:1028E000B62F2DEC3CEC4CEC5DE30E944A2F0E948D
:1028F0002830DC01CB0142E06AE00E943E2D8EE2EE
:102900000E94E42C2FE632E143E85FE3C701B60101
:102910000E94B62F20E030E040E251E40E944A2FAE
:102920000E942830DC01CB0142E06AE00E943E2D8B
:1029300086E5FF90EF90DF90CF900C94E42CCF933E
:10294000C82F84E795E20E94F42C6AE08C2F90E077
:102950000E94202D8CE2CF910C94E42C8EE695E21F
:102960000C94F42C8FE595E20C94F42CAF92BF926A
:10297000DF92EF92FF920F931F93CF93DF931F92FB
:10298000CDB7DEB7D82E7B01590184E595E24983A6
:102990000E94F42C6AE08D2D90E00E94202D8CE2A4
:1029A0000E94E42CC7010E94F42C8CE20E94E42CCB
:1029B0006AE04981842F90E00E94202D8CE20E94E1
:1029C000E42CC5010E94F42C8CE20E94E42CC80186
:1029D0000E94F42C8CE20E94E42C0F90DF91CF91A6
:1029E0001F910F91FF90EF90DF90BF90AF900C94EC
:1029F000AE1487E495E20C94F42CCF93DF930E94FD
:102A0000F72D8823D9F1C091B600D0E00E94B52DF2
:102A1000C951DF4F88838091B600E82FF0E0E9517B
:102A2000FF4F90819A3011F09D30C1F48091B50034
:102A3000882369F09A3039F48D3049F41092B5004A
:102A40001092B6001AC09D3011F48A30B9F39093F9
:102A5000B50010821092B60081E010C0803240F0C4
:102A6000109207011092B6001092B50082E006C0E5
:102A70001092B5008F5F8093B60080E0DF91CF9118
:102A800008950E94FD148823E1F308950E944115E2
:102A90009091E7009F7D81E0983509F080E00895EE
:102AA00081E00E944D148FE295E20E94F42C8CEE9E
:102AB00094E20E94F42C8EEC94E20E94F42C88EEB6
:102AC00093E00E94C9280E94B22688EE93E00E94FB
:102AD000C9280E94BB2688EE93E00E94C9280E9464
:102AE000B22680ED97E00E94C9280E94BB2684EFA1
:102AF00091E00E94C9280E94B22684EF91E00E94D2
:102B0000C9280E94BB260C943314CF93DF9382E034
:102B10000E944D148BEB94E20E94F42C85E894E221
:102B20000E94F42C88EE93E00E94C9288FE30E9453
:102B3000132184EF91E00E94C92880E00E941321B4
:102B400084EF91E00E94C9288FE30E94132184EF53
:102B500091E00E94C92880E00E9413218AEF90E052
:102B60000E94C928DCE0C1E08C2F0E941321CC0F09
:102B7000C03408F0C1E080E991E00E94C928D1503A
:102B800099F78FE30E94132180E991E00E94C92800
:102B900080E00E941321DF91CF910C9433140F93A6
:102BA0001F93CF93DF9383E00E944D1487E694E256
:102BB0000E94F42C88E394E20E94F42C84E094E2D6
:102BC0000E94F42C0E94461587EE93E20E94F42C9A
:102BD000C1E0D0E089ED93E20E94F42C6AE0CE01DE
:102BE0000E94202D86ED93E20E94F42C87E00E9443
:102BF00053218C010E946014C8018A53924081398C
:102C0000914018F48CEC93E210C082EB93E20E94A6
:102C1000F42C0A33124018F48EEA93E202C089EAD7
:102C200093E20E94F42C81E893E20E94F42C88EC59
:102C300090E00E94C9282196CB30D10559F6DF914A
:102C4000CF911F910F910C9433141F93CF93DF9367
:102C500084E00E944D1483E793E20E94F42C8EE4FA
:102C600093E20E94F42C84E293E20E94F42C85ED1E
:102C700092E20E94F42C0E94FD2DC1E00E94FD14FE
:102C8000811149C00E941721182F0E942321D82F9B
:102C90008091B400112349F081110FC084EC92E2BD
:102CA0000E94F42CC093B40008C0882331F087EB55
:102CB00092E20E94F42C1092B4008091B300DD23C4
:102CC00049F081110FC085EA92E20E94F42CC09372
:102CD000B30008C0882331F087E992E20E94F42C07
:102CE0001092B30091E0111190E08091E60090FB0A
:102CF00083F98093E60091E0D11190E08091E600A5
:102D000090FB80F98093E6000E94D42082E390E05B
:102D10000E94C928B3CF80E00E941321DF91CF9198
:102D20001F910C9433140F931F93CF93DF9385E07F
:102D30000E944D148BE792E20E94F42C82E592E20D
:102D40000E94F42C8EE192E20E94F42C80EF91E23A
:102D50000E94F42C8EEB91E20E94F42C0E94461506
:102D60008FE691E20E94F42C88EE93E00E94C9283D
:102D70008091A60281608093A6028091A602826063
:102D80008093A60282E591E20E94F42C0E94FD2D20
:102D90000E94FD14811169C08091A7029091A80240
:102DA000C397C8F183E00E945321EC0182E00E94A6
:102DB00053219E01281B390BC901213A31053CF4EE
:102DC00080363FEF930704F18D38910514F088E3C6
:102DD0001CC08C34910514F088E117C08432910531
:102DE00014F088E012C08E3D2FEF920714F089E0B6
:102DF0000CC0863B3FEF930714F081E006C0853797
:102E00009F4F14F083E001C087E00E9413211092CD
:102E1000A8021092A7028091A9029091AA028B3F6A
:102E2000910508F4B5CF83E00E9453218C0182E024
:102E30000E945321EC018BE491E20E94F42C44E0C7
:102E40006AE0C8010E943E2D80E491E20E94F42CC9
:102E500044E06AE0CE010E943E2D8AE00E94E42C0C
:102E60001092AA021092A90293CF8091A6028E7F9F
:102E70008093A6028091A6028D7F8093A602DF91A7
:102E8000CF911F910F910C943314CF93DF9386E071
:102E90000E944D148CED90E20E94F42C8CE990E29B
:102EA0000E94F42C82E690E20E94F42C8DE390E2E2
:102EB0000E94F42C87E090E20E94F42C8BEC9FE1BE
:102EC0000E94F42C85EA9FE10E94F42C8DE69FE19C
:102ED0000E94F42C81E29FE10E94F42C82ED9EE19D
:102EE0000E94F42C0E94B2260E94AD260E94FD2D65
:102EF000C1E0D4E20E94FD14811158C00E943D251A
:102F00009091B8028091B200992349F081110FC0CD
:102F100081EC9EE10E94F42CC093B20008C088238B
:102F200031F084EB9EE10E94F42C1092B20090915B
:102F300039038091B100992349F081110FC082EAD1
:102F40009EE10E94F42CC093B10008C0882331F0A8
:102F500084E99EE10E94F42C1092B1001092E600E8
:102F60002091B80290913903222319F09111D09346
:102F7000E6008091E60020FB84F990FB81F98093C4
:102F8000E60031E0211130E08091E60030FB83F96A
:102F90008093E60021E0911120E08091E60020FB83
:102FA00080F98093E6000E94D420A4CF0E949C2642
:102FB0000E94BB2680E00E941321DF91CF910C94E8
:102FC00033140F931F93CF93DF9387E00E944D1428
:102FD00086E89EE10E94F42C81E49EE10E94F42C9C
:102FE0008CE19EE10E94F42C89ED9DE10E94F42C7D
:102FF00089E99DE10E94F42C89E59DE10E94F42C71
:1030000087E29DE10E94F42C81ED9CE10E94F42C6A
:103010008DE99CE10E94F42C0E94461584EF91E01A
:103020000E94C9280E94B2260E949C268091A60276
:1030300081608093A60288E00E9413211092E20032
:10304000109208011092E100C0E0D2E002EC11E021
:103050008091A7029091A802853F914000F1809154
:10306000E100823019F48FE89CE132C08FE79CE1E7
:103070000E94F42C6AE08C2F90E00E94202D8AE0C0
:103080000E94E42C6C2F8C2F0E949024C093E200AD
:10309000D093E100CD5F1092A8021092A702809118
:1030A000E1008A3069F41092E1001093A8020093C5
:1030B000A702C03428F08EE69CE10E94F42C27C0C1
:1030C0008091E100853001F51092E10088E59CE1F6
:1030D0000E94F42C86E30E94132185E29CE10E9469
:1030E000F42C82EF9BE10E94F42C8FEB9BE10E9479
:1030F000F42C8BE99BE10E94F42C0E949C260E94F8
:10310000BB260E94411503C00E943D25A1CF0E940D
:103110009C268091A6028E7F8093A6020E94BB26E9
:1031200088EE93E00E94C92880E00E941321DF917D
:10313000CF911F910F910C9433140F931F93CF9342
:10314000DF938091CD00833009F052C080E10E946E
:103150009F146AE083E390E00E94202D8CE20E949D
:10316000E42CC0E0D0E08E01000F111FF801E65EF4
:10317000FD4F808191816AE00E94202D8CE20E94A7
:10318000E42CF801E256FE4F808191816AE00E94B2
:10319000202D8CE20E94E42C2196C333D10519F72F
:1031A0000E94AE1480916D0090916E009093AF00DC
:1031B0008093AE0080916B0090916C009093AD0075
:1031C0008093AC008091C7009091C8009093AB00B1
:1031D0008093AA008091C5009091C6009093A900A9
:1031E0008093A8001092CD008AE090E00E94C92848
:1031F0008091C400833009F056C081E10E949F1481
:103200006AE083E390E00E94202D8CE20E94E42C8F
:10321000C0E0D0E08E01000F111FF801E45FFE4F07
:10322000808191816AE00E94202D8CE20E94E42C32
:10323000F801EF53FD4F808191816AE00E94202DBB
:103240008CE20E94E42C2196C333D10519F70E9429
:10325000AE148091690090916A009093A7008093CA
:10326000A60080916700909168009093A5008093DC
:10327000A4008091BE009091BF009093A300809322
:10328000A2008091BC009091BD009093A10080931A
:10329000A0001092C4008AE090E0DF91CF911F91CE
:1032A0000F910C94C928DF91CF911F910F91089530
:1032B00081E00E949F1480911602909117026AE0AB
:1032C0000E94202D8CE20E94E42C6AE084E690E0CB
:1032D0000E94202D8CE20E94E42C0E94AE1482E019
:1032E0000E949F1480914E0390914F036AE00E94C8
:1032F000202D8CE20E94E42C6AE084E690E00E949B
:10330000202D8CE20E94E42C0E94AE1489E00E94E1
:103310009F146AE080915303909154030E94202DE2
:103320008CE20E94E42C6AE084E690E00E94202D6A
:103330008CE20E94E42C0E94AE1483E00E949F1451
:1033400080914C0390914D036AE00E94202D8CE205
:103350000E94E42C6AE084E690E00E94202D8CE23A
:103360000E94E42C0E94AE1484E00E949F1480917D
:103370003E0390913F036AE00E94202D8CE20E9460
:10338000E42C6AE084E690E00E94202D8CE20E940A
:10339000E42C0C94AE14FF920F931F93CF93DF9302
:1033A00088E00E944D1482E79BE10E94F42C8BE29E
:1033B0009BE10E94F42C84E09BE10E94F42C8AEDB6
:1033C0009AE10E94F42C8AE79AE10E94F42C89E3A6
:1033D0009AE10E94F42C84E19AE10E94F42C80EDA1
:1033E00099E10E94F42C8DEA99E10E94F42C85E683
:1033F00099E10E94F42C89E099E10E94F42C0E944A
:1034000046158091E700883709F0D7C10E94872BC5
:103410000E94B22660E080E00E947D2460E080E0AF
:103420000E946C2460E080E00E9425241092A80293
:103430001092A7021092AA021092A9028091A602ED
:1034400081608093A6028091A60282608093A6028A
:103450000E94872BD0E010E0F12C8091A90290917E
:10346000AA02893C910508F4DBC00E94581985E046
:1034700099E10E94F42C43E06AE08D2F90E00E94D5
:103480003E2D8EEF98E10E94F42C809116029091CF
:10349000170243E06AE00E943E2D87EF98E10E9408
:1034A000F42C80914E0390914F0343E06AE00E9418
:1034B0003E2D80EF98E10E94F42C88B599B543E049
:1034C0006AE00E943E2D89EE98E10E94F42C8AB5B4
:1034D0009BB543E06AE00E943E2D82EE98E10E9497
:1034E000F42C43E06AE080915A0390915B030E94C0
:1034F0003E2D8BED98E10E94F42C43E06AE0809130
:10350000490390914A030E943E2D84ED98E10E9468
:10351000F42C80915303909154030E9460148AE02C
:103520000E94E42C80911602909117028238910536
:1035300038F480915A0390915B038937910570F4B8
:1035400080911602909117028238910568F080915F
:103550005A0390915B038739910530F08BE998E12C
:103560000E94F42CC1E001C0C0E080914E03909114
:103570004F038238910538F48091490390914A03B2
:103580008937910570F480914E0390914F038238F2
:10359000910560F08091490390914A038739910524
:1035A00028F081E698E10E94F42CCF5F809116020A
:1035B000909117024A9778F088B599B54E9758F0D0
:1035C00080915A0390915B03079728F48DE098E16E
:1035D0000E94F42CCF5F80914E0390914F034A9745
:1035E00078F08AB59BB54E9758F080914903909139
:1035F0004A03079728F488EB97E10E94F42CCF5FE9
:1036000080915303909154038632924018F481E6DE
:1036100097E154C0C11190C01092AA021092A90261
:103620008091A7029091A802893E934008F46FC050
:103630006D2F8D2F0E942524133008F461C0209136
:103640001602309117020D2F10E0C801D63008F095
:103650000A972817390778F020911602309117023F
:10366000C8010A968217930730F081E597E10E941E
:10367000F42CC0E005C084E397E10E94F42CC1E083
:1036800020914E0330914F03C801D63008F00A97BD
:103690002817390788F080914E0390914F039801C5
:1036A000265F3F4F2817390738F083E297E10E94E1
:1036B000F42CCC2339F03FC086E097E10E94F42C33
:1036C000CF5F3AC081E0F81212C0D93770F4D0351C
:1036D00010F081E003C0DC3320F080E00E9436244B
:1036E00004C0D832B0F782E0F82ED4510BC0F110EC
:1036F00009C0FF24F394D03508F4F12CDC5E02C03D
:103700001F5F01C010E01092A8021092A7020E9451
:103710009D180E94872B22E0F2120AC060E080E030
:103720000E94252460E080E00E946C24C0E004C078
:103730000E94872B92CEC1E08091A6028E7F80935B
:10374000A60260E080E00E946C2460E080E00E94BD
:10375000252460E080E00E947D240E94BB26CC23CB
:10376000E1F086E30E94132183ED96E10E94F42CA0
:1037700080EA96E10E94F42C8DE696E10E94F42CFA
:103780008AE396E10E94F42C86E196E10E94F42CF3
:103790000E94BB260E94411508C08DEE95E10E9453
:1037A000F42C88EE93E00E94C92880E0DF91CF914D
:1037B0001F910F91FF900C941321DF91CF911F91D6
:1037C0000F91FF90089588EE95E10E94F42C88B542
:1037D00099B543E06AE00E943E2D80EE95E10E949B
:1037E000F42C8AB59BB543E06AE00E943E2D88ED3B
:1037F00095E10E94F42C43E06AE080915A03909195
:103800005B030E943E2D80ED95E10E94F42C43E085
:103810006AE08091490390914A030E943E2D88EC12
:1038200095E10E94F42C809116029091170243E0DA
:103830006AE00E943E2D80EC95E10E94F42C80917C
:103840004E0390914F0343E06AE00E943E2D8AE0D0
:103850000E94E42C86EB95E10E94F42C80913E03BB
:1038600090913F036AE00E94202D8CEA95E10E942E
:10387000F42C80914C0390914D036AE00E94202D1E
:103880008DE995E10E94F42C8091530390915403AB
:103890000E9460148AE00C94E42C1F93CF93DF9372
:1038A00082E00E9437148DE795E10E94F42C86E3B4
:1038B00095E10E94F42C8FE095E10E94F42C85EEB6
:1038C00094E10E94F42C85E894E10E94F42C80E4B9
:1038D00094E10E94F42C8BE194E10E94F42C83ED9E
:1038E00093E10E94F42C8FEA93E10E94F42C8FE77D
:1038F00093E10E94F42C8CE393E10E94F42C87E086
:1039000093E10E94F42C80ED92E10E94F42C0E943D
:1039100046150E94FD2D0E94B22660E080E00E94C4
:103920007D2460E080E00E946C2460E080E00E94E2
:1039300025248091A60281608093A6028091A60230
:1039400082608093A60210E00E94FD14882309F48F
:10395000ABC061E770E087EE90E00E945531892BA3
:1039600041F065E770E087EE90E00E945531892BC9
:1039700029F58AEC92E10E94F42C8091A6028E7FB8
:103980008093A6028091A6028D7F8093A60284EF89
:1039900091E00E94C92860E080E00E946C2460E011
:1039A00080E00E94252460E080E00E947D240E9447
:1039B000BB26DF91CF911F910C94331467E770E021
:1039C00087EE90E00E945531892B31F482EB92E131
:1039D0000E94F42C80E00DC06BE770E087EE90E071
:1039E0000E945531892B41F48AE992E10E94F42C1E
:1039F00081E00E94362458C06FE770E087EE90E0C7
:103A00000E945531892B31F481E892E10E94F42C17
:103A100082E0EFCF61E870E087EE90E00E945531E0
:103A2000892B31F487E692E10E94F42C83E0E1CF08
:103A300087EE90E00E943731EC010097E1F4E7EE69
:103A4000F0E001900020E9F73197E75EF040E150A7
:103A5000E7FD1AC0AE2F0E2E000CBB0BA951BF4FB5
:103A60008C9180538A3098F38FE492E10E94F42C79
:103A7000C12FD0E009C097FF02C0C0E0D0E0C93C30
:103A8000D10514F0C8ECD0E01C2F89E392E10E942C
:103A9000F42C6AE0CE010E94202D8AE00E94E42CE2
:103AA0006C2F8C2F0E9425248091A7029091A80250
:103AB0008B3F910530F00E94E31B1092A8021092F8
:103AC000A7028091A9029091AA028536910530F053
:103AD0000E9458191092AA021092A9020E949D18E1
:103AE0000E94872B31CF0F931F93CF93DF9382E0F8
:103AF0000E94371484E292E10E94F42C8DED91E152
:103B00000E94F42C86EB91E10E94F42C8CE891E168
:103B10000E94F42C8CE291E10E94F42C87EE90E15B
:103B20000E94F42C82EC90E10E94F42C8AE790E150
:103B30000E94F42C8BE390E10E94F42C8CEF9FE028
:103B40000E94F42C84ED9FE00E94F42C8EEA9FE00A
:103B50000E94F42C8AE89FE00E94F42C87E49FE006
:103B60000E94F42C82E19FE00E94F42C81ED9EE003
:103B70000E94F42C0E94B22660E080E00E947D2426
:103B800060E080E00E946C2460E080E00E942524D8
:103B90000AEF10E00E94FD14882309F4ADC061E72C
:103BA00070E087EE90E00E945531892B19F48BEC80
:103BB0009EE00AC065E770E087EE90E00E94553114
:103BC000892B09F585EC9EE00E94F42C8091A602D9
:103BD0008E7F8093A60284EF91E00E94C92860E066
:103BE00080E00E946C2460E080E00E94252460E078
:103BF00080E00E947D240E94BB26DF91CF911F911F
:103C00000F910C94331467E770E087EE90E00E9408
:103C10005531892B31F48DEA9EE00E94F42C80E02E
:103C20000DC06BE770E087EE90E00E945531892B64
:103C300041F485E99EE00E94F42C81E00E94362444
:103C40005BC06FE770E087EE90E00E945531892BF2
:103C500031F48CE79EE00E94F42C82E0EFCF61E823
:103C600070E087EE90E00E945531892B31F482E6B6
:103C70009EE00E94F42C83E0E1CF87EE90E00E946A
:103C80003731EC010097D1F4E7EEF0E0019000202D
:103C9000E9F73197E75EF040E150E7FD13C0AE2F42
:103CA0000E2E000CBB0BA951BF4F8C9180538A3054
:103CB00098F38AE49EE00E94F42C04C097FF02C0AF
:103CC000C0E0D0E08FE39EE00E94F42C6AE0CE01D9
:103CD0000E94202D8AE00E94E42C1093A8020093F9
:103CE000A7028091A60281608093A60220E0AE0127
:103CF00060E088E20E948F2B8091A7029091A80239
:103D00008B3F9105E8F00E94E31B0E9458190E9426
:103D10004824882389F08091A6028E7F8093A60292
:103D200084EF91E00E94C9280E94872B0E94E31B28
:103D300083E890E00E94E82C1092A8021092A7025B
:103D40000E949D180E94872B25CFCF92DF92EF9281
:103D5000FF920F931F93CF93DF9382E00E9437145B
:103D600084E29EE00E94F42C8DED9DE00E94F42CF4
:103D700086EB9DE00E94F42C8CE89DE00E94F42CE0
:103D80008CE29DE00E94F42C87EE9CE00E94F42CD3
:103D900082EC9CE00E94F42C8AE79CE00E94F42CC8
:103DA0008BE39CE00E94F42C80E09CE00E94F42CC9
:103DB00080EE9BE00E94F42C84EC9BE00E94F42CAB
:103DC00089E79BE00E94F42C8EE39BE00E94F42C98
:103DD0008DE19BE00E94F42C84EE9AE00E94F42C8A
:103DE00081EA9AE00E94F42C8EE59AE00E94F42C7D
:103DF00082E29AE00E94F42C0E94B22660E080E009
:103E00000E947D2460E080E00E9425248091A6022B
:103E100081608093A6028091A60282608093A602B0
:103E200060E080E00E946C2484EF91E00E94C92849
:103E30000E94FD2D10E004E60E94FD14882309F481
:103E4000AEC061E770E087EE90E00E945531892BAB
:103E500041F065E770E087EE90E00E945531892BD4
:103E600031F58CE19AE00E94F42C8091A6028E7FBD
:103E70008093A6028091A6028D7F8093A60284EF94
:103E800091E00E94C92860E080E00E946C2460E01C
:103E900080E00E947D240E94BB26DF91CF911F917C
:103EA0000F91FF90EF90DF90CF900C94331467E761
:103EB00070E087EE90E00E945531892B31F484E068
:103EC0009AE00E94F42C60E02CC06BE770E087EE73
:103ED00090E00E945531892B49F48CEE99E00E94C4
:103EE000F42C61E081E00E947D2459C06FE770E00E
:103EF00087EE90E00E945531892B31F483ED99E0F3
:103F00000E94F42C60E0EECF61E870E087EE90E074
:103F10000E945531892B39F489EB99E00E94F42CE9
:103F200061E080E0E0CF87EE90E00E943731EC0165
:103F30000097E1F4E7EEF0E001900020E9F7319717
:103F4000E75EF040E150E7FD1AC0AE2F0E2E000CE8
:103F5000BB0BA951BF4F8C9180538A3098F381EAF3
:103F600099E00E94F42CC12FD0E009C08937910557
:103F700030F086E899E00E94F42CC8E7D0E01C2FCE
:103F800080E799E00E94F42C6AE0CE010E94202D87
:103F90008AE00E94E42C6C2F8C2F0E946C2480916C
:103FA000A7029091A8028536910508F4DAC0112382
:103FB00009F4D3C08CE699E00E94F42C43E06AE057
:103FC000812F90E00E943E2D85E699E00E94F42C1E
:103FD000809116029091170243E06AE00E943E2D04
:103FE0008EE599E00E94F42C80914E0390914F034E
:103FF00043E06AE00E943E2D87E599E00E94F42CA0
:1040000043E06AE080915A0390915B030E943E2D49
:1040100080E599E00E94F42C43E06AE08091490336
:1040200090914A030E943E2DE090AA00F090AB00D0
:104030008091AE009091AF00E80EF91EF694E794DF
:10404000C091A800D091A9008091AC009091AD00E2
:10405000C80FD91FD695C7956E01CE0CDF1C88E41A
:1040600099E00E94F42C0E9DC0010F9D900D11242B
:10407000B6010E94EC30CB0142E06AE00E943E2D86
:104080008AE30E94E42C0C9FC0010D9F900D112427
:10409000B6010E94EC30CB0142E06AE00E943E2D66
:1040A000E090A200F090A3008091A6009091A7005C
:1040B000E80EF91EF694E794C091A000D091A100FB
:1040C0008091A4009091A500C80FD91FD695C795DF
:1040D0006E01CE0CDF1C80E499E00E94F42C0E9D52
:1040E000C0010F9D900D1124B6010E94EC30CB0150
:1040F00042E06AE00E943E2D8AE30E94E42C0C9F7D
:10410000C0010D9F900D1124B6010E94EC30CB012F
:1041100042E06AE00E943E2D89E399E00E94F42C7F
:1041200080915303909154030E9460148AE00E948E
:10413000E42C8091160290911702059720F48EE1ED
:1041400099E00E94F42C80914E0390914F030597C3
:1041500020F482E099E00E94F42C1092A8021092C0
:10416000A7028091A9029091AA028536910538F0A4
:1041700011110E9458191092AA021092A90211114D
:104180000E949D180E94672157CE089508950895B2
:10419000089580919B01843010F010929B01089546
:1041A00084E080939B01089587B38C7787BB88B3A5
:1041B0008C7788BB8091E60083FF02C0BF9AC79AC4
:1041C0008091E60084FF02C0B99AC19A8091E6000E
:1041D00085FF02C0B89AC09A84B38F7884BB85B338
:1041E0008F7885BB24B39091E60030E1939FC001A6
:1041F00011248077822B84BB25B39091E60030E1B7
:10420000939FC00111248077822B85BB80919B01F5
:10421000811106C081E09091E600911101C080E01B
:1042200080939B0108958093E6000C94D420C0985D
:10423000B898000086B381709091E60095FF02C0A7
:10424000B89AC09A0895AE98A698000083B3807477
:104250009091E60092FF02C0A69AAE9A08959093BC
:10426000700080936F000895CF9380913D03833356
:10427000C0F00E941721C82F0E94232190910901AC
:104280009C1304C090915003981749F0C093090102
:1042900080935003E0916F00F091700009951092A7
:1042A0003D03CF91089536990AC0806487B986EDA1
:1042B00086B93699FECF349A84B195B1089580E0DD
:1042C00090E00895806487B986ED86B9089536999F
:1042D00044C0E091DA008E2F90E08730910598F588
:1042E000FC01EE5CFF4F84B195B10C9422319093A8
:1042F00054038093530386E423C090935B0380931D
:104300005A0385E41DC090934A038093490383E4D4
:1043100017C0909397028093960282E411C0909305
:10432000BF028093BE0280E40BC09093470380934A
:10433000460381E405C0909395028093940287E43C
:1043400087B986ED86B98091DA00863019F410922B
:10435000DA0008958F5F8093DA0008951F920F921C
:104360000FB60F9211242F933F934F935F938F9328
:104370009F93EF93FF9380914C0390914D0301968F
:1043800090934D0380934C03809144039091450397
:104390000196909345038093440380B38470909179
:1043A000CD00911116C0811105C18FEF9FEF909341
:1043B0006E0080936D0090936C0080936B00109260
:1043C000C8001092C7001092C6001092C50081E08C
:1043D000EFC09091CD00913049F5882309F4EAC0EF
:1043E0001092CC001092CB00E091CB00F091CC0069
:1043F000EE0FFF1FE65EFD4F118210828091CB0011
:104400009091CC009C012F5F3F4F3093CC002093C4
:10441000CB00880F991FFC01E256FE4F81E090E02F
:104420009183808382E08093CD00BCC09091CD00C9
:10443000923009F0BFC02091CB003091CC002333E3
:10444000310508F0B4C0811103C020E030E002C0A3
:1044500024EF31E08091C9009091CA00E091CB0037
:10446000F091CC00EE0FFF1FE65EFD4F31832083FD
:10447000893E934030F58091CB009091CC00AC0107
:104480004F5F5F4F5093CC004093CB00880F991F34
:10449000FC01E256FE4F81E090E091838083E09141
:1044A000CB00F091CC002115310519F484EF91E097
:1044B00002C080E090E0EE0FFF1FE65EFD4F9183AB
:1044C00080838091CB009091CC00AC014F5F5F4F17
:1044D0005093CC004093CB004091C9005091CA004A
:1044E000880F991FFC01E256FE4F51834083232B16
:1044F00069F12091C9003091CA008091C500909166
:10450000C6008217930740F48091C9009091CA00B9
:104510009093C6008093C5002091C9003091CA00D5
:1045200080916B0090916C0028173907D8F5809125
:10453000C9009091CA00892BA9F18091C90090917E
:10454000CA0090936C0080936B002CC02091C9002E
:104550003091CA008091C7009091C80082179307DC
:1045600040F48091C9009091CA009093C800809354
:10457000C7002091C9003091CA0080916D009091D0
:104580006E002817390770F48091C9009091CA0015
:10459000892B41F08091C9009091CA0090936E00E0
:1045A00080936D001092CA001092C90003C083E08E
:1045B0008093CD00FF91EF919F918F915F914F91EB
:1045C0003F912F910F900FBE0F901F9018951F9243
:1045D0000F920FB60F9211242F933F934F935F9337
:1045E0008F939F93EF93FF9380913E0390913F03AE
:1045F000019690933F0380933E0380919E02909199
:104600009F02019690939F0280939E0280B38870D0
:104610009091C400911116C0811105C18FEF9FEFD9
:1046200090936A008093690090936800809367007C
:104630001092BF001092BE001092BD001092BC00FC
:1046400081E0EFC09091C400913049F5882309F4CE
:10465000EAC01092C3001092C200E091C200F09133
:10466000C300EE0FFF1FE45FFE4F118210828091A6
:10467000C2009091C3009C012F5F3F4F3093C30055
:104680002093C200880F991FFC01EF53FD4F81E07A
:1046900090E09183808382E08093C400BCC09091BD
:1046A000C400923009F0BFC02091C2003091C30015
:1046B0002333310508F0B4C0811103C020E030E09D
:1046C00002C024EF31E08091C0009091C100E091E0
:1046D000C200F091C300EE0FFF1FE45FFE4F318375
:1046E00020838D3B924030F58091C2009091C300B1
:1046F000AC014F5F5F4F5093C3004093C200880FDF
:10470000991FFC01EF53FD4F81E090E0918380837E
:10471000E091C200F091C3002115310519F484EF36
:1047200091E002C080E090E0EE0FFF1FE45FFE4FDB
:10473000918380838091C2009091C300AC014F5F50
:104740005F4F5093C3004093C2004091C00050910E
:10475000C100880F991FFC01EF53FD4F5183408327
:10476000232B69F12091C0003091C1008091BC00E1
:104770009091BD008217930740F48091C000909102
:10478000C1009093BD008093BC002091C000309187
:10479000C100809167009091680028173907D8F50B
:1047A0008091C0009091C100892BA9F18091C00037
:1047B0009091C10090936800809367002CC0209175
:1047C000C0003091C1008091BE009091BF0082175F
:1047D000930740F48091C0009091C1009093BF0076
:1047E0008093BE002091C0003091C100809169008B
:1047F00090916A002817390770F48091C000909159
:10480000C100892B41F08091C0009091C10090932C
:104810006A00809369001092C1001092C00003C02A
:1048200083E08093C400FF91EF919F918F915F91FE
:104830004F913F912F910F900FBE0F901F901895A1
:1048400090936600809365000895893C08F088EC99
:1048500090E09093890180938801693C08F068ECAE
:1048600070E0709385016093840108958093B70090
:104870002FEF280F91E0223008F090E09093BB00DA
:104880008D7F91E0813009F090E09093BA00089517
:104890009091E500937081E009F080E00895109216
:1048A0008901109288011092850110928401109262
:1048B00093011092920110923C0310923B0380915D
:1048C000E5008E7F8D7F8093E50080935203E09119
:1048D0006500F09166000994633D08F062ED70E0B8
:1048E00070939D0260939C02833D08F082ED90E0FE
:1048F00090939D0180939C0108958093B9006093EB
:10490000B8008093BB006093BA00882311F0AA9A84
:1049100001C0AA98662311F0AB9A0895AB98089548
:1049200090918D01992321F099B7906899BFF8CFA4
:104930006F7370E070638F7320E4829FC001112455
:10494000862B972B9093A1028093A00280918C01DB
:10495000806480938C0108951F920F920FB60F927E
:1049600011248F939F93809164008230B0F58091E1
:10497000D9008823D1F08C3338F48091BC02909117
:10498000BD0296FF07C008C08091BC029091BD0295
:1049900096FF02C0979803C082B3805882BB809173
:1049A000D90081508093D90030C080918D019798B3
:1049B000882359F18091BC029091BD02880F991F04
:1049C0009093BD028093BC0288E78093D9008091C8
:1049D0008D01815080938D0118C0809191018823B1
:1049E00091F080918C0180FD05C098B380E4892707
:1049F00088BB03C085B3805885BB809191018150ED
:104A00008093910102C0C69AAF9A9F918F910F90A7
:104A10000FBE0F901F9018951F920F920FB60F9216
:104A200011248F9380916400833011F0863079F4E3
:104A300080918C0184FD0BC080918C0185FF07C0A3
:104A4000B29905C0809151038F5F8093510386B363
:104A500080918C018D7F80938C018F910F900FBE80
:104A60000F901F90189590936300809362000895B3
:104A700090936100809360000895809198029091D6
:104A80009902029708F43CC180918C0184FD19C100
:104A900080916400823009F467C028F4882369F0AB
:104AA000813091F014C1853009F4AFC0863009F42B
:104AB000C5C0833009F00BC16FC089B78F7789BF3C
:104AC0009798C69AAF9A03C180918D0181112AC02F
:104AD00080918C0186FF14C08091A0029091A10268
:104AE0009093BD028093BC028EE080938D018091F3
:104AF0008C018F7B80938C0189B7806889BF06C049
:104B000089B78F7789BF9798C69AAF9A8091D80056
:104B100091E0980F9093D800843138F082E0809330
:104B2000640003C089B7806889BF80918C0183FFCE
:104B3000CEC0E0916200F0916300809155039091A6
:104B400056030995809155039091560390939701D0
:104B500080939601109256031092550380918C0118
:104B6000877F80938C01B3C089B78F7789BF97986F
:104B7000C69AAF9A10929101109251031092D700E9
:104B80001092D60080918C018E7F806280938C0180
:104B900083E08093D80077C080919101811110C08B
:104BA0008091D80091E0980F9093D800833040F026
:104BB00089B7806889BF88E2809391011092D800FC
:104BC0008091B802882321F080915103823020F433
:104BD00080915103863038F01092510381E0809328
:104BE000B80285E050C08091D6009091D7009C011A
:104BF0002F5F3F4F3093D7002093D6000E9708F4D5
:104C000066C01092B80285E051C089B78F7789BF1E
:104C10009798C69AAF9A10929101109251031092F0
:104C2000D7001092D60080918C01816080628093C1
:104C30008C0183E08093D80086E025C080919101AB
:104C4000811110C08091D80091E0980F9093D80006
:104C5000833040F089B7806889BF88E280939101F2
:104C60001092D80080913903882321F0809151035C
:104C7000823020F480915103863040F0109251032D
:104C800081E0809339038093640021C08091D60035
:104C90009091D7009C012F5F3F4F3093D700209316
:104CA000D6000E97A0F01092390381E08093640043
:104CB00089B78F7789BF9798C69AAF9A109291015A
:104CC00006C01092D7001092D6001092D800909192
:104CD000B8022091D50080913903291304C0209196
:104CE000D400281749F09093D5008093D400E09128
:104CF0006000F0916100099510929902109298025B
:104D000008951092640089B78F7789BF9798C69AE3
:104D1000AF9A109239031092B802089589B78F772D
:104D200089BF9798C69AAF9A109239031092B80229
:104D300081E08093640008958E989698BB98C398FC
:104D4000C698AF9808958E9A969ABB98C39808957E
:104D50008E989698BB9AC39A08958E9A969ABB9A03
:104D6000C39A0895C49A80919B01843018F483E01B
:104D700080939B010895C49880919B01843060F4D6
:104D8000811107C081E09091E600911103C080E09D
:104D900001C081E080939B0108951F920F920FB68E
:104DA0000F9211242F933F934F935F936F937F93B1
:104DB0008F939F93AF93BF93EF93FF938091C9001D
:104DC0009091CA0001969093CA008093C900809187
:104DD000C0009091C10001969093C1008093C000E3
:104DE0008091E3009091E40001969093E400809319
:104DF000E300809148038F5F8093480380914B03C9
:104E000091E0980F90934B038A3008F446C180914B
:104E1000A60280FF09C08091A7029091A802019686
:104E20009093A8028093A7028091A60281FF09C0F7
:104E30008091A9029091AA0201969093AA02809370
:104E4000A9028091A60282FF09C08091AB029091D5
:104E5000AC0201969093AC028093AB028091A602C3
:104E600083FF09C08091AD029091AE0201969093AC
:104E7000AE028093AD028091A60284FF09C08091AA
:104E8000AF029091B00201969093B0028093AF026E
:104E90008091A60285FF09C08091B1029091B20273
:104EA00001969093B2028093B1028091A60286FF90
:104EB00009C08091B3029091B40201969093B4021C
:104EC0008093B3028091A60287FF09C08091B5024A
:104ED0009091B60201969093B6028093B5028091AC
:104EE0003A0391E0980F90933A03893CE8F080915F
:104EF0009E0290919F0290934F0380934E03809166
:104F000044039091450390931702809316021092E8
:104F10009F0210929E02109245031092440381E07A
:104F200080939A0110923A0320919B01233008F05C
:104F300051C0223079F58091E60081111FC0809127
:104F4000D2009091D300FC013196F093D300E0930E
:104F5000D20068EC70E00E94EC30892BD9F5E13A80
:104F6000FF4028F0B998C19810929B0129C087B3DF
:104F7000822787BB88B3282728BB2CC084FD02C0AA
:104F8000B998C1981092D3001092D20081E080931A
:104F90009B0120C08091D2009091D300813E3EE2DF
:104FA000930798F0213049F410929B018091E6001C
:104FB00084FD06C0B998C19803C082E080939B012C
:104FC0001092D3001092D20005C001969093D300A6
:104FD0008093D2008091980290919902039748F4AF
:104FE00080919802909199020196909399028093F2
:104FF00098028091BA02873318F48F5F8093BA02C7
:1050000080913D03843328F480913D038F5F80932A
:105010003D038091C00291E0980F9093C0028330CD
:10502000D0F18091BB02482F50E020919C0230913A
:105030009D024217530759F04217530714F48F5F2C
:1050400001C081508093BB028091BB028ABD8091D8
:105050005903482F50E020919C0130919D01421747
:10506000530759F04217530714F48F5F01C0815062
:10507000809359038091590388BD80915903811110
:1050800004C08091BB02882319F082EA8FBD01C061
:105090001FBC1092C00210924B0330918C0133FD63
:1050A00046C08091D0009091D1002091CF002F5F19
:1050B0002093CF00263198F096FD0AC095FF08C0D6
:1050C0009093560380935503832F886080938C01BF
:1050D00080918C018F7E80938C0180E090E03091F4
:1050E000CE0046B3432742FF1EC030953093CE001A
:1050F000273040F480918C018F7E80938C0180E07A
:1051000090E004C0009711F02F3068F020918C01DE
:10511000206120938C0196FD02C0880F991F32FFF9
:1051200081601092CF009093D1008093D00082993B
:1051300006C0809194018F5F8093940105C0809197
:1051400087018F5F80938701839906C080918601D4
:105150008F5F8093860105C0809195018F5F80935A
:105160009501FF91EF91BF91AF919F918F917F91A9
:105170006F915F914F913F912F910F900FBE0F90C4
:105180001F90189510924803909148039817E0F3E8
:105190000895CF93DF93EC01209729F08AE00E94D5
:1051A000C2282197F9CFDF91CF910895019710F090
:1051B0000000FCCF0895C82FF89497980E949C2671
:1051C00010929D0110929C0110929D0210929C02DF
:1051D000109293011092920110923C0310923B03A3
:1051E000109259031092BB021ABC18BC1FBC0E943B
:1051F000BB268EE297E20E94F42C83EF96E20E9497
:10520000F42C8FEF8C0F8230C0F489EC96E20E9470
:10521000F42C87EB96E20E94F42CC13019F482EB57
:1052200096E202C08CEA96E20E94F42C8BE796E2AA
:105230000E94F42C8CE396E20CC0C33061F48FE141
:1052400096E20E94F42C8FEE95E20E94F42C88EBFB
:1052500095E20E94F42C82E995E20E94F42CD6E3B8
:10526000D093E6000E94D420CAE080E090E80E943B
:10527000D628C150D1F71092E6000E94D420CAE08F
:105280008FEF9FEF0E94D628C150D1F7E9CF8091D0
:10529000BA02823308F474C01092BA028091B70245
:1052A00020915A0330915B0381113BC08091E5004E
:1052B000233043E0340738F44091490350914A03C6
:1052C00043305340E0F09091B9029F5F9093B90250
:1052D0009AE09093B70210929D0110929C01109257
:1052E0009D0210929C0210929301109292011092D2
:1052F0003C0310923B0384608093E50008958B7F0C
:105300008093E50080918E01853628F01092B902D5
:1053100010928E0106C08091B902833010F083E0B4
:1053200014C02639310598F4809116029091170225
:10533000892B69F48091880190918901892B39F03A
:1053400080915903873918F081E00E94DB28809111
:10535000490390914A038639910590F480914E0358
:1053600090914F03892B61F4809184019091850184
:10537000892B31F08091BB02873910F082E0E5CFB4
:1053800080919A01882309F4AEC18091B7028111FE
:10539000A5C18091B902882331F080918E018F5F81
:1053A00080938E0102C010928E018091E50081FFF2
:1053B00035C040914C0350914D0320910A0130912A
:1053C0000B014217530780F0109289011092880157
:1053D000109293011092920110929D0110929C01E3
:1053E0008D7F8093E5001AC020914C0330914D03CE
:1053F00080911802909119022817390778F080914E
:10540000880190918901969587958631910510F4D0
:1054100086E190E090938901809388018091E50076
:1054200080FF35C040913E0350913F0320919A0286
:1054300030919B024217530780F010928501109221
:10544000840110923C0310923B0310929D02109233
:105450009C028E7F8093E5001AC020913E0330911C
:105460003F0380914203909143032817390778F056
:10547000809184019091850196958795863191055B
:1054800010F486E190E090938501809384018091EF
:10549000BB009091B900891307C02091BA00909188
:1054A000B800291709F47BC0409188015091890107
:1054B00020918401309185014115510519F4211580
:1054C000310561F150938B0140938A01309393022F
:1054D0002093920210928901109288011092850106
:1054E00010928401209192013091930137FF02C004
:1054F0002F5F3F4F3595279530939301209392016D
:1055000020913B0330913C0337FF02C02F5F3F4F98
:105510003595279530933C0320933B0320914E0310
:1055200030914F032A313105D8F420911602309181
:1055300017022A313105A0F42091880130918901A8
:10554000232B71F42091840130918501232B41F4A8
:1055500010929D0210929C0210929D0110929C014B
:105560009FB591111CC06091BA000E947D2480916A
:105570008A0190918B019093890180938801809199
:1055800092029091930290938501809384011092EE
:1055900093011092920110923C0310923B032091D0
:1055A0008801309189018091160290911702A9011A
:1055B000481B590B8091920190919301840F951F84
:1055C000853A41E0940714F084EA91E090939301C6
:1055D0008093920180919201909193018C359E4F1E
:1055E00034F48CE59EEF9093930180939201809127
:1055F000160290911702892B31F4232B21F410927B
:10560000930110929201809192019091930197FDE4
:10561000019695958795833D910514F082ED90E074
:1056200090939D0180939C0180919C0190919D019C
:1056300097FF04C010929D0110929C01209184015B
:105640003091850180914E0390914F03A901481B31
:10565000590B80913B0390913C03840F951F853A31
:1056600041E0940714F084EA91E090933C03809326
:105670003B0380913B0390913C038C359E4F34F467
:105680008CE59EEF90933C0380933B0380914E0307
:1056900090914F03892B31F4232B21F410923C037A
:1056A00010923B0380913B0390913C0397FD019640
:1056B00095958795833D910514F082ED90E0909348
:1056C0009D0280939C0280919C0290919D0297FF85
:1056D00008C010929D0210929C0203C081508093DA
:1056E000B70210929A018091E500909152039817A9
:1056F00039F080935203E0916500F09166000994BF
:105700000895D49ADC9A0895DC98D49808950E945C
:1057100067210E943D250E9434210C944729EF9275
:10572000FF921F93CF93DF931F92CDB7DEB7162F53
:105730007A019091E500916092609093E50010925B
:1057400043031092420310921902109218028731FB
:1057500080F046EF5FEF481B5109440F551F4E0D77
:105760005F1D5093430340934203509319024093AB
:105770001802A7014250510950939B0240939A028C
:1057800050930B0140930A0198E2E916F104C0F42A
:1057900044E150E050939B0240939A0250930B01D6
:1057A00040930A014AE050E0509343034093420380
:1057B000509319024093180248E2E42EF12C05C0E0
:1057C00090E9E91691E0F90698F4893288F0C7016A
:1057D0009695879596958795A701481B590B5093E9
:1057E000430340934203509319024093180288E206
:1057F00010924D0310924C0310923F0310923E03FF
:10580000682F29830E942524812F0E943624F0923C
:10581000A302E092A202F0929001E0928F018091A7
:10582000E50080935203E0916500F09166000995D0
:105830002981222339F00E944824811103C00E944B
:10584000872BF9CF0F90DF91CF911F91FF90EF90B1
:105850000895FF920F931F93CF93DF93182FF62E87
:10586000022F9091E500916092609093E5009A017B
:10587000A0EBB2E00E94283124E630E040E050E0A6
:105880000E940031E901F901E456F109F093430364
:10589000E0934203F0931902E093180230939B02C5
:1058A00020939A0230930B0120930A01283231058C
:1058B000B0F444E150E050939B0240939A0250931D
:1058C0000B0140930A014AE050E050934303409398
:1058D00042035093190240931802C8E2D0E0612FAE
:1058E000812F0E9425248F2D0E94362410924D0373
:1058F00010924C0310923F0310923E03D093A302E8
:10590000C093A202D0939001C0938F018091E500D3
:1059100080935203E0916500F091660009950023A1
:1059200039F00E944824811103C00E94872BF9CFCF
:10593000DF91CF911F910F91FF900895CF931BBAE4
:1059400018BA15BAC1E0C2BB1ABA88E587BB8CE8A1
:1059500084BB82EF81BBF894C598BD9A97980E944A
:105960009C2610BC8CE089B91BB886E880BD88E90C
:105970008AB917B886E186B910BE85E085BF80EE8A
:105980008BBF14BE8AE083BF83E68CBF82EA8FBDE3
:1059900081E18EBD82ED90E097BD86BD1ABC18BC3A
:1059A00060E080E00E947D2489E085BD8EE683BDB5
:1059B00082E089BF80918C01816080938C01C093CB
:1059C00064007894CF9108955D9BFECF8CB90895C3
:1059D000CF93DF93EC018991882319F00E94E42C86
:1059E000FACFDF91CF910895CF93DF93FC0184919B
:1059F000EF012196882321F00E94E42CFE01F7CFCD
:105A0000DF91CF9108950F931F93CF93DF931F9250
:105A1000CDB7DEB78C01040F111DF80181918F0104
:105A2000882341F0662331F069830E94E42C698168
:105A30006150F3CF0F90DF91CF911F910F91089597
:105A4000CF93DF93CDB7DEB761970FB6F894DEBF83
:105A50000FBECDBF462F50E0BE016F5F7F4F0E944B
:105A60005E31CE0101960E94E82C61960FB6F89443
:105A7000DEBF0FBECDBFDF91CF910895EF92FF92B1
:105A80000F931F93CF93DF93CDB7DEB761970FB618
:105A9000F894DEBF0FBECDBF042F462F50E09E010D
:105AA0002F5F3F4F7901B9010E945E31F7010190EC
:105AB0000020E9F73197EE19FF09102F1E1B111670
:105AC00054F4115080E30E94E42C1111FACFC70165
:105AD0000E94E82C06C0412F4195602FC7010E940B
